{"contracts/LicenseMarketplace.sol":{"LicenseMarketplace":{"abi":[{"inputs":[],"stateMutability":"nonpayable","type":"constructor"},{"anonymous":false,"inputs":[{"indexed":true,"internalType":"address","name":"owner","type":"address"},{"indexed":true,"internalType":"address","name":"buyer","type":"address"},{"indexed":false,"internalType":"string","name":"fileName","type":"string"}],"name":"FileLicense","type":"event"},{"anonymous":false,"inputs":[{"indexed":true,"internalType":"address","name":"owner","type":"address"},{"indexed":false,"internalType":"string","name":"fileName","type":"string"}],"name":"FileShared","type":"event"},{"anonymous":false,"inputs":[{"indexed":true,"internalType":"uint256","name":"requestId","type":"uint256"},{"indexed":false,"internalType":"uint256","name":"fileId","type":"uint256"},{"indexed":false,"internalType":"address","name":"requester","type":"address"},{"indexed":false,"internalType":"address","name":"fileOwner","type":"address"}],"name":"LicenseRequestApproved","type":"event"},{"anonymous":false,"inputs":[{"indexed":true,"internalType":"uint256","name":"requestId","type":"uint256"},{"indexed":false,"internalType":"uint256","name":"fileId","type":"uint256"},{"indexed":false,"internalType":"address","name":"requester","type":"address"},{"indexed":false,"internalType":"address","name":"fileOwner","type":"address"}],"name":"LicenseRequestCreated","type":"event"},{"anonymous":false,"inputs":[{"indexed":true,"internalType":"uint256","name":"requestId","type":"uint256"},{"indexed":false,"internalType":"uint256","name":"fileId","type":"uint256"},{"indexed":false,"internalType":"address","name":"requester","type":"address"},{"indexed":false,"internalType":"address","name":"fileOwner","type":"address"}],"name":"LicenseRequestRejected","type":"event"},{"inputs":[{"internalType":"uint256","name":"_requestId","type":"uint256"}],"name":"approveLicenseRequest","outputs":[],"stateMutability":"nonpayable","type":"function"},{"inputs":[{"internalType":"string","name":"_fileName","type":"string"},{"internalType":"string","name":"_description","type":"string"},{"internalType":"string","name":"_category","type":"string"},{"internalType":"string","name":"_fileCid","type":"string"},{"internalType":"uint256","name":"_fileSize","type":"uint256"}],"name":"createFile","outputs":[],"stateMutability":"nonpayable","type":"function"},{"inputs":[],"name":"fileId","outputs":[{"internalType":"uint256","name":"","type":"uint256"}],"stateMutability":"view","type":"function"},{"inputs":[],"name":"getAllPublicFiles","outputs":[{"components":[{"internalType":"uint256","name":"id","type":"uint256"},{"internalType":"address","name":"fileOwner","type":"address"},{"internalType":"string","name":"fileName","type":"string"},{"internalType":"string","name":"description","type":"string"},{"internalType":"string","name":"category","type":"string"},{"internalType":"string","name":"fileCid","type":"string"},{"internalType":"uint256","name":"fileSize","type":"uint256"},{"internalType":"uint256","name":"createdAt","type":"uint256"}],"internalType":"struct LicenseMarketplace.File[]","name":"","type":"tuple[]"}],"stateMutability":"view","type":"function"},{"inputs":[],"name":"getAllUserFiles","outputs":[{"components":[{"internalType":"uint256","name":"id","type":"uint256"},{"internalType":"address","name":"fileOwner","type":"address"},{"internalType":"string","name":"fileName","type":"string"},{"internalType":"string","name":"description","type":"string"},{"internalType":"string","name":"category","type":"string"},{"internalType":"string","name":"fileCid","type":"string"},{"internalType":"uint256","name":"fileSize","type":"uint256"},{"internalType":"uint256","name":"createdAt","type":"uint256"}],"internalType":"struct LicenseMarketplace.File[]","name":"","type":"tuple[]"}],"stateMutability":"view","type":"function"},{"inputs":[],"name":"getAllUserLicenses","outputs":[{"components":[{"internalType":"uint256","name":"licenseNumber","type":"uint256"},{"internalType":"uint256","name":"fileId","type":"uint256"},{"internalType":"address","name":"fileOwner","type":"address"},{"internalType":"address","name":"buyer","type":"address"},{"internalType":"string","name":"fileName","type":"string"},{"internalType":"string","name":"description","type":"string"},{"internalType":"string","name":"category","type":"string"},{"internalType":"string","name":"fileCid","type":"string"},{"internalType":"uint256","name":"fileSize","type":"uint256"},{"internalType":"uint256","name":"createdAt","type":"uint256"}],"internalType":"struct LicenseMarketplace.License[]","name":"","type":"tuple[]"}],"stateMutability":"view","type":"function"},{"inputs":[],"name":"getFileId","outputs":[{"internalType":"uint256","name":"","type":"uint256"}],"stateMutability":"view","type":"function"},{"inputs":[],"name":"getFileOwnerLicenseRequests","outputs":[{"components":[{"internalType":"uint256","name":"requestId","type":"uint256"},{"internalType":"uint256","name":"fileId","type":"uint256"},{"internalType":"address","name":"requester","type":"address"},{"internalType":"address","name":"fileOwner","type":"address"},{"internalType":"bool","name":"isApproved","type":"bool"}],"internalType":"struct LicenseMarketplace.LicenseRequest[]","name":"","type":"tuple[]"}],"stateMutability":"view","type":"function"},{"inputs":[{"internalType":"uint256","name":"_id","type":"uint256"}],"name":"getPublicFileById","outputs":[{"components":[{"internalType":"uint256","name":"id","type":"uint256"},{"internalType":"address","name":"fileOwner","type":"address"},{"internalType":"string","name":"fileName","type":"string"},{"internalType":"string","name":"description","type":"string"},{"internalType":"string","name":"category","type":"string"},{"internalType":"string","name":"fileCid","type":"string"},{"internalType":"uint256","name":"fileSize","type":"uint256"},{"internalType":"uint256","name":"createdAt","type":"uint256"}],"internalType":"struct LicenseMarketplace.File","name":"","type":"tuple"}],"stateMutability":"view","type":"function"},{"inputs":[],"name":"getPublicFiles","outputs":[{"components":[{"internalType":"uint256","name":"id","type":"uint256"},{"internalType":"address","name":"fileOwner","type":"address"},{"internalType":"string","name":"fileName","type":"string"},{"internalType":"string","name":"description","type":"string"},{"internalType":"string","name":"category","type":"string"},{"internalType":"string","name":"fileCid","type":"string"},{"internalType":"uint256","name":"fileSize","type":"uint256"},{"internalType":"uint256","name":"createdAt","type":"uint256"}],"internalType":"struct LicenseMarketplace.File[]","name":"","type":"tuple[]"}],"stateMutability":"view","type":"function"},{"inputs":[],"name":"getUserLicenseRequests","outputs":[{"components":[{"internalType":"uint256","name":"requestId","type":"uint256"},{"internalType":"uint256","name":"fileId","type":"uint256"},{"internalType":"address","name":"requester","type":"address"},{"internalType":"address","name":"fileOwner","type":"address"},{"internalType":"bool","name":"isApproved","type":"bool"}],"internalType":"struct LicenseMarketplace.LicenseRequest[]","name":"","type":"tuple[]"}],"stateMutability":"view","type":"function"},{"inputs":[{"internalType":"address","name":"_user","type":"address"},{"internalType":"uint256","name":"_fileId","type":"uint256"}],"name":"isFileOwnedOrLicensed","outputs":[{"internalType":"bool","name":"","type":"bool"}],"stateMutability":"view","type":"function"},{"inputs":[],"name":"owner","outputs":[{"internalType":"address","name":"","type":"address"}],"stateMutability":"view","type":"function"},{"inputs":[{"internalType":"uint256","name":"","type":"uint256"}],"name":"publicFiles","outputs":[{"internalType":"uint256","name":"id","type":"uint256"},{"internalType":"address","name":"fileOwner","type":"address"},{"internalType":"string","name":"fileName","type":"string"},{"internalType":"string","name":"description","type":"string"},{"internalType":"string","name":"category","type":"string"},{"internalType":"string","name":"fileCid","type":"string"},{"internalType":"uint256","name":"fileSize","type":"uint256"},{"internalType":"uint256","name":"createdAt","type":"uint256"}],"stateMutability":"view","type":"function"},{"inputs":[{"internalType":"uint256","name":"_requestId","type":"uint256"}],"name":"rejectLicenseRequest","outputs":[],"stateMutability":"nonpayable","type":"function"},{"inputs":[],"name":"requestId","outputs":[{"internalType":"uint256","name":"","type":"uint256"}],"stateMutability":"view","type":"function"},{"inputs":[{"internalType":"uint256","name":"_fileId","type":"uint256"},{"internalType":"address","name":"_fileOwner","type":"address"}],"name":"requestLicense","outputs":[],"stateMutability":"nonpayable","type":"function"},{"inputs":[{"internalType":"uint256","name":"","type":"uint256"}],"name":"usedLicenses","outputs":[{"internalType":"bool","name":"","type":"bool"}],"stateMutability":"view","type":"function"},{"inputs":[{"internalType":"uint256","name":"licenseNumber","type":"uint256"}],"name":"validateLicense","outputs":[{"internalType":"bool","name":"","type":"bool"}],"stateMutability":"view","type":"function"}],"evm":{"bytecode":{"linkReferences":{},"object":"608060405234801561001057600080fd5b50600080546001600160a01b0319163317905561296f806100326000396000f3fe608060405234801561001057600080fd5b50600436106101205760003560e01c806395d892a1116100ad578063b98e644d11610071578063b98e644d14610285578063c3ba2cd91461029a578063db58b57f146102a2578063e399e268146102b5578063e90b39ec146102ca57600080fd5b806395d892a11461022f578063a6b9bcf614610244578063a764b9cd1461024c578063b2206ade1461025f578063b448bb2d1461027257600080fd5b80634506708e116100f45780634506708e1461017e5780635f70a8fe146101a5578063641b66e4146101d8578063787a37b9146101e15780638da5cb5b1461020457600080fd5b80626d6cae146101255780630cc6f1a21461014157806337ef9440146101615780634018759914610176575b600080fd5b61012e60075481565b6040519081526020015b60405180910390f35b61015461014f3660046121fb565b6102d2565b6040516101389190612304565b610169610673565b604051610138919061231e565b61012e610817565b61019161018c3660046121fb565b61082d565b60405161013898979695949392919061239c565b6101c86101b33660046121fb565b60009081526004602052604090205460ff1690565b6040519015158152602001610138565b61012e60065481565b6101c86101ef3660046121fb565b60046020526000908152604090205460ff1681565b600054610217906001600160a01b031681565b6040516001600160a01b039091168152602001610138565b61024261023d366004612437565b610aac565b005b610169610c16565b61024261025a3660046121fb565b610db3565b61024261026d366004612506565b6110b8565b6102426102803660046121fb565b611316565b61028d611489565b60405161013891906125bb565b61028d611765565b6101c86102b036600461261f565b611a43565b6102bd611b43565b6040516101389190612649565b61028d611e3c565b6103236040518061010001604052806000815260200160006001600160a01b031681526020016060815260200160608152602001606081526020016060815260200160008152602001600081525090565b60005b60055481101561062d57826005828154811061034457610344612761565b90600052602060002090600802016000015403610625576005818154811061036e5761036e612761565b906000526020600020906008020160405180610100016040529081600082015481526020016001820160009054906101000a90046001600160a01b03166001600160a01b03166001600160a01b031681526020016002820180546103d190612777565b80601f01602080910402602001604051908101604052809291908181526020018280546103fd90612777565b801561044a5780601f1061041f5761010080835404028352916020019161044a565b820191906000526020600020905b81548152906001019060200180831161042d57829003601f168201915b5050505050815260200160038201805461046390612777565b80601f016020809104026020016040519081016040528092919081815260200182805461048f90612777565b80156104dc5780601f106104b1576101008083540402835291602001916104dc565b820191906000526020600020905b8154815290600101906020018083116104bf57829003601f168201915b505050505081526020016004820180546104f590612777565b80601f016020809104026020016040519081016040528092919081815260200182805461052190612777565b801561056e5780601f106105435761010080835404028352916020019161056e565b820191906000526020600020905b81548152906001019060200180831161055157829003601f168201915b5050505050815260200160058201805461058790612777565b80601f01602080910402602001604051908101604052809291908181526020018280546105b390612777565b80156106005780601f106105d557610100808354040283529160200191610600565b820191906000526020600020905b8154815290600101906020018083116105e357829003601f168201915b5050505050815260200160068201548152602001600782015481525050915050919050565b600101610326565b5060405162461bcd60e51b8152602060048201526015602482015274141d589b1a58c8199a5b19481b9bdd08199bdd5b99605a1b60448201526064015b60405180910390fd5b6060600060015b60075481116106c657600081815260036020526040902060020154336001600160a01b03909116036106b457816106b0816127c7565b9250505b806106be816127c7565b91505061067a565b5060008167ffffffffffffffff8111156106e2576106e2612463565b60405190808252806020026020018201604052801561073b57816020015b6040805160a0810182526000808252602080830182905292820181905260608201819052608082015282526000199092019101816107005790505b509050600060015b600754811161080e57600081815260036020526040902060020154336001600160a01b03909116036107fc57600081815260036020818152604092839020835160a0810185528154815260018201549281019290925260028101546001600160a01b0390811694830194909452909101549182166060820152600160a01b90910460ff161515608082015283518490849081106107e2576107e2612761565b602002602001018190525081806107f8906127c7565b9250505b80610806816127c7565b915050610743565b50909392505050565b6000600654600161082891906127e0565b905090565b6005818154811061083d57600080fd5b60009182526020909120600890910201805460018201546002830180549294506001600160a01b03909116929161087390612777565b80601f016020809104026020016040519081016040528092919081815260200182805461089f90612777565b80156108ec5780601f106108c1576101008083540402835291602001916108ec565b820191906000526020600020905b8154815290600101906020018083116108cf57829003601f168201915b50505050509080600301805461090190612777565b80601f016020809104026020016040519081016040528092919081815260200182805461092d90612777565b801561097a5780601f1061094f5761010080835404028352916020019161097a565b820191906000526020600020905b81548152906001019060200180831161095d57829003601f168201915b50505050509080600401805461098f90612777565b80601f01602080910402602001604051908101604052809291908181526020018280546109bb90612777565b8015610a085780601f106109dd57610100808354040283529160200191610a08565b820191906000526020600020905b8154815290600101906020018083116109eb57829003601f168201915b505050505090806005018054610a1d90612777565b80601f0160208091040260200160405190810160405280929190818152602001828054610a4990612777565b8015610a965780601f10610a6b57610100808354040283529160200191610a96565b820191906000526020600020905b815481529060010190602001808311610a7957829003601f168201915b5050505050908060060154908060070154905088565b610ab63383611a43565b15610b1c5760405162461bcd60e51b815260206004820152603060248201527f5573657220616c7265616479206f776e73206f72206861732061206c6963656e60448201526f736520666f7220746869732066696c6560801b606482015260840161066a565b60078054906000610b2c836127c7565b90915550506040805160a081018252600780548083526020808401878152338587018181526001600160a01b038981166060808a01828152600060808c018181529981526003808a52908d90208c5181559751600189015594516002880180549186166001600160a01b03199092169190911790555195909301805497511515600160a01b026001600160a81b0319909816959092169490941795909517909455935486518981529283019490945294810194909452919290917f3563c2ab88374e4253e716e489b51ed99c61edfecc313080b65cb94efb16b3aa910160405180910390a2505050565b6060600060015b6007548111610c6a5760008181526003602081905260409091200154336001600160a01b0390911603610c585781610c54816127c7565b9250505b80610c62816127c7565b915050610c1d565b5060008167ffffffffffffffff811115610c8657610c86612463565b604051908082528060200260200182016040528015610cdf57816020015b6040805160a081018252600080825260208083018290529282018190526060820181905260808201528252600019909201910181610ca45790505b509050600060015b600754811161080e5760008181526003602081905260409091200154336001600160a01b0390911603610da157600081815260036020818152604092839020835160a0810185528154815260018201549281019290925260028101546001600160a01b0390811694830194909452909101549182166060820152600160a01b90910460ff16151560808201528351849084908110610d8757610d87612761565b60200260200101819052508180610d9d906127c7565b9250505b80610dab816127c7565b915050610ce7565b6000818152600360208190526040909120908101546001600160a01b03163314610e335760405162461bcd60e51b815260206004820152602b60248201527f4f6e6c79207468652066696c65206f776e65722063616e20617070726f76652060448201526a1d1a19481c995c5d595cdd60aa1b606482015260840161066a565b6003810154600160a01b900460ff1615610e8a5760405162461bcd60e51b815260206004820152601860248201527714995c5d595cdd08185b1c9958591e48185c1c1c9bdd995960421b604482015260640161066a565b60038101805460ff60a01b1916600160a01b1790556001810154600090610eb0906102d2565b90506000610ebc61210f565b604080516101408101825282815284516020808301918252808701516001600160a01b0390811684860190815260028a810154831660608088018281528c8a01516080808b01918252928e015160a0808c0191909152928e015160c0808c0191909152928e015160e08b0152918d01516101008a0152426101208a01526000928352838752988220805460018082018355918452969092208851600a90970201958655955190850155905190830180546001600160a01b0319908116928416929092179055945160038301805490961691161790935551929350918291906004820190610fa99082612844565b5060a08201516005820190610fbe9082612844565b5060c08201516006820190610fd39082612844565b5060e08201516007820190610fe89082612844565b506101008201516008820155610120909101516009909101556002840154602084015160408086015190516001600160a01b0393841693909216917f36b71a34b45297c2eddbb6d8a95b9703618f6300d0676fa891c58bcdaa90dbb39161104e91612904565b60405180910390a3600184015460028501546003860154604080519384526001600160a01b03928316602085015291169082015285907f6e12100d9a45da1a9e96a9fc000ff4db7bfc27cc43fdf07dab275b581483fb499060600160405180910390a25050505050565b600680549060006110c8836127c7565b9091555050604080516101008101825260065481523360208083018281528385018a8152606085018a90526080850189905260a0850188905260c085018790524260e086015260009384526001808452958420805480880182559085529290932084516008909302019182555193810180546001600160a01b0319166001600160a01b03909516949094179093555190918291600282019061116a9082612844565b506060820151600382019061117f9082612844565b50608082015160048201906111949082612844565b5060a082015160058201906111a99082612844565b5060c0820151600682015560e0909101516007909101556005805460018101825560009190915281517f036b6384b5eca791c62761152d0c79bb0604c104a5fb6f4eb0703f3154bb3db0600890920291820190815560208301517f036b6384b5eca791c62761152d0c79bb0604c104a5fb6f4eb0703f3154bb3db1830180546001600160a01b0319166001600160a01b03909216919091179055604083015183927f036b6384b5eca791c62761152d0c79bb0604c104a5fb6f4eb0703f3154bb3db201906112779082612844565b506060820151600382019061128c9082612844565b50608082015160048201906112a19082612844565b5060a082015160058201906112b69082612844565b5060c0820151816006015560e082015181600701555050336001600160a01b03167f0e03c7e37ad39057585e52c6e4f117a61225036a88a2ada7f870a6b994a1bc21876040516113069190612904565b60405180910390a2505050505050565b6000818152600360208190526040909120908101546001600160a01b031633146113955760405162461bcd60e51b815260206004820152602a60248201527f4f6e6c79207468652066696c65206f776e65722063616e2072656a65637420746044820152691a19481c995c5d595cdd60b21b606482015260840161066a565b6003810154600160a01b900460ff16156113ec5760405162461bcd60e51b815260206004820152601860248201527714995c5d595cdd08185b1c9958591e48185c1c1c9bdd995960421b604482015260640161066a565b6000828152600360208181526040808420848155600180820195909555600280820180546001600160a01b031916905590840180546001600160a81b031916905593850154938501549285015481519485526001600160a01b039384169285019290925291169082015282907f23bc048e2726b66e4b6df842e8940378c39ead4ceeeabbbe237bd71caf10603b9060600160405180910390a25050565b60606005805480602002602001604051908101604052809291908181526020016000905b8282101561175c5760008481526020908190206040805161010081018252600886029092018054835260018101546001600160a01b0316938301939093526002830180549293929184019161150190612777565b80601f016020809104026020016040519081016040528092919081815260200182805461152d90612777565b801561157a5780601f1061154f5761010080835404028352916020019161157a565b820191906000526020600020905b81548152906001019060200180831161155d57829003601f168201915b5050505050815260200160038201805461159390612777565b80601f01602080910402602001604051908101604052809291908181526020018280546115bf90612777565b801561160c5780601f106115e15761010080835404028352916020019161160c565b820191906000526020600020905b8154815290600101906020018083116115ef57829003601f168201915b5050505050815260200160048201805461162590612777565b80601f016020809104026020016040519081016040528092919081815260200182805461165190612777565b801561169e5780601f106116735761010080835404028352916020019161169e565b820191906000526020600020905b81548152906001019060200180831161168157829003601f168201915b505050505081526020016005820180546116b790612777565b80601f01602080910402602001604051908101604052809291908181526020018280546116e390612777565b80156117305780601f1061170557610100808354040283529160200191611730565b820191906000526020600020905b81548152906001019060200180831161171357829003601f168201915b5050505050815260200160068201548152602001600782015481525050815260200190600101906114ad565b50505050905090565b336000908152600160209081526040808320805482518185028101850190935280835260609492939192909184015b8282101561175c5760008481526020908190206040805161010081018252600886029092018054835260018101546001600160a01b031693830193909352600283018054929392918401916117e890612777565b80601f016020809104026020016040519081016040528092919081815260200182805461181490612777565b80156118615780601f1061183657610100808354040283529160200191611861565b820191906000526020600020905b81548152906001019060200180831161184457829003601f168201915b5050505050815260200160038201805461187a90612777565b80601f01602080910402602001604051908101604052809291908181526020018280546118a690612777565b80156118f35780601f106118c8576101008083540402835291602001916118f3565b820191906000526020600020905b8154815290600101906020018083116118d657829003601f168201915b5050505050815260200160048201805461190c90612777565b80601f016020809104026020016040519081016040528092919081815260200182805461193890612777565b80156119855780601f1061195a57610100808354040283529160200191611985565b820191906000526020600020905b81548152906001019060200180831161196857829003601f168201915b5050505050815260200160058201805461199e90612777565b80601f01602080910402602001604051908101604052809291908181526020018280546119ca90612777565b8015611a175780601f106119ec57610100808354040283529160200191611a17565b820191906000526020600020905b8154815290600101906020018083116119fa57829003601f168201915b505050505081526020016006820154815260200160078201548152505081526020019060010190611794565b6000805b6001600160a01b038416600090815260016020526040902054811015611abd576001600160a01b0384166000908152600160205260409020805484919083908110611a9457611a94612761565b90600052602060002090600802016000015403611ab5576001915050611b3d565b600101611a47565b5060005b6001600160a01b038416600090815260026020526040902054811015611b37576001600160a01b0384166000908152600260205260409020805484919083908110611b0e57611b0e612761565b90600052602060002090600a02016001015403611b2f576001915050611b3d565b600101611ac1565b50600090505b92915050565b336000908152600260209081526040808320805482518185028101850190935280835260609492939192909184015b8282101561175c5760008481526020908190206040805161014081018252600a86029092018054835260018101549383019390935260028301546001600160a01b03908116918301919091526003830154166060820152600482018054919291608084019190611be190612777565b80601f0160208091040260200160405190810160405280929190818152602001828054611c0d90612777565b8015611c5a5780601f10611c2f57610100808354040283529160200191611c5a565b820191906000526020600020905b815481529060010190602001808311611c3d57829003601f168201915b50505050508152602001600582018054611c7390612777565b80601f0160208091040260200160405190810160405280929190818152602001828054611c9f90612777565b8015611cec5780601f10611cc157610100808354040283529160200191611cec565b820191906000526020600020905b815481529060010190602001808311611ccf57829003601f168201915b50505050508152602001600682018054611d0590612777565b80601f0160208091040260200160405190810160405280929190818152602001828054611d3190612777565b8015611d7e5780601f10611d5357610100808354040283529160200191611d7e565b820191906000526020600020905b815481529060010190602001808311611d6157829003601f168201915b50505050508152602001600782018054611d9790612777565b80601f0160208091040260200160405190810160405280929190818152602001828054611dc390612777565b8015611e105780601f10611de557610100808354040283529160200191611e10565b820191906000526020600020905b815481529060010190602001808311611df357829003601f168201915b505050505081526020016008820154815260200160098201548152505081526020019060010190611b72565b60606005805480602002602001604051908101604052809291908181526020016000905b8282101561175c5760008481526020908190206040805161010081018252600886029092018054835260018101546001600160a01b03169383019390935260028301805492939291840191611eb490612777565b80601f0160208091040260200160405190810160405280929190818152602001828054611ee090612777565b8015611f2d5780601f10611f0257610100808354040283529160200191611f2d565b820191906000526020600020905b815481529060010190602001808311611f1057829003601f168201915b50505050508152602001600382018054611f4690612777565b80601f0160208091040260200160405190810160405280929190818152602001828054611f7290612777565b8015611fbf5780601f10611f9457610100808354040283529160200191611fbf565b820191906000526020600020905b815481529060010190602001808311611fa257829003601f168201915b50505050508152602001600482018054611fd890612777565b80601f016020809104026020016040519081016040528092919081815260200182805461200490612777565b80156120515780601f1061202657610100808354040283529160200191612051565b820191906000526020600020905b81548152906001019060200180831161203457829003601f168201915b5050505050815260200160058201805461206a90612777565b80601f016020809104026020016040519081016040528092919081815260200182805461209690612777565b80156120e35780601f106120b8576101008083540402835291602001916120e3565b820191906000526020600020905b8154815290600101906020018083116120c657829003601f168201915b505050505081526020016006820154815260200160078201548152505081526020019060010190611e60565b6000804243403360405160200161214b93929190928352602083019190915260601b6bffffffffffffffffffffffff1916604082015260540190565b60408051601f198184030181529190528051602090910120905060006121766402540be40083612917565b90505b60008181526004602052604090205460ff16156121dc5781426040516020016121ac929190918252602082015260400190565b60408051601f19818403018152919052805160209091012091506121d56402540be40083612917565b9050612179565b6000818152600460205260409020805460ff1916600117905592915050565b60006020828403121561220d57600080fd5b5035919050565b6000815180845260005b8181101561223a5760208185018101518683018201520161221e565b506000602082860101526020601f19601f83011685010191505092915050565b600061010082518452602083015161227d60208601826001600160a01b03169052565b50604083015181604086015261229582860182612214565b915050606083015184820360608601526122af8282612214565b915050608083015184820360808601526122c98282612214565b91505060a083015184820360a08601526122e38282612214565b91505060c083015160c085015260e083015160e08501528091505092915050565b602081526000612317602083018461225a565b9392505050565b602080825282518282018190526000919060409081850190868401855b8281101561238f578151805185528681015187860152858101516001600160a01b03908116878701526060808301519091169086015260809081015115159085015260a0909301929085019060010161233b565b5091979650505050505050565b8881526001600160a01b0388166020820152610100604082018190526000906123c78382018a612214565b905082810360608401526123db8189612214565b905082810360808401526123ef8188612214565b905082810360a08401526124038187612214565b60c0840195909552505060e001529695505050505050565b80356001600160a01b038116811461243257600080fd5b919050565b6000806040838503121561244a57600080fd5b8235915061245a6020840161241b565b90509250929050565b634e487b7160e01b600052604160045260246000fd5b600082601f83011261248a57600080fd5b813567ffffffffffffffff808211156124a5576124a5612463565b604051601f8301601f19908116603f011681019082821181831017156124cd576124cd612463565b816040528381528660208588010111156124e657600080fd5b836020870160208301376000602085830101528094505050505092915050565b600080600080600060a0868803121561251e57600080fd5b853567ffffffffffffffff8082111561253657600080fd5b61254289838a01612479565b9650602088013591508082111561255857600080fd5b61256489838a01612479565b9550604088013591508082111561257a57600080fd5b61258689838a01612479565b9450606088013591508082111561259c57600080fd5b506125a988828901612479565b95989497509295608001359392505050565b600060208083016020845280855180835260408601915060408160051b87010192506020870160005b8281101561261257603f1988860301845261260085835161225a565b945092850192908501906001016125e4565b5092979650505050505050565b6000806040838503121561263257600080fd5b61263b8361241b565b946020939093013593505050565b600060208083018184528085518083526040925060408601915060408160051b87010184880160005b8381101561275357888303603f190185528151805184528781015188850152868101516001600160a01b0381168886015261014090506060828101516001600160a01b03811687830152505060808083015182828801526126d583880182612214565b9250505060a080830151868303828801526126f08382612214565b9250505060c0808301518683038288015261270b8382612214565b9250505060e080830151868303828801526127268382612214565b61010085810151908901526101209485015194909701939093525050509386019390860190600101612672565b509098975050505050505050565b634e487b7160e01b600052603260045260246000fd5b600181811c9082168061278b57607f821691505b6020821081036127ab57634e487b7160e01b600052602260045260246000fd5b50919050565b634e487b7160e01b600052601160045260246000fd5b6000600182016127d9576127d96127b1565b5060010190565b80820180821115611b3d57611b3d6127b1565b601f82111561283f576000816000526020600020601f850160051c8101602086101561281c5750805b601f850160051c820191505b8181101561283b57828155600101612828565b5050505b505050565b815167ffffffffffffffff81111561285e5761285e612463565b6128728161286c8454612777565b846127f3565b602080601f8311600181146128a7576000841561288f5750858301515b600019600386901b1c1916600185901b17855561283b565b600085815260208120601f198616915b828110156128d6578886015182559484019460019091019084016128b7565b50858210156128f45787850151600019600388901b60f8161c191681555b5050505050600190811b01905550565b6020815260006123176020830184612214565b60008261293457634e487b7160e01b600052601260045260246000fd5b50069056fea2646970667358221220b4ef9e6ab2410b450a5d20ff75dde078a998d5e16cdd4fa810859621fbf099c464736f6c63430008180033","opcodes":"PUSH1 0x80 PUSH1 0x40 MSTORE CALLVALUE DUP1 ISZERO PUSH2 0x10 JUMPI PUSH1 0x0 DUP1 REVERT JUMPDEST POP PUSH1 0x0 DUP1 SLOAD PUSH1 0x1 PUSH1 0x1 PUSH1 0xA0 SHL SUB NOT AND CALLER OR SWAP1 SSTORE PUSH2 0x296F DUP1 PUSH2 0x32 PUSH1 0x0 CODECOPY PUSH1 0x0 RETURN INVALID PUSH1 0x80 PUSH1 0x40 MSTORE CALLVALUE DUP1 ISZERO PUSH2 0x10 JUMPI PUSH1 0x0 DUP1 REVERT JUMPDEST POP PUSH1 0x4 CALLDATASIZE LT PUSH2 0x120 JUMPI PUSH1 0x0 CALLDATALOAD PUSH1 0xE0 SHR DUP1 PUSH4 0x95D892A1 GT PUSH2 0xAD JUMPI DUP1 PUSH4 0xB98E644D GT PUSH2 0x71 JUMPI DUP1 PUSH4 0xB98E644D EQ PUSH2 0x285 JUMPI DUP1 PUSH4 0xC3BA2CD9 EQ PUSH2 0x29A JUMPI DUP1 PUSH4 0xDB58B57F EQ PUSH2 0x2A2 JUMPI DUP1 PUSH4 0xE399E268 EQ PUSH2 0x2B5 JUMPI DUP1 PUSH4 0xE90B39EC EQ PUSH2 0x2CA JUMPI PUSH1 0x0 DUP1 REVERT JUMPDEST DUP1 PUSH4 0x95D892A1 EQ PUSH2 0x22F JUMPI DUP1 PUSH4 0xA6B9BCF6 EQ PUSH2 0x244 JUMPI DUP1 PUSH4 0xA764B9CD EQ PUSH2 0x24C JUMPI DUP1 PUSH4 0xB2206ADE EQ PUSH2 0x25F JUMPI DUP1 PUSH4 0xB448BB2D EQ PUSH2 0x272 JUMPI PUSH1 0x0 DUP1 REVERT JUMPDEST DUP1 PUSH4 0x4506708E GT PUSH2 0xF4 JUMPI DUP1 PUSH4 0x4506708E EQ PUSH2 0x17E JUMPI DUP1 PUSH4 0x5F70A8FE EQ PUSH2 0x1A5 JUMPI DUP1 PUSH4 0x641B66E4 EQ PUSH2 0x1D8 JUMPI DUP1 PUSH4 0x787A37B9 EQ PUSH2 0x1E1 JUMPI DUP1 PUSH4 0x8DA5CB5B EQ PUSH2 0x204 JUMPI PUSH1 0x0 DUP1 REVERT JUMPDEST DUP1 PUSH3 0x6D6CAE EQ PUSH2 0x125 JUMPI DUP1 PUSH4 0xCC6F1A2 EQ PUSH2 0x141 JUMPI DUP1 PUSH4 0x37EF9440 EQ PUSH2 0x161 JUMPI DUP1 PUSH4 0x40187599 EQ PUSH2 0x176 JUMPI JUMPDEST PUSH1 0x0 DUP1 REVERT JUMPDEST PUSH2 0x12E PUSH1 0x7 SLOAD DUP2 JUMP JUMPDEST PUSH1 0x40 MLOAD SWAP1 DUP2 MSTORE PUSH1 0x20 ADD JUMPDEST PUSH1 0x40 MLOAD DUP1 SWAP2 SUB SWAP1 RETURN JUMPDEST PUSH2 0x154 PUSH2 0x14F CALLDATASIZE PUSH1 0x4 PUSH2 0x21FB JUMP JUMPDEST PUSH2 0x2D2 JUMP JUMPDEST PUSH1 0x40 MLOAD PUSH2 0x138 SWAP2 SWAP1 PUSH2 0x2304 JUMP JUMPDEST PUSH2 0x169 PUSH2 0x673 JUMP JUMPDEST PUSH1 0x40 MLOAD PUSH2 0x138 SWAP2 SWAP1 PUSH2 0x231E JUMP JUMPDEST PUSH2 0x12E PUSH2 0x817 JUMP JUMPDEST PUSH2 0x191 PUSH2 0x18C CALLDATASIZE PUSH1 0x4 PUSH2 0x21FB JUMP JUMPDEST PUSH2 0x82D JUMP JUMPDEST PUSH1 0x40 MLOAD PUSH2 0x138 SWAP9 SWAP8 SWAP7 SWAP6 SWAP5 SWAP4 SWAP3 SWAP2 SWAP1 PUSH2 0x239C JUMP JUMPDEST PUSH2 0x1C8 PUSH2 0x1B3 CALLDATASIZE PUSH1 0x4 PUSH2 0x21FB JUMP JUMPDEST PUSH1 0x0 SWAP1 DUP2 MSTORE PUSH1 0x4 PUSH1 0x20 MSTORE PUSH1 0x40 SWAP1 KECCAK256 SLOAD PUSH1 0xFF AND SWAP1 JUMP JUMPDEST PUSH1 0x40 MLOAD SWAP1 ISZERO ISZERO DUP2 MSTORE PUSH1 0x20 ADD PUSH2 0x138 JUMP JUMPDEST PUSH2 0x12E PUSH1 0x6 SLOAD DUP2 JUMP JUMPDEST PUSH2 0x1C8 PUSH2 0x1EF CALLDATASIZE PUSH1 0x4 PUSH2 0x21FB JUMP JUMPDEST PUSH1 0x4 PUSH1 0x20 MSTORE PUSH1 0x0 SWAP1 DUP2 MSTORE PUSH1 0x40 SWAP1 KECCAK256 SLOAD PUSH1 0xFF AND DUP2 JUMP JUMPDEST PUSH1 0x0 SLOAD PUSH2 0x217 SWAP1 PUSH1 0x1 PUSH1 0x1 PUSH1 0xA0 SHL SUB AND DUP2 JUMP JUMPDEST PUSH1 0x40 MLOAD PUSH1 0x1 PUSH1 0x1 PUSH1 0xA0 SHL SUB SWAP1 SWAP2 AND DUP2 MSTORE PUSH1 0x20 ADD PUSH2 0x138 JUMP JUMPDEST PUSH2 0x242 PUSH2 0x23D CALLDATASIZE PUSH1 0x4 PUSH2 0x2437 JUMP JUMPDEST PUSH2 0xAAC JUMP JUMPDEST STOP JUMPDEST PUSH2 0x169 PUSH2 0xC16 JUMP JUMPDEST PUSH2 0x242 PUSH2 0x25A CALLDATASIZE PUSH1 0x4 PUSH2 0x21FB JUMP JUMPDEST PUSH2 0xDB3 JUMP JUMPDEST PUSH2 0x242 PUSH2 0x26D CALLDATASIZE PUSH1 0x4 PUSH2 0x2506 JUMP JUMPDEST PUSH2 0x10B8 JUMP JUMPDEST PUSH2 0x242 PUSH2 0x280 CALLDATASIZE PUSH1 0x4 PUSH2 0x21FB JUMP JUMPDEST PUSH2 0x1316 JUMP JUMPDEST PUSH2 0x28D PUSH2 0x1489 JUMP JUMPDEST PUSH1 0x40 MLOAD PUSH2 0x138 SWAP2 SWAP1 PUSH2 0x25BB JUMP JUMPDEST PUSH2 0x28D PUSH2 0x1765 JUMP JUMPDEST PUSH2 0x1C8 PUSH2 0x2B0 CALLDATASIZE PUSH1 0x4 PUSH2 0x261F JUMP JUMPDEST PUSH2 0x1A43 JUMP JUMPDEST PUSH2 0x2BD PUSH2 0x1B43 JUMP JUMPDEST PUSH1 0x40 MLOAD PUSH2 0x138 SWAP2 SWAP1 PUSH2 0x2649 JUMP JUMPDEST PUSH2 0x28D PUSH2 0x1E3C JUMP JUMPDEST PUSH2 0x323 PUSH1 0x40 MLOAD DUP1 PUSH2 0x100 ADD PUSH1 0x40 MSTORE DUP1 PUSH1 0x0 DUP2 MSTORE PUSH1 0x20 ADD PUSH1 0x0 PUSH1 0x1 PUSH1 0x1 PUSH1 0xA0 SHL SUB AND DUP2 MSTORE PUSH1 0x20 ADD PUSH1 0x60 DUP2 MSTORE PUSH1 0x20 ADD PUSH1 0x60 DUP2 MSTORE PUSH1 0x20 ADD PUSH1 0x60 DUP2 MSTORE PUSH1 0x20 ADD PUSH1 0x60 DUP2 MSTORE PUSH1 0x20 ADD PUSH1 0x0 DUP2 MSTORE PUSH1 0x20 ADD PUSH1 0x0 DUP2 MSTORE POP SWAP1 JUMP JUMPDEST PUSH1 0x0 JUMPDEST PUSH1 0x5 SLOAD DUP2 LT ISZERO PUSH2 0x62D JUMPI DUP3 PUSH1 0x5 DUP3 DUP2 SLOAD DUP2 LT PUSH2 0x344 JUMPI PUSH2 0x344 PUSH2 0x2761 JUMP JUMPDEST SWAP1 PUSH1 0x0 MSTORE PUSH1 0x20 PUSH1 0x0 KECCAK256 SWAP1 PUSH1 0x8 MUL ADD PUSH1 0x0 ADD SLOAD SUB PUSH2 0x625 JUMPI PUSH1 0x5 DUP2 DUP2 SLOAD DUP2 LT PUSH2 0x36E JUMPI PUSH2 0x36E PUSH2 0x2761 JUMP JUMPDEST SWAP1 PUSH1 0x0 MSTORE PUSH1 0x20 PUSH1 0x0 KECCAK256 SWAP1 PUSH1 0x8 MUL ADD PUSH1 0x40 MLOAD DUP1 PUSH2 0x100 ADD PUSH1 0x40 MSTORE SWAP1 DUP2 PUSH1 0x0 DUP3 ADD SLOAD DUP2 MSTORE PUSH1 0x20 ADD PUSH1 0x1 DUP3 ADD PUSH1 0x0 SWAP1 SLOAD SWAP1 PUSH2 0x100 EXP SWAP1 DIV PUSH1 0x1 PUSH1 0x1 PUSH1 0xA0 SHL SUB AND PUSH1 0x1 PUSH1 0x1 PUSH1 0xA0 SHL SUB AND PUSH1 0x1 PUSH1 0x1 PUSH1 0xA0 SHL SUB AND DUP2 MSTORE PUSH1 0x20 ADD PUSH1 0x2 DUP3 ADD DUP1 SLOAD PUSH2 0x3D1 SWAP1 PUSH2 0x2777 JUMP JUMPDEST DUP1 PUSH1 0x1F ADD PUSH1 0x20 DUP1 SWAP2 DIV MUL PUSH1 0x20 ADD PUSH1 0x40 MLOAD SWAP1 DUP2 ADD PUSH1 0x40 MSTORE DUP1 SWAP3 SWAP2 SWAP1 DUP2 DUP2 MSTORE PUSH1 0x20 ADD DUP3 DUP1 SLOAD PUSH2 0x3FD SWAP1 PUSH2 0x2777 JUMP JUMPDEST DUP1 ISZERO PUSH2 0x44A JUMPI DUP1 PUSH1 0x1F LT PUSH2 0x41F JUMPI PUSH2 0x100 DUP1 DUP4 SLOAD DIV MUL DUP4 MSTORE SWAP2 PUSH1 0x20 ADD SWAP2 PUSH2 0x44A JUMP JUMPDEST DUP3 ADD SWAP2 SWAP1 PUSH1 0x0 MSTORE PUSH1 0x20 PUSH1 0x0 KECCAK256 SWAP1 JUMPDEST DUP2 SLOAD DUP2 MSTORE SWAP1 PUSH1 0x1 ADD SWAP1 PUSH1 0x20 ADD DUP1 DUP4 GT PUSH2 0x42D JUMPI DUP3 SWAP1 SUB PUSH1 0x1F AND DUP3 ADD SWAP2 JUMPDEST POP POP POP POP POP DUP2 MSTORE PUSH1 0x20 ADD PUSH1 0x3 DUP3 ADD DUP1 SLOAD PUSH2 0x463 SWAP1 PUSH2 0x2777 JUMP JUMPDEST DUP1 PUSH1 0x1F ADD PUSH1 0x20 DUP1 SWAP2 DIV MUL PUSH1 0x20 ADD PUSH1 0x40 MLOAD SWAP1 DUP2 ADD PUSH1 0x40 MSTORE DUP1 SWAP3 SWAP2 SWAP1 DUP2 DUP2 MSTORE PUSH1 0x20 ADD DUP3 DUP1 SLOAD PUSH2 0x48F SWAP1 PUSH2 0x2777 JUMP JUMPDEST DUP1 ISZERO PUSH2 0x4DC JUMPI DUP1 PUSH1 0x1F LT PUSH2 0x4B1 JUMPI PUSH2 0x100 DUP1 DUP4 SLOAD DIV MUL DUP4 MSTORE SWAP2 PUSH1 0x20 ADD SWAP2 PUSH2 0x4DC JUMP JUMPDEST DUP3 ADD SWAP2 SWAP1 PUSH1 0x0 MSTORE PUSH1 0x20 PUSH1 0x0 KECCAK256 SWAP1 JUMPDEST DUP2 SLOAD DUP2 MSTORE SWAP1 PUSH1 0x1 ADD SWAP1 PUSH1 0x20 ADD DUP1 DUP4 GT PUSH2 0x4BF JUMPI DUP3 SWAP1 SUB PUSH1 0x1F AND DUP3 ADD SWAP2 JUMPDEST POP POP POP POP POP DUP2 MSTORE PUSH1 0x20 ADD PUSH1 0x4 DUP3 ADD DUP1 SLOAD PUSH2 0x4F5 SWAP1 PUSH2 0x2777 JUMP JUMPDEST DUP1 PUSH1 0x1F ADD PUSH1 0x20 DUP1 SWAP2 DIV MUL PUSH1 0x20 ADD PUSH1 0x40 MLOAD SWAP1 DUP2 ADD PUSH1 0x40 MSTORE DUP1 SWAP3 SWAP2 SWAP1 DUP2 DUP2 MSTORE PUSH1 0x20 ADD DUP3 DUP1 SLOAD PUSH2 0x521 SWAP1 PUSH2 0x2777 JUMP JUMPDEST DUP1 ISZERO PUSH2 0x56E JUMPI DUP1 PUSH1 0x1F LT PUSH2 0x543 JUMPI PUSH2 0x100 DUP1 DUP4 SLOAD DIV MUL DUP4 MSTORE SWAP2 PUSH1 0x20 ADD SWAP2 PUSH2 0x56E JUMP JUMPDEST DUP3 ADD SWAP2 SWAP1 PUSH1 0x0 MSTORE PUSH1 0x20 PUSH1 0x0 KECCAK256 SWAP1 JUMPDEST DUP2 SLOAD DUP2 MSTORE SWAP1 PUSH1 0x1 ADD SWAP1 PUSH1 0x20 ADD DUP1 DUP4 GT PUSH2 0x551 JUMPI DUP3 SWAP1 SUB PUSH1 0x1F AND DUP3 ADD SWAP2 JUMPDEST POP POP POP POP POP DUP2 MSTORE PUSH1 0x20 ADD PUSH1 0x5 DUP3 ADD DUP1 SLOAD PUSH2 0x587 SWAP1 PUSH2 0x2777 JUMP JUMPDEST DUP1 PUSH1 0x1F ADD PUSH1 0x20 DUP1 SWAP2 DIV MUL PUSH1 0x20 ADD PUSH1 0x40 MLOAD SWAP1 DUP2 ADD PUSH1 0x40 MSTORE DUP1 SWAP3 SWAP2 SWAP1 DUP2 DUP2 MSTORE PUSH1 0x20 ADD DUP3 DUP1 SLOAD PUSH2 0x5B3 SWAP1 PUSH2 0x2777 JUMP JUMPDEST DUP1 ISZERO PUSH2 0x600 JUMPI DUP1 PUSH1 0x1F LT PUSH2 0x5D5 JUMPI PUSH2 0x100 DUP1 DUP4 SLOAD DIV MUL DUP4 MSTORE SWAP2 PUSH1 0x20 ADD SWAP2 PUSH2 0x600 JUMP JUMPDEST DUP3 ADD SWAP2 SWAP1 PUSH1 0x0 MSTORE PUSH1 0x20 PUSH1 0x0 KECCAK256 SWAP1 JUMPDEST DUP2 SLOAD DUP2 MSTORE SWAP1 PUSH1 0x1 ADD SWAP1 PUSH1 0x20 ADD DUP1 DUP4 GT PUSH2 0x5E3 JUMPI DUP3 SWAP1 SUB PUSH1 0x1F AND DUP3 ADD SWAP2 JUMPDEST POP POP POP POP POP DUP2 MSTORE PUSH1 0x20 ADD PUSH1 0x6 DUP3 ADD SLOAD DUP2 MSTORE PUSH1 0x20 ADD PUSH1 0x7 DUP3 ADD SLOAD DUP2 MSTORE POP POP SWAP2 POP POP SWAP2 SWAP1 POP JUMP JUMPDEST PUSH1 0x1 ADD PUSH2 0x326 JUMP JUMPDEST POP PUSH1 0x40 MLOAD PUSH3 0x461BCD PUSH1 0xE5 SHL DUP2 MSTORE PUSH1 0x20 PUSH1 0x4 DUP3 ADD MSTORE PUSH1 0x15 PUSH1 0x24 DUP3 ADD MSTORE PUSH21 0x141D589B1A58C8199A5B19481B9BDD08199BDD5B99 PUSH1 0x5A SHL PUSH1 0x44 DUP3 ADD MSTORE PUSH1 0x64 ADD JUMPDEST PUSH1 0x40 MLOAD DUP1 SWAP2 SUB SWAP1 REVERT JUMPDEST PUSH1 0x60 PUSH1 0x0 PUSH1 0x1 JUMPDEST PUSH1 0x7 SLOAD DUP2 GT PUSH2 0x6C6 JUMPI PUSH1 0x0 DUP2 DUP2 MSTORE PUSH1 0x3 PUSH1 0x20 MSTORE PUSH1 0x40 SWAP1 KECCAK256 PUSH1 0x2 ADD SLOAD CALLER PUSH1 0x1 PUSH1 0x1 PUSH1 0xA0 SHL SUB SWAP1 SWAP2 AND SUB PUSH2 0x6B4 JUMPI DUP2 PUSH2 0x6B0 DUP2 PUSH2 0x27C7 JUMP JUMPDEST SWAP3 POP POP JUMPDEST DUP1 PUSH2 0x6BE DUP2 PUSH2 0x27C7 JUMP JUMPDEST SWAP2 POP POP PUSH2 0x67A JUMP JUMPDEST POP PUSH1 0x0 DUP2 PUSH8 0xFFFFFFFFFFFFFFFF DUP2 GT ISZERO PUSH2 0x6E2 JUMPI PUSH2 0x6E2 PUSH2 0x2463 JUMP JUMPDEST PUSH1 0x40 MLOAD SWAP1 DUP1 DUP3 MSTORE DUP1 PUSH1 0x20 MUL PUSH1 0x20 ADD DUP3 ADD PUSH1 0x40 MSTORE DUP1 ISZERO PUSH2 0x73B JUMPI DUP2 PUSH1 0x20 ADD JUMPDEST PUSH1 0x40 DUP1 MLOAD PUSH1 0xA0 DUP2 ADD DUP3 MSTORE PUSH1 0x0 DUP1 DUP3 MSTORE PUSH1 0x20 DUP1 DUP4 ADD DUP3 SWAP1 MSTORE SWAP3 DUP3 ADD DUP2 SWAP1 MSTORE PUSH1 0x60 DUP3 ADD DUP2 SWAP1 MSTORE PUSH1 0x80 DUP3 ADD MSTORE DUP3 MSTORE PUSH1 0x0 NOT SWAP1 SWAP3 ADD SWAP2 ADD DUP2 PUSH2 0x700 JUMPI SWAP1 POP JUMPDEST POP SWAP1 POP PUSH1 0x0 PUSH1 0x1 JUMPDEST PUSH1 0x7 SLOAD DUP2 GT PUSH2 0x80E JUMPI PUSH1 0x0 DUP2 DUP2 MSTORE PUSH1 0x3 PUSH1 0x20 MSTORE PUSH1 0x40 SWAP1 KECCAK256 PUSH1 0x2 ADD SLOAD CALLER PUSH1 0x1 PUSH1 0x1 PUSH1 0xA0 SHL SUB SWAP1 SWAP2 AND SUB PUSH2 0x7FC JUMPI PUSH1 0x0 DUP2 DUP2 MSTORE PUSH1 0x3 PUSH1 0x20 DUP2 DUP2 MSTORE PUSH1 0x40 SWAP3 DUP4 SWAP1 KECCAK256 DUP4 MLOAD PUSH1 0xA0 DUP2 ADD DUP6 MSTORE DUP2 SLOAD DUP2 MSTORE PUSH1 0x1 DUP3 ADD SLOAD SWAP3 DUP2 ADD SWAP3 SWAP1 SWAP3 MSTORE PUSH1 0x2 DUP2 ADD SLOAD PUSH1 0x1 PUSH1 0x1 PUSH1 0xA0 SHL SUB SWAP1 DUP2 AND SWAP5 DUP4 ADD SWAP5 SWAP1 SWAP5 MSTORE SWAP1 SWAP2 ADD SLOAD SWAP2 DUP3 AND PUSH1 0x60 DUP3 ADD MSTORE PUSH1 0x1 PUSH1 0xA0 SHL SWAP1 SWAP2 DIV PUSH1 0xFF AND ISZERO ISZERO PUSH1 0x80 DUP3 ADD MSTORE DUP4 MLOAD DUP5 SWAP1 DUP5 SWAP1 DUP2 LT PUSH2 0x7E2 JUMPI PUSH2 0x7E2 PUSH2 0x2761 JUMP JUMPDEST PUSH1 0x20 MUL PUSH1 0x20 ADD ADD DUP2 SWAP1 MSTORE POP DUP2 DUP1 PUSH2 0x7F8 SWAP1 PUSH2 0x27C7 JUMP JUMPDEST SWAP3 POP POP JUMPDEST DUP1 PUSH2 0x806 DUP2 PUSH2 0x27C7 JUMP JUMPDEST SWAP2 POP POP PUSH2 0x743 JUMP JUMPDEST POP SWAP1 SWAP4 SWAP3 POP POP POP JUMP JUMPDEST PUSH1 0x0 PUSH1 0x6 SLOAD PUSH1 0x1 PUSH2 0x828 SWAP2 SWAP1 PUSH2 0x27E0 JUMP JUMPDEST SWAP1 POP SWAP1 JUMP JUMPDEST PUSH1 0x5 DUP2 DUP2 SLOAD DUP2 LT PUSH2 0x83D JUMPI PUSH1 0x0 DUP1 REVERT JUMPDEST PUSH1 0x0 SWAP2 DUP3 MSTORE PUSH1 0x20 SWAP1 SWAP2 KECCAK256 PUSH1 0x8 SWAP1 SWAP2 MUL ADD DUP1 SLOAD PUSH1 0x1 DUP3 ADD SLOAD PUSH1 0x2 DUP4 ADD DUP1 SLOAD SWAP3 SWAP5 POP PUSH1 0x1 PUSH1 0x1 PUSH1 0xA0 SHL SUB SWAP1 SWAP2 AND SWAP3 SWAP2 PUSH2 0x873 SWAP1 PUSH2 0x2777 JUMP JUMPDEST DUP1 PUSH1 0x1F ADD PUSH1 0x20 DUP1 SWAP2 DIV MUL PUSH1 0x20 ADD PUSH1 0x40 MLOAD SWAP1 DUP2 ADD PUSH1 0x40 MSTORE DUP1 SWAP3 SWAP2 SWAP1 DUP2 DUP2 MSTORE PUSH1 0x20 ADD DUP3 DUP1 SLOAD PUSH2 0x89F SWAP1 PUSH2 0x2777 JUMP JUMPDEST DUP1 ISZERO PUSH2 0x8EC JUMPI DUP1 PUSH1 0x1F LT PUSH2 0x8C1 JUMPI PUSH2 0x100 DUP1 DUP4 SLOAD DIV MUL DUP4 MSTORE SWAP2 PUSH1 0x20 ADD SWAP2 PUSH2 0x8EC JUMP JUMPDEST DUP3 ADD SWAP2 SWAP1 PUSH1 0x0 MSTORE PUSH1 0x20 PUSH1 0x0 KECCAK256 SWAP1 JUMPDEST DUP2 SLOAD DUP2 MSTORE SWAP1 PUSH1 0x1 ADD SWAP1 PUSH1 0x20 ADD DUP1 DUP4 GT PUSH2 0x8CF JUMPI DUP3 SWAP1 SUB PUSH1 0x1F AND DUP3 ADD SWAP2 JUMPDEST POP POP POP POP POP SWAP1 DUP1 PUSH1 0x3 ADD DUP1 SLOAD PUSH2 0x901 SWAP1 PUSH2 0x2777 JUMP JUMPDEST DUP1 PUSH1 0x1F ADD PUSH1 0x20 DUP1 SWAP2 DIV MUL PUSH1 0x20 ADD PUSH1 0x40 MLOAD SWAP1 DUP2 ADD PUSH1 0x40 MSTORE DUP1 SWAP3 SWAP2 SWAP1 DUP2 DUP2 MSTORE PUSH1 0x20 ADD DUP3 DUP1 SLOAD PUSH2 0x92D SWAP1 PUSH2 0x2777 JUMP JUMPDEST DUP1 ISZERO PUSH2 0x97A JUMPI DUP1 PUSH1 0x1F LT PUSH2 0x94F JUMPI PUSH2 0x100 DUP1 DUP4 SLOAD DIV MUL DUP4 MSTORE SWAP2 PUSH1 0x20 ADD SWAP2 PUSH2 0x97A JUMP JUMPDEST DUP3 ADD SWAP2 SWAP1 PUSH1 0x0 MSTORE PUSH1 0x20 PUSH1 0x0 KECCAK256 SWAP1 JUMPDEST DUP2 SLOAD DUP2 MSTORE SWAP1 PUSH1 0x1 ADD SWAP1 PUSH1 0x20 ADD DUP1 DUP4 GT PUSH2 0x95D JUMPI DUP3 SWAP1 SUB PUSH1 0x1F AND DUP3 ADD SWAP2 JUMPDEST POP POP POP POP POP SWAP1 DUP1 PUSH1 0x4 ADD DUP1 SLOAD PUSH2 0x98F SWAP1 PUSH2 0x2777 JUMP JUMPDEST DUP1 PUSH1 0x1F ADD PUSH1 0x20 DUP1 SWAP2 DIV MUL PUSH1 0x20 ADD PUSH1 0x40 MLOAD SWAP1 DUP2 ADD PUSH1 0x40 MSTORE DUP1 SWAP3 SWAP2 SWAP1 DUP2 DUP2 MSTORE PUSH1 0x20 ADD DUP3 DUP1 SLOAD PUSH2 0x9BB SWAP1 PUSH2 0x2777 JUMP JUMPDEST DUP1 ISZERO PUSH2 0xA08 JUMPI DUP1 PUSH1 0x1F LT PUSH2 0x9DD JUMPI PUSH2 0x100 DUP1 DUP4 SLOAD DIV MUL DUP4 MSTORE SWAP2 PUSH1 0x20 ADD SWAP2 PUSH2 0xA08 JUMP JUMPDEST DUP3 ADD SWAP2 SWAP1 PUSH1 0x0 MSTORE PUSH1 0x20 PUSH1 0x0 KECCAK256 SWAP1 JUMPDEST DUP2 SLOAD DUP2 MSTORE SWAP1 PUSH1 0x1 ADD SWAP1 PUSH1 0x20 ADD DUP1 DUP4 GT PUSH2 0x9EB JUMPI DUP3 SWAP1 SUB PUSH1 0x1F AND DUP3 ADD SWAP2 JUMPDEST POP POP POP POP POP SWAP1 DUP1 PUSH1 0x5 ADD DUP1 SLOAD PUSH2 0xA1D SWAP1 PUSH2 0x2777 JUMP JUMPDEST DUP1 PUSH1 0x1F ADD PUSH1 0x20 DUP1 SWAP2 DIV MUL PUSH1 0x20 ADD PUSH1 0x40 MLOAD SWAP1 DUP2 ADD PUSH1 0x40 MSTORE DUP1 SWAP3 SWAP2 SWAP1 DUP2 DUP2 MSTORE PUSH1 0x20 ADD DUP3 DUP1 SLOAD PUSH2 0xA49 SWAP1 PUSH2 0x2777 JUMP JUMPDEST DUP1 ISZERO PUSH2 0xA96 JUMPI DUP1 PUSH1 0x1F LT PUSH2 0xA6B JUMPI PUSH2 0x100 DUP1 DUP4 SLOAD DIV MUL DUP4 MSTORE SWAP2 PUSH1 0x20 ADD SWAP2 PUSH2 0xA96 JUMP JUMPDEST DUP3 ADD SWAP2 SWAP1 PUSH1 0x0 MSTORE PUSH1 0x20 PUSH1 0x0 KECCAK256 SWAP1 JUMPDEST DUP2 SLOAD DUP2 MSTORE SWAP1 PUSH1 0x1 ADD SWAP1 PUSH1 0x20 ADD DUP1 DUP4 GT PUSH2 0xA79 JUMPI DUP3 SWAP1 SUB PUSH1 0x1F AND DUP3 ADD SWAP2 JUMPDEST POP POP POP POP POP SWAP1 DUP1 PUSH1 0x6 ADD SLOAD SWAP1 DUP1 PUSH1 0x7 ADD SLOAD SWAP1 POP DUP9 JUMP JUMPDEST PUSH2 0xAB6 CALLER DUP4 PUSH2 0x1A43 JUMP JUMPDEST ISZERO PUSH2 0xB1C JUMPI PUSH1 0x40 MLOAD PUSH3 0x461BCD PUSH1 0xE5 SHL DUP2 MSTORE PUSH1 0x20 PUSH1 0x4 DUP3 ADD MSTORE PUSH1 0x30 PUSH1 0x24 DUP3 ADD MSTORE PUSH32 0x5573657220616C7265616479206F776E73206F72206861732061206C6963656E PUSH1 0x44 DUP3 ADD MSTORE PUSH16 0x736520666F7220746869732066696C65 PUSH1 0x80 SHL PUSH1 0x64 DUP3 ADD MSTORE PUSH1 0x84 ADD PUSH2 0x66A JUMP JUMPDEST PUSH1 0x7 DUP1 SLOAD SWAP1 PUSH1 0x0 PUSH2 0xB2C DUP4 PUSH2 0x27C7 JUMP JUMPDEST SWAP1 SWAP2 SSTORE POP POP PUSH1 0x40 DUP1 MLOAD PUSH1 0xA0 DUP2 ADD DUP3 MSTORE PUSH1 0x7 DUP1 SLOAD DUP1 DUP4 MSTORE PUSH1 0x20 DUP1 DUP5 ADD DUP8 DUP2 MSTORE CALLER DUP6 DUP8 ADD DUP2 DUP2 MSTORE PUSH1 0x1 PUSH1 0x1 PUSH1 0xA0 SHL SUB DUP10 DUP2 AND PUSH1 0x60 DUP1 DUP11 ADD DUP3 DUP2 MSTORE PUSH1 0x0 PUSH1 0x80 DUP13 ADD DUP2 DUP2 MSTORE SWAP10 DUP2 MSTORE PUSH1 0x3 DUP1 DUP11 MSTORE SWAP1 DUP14 SWAP1 KECCAK256 DUP13 MLOAD DUP2 SSTORE SWAP8 MLOAD PUSH1 0x1 DUP10 ADD SSTORE SWAP5 MLOAD PUSH1 0x2 DUP9 ADD DUP1 SLOAD SWAP2 DUP7 AND PUSH1 0x1 PUSH1 0x1 PUSH1 0xA0 SHL SUB NOT SWAP1 SWAP3 AND SWAP2 SWAP1 SWAP2 OR SWAP1 SSTORE MLOAD SWAP6 SWAP1 SWAP4 ADD DUP1 SLOAD SWAP8 MLOAD ISZERO ISZERO PUSH1 0x1 PUSH1 0xA0 SHL MUL PUSH1 0x1 PUSH1 0x1 PUSH1 0xA8 SHL SUB NOT SWAP1 SWAP9 AND SWAP6 SWAP1 SWAP3 AND SWAP5 SWAP1 SWAP5 OR SWAP6 SWAP1 SWAP6 OR SWAP1 SWAP5 SSTORE SWAP4 SLOAD DUP7 MLOAD DUP10 DUP2 MSTORE SWAP3 DUP4 ADD SWAP5 SWAP1 SWAP5 MSTORE SWAP5 DUP2 ADD SWAP5 SWAP1 SWAP5 MSTORE SWAP2 SWAP3 SWAP1 SWAP2 PUSH32 0x3563C2AB88374E4253E716E489B51ED99C61EDFECC313080B65CB94EFB16B3AA SWAP2 ADD PUSH1 0x40 MLOAD DUP1 SWAP2 SUB SWAP1 LOG2 POP POP POP JUMP JUMPDEST PUSH1 0x60 PUSH1 0x0 PUSH1 0x1 JUMPDEST PUSH1 0x7 SLOAD DUP2 GT PUSH2 0xC6A JUMPI PUSH1 0x0 DUP2 DUP2 MSTORE PUSH1 0x3 PUSH1 0x20 DUP2 SWAP1 MSTORE PUSH1 0x40 SWAP1 SWAP2 KECCAK256 ADD SLOAD CALLER PUSH1 0x1 PUSH1 0x1 PUSH1 0xA0 SHL SUB SWAP1 SWAP2 AND SUB PUSH2 0xC58 JUMPI DUP2 PUSH2 0xC54 DUP2 PUSH2 0x27C7 JUMP JUMPDEST SWAP3 POP POP JUMPDEST DUP1 PUSH2 0xC62 DUP2 PUSH2 0x27C7 JUMP JUMPDEST SWAP2 POP POP PUSH2 0xC1D JUMP JUMPDEST POP PUSH1 0x0 DUP2 PUSH8 0xFFFFFFFFFFFFFFFF DUP2 GT ISZERO PUSH2 0xC86 JUMPI PUSH2 0xC86 PUSH2 0x2463 JUMP JUMPDEST PUSH1 0x40 MLOAD SWAP1 DUP1 DUP3 MSTORE DUP1 PUSH1 0x20 MUL PUSH1 0x20 ADD DUP3 ADD PUSH1 0x40 MSTORE DUP1 ISZERO PUSH2 0xCDF JUMPI DUP2 PUSH1 0x20 ADD JUMPDEST PUSH1 0x40 DUP1 MLOAD PUSH1 0xA0 DUP2 ADD DUP3 MSTORE PUSH1 0x0 DUP1 DUP3 MSTORE PUSH1 0x20 DUP1 DUP4 ADD DUP3 SWAP1 MSTORE SWAP3 DUP3 ADD DUP2 SWAP1 MSTORE PUSH1 0x60 DUP3 ADD DUP2 SWAP1 MSTORE PUSH1 0x80 DUP3 ADD MSTORE DUP3 MSTORE PUSH1 0x0 NOT SWAP1 SWAP3 ADD SWAP2 ADD DUP2 PUSH2 0xCA4 JUMPI SWAP1 POP JUMPDEST POP SWAP1 POP PUSH1 0x0 PUSH1 0x1 JUMPDEST PUSH1 0x7 SLOAD DUP2 GT PUSH2 0x80E JUMPI PUSH1 0x0 DUP2 DUP2 MSTORE PUSH1 0x3 PUSH1 0x20 DUP2 SWAP1 MSTORE PUSH1 0x40 SWAP1 SWAP2 KECCAK256 ADD SLOAD CALLER PUSH1 0x1 PUSH1 0x1 PUSH1 0xA0 SHL SUB SWAP1 SWAP2 AND SUB PUSH2 0xDA1 JUMPI PUSH1 0x0 DUP2 DUP2 MSTORE PUSH1 0x3 PUSH1 0x20 DUP2 DUP2 MSTORE PUSH1 0x40 SWAP3 DUP4 SWAP1 KECCAK256 DUP4 MLOAD PUSH1 0xA0 DUP2 ADD DUP6 MSTORE DUP2 SLOAD DUP2 MSTORE PUSH1 0x1 DUP3 ADD SLOAD SWAP3 DUP2 ADD SWAP3 SWAP1 SWAP3 MSTORE PUSH1 0x2 DUP2 ADD SLOAD PUSH1 0x1 PUSH1 0x1 PUSH1 0xA0 SHL SUB SWAP1 DUP2 AND SWAP5 DUP4 ADD SWAP5 SWAP1 SWAP5 MSTORE SWAP1 SWAP2 ADD SLOAD SWAP2 DUP3 AND PUSH1 0x60 DUP3 ADD MSTORE PUSH1 0x1 PUSH1 0xA0 SHL SWAP1 SWAP2 DIV PUSH1 0xFF AND ISZERO ISZERO PUSH1 0x80 DUP3 ADD MSTORE DUP4 MLOAD DUP5 SWAP1 DUP5 SWAP1 DUP2 LT PUSH2 0xD87 JUMPI PUSH2 0xD87 PUSH2 0x2761 JUMP JUMPDEST PUSH1 0x20 MUL PUSH1 0x20 ADD ADD DUP2 SWAP1 MSTORE POP DUP2 DUP1 PUSH2 0xD9D SWAP1 PUSH2 0x27C7 JUMP JUMPDEST SWAP3 POP POP JUMPDEST DUP1 PUSH2 0xDAB DUP2 PUSH2 0x27C7 JUMP JUMPDEST SWAP2 POP POP PUSH2 0xCE7 JUMP JUMPDEST PUSH1 0x0 DUP2 DUP2 MSTORE PUSH1 0x3 PUSH1 0x20 DUP2 SWAP1 MSTORE PUSH1 0x40 SWAP1 SWAP2 KECCAK256 SWAP1 DUP2 ADD SLOAD PUSH1 0x1 PUSH1 0x1 PUSH1 0xA0 SHL SUB AND CALLER EQ PUSH2 0xE33 JUMPI PUSH1 0x40 MLOAD PUSH3 0x461BCD PUSH1 0xE5 SHL DUP2 MSTORE PUSH1 0x20 PUSH1 0x4 DUP3 ADD MSTORE PUSH1 0x2B PUSH1 0x24 DUP3 ADD MSTORE PUSH32 0x4F6E6C79207468652066696C65206F776E65722063616E20617070726F766520 PUSH1 0x44 DUP3 ADD MSTORE PUSH11 0x1D1A19481C995C5D595CDD PUSH1 0xAA SHL PUSH1 0x64 DUP3 ADD MSTORE PUSH1 0x84 ADD PUSH2 0x66A JUMP JUMPDEST PUSH1 0x3 DUP2 ADD SLOAD PUSH1 0x1 PUSH1 0xA0 SHL SWAP1 DIV PUSH1 0xFF AND ISZERO PUSH2 0xE8A JUMPI PUSH1 0x40 MLOAD PUSH3 0x461BCD PUSH1 0xE5 SHL DUP2 MSTORE PUSH1 0x20 PUSH1 0x4 DUP3 ADD MSTORE PUSH1 0x18 PUSH1 0x24 DUP3 ADD MSTORE PUSH24 0x14995C5D595CDD08185B1C9958591E48185C1C1C9BDD9959 PUSH1 0x42 SHL PUSH1 0x44 DUP3 ADD MSTORE PUSH1 0x64 ADD PUSH2 0x66A JUMP JUMPDEST PUSH1 0x3 DUP2 ADD DUP1 SLOAD PUSH1 0xFF PUSH1 0xA0 SHL NOT AND PUSH1 0x1 PUSH1 0xA0 SHL OR SWAP1 SSTORE PUSH1 0x1 DUP2 ADD SLOAD PUSH1 0x0 SWAP1 PUSH2 0xEB0 SWAP1 PUSH2 0x2D2 JUMP JUMPDEST SWAP1 POP PUSH1 0x0 PUSH2 0xEBC PUSH2 0x210F JUMP JUMPDEST PUSH1 0x40 DUP1 MLOAD PUSH2 0x140 DUP2 ADD DUP3 MSTORE DUP3 DUP2 MSTORE DUP5 MLOAD PUSH1 0x20 DUP1 DUP4 ADD SWAP2 DUP3 MSTORE DUP1 DUP8 ADD MLOAD PUSH1 0x1 PUSH1 0x1 PUSH1 0xA0 SHL SUB SWAP1 DUP2 AND DUP5 DUP7 ADD SWAP1 DUP2 MSTORE PUSH1 0x2 DUP11 DUP2 ADD SLOAD DUP4 AND PUSH1 0x60 DUP1 DUP9 ADD DUP3 DUP2 MSTORE DUP13 DUP11 ADD MLOAD PUSH1 0x80 DUP1 DUP12 ADD SWAP2 DUP3 MSTORE SWAP3 DUP15 ADD MLOAD PUSH1 0xA0 DUP1 DUP13 ADD SWAP2 SWAP1 SWAP2 MSTORE SWAP3 DUP15 ADD MLOAD PUSH1 0xC0 DUP1 DUP13 ADD SWAP2 SWAP1 SWAP2 MSTORE SWAP3 DUP15 ADD MLOAD PUSH1 0xE0 DUP12 ADD MSTORE SWAP2 DUP14 ADD MLOAD PUSH2 0x100 DUP11 ADD MSTORE TIMESTAMP PUSH2 0x120 DUP11 ADD MSTORE PUSH1 0x0 SWAP3 DUP4 MSTORE DUP4 DUP8 MSTORE SWAP9 DUP3 KECCAK256 DUP1 SLOAD PUSH1 0x1 DUP1 DUP3 ADD DUP4 SSTORE SWAP2 DUP5 MSTORE SWAP7 SWAP1 SWAP3 KECCAK256 DUP9 MLOAD PUSH1 0xA SWAP1 SWAP8 MUL ADD SWAP6 DUP7 SSTORE SWAP6 MLOAD SWAP1 DUP6 ADD SSTORE SWAP1 MLOAD SWAP1 DUP4 ADD DUP1 SLOAD PUSH1 0x1 PUSH1 0x1 PUSH1 0xA0 SHL SUB NOT SWAP1 DUP2 AND SWAP3 DUP5 AND SWAP3 SWAP1 SWAP3 OR SWAP1 SSTORE SWAP5 MLOAD PUSH1 0x3 DUP4 ADD DUP1 SLOAD SWAP1 SWAP7 AND SWAP2 AND OR SWAP1 SWAP4 SSTORE MLOAD SWAP3 SWAP4 POP SWAP2 DUP3 SWAP2 SWAP1 PUSH1 0x4 DUP3 ADD SWAP1 PUSH2 0xFA9 SWAP1 DUP3 PUSH2 0x2844 JUMP JUMPDEST POP PUSH1 0xA0 DUP3 ADD MLOAD PUSH1 0x5 DUP3 ADD SWAP1 PUSH2 0xFBE SWAP1 DUP3 PUSH2 0x2844 JUMP JUMPDEST POP PUSH1 0xC0 DUP3 ADD MLOAD PUSH1 0x6 DUP3 ADD SWAP1 PUSH2 0xFD3 SWAP1 DUP3 PUSH2 0x2844 JUMP JUMPDEST POP PUSH1 0xE0 DUP3 ADD MLOAD PUSH1 0x7 DUP3 ADD SWAP1 PUSH2 0xFE8 SWAP1 DUP3 PUSH2 0x2844 JUMP JUMPDEST POP PUSH2 0x100 DUP3 ADD MLOAD PUSH1 0x8 DUP3 ADD SSTORE PUSH2 0x120 SWAP1 SWAP2 ADD MLOAD PUSH1 0x9 SWAP1 SWAP2 ADD SSTORE PUSH1 0x2 DUP5 ADD SLOAD PUSH1 0x20 DUP5 ADD MLOAD PUSH1 0x40 DUP1 DUP7 ADD MLOAD SWAP1 MLOAD PUSH1 0x1 PUSH1 0x1 PUSH1 0xA0 SHL SUB SWAP4 DUP5 AND SWAP4 SWAP1 SWAP3 AND SWAP2 PUSH32 0x36B71A34B45297C2EDDBB6D8A95B9703618F6300D0676FA891C58BCDAA90DBB3 SWAP2 PUSH2 0x104E SWAP2 PUSH2 0x2904 JUMP JUMPDEST PUSH1 0x40 MLOAD DUP1 SWAP2 SUB SWAP1 LOG3 PUSH1 0x1 DUP5 ADD SLOAD PUSH1 0x2 DUP6 ADD SLOAD PUSH1 0x3 DUP7 ADD SLOAD PUSH1 0x40 DUP1 MLOAD SWAP4 DUP5 MSTORE PUSH1 0x1 PUSH1 0x1 PUSH1 0xA0 SHL SUB SWAP3 DUP4 AND PUSH1 0x20 DUP6 ADD MSTORE SWAP2 AND SWAP1 DUP3 ADD MSTORE DUP6 SWAP1 PUSH32 0x6E12100D9A45DA1A9E96A9FC000FF4DB7BFC27CC43FDF07DAB275B581483FB49 SWAP1 PUSH1 0x60 ADD PUSH1 0x40 MLOAD DUP1 SWAP2 SUB SWAP1 LOG2 POP POP POP POP POP JUMP JUMPDEST PUSH1 0x6 DUP1 SLOAD SWAP1 PUSH1 0x0 PUSH2 0x10C8 DUP4 PUSH2 0x27C7 JUMP JUMPDEST SWAP1 SWAP2 SSTORE POP POP PUSH1 0x40 DUP1 MLOAD PUSH2 0x100 DUP2 ADD DUP3 MSTORE PUSH1 0x6 SLOAD DUP2 MSTORE CALLER PUSH1 0x20 DUP1 DUP4 ADD DUP3 DUP2 MSTORE DUP4 DUP6 ADD DUP11 DUP2 MSTORE PUSH1 0x60 DUP6 ADD DUP11 SWAP1 MSTORE PUSH1 0x80 DUP6 ADD DUP10 SWAP1 MSTORE PUSH1 0xA0 DUP6 ADD DUP9 SWAP1 MSTORE PUSH1 0xC0 DUP6 ADD DUP8 SWAP1 MSTORE TIMESTAMP PUSH1 0xE0 DUP7 ADD MSTORE PUSH1 0x0 SWAP4 DUP5 MSTORE PUSH1 0x1 DUP1 DUP5 MSTORE SWAP6 DUP5 KECCAK256 DUP1 SLOAD DUP1 DUP9 ADD DUP3 SSTORE SWAP1 DUP6 MSTORE SWAP3 SWAP1 SWAP4 KECCAK256 DUP5 MLOAD PUSH1 0x8 SWAP1 SWAP4 MUL ADD SWAP2 DUP3 SSTORE MLOAD SWAP4 DUP2 ADD DUP1 SLOAD PUSH1 0x1 PUSH1 0x1 PUSH1 0xA0 SHL SUB NOT AND PUSH1 0x1 PUSH1 0x1 PUSH1 0xA0 SHL SUB SWAP1 SWAP6 AND SWAP5 SWAP1 SWAP5 OR SWAP1 SWAP4 SSTORE MLOAD SWAP1 SWAP2 DUP3 SWAP2 PUSH1 0x2 DUP3 ADD SWAP1 PUSH2 0x116A SWAP1 DUP3 PUSH2 0x2844 JUMP JUMPDEST POP PUSH1 0x60 DUP3 ADD MLOAD PUSH1 0x3 DUP3 ADD SWAP1 PUSH2 0x117F SWAP1 DUP3 PUSH2 0x2844 JUMP JUMPDEST POP PUSH1 0x80 DUP3 ADD MLOAD PUSH1 0x4 DUP3 ADD SWAP1 PUSH2 0x1194 SWAP1 DUP3 PUSH2 0x2844 JUMP JUMPDEST POP PUSH1 0xA0 DUP3 ADD MLOAD PUSH1 0x5 DUP3 ADD SWAP1 PUSH2 0x11A9 SWAP1 DUP3 PUSH2 0x2844 JUMP JUMPDEST POP PUSH1 0xC0 DUP3 ADD MLOAD PUSH1 0x6 DUP3 ADD SSTORE PUSH1 0xE0 SWAP1 SWAP2 ADD MLOAD PUSH1 0x7 SWAP1 SWAP2 ADD SSTORE PUSH1 0x5 DUP1 SLOAD PUSH1 0x1 DUP2 ADD DUP3 SSTORE PUSH1 0x0 SWAP2 SWAP1 SWAP2 MSTORE DUP2 MLOAD PUSH32 0x36B6384B5ECA791C62761152D0C79BB0604C104A5FB6F4EB0703F3154BB3DB0 PUSH1 0x8 SWAP1 SWAP3 MUL SWAP2 DUP3 ADD SWAP1 DUP2 SSTORE PUSH1 0x20 DUP4 ADD MLOAD PUSH32 0x36B6384B5ECA791C62761152D0C79BB0604C104A5FB6F4EB0703F3154BB3DB1 DUP4 ADD DUP1 SLOAD PUSH1 0x1 PUSH1 0x1 PUSH1 0xA0 SHL SUB NOT AND PUSH1 0x1 PUSH1 0x1 PUSH1 0xA0 SHL SUB SWAP1 SWAP3 AND SWAP2 SWAP1 SWAP2 OR SWAP1 SSTORE PUSH1 0x40 DUP4 ADD MLOAD DUP4 SWAP3 PUSH32 0x36B6384B5ECA791C62761152D0C79BB0604C104A5FB6F4EB0703F3154BB3DB2 ADD SWAP1 PUSH2 0x1277 SWAP1 DUP3 PUSH2 0x2844 JUMP JUMPDEST POP PUSH1 0x60 DUP3 ADD MLOAD PUSH1 0x3 DUP3 ADD SWAP1 PUSH2 0x128C SWAP1 DUP3 PUSH2 0x2844 JUMP JUMPDEST POP PUSH1 0x80 DUP3 ADD MLOAD PUSH1 0x4 DUP3 ADD SWAP1 PUSH2 0x12A1 SWAP1 DUP3 PUSH2 0x2844 JUMP JUMPDEST POP PUSH1 0xA0 DUP3 ADD MLOAD PUSH1 0x5 DUP3 ADD SWAP1 PUSH2 0x12B6 SWAP1 DUP3 PUSH2 0x2844 JUMP JUMPDEST POP PUSH1 0xC0 DUP3 ADD MLOAD DUP2 PUSH1 0x6 ADD SSTORE PUSH1 0xE0 DUP3 ADD MLOAD DUP2 PUSH1 0x7 ADD SSTORE POP POP CALLER PUSH1 0x1 PUSH1 0x1 PUSH1 0xA0 SHL SUB AND PUSH32 0xE03C7E37AD39057585E52C6E4F117A61225036A88A2ADA7F870A6B994A1BC21 DUP8 PUSH1 0x40 MLOAD PUSH2 0x1306 SWAP2 SWAP1 PUSH2 0x2904 JUMP JUMPDEST PUSH1 0x40 MLOAD DUP1 SWAP2 SUB SWAP1 LOG2 POP POP POP POP POP POP JUMP JUMPDEST PUSH1 0x0 DUP2 DUP2 MSTORE PUSH1 0x3 PUSH1 0x20 DUP2 SWAP1 MSTORE PUSH1 0x40 SWAP1 SWAP2 KECCAK256 SWAP1 DUP2 ADD SLOAD PUSH1 0x1 PUSH1 0x1 PUSH1 0xA0 SHL SUB AND CALLER EQ PUSH2 0x1395 JUMPI PUSH1 0x40 MLOAD PUSH3 0x461BCD PUSH1 0xE5 SHL DUP2 MSTORE PUSH1 0x20 PUSH1 0x4 DUP3 ADD MSTORE PUSH1 0x2A PUSH1 0x24 DUP3 ADD MSTORE PUSH32 0x4F6E6C79207468652066696C65206F776E65722063616E2072656A6563742074 PUSH1 0x44 DUP3 ADD MSTORE PUSH10 0x1A19481C995C5D595CDD PUSH1 0xB2 SHL PUSH1 0x64 DUP3 ADD MSTORE PUSH1 0x84 ADD PUSH2 0x66A JUMP JUMPDEST PUSH1 0x3 DUP2 ADD SLOAD PUSH1 0x1 PUSH1 0xA0 SHL SWAP1 DIV PUSH1 0xFF AND ISZERO PUSH2 0x13EC JUMPI PUSH1 0x40 MLOAD PUSH3 0x461BCD PUSH1 0xE5 SHL DUP2 MSTORE PUSH1 0x20 PUSH1 0x4 DUP3 ADD MSTORE PUSH1 0x18 PUSH1 0x24 DUP3 ADD MSTORE PUSH24 0x14995C5D595CDD08185B1C9958591E48185C1C1C9BDD9959 PUSH1 0x42 SHL PUSH1 0x44 DUP3 ADD MSTORE PUSH1 0x64 ADD PUSH2 0x66A JUMP JUMPDEST PUSH1 0x0 DUP3 DUP2 MSTORE PUSH1 0x3 PUSH1 0x20 DUP2 DUP2 MSTORE PUSH1 0x40 DUP1 DUP5 KECCAK256 DUP5 DUP2 SSTORE PUSH1 0x1 DUP1 DUP3 ADD SWAP6 SWAP1 SWAP6 SSTORE PUSH1 0x2 DUP1 DUP3 ADD DUP1 SLOAD PUSH1 0x1 PUSH1 0x1 PUSH1 0xA0 SHL SUB NOT AND SWAP1 SSTORE SWAP1 DUP5 ADD DUP1 SLOAD PUSH1 0x1 PUSH1 0x1 PUSH1 0xA8 SHL SUB NOT AND SWAP1 SSTORE SWAP4 DUP6 ADD SLOAD SWAP4 DUP6 ADD SLOAD SWAP3 DUP6 ADD SLOAD DUP2 MLOAD SWAP5 DUP6 MSTORE PUSH1 0x1 PUSH1 0x1 PUSH1 0xA0 SHL SUB SWAP4 DUP5 AND SWAP3 DUP6 ADD SWAP3 SWAP1 SWAP3 MSTORE SWAP2 AND SWAP1 DUP3 ADD MSTORE DUP3 SWAP1 PUSH32 0x23BC048E2726B66E4B6DF842E8940378C39EAD4CEEEABBBE237BD71CAF10603B SWAP1 PUSH1 0x60 ADD PUSH1 0x40 MLOAD DUP1 SWAP2 SUB SWAP1 LOG2 POP POP JUMP JUMPDEST PUSH1 0x60 PUSH1 0x5 DUP1 SLOAD DUP1 PUSH1 0x20 MUL PUSH1 0x20 ADD PUSH1 0x40 MLOAD SWAP1 DUP2 ADD PUSH1 0x40 MSTORE DUP1 SWAP3 SWAP2 SWAP1 DUP2 DUP2 MSTORE PUSH1 0x20 ADD PUSH1 0x0 SWAP1 JUMPDEST DUP3 DUP3 LT ISZERO PUSH2 0x175C JUMPI PUSH1 0x0 DUP5 DUP2 MSTORE PUSH1 0x20 SWAP1 DUP2 SWAP1 KECCAK256 PUSH1 0x40 DUP1 MLOAD PUSH2 0x100 DUP2 ADD DUP3 MSTORE PUSH1 0x8 DUP7 MUL SWAP1 SWAP3 ADD DUP1 SLOAD DUP4 MSTORE PUSH1 0x1 DUP2 ADD SLOAD PUSH1 0x1 PUSH1 0x1 PUSH1 0xA0 SHL SUB AND SWAP4 DUP4 ADD SWAP4 SWAP1 SWAP4 MSTORE PUSH1 0x2 DUP4 ADD DUP1 SLOAD SWAP3 SWAP4 SWAP3 SWAP2 DUP5 ADD SWAP2 PUSH2 0x1501 SWAP1 PUSH2 0x2777 JUMP JUMPDEST DUP1 PUSH1 0x1F ADD PUSH1 0x20 DUP1 SWAP2 DIV MUL PUSH1 0x20 ADD PUSH1 0x40 MLOAD SWAP1 DUP2 ADD PUSH1 0x40 MSTORE DUP1 SWAP3 SWAP2 SWAP1 DUP2 DUP2 MSTORE PUSH1 0x20 ADD DUP3 DUP1 SLOAD PUSH2 0x152D SWAP1 PUSH2 0x2777 JUMP JUMPDEST DUP1 ISZERO PUSH2 0x157A JUMPI DUP1 PUSH1 0x1F LT PUSH2 0x154F JUMPI PUSH2 0x100 DUP1 DUP4 SLOAD DIV MUL DUP4 MSTORE SWAP2 PUSH1 0x20 ADD SWAP2 PUSH2 0x157A JUMP JUMPDEST DUP3 ADD SWAP2 SWAP1 PUSH1 0x0 MSTORE PUSH1 0x20 PUSH1 0x0 KECCAK256 SWAP1 JUMPDEST DUP2 SLOAD DUP2 MSTORE SWAP1 PUSH1 0x1 ADD SWAP1 PUSH1 0x20 ADD DUP1 DUP4 GT PUSH2 0x155D JUMPI DUP3 SWAP1 SUB PUSH1 0x1F AND DUP3 ADD SWAP2 JUMPDEST POP POP POP POP POP DUP2 MSTORE PUSH1 0x20 ADD PUSH1 0x3 DUP3 ADD DUP1 SLOAD PUSH2 0x1593 SWAP1 PUSH2 0x2777 JUMP JUMPDEST DUP1 PUSH1 0x1F ADD PUSH1 0x20 DUP1 SWAP2 DIV MUL PUSH1 0x20 ADD PUSH1 0x40 MLOAD SWAP1 DUP2 ADD PUSH1 0x40 MSTORE DUP1 SWAP3 SWAP2 SWAP1 DUP2 DUP2 MSTORE PUSH1 0x20 ADD DUP3 DUP1 SLOAD PUSH2 0x15BF SWAP1 PUSH2 0x2777 JUMP JUMPDEST DUP1 ISZERO PUSH2 0x160C JUMPI DUP1 PUSH1 0x1F LT PUSH2 0x15E1 JUMPI PUSH2 0x100 DUP1 DUP4 SLOAD DIV MUL DUP4 MSTORE SWAP2 PUSH1 0x20 ADD SWAP2 PUSH2 0x160C JUMP JUMPDEST DUP3 ADD SWAP2 SWAP1 PUSH1 0x0 MSTORE PUSH1 0x20 PUSH1 0x0 KECCAK256 SWAP1 JUMPDEST DUP2 SLOAD DUP2 MSTORE SWAP1 PUSH1 0x1 ADD SWAP1 PUSH1 0x20 ADD DUP1 DUP4 GT PUSH2 0x15EF JUMPI DUP3 SWAP1 SUB PUSH1 0x1F AND DUP3 ADD SWAP2 JUMPDEST POP POP POP POP POP DUP2 MSTORE PUSH1 0x20 ADD PUSH1 0x4 DUP3 ADD DUP1 SLOAD PUSH2 0x1625 SWAP1 PUSH2 0x2777 JUMP JUMPDEST DUP1 PUSH1 0x1F ADD PUSH1 0x20 DUP1 SWAP2 DIV MUL PUSH1 0x20 ADD PUSH1 0x40 MLOAD SWAP1 DUP2 ADD PUSH1 0x40 MSTORE DUP1 SWAP3 SWAP2 SWAP1 DUP2 DUP2 MSTORE PUSH1 0x20 ADD DUP3 DUP1 SLOAD PUSH2 0x1651 SWAP1 PUSH2 0x2777 JUMP JUMPDEST DUP1 ISZERO PUSH2 0x169E JUMPI DUP1 PUSH1 0x1F LT PUSH2 0x1673 JUMPI PUSH2 0x100 DUP1 DUP4 SLOAD DIV MUL DUP4 MSTORE SWAP2 PUSH1 0x20 ADD SWAP2 PUSH2 0x169E JUMP JUMPDEST DUP3 ADD SWAP2 SWAP1 PUSH1 0x0 MSTORE PUSH1 0x20 PUSH1 0x0 KECCAK256 SWAP1 JUMPDEST DUP2 SLOAD DUP2 MSTORE SWAP1 PUSH1 0x1 ADD SWAP1 PUSH1 0x20 ADD DUP1 DUP4 GT PUSH2 0x1681 JUMPI DUP3 SWAP1 SUB PUSH1 0x1F AND DUP3 ADD SWAP2 JUMPDEST POP POP POP POP POP DUP2 MSTORE PUSH1 0x20 ADD PUSH1 0x5 DUP3 ADD DUP1 SLOAD PUSH2 0x16B7 SWAP1 PUSH2 0x2777 JUMP JUMPDEST DUP1 PUSH1 0x1F ADD PUSH1 0x20 DUP1 SWAP2 DIV MUL PUSH1 0x20 ADD PUSH1 0x40 MLOAD SWAP1 DUP2 ADD PUSH1 0x40 MSTORE DUP1 SWAP3 SWAP2 SWAP1 DUP2 DUP2 MSTORE PUSH1 0x20 ADD DUP3 DUP1 SLOAD PUSH2 0x16E3 SWAP1 PUSH2 0x2777 JUMP JUMPDEST DUP1 ISZERO PUSH2 0x1730 JUMPI DUP1 PUSH1 0x1F LT PUSH2 0x1705 JUMPI PUSH2 0x100 DUP1 DUP4 SLOAD DIV MUL DUP4 MSTORE SWAP2 PUSH1 0x20 ADD SWAP2 PUSH2 0x1730 JUMP JUMPDEST DUP3 ADD SWAP2 SWAP1 PUSH1 0x0 MSTORE PUSH1 0x20 PUSH1 0x0 KECCAK256 SWAP1 JUMPDEST DUP2 SLOAD DUP2 MSTORE SWAP1 PUSH1 0x1 ADD SWAP1 PUSH1 0x20 ADD DUP1 DUP4 GT PUSH2 0x1713 JUMPI DUP3 SWAP1 SUB PUSH1 0x1F AND DUP3 ADD SWAP2 JUMPDEST POP POP POP POP POP DUP2 MSTORE PUSH1 0x20 ADD PUSH1 0x6 DUP3 ADD SLOAD DUP2 MSTORE PUSH1 0x20 ADD PUSH1 0x7 DUP3 ADD SLOAD DUP2 MSTORE POP POP DUP2 MSTORE PUSH1 0x20 ADD SWAP1 PUSH1 0x1 ADD SWAP1 PUSH2 0x14AD JUMP JUMPDEST POP POP POP POP SWAP1 POP SWAP1 JUMP JUMPDEST CALLER PUSH1 0x0 SWAP1 DUP2 MSTORE PUSH1 0x1 PUSH1 0x20 SWAP1 DUP2 MSTORE PUSH1 0x40 DUP1 DUP4 KECCAK256 DUP1 SLOAD DUP3 MLOAD DUP2 DUP6 MUL DUP2 ADD DUP6 ADD SWAP1 SWAP4 MSTORE DUP1 DUP4 MSTORE PUSH1 0x60 SWAP5 SWAP3 SWAP4 SWAP2 SWAP3 SWAP1 SWAP2 DUP5 ADD JUMPDEST DUP3 DUP3 LT ISZERO PUSH2 0x175C JUMPI PUSH1 0x0 DUP5 DUP2 MSTORE PUSH1 0x20 SWAP1 DUP2 SWAP1 KECCAK256 PUSH1 0x40 DUP1 MLOAD PUSH2 0x100 DUP2 ADD DUP3 MSTORE PUSH1 0x8 DUP7 MUL SWAP1 SWAP3 ADD DUP1 SLOAD DUP4 MSTORE PUSH1 0x1 DUP2 ADD SLOAD PUSH1 0x1 PUSH1 0x1 PUSH1 0xA0 SHL SUB AND SWAP4 DUP4 ADD SWAP4 SWAP1 SWAP4 MSTORE PUSH1 0x2 DUP4 ADD DUP1 SLOAD SWAP3 SWAP4 SWAP3 SWAP2 DUP5 ADD SWAP2 PUSH2 0x17E8 SWAP1 PUSH2 0x2777 JUMP JUMPDEST DUP1 PUSH1 0x1F ADD PUSH1 0x20 DUP1 SWAP2 DIV MUL PUSH1 0x20 ADD PUSH1 0x40 MLOAD SWAP1 DUP2 ADD PUSH1 0x40 MSTORE DUP1 SWAP3 SWAP2 SWAP1 DUP2 DUP2 MSTORE PUSH1 0x20 ADD DUP3 DUP1 SLOAD PUSH2 0x1814 SWAP1 PUSH2 0x2777 JUMP JUMPDEST DUP1 ISZERO PUSH2 0x1861 JUMPI DUP1 PUSH1 0x1F LT PUSH2 0x1836 JUMPI PUSH2 0x100 DUP1 DUP4 SLOAD DIV MUL DUP4 MSTORE SWAP2 PUSH1 0x20 ADD SWAP2 PUSH2 0x1861 JUMP JUMPDEST DUP3 ADD SWAP2 SWAP1 PUSH1 0x0 MSTORE PUSH1 0x20 PUSH1 0x0 KECCAK256 SWAP1 JUMPDEST DUP2 SLOAD DUP2 MSTORE SWAP1 PUSH1 0x1 ADD SWAP1 PUSH1 0x20 ADD DUP1 DUP4 GT PUSH2 0x1844 JUMPI DUP3 SWAP1 SUB PUSH1 0x1F AND DUP3 ADD SWAP2 JUMPDEST POP POP POP POP POP DUP2 MSTORE PUSH1 0x20 ADD PUSH1 0x3 DUP3 ADD DUP1 SLOAD PUSH2 0x187A SWAP1 PUSH2 0x2777 JUMP JUMPDEST DUP1 PUSH1 0x1F ADD PUSH1 0x20 DUP1 SWAP2 DIV MUL PUSH1 0x20 ADD PUSH1 0x40 MLOAD SWAP1 DUP2 ADD PUSH1 0x40 MSTORE DUP1 SWAP3 SWAP2 SWAP1 DUP2 DUP2 MSTORE PUSH1 0x20 ADD DUP3 DUP1 SLOAD PUSH2 0x18A6 SWAP1 PUSH2 0x2777 JUMP JUMPDEST DUP1 ISZERO PUSH2 0x18F3 JUMPI DUP1 PUSH1 0x1F LT PUSH2 0x18C8 JUMPI PUSH2 0x100 DUP1 DUP4 SLOAD DIV MUL DUP4 MSTORE SWAP2 PUSH1 0x20 ADD SWAP2 PUSH2 0x18F3 JUMP JUMPDEST DUP3 ADD SWAP2 SWAP1 PUSH1 0x0 MSTORE PUSH1 0x20 PUSH1 0x0 KECCAK256 SWAP1 JUMPDEST DUP2 SLOAD DUP2 MSTORE SWAP1 PUSH1 0x1 ADD SWAP1 PUSH1 0x20 ADD DUP1 DUP4 GT PUSH2 0x18D6 JUMPI DUP3 SWAP1 SUB PUSH1 0x1F AND DUP3 ADD SWAP2 JUMPDEST POP POP POP POP POP DUP2 MSTORE PUSH1 0x20 ADD PUSH1 0x4 DUP3 ADD DUP1 SLOAD PUSH2 0x190C SWAP1 PUSH2 0x2777 JUMP JUMPDEST DUP1 PUSH1 0x1F ADD PUSH1 0x20 DUP1 SWAP2 DIV MUL PUSH1 0x20 ADD PUSH1 0x40 MLOAD SWAP1 DUP2 ADD PUSH1 0x40 MSTORE DUP1 SWAP3 SWAP2 SWAP1 DUP2 DUP2 MSTORE PUSH1 0x20 ADD DUP3 DUP1 SLOAD PUSH2 0x1938 SWAP1 PUSH2 0x2777 JUMP JUMPDEST DUP1 ISZERO PUSH2 0x1985 JUMPI DUP1 PUSH1 0x1F LT PUSH2 0x195A JUMPI PUSH2 0x100 DUP1 DUP4 SLOAD DIV MUL DUP4 MSTORE SWAP2 PUSH1 0x20 ADD SWAP2 PUSH2 0x1985 JUMP JUMPDEST DUP3 ADD SWAP2 SWAP1 PUSH1 0x0 MSTORE PUSH1 0x20 PUSH1 0x0 KECCAK256 SWAP1 JUMPDEST DUP2 SLOAD DUP2 MSTORE SWAP1 PUSH1 0x1 ADD SWAP1 PUSH1 0x20 ADD DUP1 DUP4 GT PUSH2 0x1968 JUMPI DUP3 SWAP1 SUB PUSH1 0x1F AND DUP3 ADD SWAP2 JUMPDEST POP POP POP POP POP DUP2 MSTORE PUSH1 0x20 ADD PUSH1 0x5 DUP3 ADD DUP1 SLOAD PUSH2 0x199E SWAP1 PUSH2 0x2777 JUMP JUMPDEST DUP1 PUSH1 0x1F ADD PUSH1 0x20 DUP1 SWAP2 DIV MUL PUSH1 0x20 ADD PUSH1 0x40 MLOAD SWAP1 DUP2 ADD PUSH1 0x40 MSTORE DUP1 SWAP3 SWAP2 SWAP1 DUP2 DUP2 MSTORE PUSH1 0x20 ADD DUP3 DUP1 SLOAD PUSH2 0x19CA SWAP1 PUSH2 0x2777 JUMP JUMPDEST DUP1 ISZERO PUSH2 0x1A17 JUMPI DUP1 PUSH1 0x1F LT PUSH2 0x19EC JUMPI PUSH2 0x100 DUP1 DUP4 SLOAD DIV MUL DUP4 MSTORE SWAP2 PUSH1 0x20 ADD SWAP2 PUSH2 0x1A17 JUMP JUMPDEST DUP3 ADD SWAP2 SWAP1 PUSH1 0x0 MSTORE PUSH1 0x20 PUSH1 0x0 KECCAK256 SWAP1 JUMPDEST DUP2 SLOAD DUP2 MSTORE SWAP1 PUSH1 0x1 ADD SWAP1 PUSH1 0x20 ADD DUP1 DUP4 GT PUSH2 0x19FA JUMPI DUP3 SWAP1 SUB PUSH1 0x1F AND DUP3 ADD SWAP2 JUMPDEST POP POP POP POP POP DUP2 MSTORE PUSH1 0x20 ADD PUSH1 0x6 DUP3 ADD SLOAD DUP2 MSTORE PUSH1 0x20 ADD PUSH1 0x7 DUP3 ADD SLOAD DUP2 MSTORE POP POP DUP2 MSTORE PUSH1 0x20 ADD SWAP1 PUSH1 0x1 ADD SWAP1 PUSH2 0x1794 JUMP JUMPDEST PUSH1 0x0 DUP1 JUMPDEST PUSH1 0x1 PUSH1 0x1 PUSH1 0xA0 SHL SUB DUP5 AND PUSH1 0x0 SWAP1 DUP2 MSTORE PUSH1 0x1 PUSH1 0x20 MSTORE PUSH1 0x40 SWAP1 KECCAK256 SLOAD DUP2 LT ISZERO PUSH2 0x1ABD JUMPI PUSH1 0x1 PUSH1 0x1 PUSH1 0xA0 SHL SUB DUP5 AND PUSH1 0x0 SWAP1 DUP2 MSTORE PUSH1 0x1 PUSH1 0x20 MSTORE PUSH1 0x40 SWAP1 KECCAK256 DUP1 SLOAD DUP5 SWAP2 SWAP1 DUP4 SWAP1 DUP2 LT PUSH2 0x1A94 JUMPI PUSH2 0x1A94 PUSH2 0x2761 JUMP JUMPDEST SWAP1 PUSH1 0x0 MSTORE PUSH1 0x20 PUSH1 0x0 KECCAK256 SWAP1 PUSH1 0x8 MUL ADD PUSH1 0x0 ADD SLOAD SUB PUSH2 0x1AB5 JUMPI PUSH1 0x1 SWAP2 POP POP PUSH2 0x1B3D JUMP JUMPDEST PUSH1 0x1 ADD PUSH2 0x1A47 JUMP JUMPDEST POP PUSH1 0x0 JUMPDEST PUSH1 0x1 PUSH1 0x1 PUSH1 0xA0 SHL SUB DUP5 AND PUSH1 0x0 SWAP1 DUP2 MSTORE PUSH1 0x2 PUSH1 0x20 MSTORE PUSH1 0x40 SWAP1 KECCAK256 SLOAD DUP2 LT ISZERO PUSH2 0x1B37 JUMPI PUSH1 0x1 PUSH1 0x1 PUSH1 0xA0 SHL SUB DUP5 AND PUSH1 0x0 SWAP1 DUP2 MSTORE PUSH1 0x2 PUSH1 0x20 MSTORE PUSH1 0x40 SWAP1 KECCAK256 DUP1 SLOAD DUP5 SWAP2 SWAP1 DUP4 SWAP1 DUP2 LT PUSH2 0x1B0E JUMPI PUSH2 0x1B0E PUSH2 0x2761 JUMP JUMPDEST SWAP1 PUSH1 0x0 MSTORE PUSH1 0x20 PUSH1 0x0 KECCAK256 SWAP1 PUSH1 0xA MUL ADD PUSH1 0x1 ADD SLOAD SUB PUSH2 0x1B2F JUMPI PUSH1 0x1 SWAP2 POP POP PUSH2 0x1B3D JUMP JUMPDEST PUSH1 0x1 ADD PUSH2 0x1AC1 JUMP JUMPDEST POP PUSH1 0x0 SWAP1 POP JUMPDEST SWAP3 SWAP2 POP POP JUMP JUMPDEST CALLER PUSH1 0x0 SWAP1 DUP2 MSTORE PUSH1 0x2 PUSH1 0x20 SWAP1 DUP2 MSTORE PUSH1 0x40 DUP1 DUP4 KECCAK256 DUP1 SLOAD DUP3 MLOAD DUP2 DUP6 MUL DUP2 ADD DUP6 ADD SWAP1 SWAP4 MSTORE DUP1 DUP4 MSTORE PUSH1 0x60 SWAP5 SWAP3 SWAP4 SWAP2 SWAP3 SWAP1 SWAP2 DUP5 ADD JUMPDEST DUP3 DUP3 LT ISZERO PUSH2 0x175C JUMPI PUSH1 0x0 DUP5 DUP2 MSTORE PUSH1 0x20 SWAP1 DUP2 SWAP1 KECCAK256 PUSH1 0x40 DUP1 MLOAD PUSH2 0x140 DUP2 ADD DUP3 MSTORE PUSH1 0xA DUP7 MUL SWAP1 SWAP3 ADD DUP1 SLOAD DUP4 MSTORE PUSH1 0x1 DUP2 ADD SLOAD SWAP4 DUP4 ADD SWAP4 SWAP1 SWAP4 MSTORE PUSH1 0x2 DUP4 ADD SLOAD PUSH1 0x1 PUSH1 0x1 PUSH1 0xA0 SHL SUB SWAP1 DUP2 AND SWAP2 DUP4 ADD SWAP2 SWAP1 SWAP2 MSTORE PUSH1 0x3 DUP4 ADD SLOAD AND PUSH1 0x60 DUP3 ADD MSTORE PUSH1 0x4 DUP3 ADD DUP1 SLOAD SWAP2 SWAP3 SWAP2 PUSH1 0x80 DUP5 ADD SWAP2 SWAP1 PUSH2 0x1BE1 SWAP1 PUSH2 0x2777 JUMP JUMPDEST DUP1 PUSH1 0x1F ADD PUSH1 0x20 DUP1 SWAP2 DIV MUL PUSH1 0x20 ADD PUSH1 0x40 MLOAD SWAP1 DUP2 ADD PUSH1 0x40 MSTORE DUP1 SWAP3 SWAP2 SWAP1 DUP2 DUP2 MSTORE PUSH1 0x20 ADD DUP3 DUP1 SLOAD PUSH2 0x1C0D SWAP1 PUSH2 0x2777 JUMP JUMPDEST DUP1 ISZERO PUSH2 0x1C5A JUMPI DUP1 PUSH1 0x1F LT PUSH2 0x1C2F JUMPI PUSH2 0x100 DUP1 DUP4 SLOAD DIV MUL DUP4 MSTORE SWAP2 PUSH1 0x20 ADD SWAP2 PUSH2 0x1C5A JUMP JUMPDEST DUP3 ADD SWAP2 SWAP1 PUSH1 0x0 MSTORE PUSH1 0x20 PUSH1 0x0 KECCAK256 SWAP1 JUMPDEST DUP2 SLOAD DUP2 MSTORE SWAP1 PUSH1 0x1 ADD SWAP1 PUSH1 0x20 ADD DUP1 DUP4 GT PUSH2 0x1C3D JUMPI DUP3 SWAP1 SUB PUSH1 0x1F AND DUP3 ADD SWAP2 JUMPDEST POP POP POP POP POP DUP2 MSTORE PUSH1 0x20 ADD PUSH1 0x5 DUP3 ADD DUP1 SLOAD PUSH2 0x1C73 SWAP1 PUSH2 0x2777 JUMP JUMPDEST DUP1 PUSH1 0x1F ADD PUSH1 0x20 DUP1 SWAP2 DIV MUL PUSH1 0x20 ADD PUSH1 0x40 MLOAD SWAP1 DUP2 ADD PUSH1 0x40 MSTORE DUP1 SWAP3 SWAP2 SWAP1 DUP2 DUP2 MSTORE PUSH1 0x20 ADD DUP3 DUP1 SLOAD PUSH2 0x1C9F SWAP1 PUSH2 0x2777 JUMP JUMPDEST DUP1 ISZERO PUSH2 0x1CEC JUMPI DUP1 PUSH1 0x1F LT PUSH2 0x1CC1 JUMPI PUSH2 0x100 DUP1 DUP4 SLOAD DIV MUL DUP4 MSTORE SWAP2 PUSH1 0x20 ADD SWAP2 PUSH2 0x1CEC JUMP JUMPDEST DUP3 ADD SWAP2 SWAP1 PUSH1 0x0 MSTORE PUSH1 0x20 PUSH1 0x0 KECCAK256 SWAP1 JUMPDEST DUP2 SLOAD DUP2 MSTORE SWAP1 PUSH1 0x1 ADD SWAP1 PUSH1 0x20 ADD DUP1 DUP4 GT PUSH2 0x1CCF JUMPI DUP3 SWAP1 SUB PUSH1 0x1F AND DUP3 ADD SWAP2 JUMPDEST POP POP POP POP POP DUP2 MSTORE PUSH1 0x20 ADD PUSH1 0x6 DUP3 ADD DUP1 SLOAD PUSH2 0x1D05 SWAP1 PUSH2 0x2777 JUMP JUMPDEST DUP1 PUSH1 0x1F ADD PUSH1 0x20 DUP1 SWAP2 DIV MUL PUSH1 0x20 ADD PUSH1 0x40 MLOAD SWAP1 DUP2 ADD PUSH1 0x40 MSTORE DUP1 SWAP3 SWAP2 SWAP1 DUP2 DUP2 MSTORE PUSH1 0x20 ADD DUP3 DUP1 SLOAD PUSH2 0x1D31 SWAP1 PUSH2 0x2777 JUMP JUMPDEST DUP1 ISZERO PUSH2 0x1D7E JUMPI DUP1 PUSH1 0x1F LT PUSH2 0x1D53 JUMPI PUSH2 0x100 DUP1 DUP4 SLOAD DIV MUL DUP4 MSTORE SWAP2 PUSH1 0x20 ADD SWAP2 PUSH2 0x1D7E JUMP JUMPDEST DUP3 ADD SWAP2 SWAP1 PUSH1 0x0 MSTORE PUSH1 0x20 PUSH1 0x0 KECCAK256 SWAP1 JUMPDEST DUP2 SLOAD DUP2 MSTORE SWAP1 PUSH1 0x1 ADD SWAP1 PUSH1 0x20 ADD DUP1 DUP4 GT PUSH2 0x1D61 JUMPI DUP3 SWAP1 SUB PUSH1 0x1F AND DUP3 ADD SWAP2 JUMPDEST POP POP POP POP POP DUP2 MSTORE PUSH1 0x20 ADD PUSH1 0x7 DUP3 ADD DUP1 SLOAD PUSH2 0x1D97 SWAP1 PUSH2 0x2777 JUMP JUMPDEST DUP1 PUSH1 0x1F ADD PUSH1 0x20 DUP1 SWAP2 DIV MUL PUSH1 0x20 ADD PUSH1 0x40 MLOAD SWAP1 DUP2 ADD PUSH1 0x40 MSTORE DUP1 SWAP3 SWAP2 SWAP1 DUP2 DUP2 MSTORE PUSH1 0x20 ADD DUP3 DUP1 SLOAD PUSH2 0x1DC3 SWAP1 PUSH2 0x2777 JUMP JUMPDEST DUP1 ISZERO PUSH2 0x1E10 JUMPI DUP1 PUSH1 0x1F LT PUSH2 0x1DE5 JUMPI PUSH2 0x100 DUP1 DUP4 SLOAD DIV MUL DUP4 MSTORE SWAP2 PUSH1 0x20 ADD SWAP2 PUSH2 0x1E10 JUMP JUMPDEST DUP3 ADD SWAP2 SWAP1 PUSH1 0x0 MSTORE PUSH1 0x20 PUSH1 0x0 KECCAK256 SWAP1 JUMPDEST DUP2 SLOAD DUP2 MSTORE SWAP1 PUSH1 0x1 ADD SWAP1 PUSH1 0x20 ADD DUP1 DUP4 GT PUSH2 0x1DF3 JUMPI DUP3 SWAP1 SUB PUSH1 0x1F AND DUP3 ADD SWAP2 JUMPDEST POP POP POP POP POP DUP2 MSTORE PUSH1 0x20 ADD PUSH1 0x8 DUP3 ADD SLOAD DUP2 MSTORE PUSH1 0x20 ADD PUSH1 0x9 DUP3 ADD SLOAD DUP2 MSTORE POP POP DUP2 MSTORE PUSH1 0x20 ADD SWAP1 PUSH1 0x1 ADD SWAP1 PUSH2 0x1B72 JUMP JUMPDEST PUSH1 0x60 PUSH1 0x5 DUP1 SLOAD DUP1 PUSH1 0x20 MUL PUSH1 0x20 ADD PUSH1 0x40 MLOAD SWAP1 DUP2 ADD PUSH1 0x40 MSTORE DUP1 SWAP3 SWAP2 SWAP1 DUP2 DUP2 MSTORE PUSH1 0x20 ADD PUSH1 0x0 SWAP1 JUMPDEST DUP3 DUP3 LT ISZERO PUSH2 0x175C JUMPI PUSH1 0x0 DUP5 DUP2 MSTORE PUSH1 0x20 SWAP1 DUP2 SWAP1 KECCAK256 PUSH1 0x40 DUP1 MLOAD PUSH2 0x100 DUP2 ADD DUP3 MSTORE PUSH1 0x8 DUP7 MUL SWAP1 SWAP3 ADD DUP1 SLOAD DUP4 MSTORE PUSH1 0x1 DUP2 ADD SLOAD PUSH1 0x1 PUSH1 0x1 PUSH1 0xA0 SHL SUB AND SWAP4 DUP4 ADD SWAP4 SWAP1 SWAP4 MSTORE PUSH1 0x2 DUP4 ADD DUP1 SLOAD SWAP3 SWAP4 SWAP3 SWAP2 DUP5 ADD SWAP2 PUSH2 0x1EB4 SWAP1 PUSH2 0x2777 JUMP JUMPDEST DUP1 PUSH1 0x1F ADD PUSH1 0x20 DUP1 SWAP2 DIV MUL PUSH1 0x20 ADD PUSH1 0x40 MLOAD SWAP1 DUP2 ADD PUSH1 0x40 MSTORE DUP1 SWAP3 SWAP2 SWAP1 DUP2 DUP2 MSTORE PUSH1 0x20 ADD DUP3 DUP1 SLOAD PUSH2 0x1EE0 SWAP1 PUSH2 0x2777 JUMP JUMPDEST DUP1 ISZERO PUSH2 0x1F2D JUMPI DUP1 PUSH1 0x1F LT PUSH2 0x1F02 JUMPI PUSH2 0x100 DUP1 DUP4 SLOAD DIV MUL DUP4 MSTORE SWAP2 PUSH1 0x20 ADD SWAP2 PUSH2 0x1F2D JUMP JUMPDEST DUP3 ADD SWAP2 SWAP1 PUSH1 0x0 MSTORE PUSH1 0x20 PUSH1 0x0 KECCAK256 SWAP1 JUMPDEST DUP2 SLOAD DUP2 MSTORE SWAP1 PUSH1 0x1 ADD SWAP1 PUSH1 0x20 ADD DUP1 DUP4 GT PUSH2 0x1F10 JUMPI DUP3 SWAP1 SUB PUSH1 0x1F AND DUP3 ADD SWAP2 JUMPDEST POP POP POP POP POP DUP2 MSTORE PUSH1 0x20 ADD PUSH1 0x3 DUP3 ADD DUP1 SLOAD PUSH2 0x1F46 SWAP1 PUSH2 0x2777 JUMP JUMPDEST DUP1 PUSH1 0x1F ADD PUSH1 0x20 DUP1 SWAP2 DIV MUL PUSH1 0x20 ADD PUSH1 0x40 MLOAD SWAP1 DUP2 ADD PUSH1 0x40 MSTORE DUP1 SWAP3 SWAP2 SWAP1 DUP2 DUP2 MSTORE PUSH1 0x20 ADD DUP3 DUP1 SLOAD PUSH2 0x1F72 SWAP1 PUSH2 0x2777 JUMP JUMPDEST DUP1 ISZERO PUSH2 0x1FBF JUMPI DUP1 PUSH1 0x1F LT PUSH2 0x1F94 JUMPI PUSH2 0x100 DUP1 DUP4 SLOAD DIV MUL DUP4 MSTORE SWAP2 PUSH1 0x20 ADD SWAP2 PUSH2 0x1FBF JUMP JUMPDEST DUP3 ADD SWAP2 SWAP1 PUSH1 0x0 MSTORE PUSH1 0x20 PUSH1 0x0 KECCAK256 SWAP1 JUMPDEST DUP2 SLOAD DUP2 MSTORE SWAP1 PUSH1 0x1 ADD SWAP1 PUSH1 0x20 ADD DUP1 DUP4 GT PUSH2 0x1FA2 JUMPI DUP3 SWAP1 SUB PUSH1 0x1F AND DUP3 ADD SWAP2 JUMPDEST POP POP POP POP POP DUP2 MSTORE PUSH1 0x20 ADD PUSH1 0x4 DUP3 ADD DUP1 SLOAD PUSH2 0x1FD8 SWAP1 PUSH2 0x2777 JUMP JUMPDEST DUP1 PUSH1 0x1F ADD PUSH1 0x20 DUP1 SWAP2 DIV MUL PUSH1 0x20 ADD PUSH1 0x40 MLOAD SWAP1 DUP2 ADD PUSH1 0x40 MSTORE DUP1 SWAP3 SWAP2 SWAP1 DUP2 DUP2 MSTORE PUSH1 0x20 ADD DUP3 DUP1 SLOAD PUSH2 0x2004 SWAP1 PUSH2 0x2777 JUMP JUMPDEST DUP1 ISZERO PUSH2 0x2051 JUMPI DUP1 PUSH1 0x1F LT PUSH2 0x2026 JUMPI PUSH2 0x100 DUP1 DUP4 SLOAD DIV MUL DUP4 MSTORE SWAP2 PUSH1 0x20 ADD SWAP2 PUSH2 0x2051 JUMP JUMPDEST DUP3 ADD SWAP2 SWAP1 PUSH1 0x0 MSTORE PUSH1 0x20 PUSH1 0x0 KECCAK256 SWAP1 JUMPDEST DUP2 SLOAD DUP2 MSTORE SWAP1 PUSH1 0x1 ADD SWAP1 PUSH1 0x20 ADD DUP1 DUP4 GT PUSH2 0x2034 JUMPI DUP3 SWAP1 SUB PUSH1 0x1F AND DUP3 ADD SWAP2 JUMPDEST POP POP POP POP POP DUP2 MSTORE PUSH1 0x20 ADD PUSH1 0x5 DUP3 ADD DUP1 SLOAD PUSH2 0x206A SWAP1 PUSH2 0x2777 JUMP JUMPDEST DUP1 PUSH1 0x1F ADD PUSH1 0x20 DUP1 SWAP2 DIV MUL PUSH1 0x20 ADD PUSH1 0x40 MLOAD SWAP1 DUP2 ADD PUSH1 0x40 MSTORE DUP1 SWAP3 SWAP2 SWAP1 DUP2 DUP2 MSTORE PUSH1 0x20 ADD DUP3 DUP1 SLOAD PUSH2 0x2096 SWAP1 PUSH2 0x2777 JUMP JUMPDEST DUP1 ISZERO PUSH2 0x20E3 JUMPI DUP1 PUSH1 0x1F LT PUSH2 0x20B8 JUMPI PUSH2 0x100 DUP1 DUP4 SLOAD DIV MUL DUP4 MSTORE SWAP2 PUSH1 0x20 ADD SWAP2 PUSH2 0x20E3 JUMP JUMPDEST DUP3 ADD SWAP2 SWAP1 PUSH1 0x0 MSTORE PUSH1 0x20 PUSH1 0x0 KECCAK256 SWAP1 JUMPDEST DUP2 SLOAD DUP2 MSTORE SWAP1 PUSH1 0x1 ADD SWAP1 PUSH1 0x20 ADD DUP1 DUP4 GT PUSH2 0x20C6 JUMPI DUP3 SWAP1 SUB PUSH1 0x1F AND DUP3 ADD SWAP2 JUMPDEST POP POP POP POP POP DUP2 MSTORE PUSH1 0x20 ADD PUSH1 0x6 DUP3 ADD SLOAD DUP2 MSTORE PUSH1 0x20 ADD PUSH1 0x7 DUP3 ADD SLOAD DUP2 MSTORE POP POP DUP2 MSTORE PUSH1 0x20 ADD SWAP1 PUSH1 0x1 ADD SWAP1 PUSH2 0x1E60 JUMP JUMPDEST PUSH1 0x0 DUP1 TIMESTAMP NUMBER BLOCKHASH CALLER PUSH1 0x40 MLOAD PUSH1 0x20 ADD PUSH2 0x214B SWAP4 SWAP3 SWAP2 SWAP1 SWAP3 DUP4 MSTORE PUSH1 0x20 DUP4 ADD SWAP2 SWAP1 SWAP2 MSTORE PUSH1 0x60 SHL PUSH12 0xFFFFFFFFFFFFFFFFFFFFFFFF NOT AND PUSH1 0x40 DUP3 ADD MSTORE PUSH1 0x54 ADD SWAP1 JUMP JUMPDEST PUSH1 0x40 DUP1 MLOAD PUSH1 0x1F NOT DUP2 DUP5 SUB ADD DUP2 MSTORE SWAP2 SWAP1 MSTORE DUP1 MLOAD PUSH1 0x20 SWAP1 SWAP2 ADD KECCAK256 SWAP1 POP PUSH1 0x0 PUSH2 0x2176 PUSH5 0x2540BE400 DUP4 PUSH2 0x2917 JUMP JUMPDEST SWAP1 POP JUMPDEST PUSH1 0x0 DUP2 DUP2 MSTORE PUSH1 0x4 PUSH1 0x20 MSTORE PUSH1 0x40 SWAP1 KECCAK256 SLOAD PUSH1 0xFF AND ISZERO PUSH2 0x21DC JUMPI DUP2 TIMESTAMP PUSH1 0x40 MLOAD PUSH1 0x20 ADD PUSH2 0x21AC SWAP3 SWAP2 SWAP1 SWAP2 DUP3 MSTORE PUSH1 0x20 DUP3 ADD MSTORE PUSH1 0x40 ADD SWAP1 JUMP JUMPDEST PUSH1 0x40 DUP1 MLOAD PUSH1 0x1F NOT DUP2 DUP5 SUB ADD DUP2 MSTORE SWAP2 SWAP1 MSTORE DUP1 MLOAD PUSH1 0x20 SWAP1 SWAP2 ADD KECCAK256 SWAP2 POP PUSH2 0x21D5 PUSH5 0x2540BE400 DUP4 PUSH2 0x2917 JUMP JUMPDEST SWAP1 POP PUSH2 0x2179 JUMP JUMPDEST PUSH1 0x0 DUP2 DUP2 MSTORE PUSH1 0x4 PUSH1 0x20 MSTORE PUSH1 0x40 SWAP1 KECCAK256 DUP1 SLOAD PUSH1 0xFF NOT AND PUSH1 0x1 OR SWAP1 SSTORE SWAP3 SWAP2 POP POP JUMP JUMPDEST PUSH1 0x0 PUSH1 0x20 DUP3 DUP5 SUB SLT ISZERO PUSH2 0x220D JUMPI PUSH1 0x0 DUP1 REVERT JUMPDEST POP CALLDATALOAD SWAP2 SWAP1 POP JUMP JUMPDEST PUSH1 0x0 DUP2 MLOAD DUP1 DUP5 MSTORE PUSH1 0x0 JUMPDEST DUP2 DUP2 LT ISZERO PUSH2 0x223A JUMPI PUSH1 0x20 DUP2 DUP6 ADD DUP2 ADD MLOAD DUP7 DUP4 ADD DUP3 ADD MSTORE ADD PUSH2 0x221E JUMP JUMPDEST POP PUSH1 0x0 PUSH1 0x20 DUP3 DUP7 ADD ADD MSTORE PUSH1 0x20 PUSH1 0x1F NOT PUSH1 0x1F DUP4 ADD AND DUP6 ADD ADD SWAP2 POP POP SWAP3 SWAP2 POP POP JUMP JUMPDEST PUSH1 0x0 PUSH2 0x100 DUP3 MLOAD DUP5 MSTORE PUSH1 0x20 DUP4 ADD MLOAD PUSH2 0x227D PUSH1 0x20 DUP7 ADD DUP3 PUSH1 0x1 PUSH1 0x1 PUSH1 0xA0 SHL SUB AND SWAP1 MSTORE JUMP JUMPDEST POP PUSH1 0x40 DUP4 ADD MLOAD DUP2 PUSH1 0x40 DUP7 ADD MSTORE PUSH2 0x2295 DUP3 DUP7 ADD DUP3 PUSH2 0x2214 JUMP JUMPDEST SWAP2 POP POP PUSH1 0x60 DUP4 ADD MLOAD DUP5 DUP3 SUB PUSH1 0x60 DUP7 ADD MSTORE PUSH2 0x22AF DUP3 DUP3 PUSH2 0x2214 JUMP JUMPDEST SWAP2 POP POP PUSH1 0x80 DUP4 ADD MLOAD DUP5 DUP3 SUB PUSH1 0x80 DUP7 ADD MSTORE PUSH2 0x22C9 DUP3 DUP3 PUSH2 0x2214 JUMP JUMPDEST SWAP2 POP POP PUSH1 0xA0 DUP4 ADD MLOAD DUP5 DUP3 SUB PUSH1 0xA0 DUP7 ADD MSTORE PUSH2 0x22E3 DUP3 DUP3 PUSH2 0x2214 JUMP JUMPDEST SWAP2 POP POP PUSH1 0xC0 DUP4 ADD MLOAD PUSH1 0xC0 DUP6 ADD MSTORE PUSH1 0xE0 DUP4 ADD MLOAD PUSH1 0xE0 DUP6 ADD MSTORE DUP1 SWAP2 POP POP SWAP3 SWAP2 POP POP JUMP JUMPDEST PUSH1 0x20 DUP2 MSTORE PUSH1 0x0 PUSH2 0x2317 PUSH1 0x20 DUP4 ADD DUP5 PUSH2 0x225A JUMP JUMPDEST SWAP4 SWAP3 POP POP POP JUMP JUMPDEST PUSH1 0x20 DUP1 DUP3 MSTORE DUP3 MLOAD DUP3 DUP3 ADD DUP2 SWAP1 MSTORE PUSH1 0x0 SWAP2 SWAP1 PUSH1 0x40 SWAP1 DUP2 DUP6 ADD SWAP1 DUP7 DUP5 ADD DUP6 JUMPDEST DUP3 DUP2 LT ISZERO PUSH2 0x238F JUMPI DUP2 MLOAD DUP1 MLOAD DUP6 MSTORE DUP7 DUP2 ADD MLOAD DUP8 DUP7 ADD MSTORE DUP6 DUP2 ADD MLOAD PUSH1 0x1 PUSH1 0x1 PUSH1 0xA0 SHL SUB SWAP1 DUP2 AND DUP8 DUP8 ADD MSTORE PUSH1 0x60 DUP1 DUP4 ADD MLOAD SWAP1 SWAP2 AND SWAP1 DUP7 ADD MSTORE PUSH1 0x80 SWAP1 DUP2 ADD MLOAD ISZERO ISZERO SWAP1 DUP6 ADD MSTORE PUSH1 0xA0 SWAP1 SWAP4 ADD SWAP3 SWAP1 DUP6 ADD SWAP1 PUSH1 0x1 ADD PUSH2 0x233B JUMP JUMPDEST POP SWAP2 SWAP8 SWAP7 POP POP POP POP POP POP POP JUMP JUMPDEST DUP9 DUP2 MSTORE PUSH1 0x1 PUSH1 0x1 PUSH1 0xA0 SHL SUB DUP9 AND PUSH1 0x20 DUP3 ADD MSTORE PUSH2 0x100 PUSH1 0x40 DUP3 ADD DUP2 SWAP1 MSTORE PUSH1 0x0 SWAP1 PUSH2 0x23C7 DUP4 DUP3 ADD DUP11 PUSH2 0x2214 JUMP JUMPDEST SWAP1 POP DUP3 DUP2 SUB PUSH1 0x60 DUP5 ADD MSTORE PUSH2 0x23DB DUP2 DUP10 PUSH2 0x2214 JUMP JUMPDEST SWAP1 POP DUP3 DUP2 SUB PUSH1 0x80 DUP5 ADD MSTORE PUSH2 0x23EF DUP2 DUP9 PUSH2 0x2214 JUMP JUMPDEST SWAP1 POP DUP3 DUP2 SUB PUSH1 0xA0 DUP5 ADD MSTORE PUSH2 0x2403 DUP2 DUP8 PUSH2 0x2214 JUMP JUMPDEST PUSH1 0xC0 DUP5 ADD SWAP6 SWAP1 SWAP6 MSTORE POP POP PUSH1 0xE0 ADD MSTORE SWAP7 SWAP6 POP POP POP POP POP POP JUMP JUMPDEST DUP1 CALLDATALOAD PUSH1 0x1 PUSH1 0x1 PUSH1 0xA0 SHL SUB DUP2 AND DUP2 EQ PUSH2 0x2432 JUMPI PUSH1 0x0 DUP1 REVERT JUMPDEST SWAP2 SWAP1 POP JUMP JUMPDEST PUSH1 0x0 DUP1 PUSH1 0x40 DUP4 DUP6 SUB SLT ISZERO PUSH2 0x244A JUMPI PUSH1 0x0 DUP1 REVERT JUMPDEST DUP3 CALLDATALOAD SWAP2 POP PUSH2 0x245A PUSH1 0x20 DUP5 ADD PUSH2 0x241B JUMP JUMPDEST SWAP1 POP SWAP3 POP SWAP3 SWAP1 POP JUMP JUMPDEST PUSH4 0x4E487B71 PUSH1 0xE0 SHL PUSH1 0x0 MSTORE PUSH1 0x41 PUSH1 0x4 MSTORE PUSH1 0x24 PUSH1 0x0 REVERT JUMPDEST PUSH1 0x0 DUP3 PUSH1 0x1F DUP4 ADD SLT PUSH2 0x248A JUMPI PUSH1 0x0 DUP1 REVERT JUMPDEST DUP2 CALLDATALOAD PUSH8 0xFFFFFFFFFFFFFFFF DUP1 DUP3 GT ISZERO PUSH2 0x24A5 JUMPI PUSH2 0x24A5 PUSH2 0x2463 JUMP JUMPDEST PUSH1 0x40 MLOAD PUSH1 0x1F DUP4 ADD PUSH1 0x1F NOT SWAP1 DUP2 AND PUSH1 0x3F ADD AND DUP2 ADD SWAP1 DUP3 DUP3 GT DUP2 DUP4 LT OR ISZERO PUSH2 0x24CD JUMPI PUSH2 0x24CD PUSH2 0x2463 JUMP JUMPDEST DUP2 PUSH1 0x40 MSTORE DUP4 DUP2 MSTORE DUP7 PUSH1 0x20 DUP6 DUP9 ADD ADD GT ISZERO PUSH2 0x24E6 JUMPI PUSH1 0x0 DUP1 REVERT JUMPDEST DUP4 PUSH1 0x20 DUP8 ADD PUSH1 0x20 DUP4 ADD CALLDATACOPY PUSH1 0x0 PUSH1 0x20 DUP6 DUP4 ADD ADD MSTORE DUP1 SWAP5 POP POP POP POP POP SWAP3 SWAP2 POP POP JUMP JUMPDEST PUSH1 0x0 DUP1 PUSH1 0x0 DUP1 PUSH1 0x0 PUSH1 0xA0 DUP7 DUP9 SUB SLT ISZERO PUSH2 0x251E JUMPI PUSH1 0x0 DUP1 REVERT JUMPDEST DUP6 CALLDATALOAD PUSH8 0xFFFFFFFFFFFFFFFF DUP1 DUP3 GT ISZERO PUSH2 0x2536 JUMPI PUSH1 0x0 DUP1 REVERT JUMPDEST PUSH2 0x2542 DUP10 DUP4 DUP11 ADD PUSH2 0x2479 JUMP JUMPDEST SWAP7 POP PUSH1 0x20 DUP9 ADD CALLDATALOAD SWAP2 POP DUP1 DUP3 GT ISZERO PUSH2 0x2558 JUMPI PUSH1 0x0 DUP1 REVERT JUMPDEST PUSH2 0x2564 DUP10 DUP4 DUP11 ADD PUSH2 0x2479 JUMP JUMPDEST SWAP6 POP PUSH1 0x40 DUP9 ADD CALLDATALOAD SWAP2 POP DUP1 DUP3 GT ISZERO PUSH2 0x257A JUMPI PUSH1 0x0 DUP1 REVERT JUMPDEST PUSH2 0x2586 DUP10 DUP4 DUP11 ADD PUSH2 0x2479 JUMP JUMPDEST SWAP5 POP PUSH1 0x60 DUP9 ADD CALLDATALOAD SWAP2 POP DUP1 DUP3 GT ISZERO PUSH2 0x259C JUMPI PUSH1 0x0 DUP1 REVERT JUMPDEST POP PUSH2 0x25A9 DUP9 DUP3 DUP10 ADD PUSH2 0x2479 JUMP JUMPDEST SWAP6 SWAP9 SWAP5 SWAP8 POP SWAP3 SWAP6 PUSH1 0x80 ADD CALLDATALOAD SWAP4 SWAP3 POP POP POP JUMP JUMPDEST PUSH1 0x0 PUSH1 0x20 DUP1 DUP4 ADD PUSH1 0x20 DUP5 MSTORE DUP1 DUP6 MLOAD DUP1 DUP4 MSTORE PUSH1 0x40 DUP7 ADD SWAP2 POP PUSH1 0x40 DUP2 PUSH1 0x5 SHL DUP8 ADD ADD SWAP3 POP PUSH1 0x20 DUP8 ADD PUSH1 0x0 JUMPDEST DUP3 DUP2 LT ISZERO PUSH2 0x2612 JUMPI PUSH1 0x3F NOT DUP9 DUP7 SUB ADD DUP5 MSTORE PUSH2 0x2600 DUP6 DUP4 MLOAD PUSH2 0x225A JUMP JUMPDEST SWAP5 POP SWAP3 DUP6 ADD SWAP3 SWAP1 DUP6 ADD SWAP1 PUSH1 0x1 ADD PUSH2 0x25E4 JUMP JUMPDEST POP SWAP3 SWAP8 SWAP7 POP POP POP POP POP POP POP JUMP JUMPDEST PUSH1 0x0 DUP1 PUSH1 0x40 DUP4 DUP6 SUB SLT ISZERO PUSH2 0x2632 JUMPI PUSH1 0x0 DUP1 REVERT JUMPDEST PUSH2 0x263B DUP4 PUSH2 0x241B JUMP JUMPDEST SWAP5 PUSH1 0x20 SWAP4 SWAP1 SWAP4 ADD CALLDATALOAD SWAP4 POP POP POP JUMP JUMPDEST PUSH1 0x0 PUSH1 0x20 DUP1 DUP4 ADD DUP2 DUP5 MSTORE DUP1 DUP6 MLOAD DUP1 DUP4 MSTORE PUSH1 0x40 SWAP3 POP PUSH1 0x40 DUP7 ADD SWAP2 POP PUSH1 0x40 DUP2 PUSH1 0x5 SHL DUP8 ADD ADD DUP5 DUP9 ADD PUSH1 0x0 JUMPDEST DUP4 DUP2 LT ISZERO PUSH2 0x2753 JUMPI DUP9 DUP4 SUB PUSH1 0x3F NOT ADD DUP6 MSTORE DUP2 MLOAD DUP1 MLOAD DUP5 MSTORE DUP8 DUP2 ADD MLOAD DUP9 DUP6 ADD MSTORE DUP7 DUP2 ADD MLOAD PUSH1 0x1 PUSH1 0x1 PUSH1 0xA0 SHL SUB DUP2 AND DUP9 DUP7 ADD MSTORE PUSH2 0x140 SWAP1 POP PUSH1 0x60 DUP3 DUP2 ADD MLOAD PUSH1 0x1 PUSH1 0x1 PUSH1 0xA0 SHL SUB DUP2 AND DUP8 DUP4 ADD MSTORE POP POP PUSH1 0x80 DUP1 DUP4 ADD MLOAD DUP3 DUP3 DUP9 ADD MSTORE PUSH2 0x26D5 DUP4 DUP9 ADD DUP3 PUSH2 0x2214 JUMP JUMPDEST SWAP3 POP POP POP PUSH1 0xA0 DUP1 DUP4 ADD MLOAD DUP7 DUP4 SUB DUP3 DUP9 ADD MSTORE PUSH2 0x26F0 DUP4 DUP3 PUSH2 0x2214 JUMP JUMPDEST SWAP3 POP POP POP PUSH1 0xC0 DUP1 DUP4 ADD MLOAD DUP7 DUP4 SUB DUP3 DUP9 ADD MSTORE PUSH2 0x270B DUP4 DUP3 PUSH2 0x2214 JUMP JUMPDEST SWAP3 POP POP POP PUSH1 0xE0 DUP1 DUP4 ADD MLOAD DUP7 DUP4 SUB DUP3 DUP9 ADD MSTORE PUSH2 0x2726 DUP4 DUP3 PUSH2 0x2214 JUMP JUMPDEST PUSH2 0x100 DUP6 DUP2 ADD MLOAD SWAP1 DUP10 ADD MSTORE PUSH2 0x120 SWAP5 DUP6 ADD MLOAD SWAP5 SWAP1 SWAP8 ADD SWAP4 SWAP1 SWAP4 MSTORE POP POP POP SWAP4 DUP7 ADD SWAP4 SWAP1 DUP7 ADD SWAP1 PUSH1 0x1 ADD PUSH2 0x2672 JUMP JUMPDEST POP SWAP1 SWAP9 SWAP8 POP POP POP POP POP POP POP POP JUMP JUMPDEST PUSH4 0x4E487B71 PUSH1 0xE0 SHL PUSH1 0x0 MSTORE PUSH1 0x32 PUSH1 0x4 MSTORE PUSH1 0x24 PUSH1 0x0 REVERT JUMPDEST PUSH1 0x1 DUP2 DUP2 SHR SWAP1 DUP3 AND DUP1 PUSH2 0x278B JUMPI PUSH1 0x7F DUP3 AND SWAP2 POP JUMPDEST PUSH1 0x20 DUP3 LT DUP2 SUB PUSH2 0x27AB JUMPI PUSH4 0x4E487B71 PUSH1 0xE0 SHL PUSH1 0x0 MSTORE PUSH1 0x22 PUSH1 0x4 MSTORE PUSH1 0x24 PUSH1 0x0 REVERT JUMPDEST POP SWAP2 SWAP1 POP JUMP JUMPDEST PUSH4 0x4E487B71 PUSH1 0xE0 SHL PUSH1 0x0 MSTORE PUSH1 0x11 PUSH1 0x4 MSTORE PUSH1 0x24 PUSH1 0x0 REVERT JUMPDEST PUSH1 0x0 PUSH1 0x1 DUP3 ADD PUSH2 0x27D9 JUMPI PUSH2 0x27D9 PUSH2 0x27B1 JUMP JUMPDEST POP PUSH1 0x1 ADD SWAP1 JUMP JUMPDEST DUP1 DUP3 ADD DUP1 DUP3 GT ISZERO PUSH2 0x1B3D JUMPI PUSH2 0x1B3D PUSH2 0x27B1 JUMP JUMPDEST PUSH1 0x1F DUP3 GT ISZERO PUSH2 0x283F JUMPI PUSH1 0x0 DUP2 PUSH1 0x0 MSTORE PUSH1 0x20 PUSH1 0x0 KECCAK256 PUSH1 0x1F DUP6 ADD PUSH1 0x5 SHR DUP2 ADD PUSH1 0x20 DUP7 LT ISZERO PUSH2 0x281C JUMPI POP DUP1 JUMPDEST PUSH1 0x1F DUP6 ADD PUSH1 0x5 SHR DUP3 ADD SWAP2 POP JUMPDEST DUP2 DUP2 LT ISZERO PUSH2 0x283B JUMPI DUP3 DUP2 SSTORE PUSH1 0x1 ADD PUSH2 0x2828 JUMP JUMPDEST POP POP POP JUMPDEST POP POP POP JUMP JUMPDEST DUP2 MLOAD PUSH8 0xFFFFFFFFFFFFFFFF DUP2 GT ISZERO PUSH2 0x285E JUMPI PUSH2 0x285E PUSH2 0x2463 JUMP JUMPDEST PUSH2 0x2872 DUP2 PUSH2 0x286C DUP5 SLOAD PUSH2 0x2777 JUMP JUMPDEST DUP5 PUSH2 0x27F3 JUMP JUMPDEST PUSH1 0x20 DUP1 PUSH1 0x1F DUP4 GT PUSH1 0x1 DUP2 EQ PUSH2 0x28A7 JUMPI PUSH1 0x0 DUP5 ISZERO PUSH2 0x288F JUMPI POP DUP6 DUP4 ADD MLOAD JUMPDEST PUSH1 0x0 NOT PUSH1 0x3 DUP7 SWAP1 SHL SHR NOT AND PUSH1 0x1 DUP6 SWAP1 SHL OR DUP6 SSTORE PUSH2 0x283B JUMP JUMPDEST PUSH1 0x0 DUP6 DUP2 MSTORE PUSH1 0x20 DUP2 KECCAK256 PUSH1 0x1F NOT DUP7 AND SWAP2 JUMPDEST DUP3 DUP2 LT ISZERO PUSH2 0x28D6 JUMPI DUP9 DUP7 ADD MLOAD DUP3 SSTORE SWAP5 DUP5 ADD SWAP5 PUSH1 0x1 SWAP1 SWAP2 ADD SWAP1 DUP5 ADD PUSH2 0x28B7 JUMP JUMPDEST POP DUP6 DUP3 LT ISZERO PUSH2 0x28F4 JUMPI DUP8 DUP6 ADD MLOAD PUSH1 0x0 NOT PUSH1 0x3 DUP9 SWAP1 SHL PUSH1 0xF8 AND SHR NOT AND DUP2 SSTORE JUMPDEST POP POP POP POP POP PUSH1 0x1 SWAP1 DUP2 SHL ADD SWAP1 SSTORE POP JUMP JUMPDEST PUSH1 0x20 DUP2 MSTORE PUSH1 0x0 PUSH2 0x2317 PUSH1 0x20 DUP4 ADD DUP5 PUSH2 0x2214 JUMP JUMPDEST PUSH1 0x0 DUP3 PUSH2 0x2934 JUMPI PUSH4 0x4E487B71 PUSH1 0xE0 SHL PUSH1 0x0 MSTORE PUSH1 0x12 PUSH1 0x4 MSTORE PUSH1 0x24 PUSH1 0x0 REVERT JUMPDEST POP MOD SWAP1 JUMP INVALID LOG2 PUSH5 0x6970667358 0x22 SLT KECCAK256 0xB4 0xEF SWAP15 PUSH11 0xB2410B450A5D20FF75DDE0 PUSH25 0xA998D5E16CDD4FA810859621FBF099C464736F6C6343000818 STOP CALLER "},"methodIdentifiers":{"approveLicenseRequest(uint256)":"a764b9cd","createFile(string,string,string,string,uint256)":"b2206ade","fileId()":"641b66e4","getAllPublicFiles()":"e90b39ec","getAllUserFiles()":"c3ba2cd9","getAllUserLicenses()":"e399e268","getFileId()":"40187599","getFileOwnerLicenseRequests()":"a6b9bcf6","getPublicFileById(uint256)":"0cc6f1a2","getPublicFiles()":"b98e644d","getUserLicenseRequests()":"37ef9440","isFileOwnedOrLicensed(address,uint256)":"db58b57f","owner()":"8da5cb5b","publicFiles(uint256)":"4506708e","rejectLicenseRequest(uint256)":"b448bb2d","requestId()":"006d6cae","requestLicense(uint256,address)":"95d892a1","usedLicenses(uint256)":"787a37b9","validateLicense(uint256)":"5f70a8fe"}}}}}