{"contracts/LicenseMarketplace.sol":{"LicenseMarketplace":{"abi":[{"inputs":[],"stateMutability":"nonpayable","type":"constructor"},{"anonymous":false,"inputs":[{"indexed":true,"internalType":"address","name":"owner","type":"address"},{"indexed":true,"internalType":"address","name":"buyer","type":"address"},{"indexed":false,"internalType":"string","name":"fileName","type":"string"}],"name":"FileLicense","type":"event"},{"anonymous":false,"inputs":[{"indexed":true,"internalType":"address","name":"owner","type":"address"},{"indexed":false,"internalType":"string","name":"fileName","type":"string"}],"name":"FileShared","type":"event"},{"anonymous":false,"inputs":[{"indexed":true,"internalType":"uint256","name":"requestId","type":"uint256"},{"indexed":false,"internalType":"uint256","name":"fileId","type":"uint256"},{"indexed":false,"internalType":"address","name":"requester","type":"address"},{"indexed":false,"internalType":"address","name":"fileOwner","type":"address"}],"name":"LicenseRequestApproved","type":"event"},{"anonymous":false,"inputs":[{"indexed":true,"internalType":"uint256","name":"requestId","type":"uint256"},{"indexed":false,"internalType":"uint256","name":"fileId","type":"uint256"},{"indexed":false,"internalType":"address","name":"requester","type":"address"},{"indexed":false,"internalType":"address","name":"fileOwner","type":"address"}],"name":"LicenseRequestCreated","type":"event"},{"anonymous":false,"inputs":[{"indexed":true,"internalType":"uint256","name":"requestId","type":"uint256"},{"indexed":false,"internalType":"uint256","name":"fileId","type":"uint256"},{"indexed":false,"internalType":"address","name":"requester","type":"address"},{"indexed":false,"internalType":"address","name":"fileOwner","type":"address"}],"name":"LicenseRequestRejected","type":"event"},{"inputs":[{"internalType":"uint256","name":"_requestId","type":"uint256"}],"name":"approveLicenseRequest","outputs":[],"stateMutability":"nonpayable","type":"function"},{"inputs":[{"internalType":"string","name":"_fileName","type":"string"},{"internalType":"string","name":"_description","type":"string"},{"internalType":"string","name":"_category","type":"string"},{"internalType":"string","name":"_fileCid","type":"string"},{"internalType":"uint256","name":"_fileSize","type":"uint256"},{"internalType":"string","name":"_imgUrl","type":"string"}],"name":"createFile","outputs":[],"stateMutability":"nonpayable","type":"function"},{"inputs":[],"name":"fileId","outputs":[{"internalType":"uint256","name":"","type":"uint256"}],"stateMutability":"view","type":"function"},{"inputs":[],"name":"getAllPublicFiles","outputs":[{"components":[{"internalType":"uint256","name":"id","type":"uint256"},{"internalType":"address","name":"fileOwner","type":"address"},{"internalType":"string","name":"fileName","type":"string"},{"internalType":"string","name":"description","type":"string"},{"internalType":"string","name":"category","type":"string"},{"internalType":"string","name":"fileCid","type":"string"},{"internalType":"string","name":"imgUrl","type":"string"},{"internalType":"uint256","name":"fileSize","type":"uint256"},{"internalType":"uint256","name":"createdAt","type":"uint256"}],"internalType":"struct LicenseMarketplace.File[]","name":"","type":"tuple[]"}],"stateMutability":"view","type":"function"},{"inputs":[],"name":"getAllUserFiles","outputs":[{"components":[{"internalType":"uint256","name":"id","type":"uint256"},{"internalType":"address","name":"fileOwner","type":"address"},{"internalType":"string","name":"fileName","type":"string"},{"internalType":"string","name":"description","type":"string"},{"internalType":"string","name":"category","type":"string"},{"internalType":"string","name":"fileCid","type":"string"},{"internalType":"string","name":"imgUrl","type":"string"},{"internalType":"uint256","name":"fileSize","type":"uint256"},{"internalType":"uint256","name":"createdAt","type":"uint256"}],"internalType":"struct LicenseMarketplace.File[]","name":"","type":"tuple[]"}],"stateMutability":"view","type":"function"},{"inputs":[],"name":"getAllUserLicenses","outputs":[{"components":[{"internalType":"uint256","name":"licenseNumber","type":"uint256"},{"internalType":"uint256","name":"fileId","type":"uint256"},{"internalType":"address","name":"fileOwner","type":"address"},{"internalType":"address","name":"buyer","type":"address"},{"internalType":"string","name":"fileName","type":"string"},{"internalType":"string","name":"description","type":"string"},{"internalType":"string","name":"category","type":"string"},{"internalType":"string","name":"fileCid","type":"string"},{"internalType":"string","name":"imgUrl","type":"string"},{"internalType":"uint256","name":"fileSize","type":"uint256"},{"internalType":"uint256","name":"createdAt","type":"uint256"}],"internalType":"struct LicenseMarketplace.License[]","name":"","type":"tuple[]"}],"stateMutability":"view","type":"function"},{"inputs":[],"name":"getFileId","outputs":[{"internalType":"uint256","name":"","type":"uint256"}],"stateMutability":"view","type":"function"},{"inputs":[],"name":"getFileOwnerLicenseRequests","outputs":[{"components":[{"internalType":"uint256","name":"requestId","type":"uint256"},{"internalType":"uint256","name":"fileId","type":"uint256"},{"internalType":"address","name":"requester","type":"address"},{"internalType":"address","name":"fileOwner","type":"address"},{"internalType":"bool","name":"isApproved","type":"bool"}],"internalType":"struct LicenseMarketplace.LicenseRequest[]","name":"","type":"tuple[]"}],"stateMutability":"view","type":"function"},{"inputs":[{"internalType":"uint256","name":"_id","type":"uint256"}],"name":"getPublicFileById","outputs":[{"components":[{"internalType":"uint256","name":"id","type":"uint256"},{"internalType":"address","name":"fileOwner","type":"address"},{"internalType":"string","name":"fileName","type":"string"},{"internalType":"string","name":"description","type":"string"},{"internalType":"string","name":"category","type":"string"},{"internalType":"string","name":"fileCid","type":"string"},{"internalType":"string","name":"imgUrl","type":"string"},{"internalType":"uint256","name":"fileSize","type":"uint256"},{"internalType":"uint256","name":"createdAt","type":"uint256"}],"internalType":"struct LicenseMarketplace.File","name":"","type":"tuple"}],"stateMutability":"view","type":"function"},{"inputs":[],"name":"getPublicFiles","outputs":[{"components":[{"internalType":"uint256","name":"id","type":"uint256"},{"internalType":"address","name":"fileOwner","type":"address"},{"internalType":"string","name":"fileName","type":"string"},{"internalType":"string","name":"description","type":"string"},{"internalType":"string","name":"category","type":"string"},{"internalType":"string","name":"fileCid","type":"string"},{"internalType":"string","name":"imgUrl","type":"string"},{"internalType":"uint256","name":"fileSize","type":"uint256"},{"internalType":"uint256","name":"createdAt","type":"uint256"}],"internalType":"struct LicenseMarketplace.File[]","name":"","type":"tuple[]"}],"stateMutability":"view","type":"function"},{"inputs":[],"name":"getUserLicenseRequests","outputs":[{"components":[{"internalType":"uint256","name":"requestId","type":"uint256"},{"internalType":"uint256","name":"fileId","type":"uint256"},{"internalType":"address","name":"requester","type":"address"},{"internalType":"address","name":"fileOwner","type":"address"},{"internalType":"bool","name":"isApproved","type":"bool"}],"internalType":"struct LicenseMarketplace.LicenseRequest[]","name":"","type":"tuple[]"}],"stateMutability":"view","type":"function"},{"inputs":[{"internalType":"address","name":"_user","type":"address"},{"internalType":"uint256","name":"_fileId","type":"uint256"}],"name":"isFileOwnedOrLicensed","outputs":[{"internalType":"bool","name":"","type":"bool"}],"stateMutability":"view","type":"function"},{"inputs":[],"name":"owner","outputs":[{"internalType":"address","name":"","type":"address"}],"stateMutability":"view","type":"function"},{"inputs":[{"internalType":"uint256","name":"","type":"uint256"}],"name":"publicFiles","outputs":[{"internalType":"uint256","name":"id","type":"uint256"},{"internalType":"address","name":"fileOwner","type":"address"},{"internalType":"string","name":"fileName","type":"string"},{"internalType":"string","name":"description","type":"string"},{"internalType":"string","name":"category","type":"string"},{"internalType":"string","name":"fileCid","type":"string"},{"internalType":"string","name":"imgUrl","type":"string"},{"internalType":"uint256","name":"fileSize","type":"uint256"},{"internalType":"uint256","name":"createdAt","type":"uint256"}],"stateMutability":"view","type":"function"},{"inputs":[{"internalType":"uint256","name":"_requestId","type":"uint256"}],"name":"rejectLicenseRequest","outputs":[],"stateMutability":"nonpayable","type":"function"},{"inputs":[],"name":"requestId","outputs":[{"internalType":"uint256","name":"","type":"uint256"}],"stateMutability":"view","type":"function"},{"inputs":[{"internalType":"uint256","name":"_fileId","type":"uint256"},{"internalType":"address","name":"_fileOwner","type":"address"}],"name":"requestLicense","outputs":[],"stateMutability":"nonpayable","type":"function"},{"inputs":[{"internalType":"uint256","name":"","type":"uint256"}],"name":"usedLicenses","outputs":[{"internalType":"bool","name":"","type":"bool"}],"stateMutability":"view","type":"function"},{"inputs":[{"internalType":"uint256","name":"licenseNumber","type":"uint256"}],"name":"validateLicense","outputs":[{"internalType":"bool","name":"","type":"bool"}],"stateMutability":"view","type":"function"}],"evm":{"bytecode":{"linkReferences":{},"object":"608060405234801561001057600080fd5b50600080546001600160a01b03191633179055612da9806100326000396000f3fe608060405234801561001057600080fd5b50600436106101205760003560e01c80638da5cb5b116100ad578063b98e644d11610071578063b98e644d14610286578063c3ba2cd91461029b578063db58b57f146102a3578063e399e268146102b6578063e90b39ec146102cb57600080fd5b80638da5cb5b1461021a57806395d892a114610245578063a6b9bcf614610258578063a764b9cd14610260578063b448bb2d1461027357600080fd5b806340187599116100f4578063401875991461018b5780634506708e146101935780635f70a8fe146101bb578063641b66e4146101ee578063787a37b9146101f757600080fd5b80626d6cae146101255780630cc6f1a2146101415780631b4a422c1461016157806337ef944014610176575b600080fd5b61012e60075481565b6040519081526020015b60405180910390f35b61015461014f3660046125c4565b6102d3565b60405161013891906126e7565b61017461016f3660046127a4565b61070d565b005b61017e6109a0565b604051610138919061287e565b61012e610b44565b6101a66101a13660046125c4565b610b5a565b604051610138999897969594939291906128fc565b6101de6101c93660046125c4565b60009081526004602052604090205460ff1690565b6040519015158152602001610138565b61012e60065481565b6101de6102053660046125c4565b60046020526000908152604090205460ff1681565b60005461022d906001600160a01b031681565b6040516001600160a01b039091168152602001610138565b6101746102533660046129ad565b610e67565b61017e610fd1565b61017461026e3660046125c4565b61116e565b6101746102813660046125c4565b611497565b61028e61160a565b60405161013891906129d9565b61028e611978565b6101de6102b1366004612a3d565b611ce8565b6102be611de8565b6040516101389190612a67565b61028e612173565b61032b6040518061012001604052806000815260200160006001600160a01b03168152602001606081526020016060815260200160608152602001606081526020016060815260200160008152602001600081525090565b60005b6005548110156106c757826005828154811061034c5761034c612b9b565b906000526020600020906009020160000154036106bf576005818154811061037657610376612b9b565b906000526020600020906009020160405180610120016040529081600082015481526020016001820160009054906101000a90046001600160a01b03166001600160a01b03166001600160a01b031681526020016002820180546103d990612bb1565b80601f016020809104026020016040519081016040528092919081815260200182805461040590612bb1565b80156104525780601f1061042757610100808354040283529160200191610452565b820191906000526020600020905b81548152906001019060200180831161043557829003601f168201915b5050505050815260200160038201805461046b90612bb1565b80601f016020809104026020016040519081016040528092919081815260200182805461049790612bb1565b80156104e45780601f106104b9576101008083540402835291602001916104e4565b820191906000526020600020905b8154815290600101906020018083116104c757829003601f168201915b505050505081526020016004820180546104fd90612bb1565b80601f016020809104026020016040519081016040528092919081815260200182805461052990612bb1565b80156105765780601f1061054b57610100808354040283529160200191610576565b820191906000526020600020905b81548152906001019060200180831161055957829003601f168201915b5050505050815260200160058201805461058f90612bb1565b80601f01602080910402602001604051908101604052809291908181526020018280546105bb90612bb1565b80156106085780601f106105dd57610100808354040283529160200191610608565b820191906000526020600020905b8154815290600101906020018083116105eb57829003601f168201915b5050505050815260200160068201805461062190612bb1565b80601f016020809104026020016040519081016040528092919081815260200182805461064d90612bb1565b801561069a5780601f1061066f5761010080835404028352916020019161069a565b820191906000526020600020905b81548152906001019060200180831161067d57829003601f168201915b5050505050815260200160078201548152602001600882015481525050915050919050565b60010161032e565b5060405162461bcd60e51b8152602060048201526015602482015274141d589b1a58c8199a5b19481b9bdd08199bdd5b99605a1b60448201526064015b60405180910390fd5b6006805490600061071d83612c01565b9091555050604080516101208101825260065481523360208083018281528385018b8152606085018b9052608085018a905260a0850189905260c0850187905260e085018890524261010086015260009384526001808452958420805480880182559085529290932084516009909302019182555193810180546001600160a01b0319166001600160a01b0390951694909417909355519091829160028201906107c79082612c6b565b50606082015160038201906107dc9082612c6b565b50608082015160048201906107f19082612c6b565b5060a082015160058201906108069082612c6b565b5060c0820151600682019061081b9082612c6b565b5060e08201516007820155610100909101516008909101556005805460018101825560009190915281517f036b6384b5eca791c62761152d0c79bb0604c104a5fb6f4eb0703f3154bb3db0600990920291820190815560208301517f036b6384b5eca791c62761152d0c79bb0604c104a5fb6f4eb0703f3154bb3db1830180546001600160a01b0319166001600160a01b03909216919091179055604083015183927f036b6384b5eca791c62761152d0c79bb0604c104a5fb6f4eb0703f3154bb3db201906108ea9082612c6b565b50606082015160038201906108ff9082612c6b565b50608082015160048201906109149082612c6b565b5060a082015160058201906109299082612c6b565b5060c0820151600682019061093e9082612c6b565b5060e0820151816007015561010082015181600801555050336001600160a01b03167f0e03c7e37ad39057585e52c6e4f117a61225036a88a2ada7f870a6b994a1bc218860405161098f9190612d2b565b60405180910390a250505050505050565b6060600060015b60075481116109f357600081815260036020526040902060020154336001600160a01b03909116036109e157816109dd81612c01565b9250505b806109eb81612c01565b9150506109a7565b5060008167ffffffffffffffff811115610a0f57610a0f612701565b604051908082528060200260200182016040528015610a6857816020015b6040805160a081018252600080825260208083018290529282018190526060820181905260808201528252600019909201910181610a2d5790505b509050600060015b6007548111610b3b57600081815260036020526040902060020154336001600160a01b0390911603610b2957600081815260036020818152604092839020835160a0810185528154815260018201549281019290925260028101546001600160a01b0390811694830194909452909101549182166060820152600160a01b90910460ff16151560808201528351849084908110610b0f57610b0f612b9b565b60200260200101819052508180610b2590612c01565b9250505b80610b3381612c01565b915050610a70565b50909392505050565b60006006546001610b559190612d3e565b905090565b60058181548110610b6a57600080fd5b60009182526020909120600990910201805460018201546002830180549294506001600160a01b039091169291610ba090612bb1565b80601f0160208091040260200160405190810160405280929190818152602001828054610bcc90612bb1565b8015610c195780601f10610bee57610100808354040283529160200191610c19565b820191906000526020600020905b815481529060010190602001808311610bfc57829003601f168201915b505050505090806003018054610c2e90612bb1565b80601f0160208091040260200160405190810160405280929190818152602001828054610c5a90612bb1565b8015610ca75780601f10610c7c57610100808354040283529160200191610ca7565b820191906000526020600020905b815481529060010190602001808311610c8a57829003601f168201915b505050505090806004018054610cbc90612bb1565b80601f0160208091040260200160405190810160405280929190818152602001828054610ce890612bb1565b8015610d355780601f10610d0a57610100808354040283529160200191610d35565b820191906000526020600020905b815481529060010190602001808311610d1857829003601f168201915b505050505090806005018054610d4a90612bb1565b80601f0160208091040260200160405190810160405280929190818152602001828054610d7690612bb1565b8015610dc35780601f10610d9857610100808354040283529160200191610dc3565b820191906000526020600020905b815481529060010190602001808311610da657829003601f168201915b505050505090806006018054610dd890612bb1565b80601f0160208091040260200160405190810160405280929190818152602001828054610e0490612bb1565b8015610e515780601f10610e2657610100808354040283529160200191610e51565b820191906000526020600020905b815481529060010190602001808311610e3457829003601f168201915b5050505050908060070154908060080154905089565b610e713383611ce8565b15610ed75760405162461bcd60e51b815260206004820152603060248201527f5573657220616c7265616479206f776e73206f72206861732061206c6963656e60448201526f736520666f7220746869732066696c6560801b6064820152608401610704565b60078054906000610ee783612c01565b90915550506040805160a081018252600780548083526020808401878152338587018181526001600160a01b038981166060808a01828152600060808c018181529981526003808a52908d90208c5181559751600189015594516002880180549186166001600160a01b03199092169190911790555195909301805497511515600160a01b026001600160a81b0319909816959092169490941795909517909455935486518981529283019490945294810194909452919290917f3563c2ab88374e4253e716e489b51ed99c61edfecc313080b65cb94efb16b3aa910160405180910390a2505050565b6060600060015b60075481116110255760008181526003602081905260409091200154336001600160a01b0390911603611013578161100f81612c01565b9250505b8061101d81612c01565b915050610fd8565b5060008167ffffffffffffffff81111561104157611041612701565b60405190808252806020026020018201604052801561109a57816020015b6040805160a08101825260008082526020808301829052928201819052606082018190526080820152825260001990920191018161105f5790505b509050600060015b6007548111610b3b5760008181526003602081905260409091200154336001600160a01b039091160361115c57600081815260036020818152604092839020835160a0810185528154815260018201549281019290925260028101546001600160a01b0390811694830194909452909101549182166060820152600160a01b90910460ff1615156080820152835184908490811061114257611142612b9b565b6020026020010181905250818061115890612c01565b9250505b8061116681612c01565b9150506110a2565b6000818152600360208190526040909120908101546001600160a01b031633146111ee5760405162461bcd60e51b815260206004820152602b60248201527f4f6e6c79207468652066696c65206f776e65722063616e20617070726f76652060448201526a1d1a19481c995c5d595cdd60aa1b6064820152608401610704565b6003810154600160a01b900460ff16156112455760405162461bcd60e51b815260206004820152601860248201527714995c5d595cdd08185b1c9958591e48185c1c1c9bdd995960421b6044820152606401610704565b60038101805460ff60a01b1916600160a01b179055600181015460009061126b906102d3565b905060006112776124d8565b604080516101608101825282815284516020808301918252808701516001600160a01b0390811684860190815260028a810154831660608088018281528c8a01516080808b01918252928e015160a0808c0191909152928e015160c0808c0191909152928e015160e0808c0191909152928e01516101008b0152918d01516101208a0152426101408a01526000928352838752988220805460018082018355918452969092208851600b90970201958655955190850155905190830180546001600160a01b03199081169284169290921790559451600383018054909616911617909355519293509182919060048201906113729082612c6b565b5060a082015160058201906113879082612c6b565b5060c0820151600682019061139c9082612c6b565b5060e082015160078201906113b19082612c6b565b5061010082015160088201906113c79082612c6b565b50610120820151600982015561014090910151600a909101556002840154602084015160408086015190516001600160a01b0393841693909216917f36b71a34b45297c2eddbb6d8a95b9703618f6300d0676fa891c58bcdaa90dbb39161142d91612d2b565b60405180910390a3600184015460028501546003860154604080519384526001600160a01b03928316602085015291169082015285907f6e12100d9a45da1a9e96a9fc000ff4db7bfc27cc43fdf07dab275b581483fb499060600160405180910390a25050505050565b6000818152600360208190526040909120908101546001600160a01b031633146115165760405162461bcd60e51b815260206004820152602a60248201527f4f6e6c79207468652066696c65206f776e65722063616e2072656a65637420746044820152691a19481c995c5d595cdd60b21b6064820152608401610704565b6003810154600160a01b900460ff161561156d5760405162461bcd60e51b815260206004820152601860248201527714995c5d595cdd08185b1c9958591e48185c1c1c9bdd995960421b6044820152606401610704565b6000828152600360208181526040808420848155600180820195909555600280820180546001600160a01b031916905590840180546001600160a81b031916905593850154938501549285015481519485526001600160a01b039384169285019290925291169082015282907f23bc048e2726b66e4b6df842e8940378c39ead4ceeeabbbe237bd71caf10603b9060600160405180910390a25050565b60606005805480602002602001604051908101604052809291908181526020016000905b8282101561196f5760008481526020908190206040805161012081018252600986029092018054835260018101546001600160a01b0316938301939093526002830180549293929184019161168290612bb1565b80601f01602080910402602001604051908101604052809291908181526020018280546116ae90612bb1565b80156116fb5780601f106116d0576101008083540402835291602001916116fb565b820191906000526020600020905b8154815290600101906020018083116116de57829003601f168201915b5050505050815260200160038201805461171490612bb1565b80601f016020809104026020016040519081016040528092919081815260200182805461174090612bb1565b801561178d5780601f106117625761010080835404028352916020019161178d565b820191906000526020600020905b81548152906001019060200180831161177057829003601f168201915b505050505081526020016004820180546117a690612bb1565b80601f01602080910402602001604051908101604052809291908181526020018280546117d290612bb1565b801561181f5780601f106117f45761010080835404028352916020019161181f565b820191906000526020600020905b81548152906001019060200180831161180257829003601f168201915b5050505050815260200160058201805461183890612bb1565b80601f016020809104026020016040519081016040528092919081815260200182805461186490612bb1565b80156118b15780601f10611886576101008083540402835291602001916118b1565b820191906000526020600020905b81548152906001019060200180831161189457829003601f168201915b505050505081526020016006820180546118ca90612bb1565b80601f01602080910402602001604051908101604052809291908181526020018280546118f690612bb1565b80156119435780601f1061191857610100808354040283529160200191611943565b820191906000526020600020905b81548152906001019060200180831161192657829003601f168201915b50505050508152602001600782015481526020016008820154815250508152602001906001019061162e565b50505050905090565b336000908152600160209081526040808320805482518185028101850190935280835260609492939192909184015b8282101561196f5760008481526020908190206040805161012081018252600986029092018054835260018101546001600160a01b031693830193909352600283018054929392918401916119fb90612bb1565b80601f0160208091040260200160405190810160405280929190818152602001828054611a2790612bb1565b8015611a745780601f10611a4957610100808354040283529160200191611a74565b820191906000526020600020905b815481529060010190602001808311611a5757829003601f168201915b50505050508152602001600382018054611a8d90612bb1565b80601f0160208091040260200160405190810160405280929190818152602001828054611ab990612bb1565b8015611b065780601f10611adb57610100808354040283529160200191611b06565b820191906000526020600020905b815481529060010190602001808311611ae957829003601f168201915b50505050508152602001600482018054611b1f90612bb1565b80601f0160208091040260200160405190810160405280929190818152602001828054611b4b90612bb1565b8015611b985780601f10611b6d57610100808354040283529160200191611b98565b820191906000526020600020905b815481529060010190602001808311611b7b57829003601f168201915b50505050508152602001600582018054611bb190612bb1565b80601f0160208091040260200160405190810160405280929190818152602001828054611bdd90612bb1565b8015611c2a5780601f10611bff57610100808354040283529160200191611c2a565b820191906000526020600020905b815481529060010190602001808311611c0d57829003601f168201915b50505050508152602001600682018054611c4390612bb1565b80601f0160208091040260200160405190810160405280929190818152602001828054611c6f90612bb1565b8015611cbc5780601f10611c9157610100808354040283529160200191611cbc565b820191906000526020600020905b815481529060010190602001808311611c9f57829003601f168201915b5050505050815260200160078201548152602001600882015481525050815260200190600101906119a7565b6000805b6001600160a01b038416600090815260016020526040902054811015611d62576001600160a01b0384166000908152600160205260409020805484919083908110611d3957611d39612b9b565b90600052602060002090600902016000015403611d5a576001915050611de2565b600101611cec565b5060005b6001600160a01b038416600090815260026020526040902054811015611ddc576001600160a01b0384166000908152600260205260409020805484919083908110611db357611db3612b9b565b90600052602060002090600b02016001015403611dd4576001915050611de2565b600101611d66565b50600090505b92915050565b336000908152600260209081526040808320805482518185028101850190935280835260609492939192909184015b8282101561196f5760008481526020908190206040805161016081018252600b86029092018054835260018101549383019390935260028301546001600160a01b03908116918301919091526003830154166060820152600482018054919291608084019190611e8690612bb1565b80601f0160208091040260200160405190810160405280929190818152602001828054611eb290612bb1565b8015611eff5780601f10611ed457610100808354040283529160200191611eff565b820191906000526020600020905b815481529060010190602001808311611ee257829003601f168201915b50505050508152602001600582018054611f1890612bb1565b80601f0160208091040260200160405190810160405280929190818152602001828054611f4490612bb1565b8015611f915780601f10611f6657610100808354040283529160200191611f91565b820191906000526020600020905b815481529060010190602001808311611f7457829003601f168201915b50505050508152602001600682018054611faa90612bb1565b80601f0160208091040260200160405190810160405280929190818152602001828054611fd690612bb1565b80156120235780601f10611ff857610100808354040283529160200191612023565b820191906000526020600020905b81548152906001019060200180831161200657829003601f168201915b5050505050815260200160078201805461203c90612bb1565b80601f016020809104026020016040519081016040528092919081815260200182805461206890612bb1565b80156120b55780601f1061208a576101008083540402835291602001916120b5565b820191906000526020600020905b81548152906001019060200180831161209857829003601f168201915b505050505081526020016008820180546120ce90612bb1565b80601f01602080910402602001604051908101604052809291908181526020018280546120fa90612bb1565b80156121475780601f1061211c57610100808354040283529160200191612147565b820191906000526020600020905b81548152906001019060200180831161212a57829003601f168201915b5050505050815260200160098201548152602001600a8201548152505081526020019060010190611e17565b60606005805480602002602001604051908101604052809291908181526020016000905b8282101561196f5760008481526020908190206040805161012081018252600986029092018054835260018101546001600160a01b031693830193909352600283018054929392918401916121eb90612bb1565b80601f016020809104026020016040519081016040528092919081815260200182805461221790612bb1565b80156122645780601f1061223957610100808354040283529160200191612264565b820191906000526020600020905b81548152906001019060200180831161224757829003601f168201915b5050505050815260200160038201805461227d90612bb1565b80601f01602080910402602001604051908101604052809291908181526020018280546122a990612bb1565b80156122f65780601f106122cb576101008083540402835291602001916122f6565b820191906000526020600020905b8154815290600101906020018083116122d957829003601f168201915b5050505050815260200160048201805461230f90612bb1565b80601f016020809104026020016040519081016040528092919081815260200182805461233b90612bb1565b80156123885780601f1061235d57610100808354040283529160200191612388565b820191906000526020600020905b81548152906001019060200180831161236b57829003601f168201915b505050505081526020016005820180546123a190612bb1565b80601f01602080910402602001604051908101604052809291908181526020018280546123cd90612bb1565b801561241a5780601f106123ef5761010080835404028352916020019161241a565b820191906000526020600020905b8154815290600101906020018083116123fd57829003601f168201915b5050505050815260200160068201805461243390612bb1565b80601f016020809104026020016040519081016040528092919081815260200182805461245f90612bb1565b80156124ac5780601f10612481576101008083540402835291602001916124ac565b820191906000526020600020905b81548152906001019060200180831161248f57829003601f168201915b505050505081526020016007820154815260200160088201548152505081526020019060010190612197565b6000804243403360405160200161251493929190928352602083019190915260601b6bffffffffffffffffffffffff1916604082015260540190565b60408051601f1981840301815291905280516020909101209050600061253f6402540be40083612d51565b90505b60008181526004602052604090205460ff16156125a5578142604051602001612575929190918252602082015260400190565b60408051601f198184030181529190528051602090910120915061259e6402540be40083612d51565b9050612542565b6000818152600460205260409020805460ff1916600117905592915050565b6000602082840312156125d657600080fd5b5035919050565b6000815180845260005b81811015612603576020818501810151868301820152016125e7565b506000602082860101526020601f19601f83011685010191505092915050565b600061012082518452602083015161264660208601826001600160a01b03169052565b50604083015181604086015261265e828601826125dd565b9150506060830151848203606086015261267882826125dd565b9150506080830151848203608086015261269282826125dd565b91505060a083015184820360a08601526126ac82826125dd565b91505060c083015184820360c08601526126c682826125dd565b60e08581015190870152610100948501519490950193909352509192915050565b6020815260006126fa6020830184612623565b9392505050565b634e487b7160e01b600052604160045260246000fd5b600082601f83011261272857600080fd5b813567ffffffffffffffff8082111561274357612743612701565b604051601f8301601f19908116603f0116810190828211818310171561276b5761276b612701565b8160405283815286602085880101111561278457600080fd5b836020870160208301376000602085830101528094505050505092915050565b60008060008060008060c087890312156127bd57600080fd5b863567ffffffffffffffff808211156127d557600080fd5b6127e18a838b01612717565b975060208901359150808211156127f757600080fd5b6128038a838b01612717565b9650604089013591508082111561281957600080fd5b6128258a838b01612717565b9550606089013591508082111561283b57600080fd5b6128478a838b01612717565b94506080890135935060a089013591508082111561286457600080fd5b5061287189828a01612717565b9150509295509295509295565b602080825282518282018190526000919060409081850190868401855b828110156128ef578151805185528681015187860152858101516001600160a01b03908116878701526060808301519091169086015260809081015115159085015260a0909301929085019060010161289b565b5091979650505050505050565b8981526001600160a01b0389166020820152610120604082018190526000906129278382018b6125dd565b9050828103606084015261293b818a6125dd565b9050828103608084015261294f81896125dd565b905082810360a084015261296381886125dd565b905082810360c084015261297781876125dd565b60e084019590955250506101000152979650505050505050565b80356001600160a01b03811681146129a857600080fd5b919050565b600080604083850312156129c057600080fd5b823591506129d060208401612991565b90509250929050565b600060208083016020845280855180835260408601915060408160051b87010192506020870160005b82811015612a3057603f19888603018452612a1e858351612623565b94509285019290850190600101612a02565b5092979650505050505050565b60008060408385031215612a5057600080fd5b612a5983612991565b946020939093013593505050565b600060208083018184528085518083526040925060408601915060408160051b87010184880160005b83811015612b8d57888303603f190185528151805184528781015188850152868101516001600160a01b0381168886015261016090506060828101516001600160a01b0381168783015250506080808301518282880152612af3838801826125dd565b9250505060a08083015186830382880152612b0e83826125dd565b9250505060c08083015186830382880152612b2983826125dd565b9250505060e08083015186830382880152612b4483826125dd565b925050506101008083015186830382880152612b6083826125dd565b61012085810151908901526101409485015194909701939093525050509386019390860190600101612a90565b509098975050505050505050565b634e487b7160e01b600052603260045260246000fd5b600181811c90821680612bc557607f821691505b602082108103612be557634e487b7160e01b600052602260045260246000fd5b50919050565b634e487b7160e01b600052601160045260246000fd5b600060018201612c1357612c13612beb565b5060010190565b601f821115612c66576000816000526020600020601f850160051c81016020861015612c435750805b601f850160051c820191505b81811015612c6257828155600101612c4f565b5050505b505050565b815167ffffffffffffffff811115612c8557612c85612701565b612c9981612c938454612bb1565b84612c1a565b602080601f831160018114612cce5760008415612cb65750858301515b600019600386901b1c1916600185901b178555612c62565b600085815260208120601f198616915b82811015612cfd57888601518255948401946001909101908401612cde565b5085821015612d1b5787850151600019600388901b60f8161c191681555b5050505050600190811b01905550565b6020815260006126fa60208301846125dd565b80820180821115611de257611de2612beb565b600082612d6e57634e487b7160e01b600052601260045260246000fd5b50069056fea2646970667358221220f0424732f1ac221a69d86d94ef1cf5c1b92648daff6f2c2aff6d1f5309190b0764736f6c63430008180033","opcodes":"PUSH1 0x80 PUSH1 0x40 MSTORE CALLVALUE DUP1 ISZERO PUSH2 0x10 JUMPI PUSH1 0x0 DUP1 REVERT JUMPDEST POP PUSH1 0x0 DUP1 SLOAD PUSH1 0x1 PUSH1 0x1 PUSH1 0xA0 SHL SUB NOT AND CALLER OR SWAP1 SSTORE PUSH2 0x2DA9 DUP1 PUSH2 0x32 PUSH1 0x0 CODECOPY PUSH1 0x0 RETURN INVALID PUSH1 0x80 PUSH1 0x40 MSTORE CALLVALUE DUP1 ISZERO PUSH2 0x10 JUMPI PUSH1 0x0 DUP1 REVERT JUMPDEST POP PUSH1 0x4 CALLDATASIZE LT PUSH2 0x120 JUMPI PUSH1 0x0 CALLDATALOAD PUSH1 0xE0 SHR DUP1 PUSH4 0x8DA5CB5B GT PUSH2 0xAD JUMPI DUP1 PUSH4 0xB98E644D GT PUSH2 0x71 JUMPI DUP1 PUSH4 0xB98E644D EQ PUSH2 0x286 JUMPI DUP1 PUSH4 0xC3BA2CD9 EQ PUSH2 0x29B JUMPI DUP1 PUSH4 0xDB58B57F EQ PUSH2 0x2A3 JUMPI DUP1 PUSH4 0xE399E268 EQ PUSH2 0x2B6 JUMPI DUP1 PUSH4 0xE90B39EC EQ PUSH2 0x2CB JUMPI PUSH1 0x0 DUP1 REVERT JUMPDEST DUP1 PUSH4 0x8DA5CB5B EQ PUSH2 0x21A JUMPI DUP1 PUSH4 0x95D892A1 EQ PUSH2 0x245 JUMPI DUP1 PUSH4 0xA6B9BCF6 EQ PUSH2 0x258 JUMPI DUP1 PUSH4 0xA764B9CD EQ PUSH2 0x260 JUMPI DUP1 PUSH4 0xB448BB2D EQ PUSH2 0x273 JUMPI PUSH1 0x0 DUP1 REVERT JUMPDEST DUP1 PUSH4 0x40187599 GT PUSH2 0xF4 JUMPI DUP1 PUSH4 0x40187599 EQ PUSH2 0x18B JUMPI DUP1 PUSH4 0x4506708E EQ PUSH2 0x193 JUMPI DUP1 PUSH4 0x5F70A8FE EQ PUSH2 0x1BB JUMPI DUP1 PUSH4 0x641B66E4 EQ PUSH2 0x1EE JUMPI DUP1 PUSH4 0x787A37B9 EQ PUSH2 0x1F7 JUMPI PUSH1 0x0 DUP1 REVERT JUMPDEST DUP1 PUSH3 0x6D6CAE EQ PUSH2 0x125 JUMPI DUP1 PUSH4 0xCC6F1A2 EQ PUSH2 0x141 JUMPI DUP1 PUSH4 0x1B4A422C EQ PUSH2 0x161 JUMPI DUP1 PUSH4 0x37EF9440 EQ PUSH2 0x176 JUMPI JUMPDEST PUSH1 0x0 DUP1 REVERT JUMPDEST PUSH2 0x12E PUSH1 0x7 SLOAD DUP2 JUMP JUMPDEST PUSH1 0x40 MLOAD SWAP1 DUP2 MSTORE PUSH1 0x20 ADD JUMPDEST PUSH1 0x40 MLOAD DUP1 SWAP2 SUB SWAP1 RETURN JUMPDEST PUSH2 0x154 PUSH2 0x14F CALLDATASIZE PUSH1 0x4 PUSH2 0x25C4 JUMP JUMPDEST PUSH2 0x2D3 JUMP JUMPDEST PUSH1 0x40 MLOAD PUSH2 0x138 SWAP2 SWAP1 PUSH2 0x26E7 JUMP JUMPDEST PUSH2 0x174 PUSH2 0x16F CALLDATASIZE PUSH1 0x4 PUSH2 0x27A4 JUMP JUMPDEST PUSH2 0x70D JUMP JUMPDEST STOP JUMPDEST PUSH2 0x17E PUSH2 0x9A0 JUMP JUMPDEST PUSH1 0x40 MLOAD PUSH2 0x138 SWAP2 SWAP1 PUSH2 0x287E JUMP JUMPDEST PUSH2 0x12E PUSH2 0xB44 JUMP JUMPDEST PUSH2 0x1A6 PUSH2 0x1A1 CALLDATASIZE PUSH1 0x4 PUSH2 0x25C4 JUMP JUMPDEST PUSH2 0xB5A JUMP JUMPDEST PUSH1 0x40 MLOAD PUSH2 0x138 SWAP10 SWAP9 SWAP8 SWAP7 SWAP6 SWAP5 SWAP4 SWAP3 SWAP2 SWAP1 PUSH2 0x28FC JUMP JUMPDEST PUSH2 0x1DE PUSH2 0x1C9 CALLDATASIZE PUSH1 0x4 PUSH2 0x25C4 JUMP JUMPDEST PUSH1 0x0 SWAP1 DUP2 MSTORE PUSH1 0x4 PUSH1 0x20 MSTORE PUSH1 0x40 SWAP1 KECCAK256 SLOAD PUSH1 0xFF AND SWAP1 JUMP JUMPDEST PUSH1 0x40 MLOAD SWAP1 ISZERO ISZERO DUP2 MSTORE PUSH1 0x20 ADD PUSH2 0x138 JUMP JUMPDEST PUSH2 0x12E PUSH1 0x6 SLOAD DUP2 JUMP JUMPDEST PUSH2 0x1DE PUSH2 0x205 CALLDATASIZE PUSH1 0x4 PUSH2 0x25C4 JUMP JUMPDEST PUSH1 0x4 PUSH1 0x20 MSTORE PUSH1 0x0 SWAP1 DUP2 MSTORE PUSH1 0x40 SWAP1 KECCAK256 SLOAD PUSH1 0xFF AND DUP2 JUMP JUMPDEST PUSH1 0x0 SLOAD PUSH2 0x22D SWAP1 PUSH1 0x1 PUSH1 0x1 PUSH1 0xA0 SHL SUB AND DUP2 JUMP JUMPDEST PUSH1 0x40 MLOAD PUSH1 0x1 PUSH1 0x1 PUSH1 0xA0 SHL SUB SWAP1 SWAP2 AND DUP2 MSTORE PUSH1 0x20 ADD PUSH2 0x138 JUMP JUMPDEST PUSH2 0x174 PUSH2 0x253 CALLDATASIZE PUSH1 0x4 PUSH2 0x29AD JUMP JUMPDEST PUSH2 0xE67 JUMP JUMPDEST PUSH2 0x17E PUSH2 0xFD1 JUMP JUMPDEST PUSH2 0x174 PUSH2 0x26E CALLDATASIZE PUSH1 0x4 PUSH2 0x25C4 JUMP JUMPDEST PUSH2 0x116E JUMP JUMPDEST PUSH2 0x174 PUSH2 0x281 CALLDATASIZE PUSH1 0x4 PUSH2 0x25C4 JUMP JUMPDEST PUSH2 0x1497 JUMP JUMPDEST PUSH2 0x28E PUSH2 0x160A JUMP JUMPDEST PUSH1 0x40 MLOAD PUSH2 0x138 SWAP2 SWAP1 PUSH2 0x29D9 JUMP JUMPDEST PUSH2 0x28E PUSH2 0x1978 JUMP JUMPDEST PUSH2 0x1DE PUSH2 0x2B1 CALLDATASIZE PUSH1 0x4 PUSH2 0x2A3D JUMP JUMPDEST PUSH2 0x1CE8 JUMP JUMPDEST PUSH2 0x2BE PUSH2 0x1DE8 JUMP JUMPDEST PUSH1 0x40 MLOAD PUSH2 0x138 SWAP2 SWAP1 PUSH2 0x2A67 JUMP JUMPDEST PUSH2 0x28E PUSH2 0x2173 JUMP JUMPDEST PUSH2 0x32B PUSH1 0x40 MLOAD DUP1 PUSH2 0x120 ADD PUSH1 0x40 MSTORE DUP1 PUSH1 0x0 DUP2 MSTORE PUSH1 0x20 ADD PUSH1 0x0 PUSH1 0x1 PUSH1 0x1 PUSH1 0xA0 SHL SUB AND DUP2 MSTORE PUSH1 0x20 ADD PUSH1 0x60 DUP2 MSTORE PUSH1 0x20 ADD PUSH1 0x60 DUP2 MSTORE PUSH1 0x20 ADD PUSH1 0x60 DUP2 MSTORE PUSH1 0x20 ADD PUSH1 0x60 DUP2 MSTORE PUSH1 0x20 ADD PUSH1 0x60 DUP2 MSTORE PUSH1 0x20 ADD PUSH1 0x0 DUP2 MSTORE PUSH1 0x20 ADD PUSH1 0x0 DUP2 MSTORE POP SWAP1 JUMP JUMPDEST PUSH1 0x0 JUMPDEST PUSH1 0x5 SLOAD DUP2 LT ISZERO PUSH2 0x6C7 JUMPI DUP3 PUSH1 0x5 DUP3 DUP2 SLOAD DUP2 LT PUSH2 0x34C JUMPI PUSH2 0x34C PUSH2 0x2B9B JUMP JUMPDEST SWAP1 PUSH1 0x0 MSTORE PUSH1 0x20 PUSH1 0x0 KECCAK256 SWAP1 PUSH1 0x9 MUL ADD PUSH1 0x0 ADD SLOAD SUB PUSH2 0x6BF JUMPI PUSH1 0x5 DUP2 DUP2 SLOAD DUP2 LT PUSH2 0x376 JUMPI PUSH2 0x376 PUSH2 0x2B9B JUMP JUMPDEST SWAP1 PUSH1 0x0 MSTORE PUSH1 0x20 PUSH1 0x0 KECCAK256 SWAP1 PUSH1 0x9 MUL ADD PUSH1 0x40 MLOAD DUP1 PUSH2 0x120 ADD PUSH1 0x40 MSTORE SWAP1 DUP2 PUSH1 0x0 DUP3 ADD SLOAD DUP2 MSTORE PUSH1 0x20 ADD PUSH1 0x1 DUP3 ADD PUSH1 0x0 SWAP1 SLOAD SWAP1 PUSH2 0x100 EXP SWAP1 DIV PUSH1 0x1 PUSH1 0x1 PUSH1 0xA0 SHL SUB AND PUSH1 0x1 PUSH1 0x1 PUSH1 0xA0 SHL SUB AND PUSH1 0x1 PUSH1 0x1 PUSH1 0xA0 SHL SUB AND DUP2 MSTORE PUSH1 0x20 ADD PUSH1 0x2 DUP3 ADD DUP1 SLOAD PUSH2 0x3D9 SWAP1 PUSH2 0x2BB1 JUMP JUMPDEST DUP1 PUSH1 0x1F ADD PUSH1 0x20 DUP1 SWAP2 DIV MUL PUSH1 0x20 ADD PUSH1 0x40 MLOAD SWAP1 DUP2 ADD PUSH1 0x40 MSTORE DUP1 SWAP3 SWAP2 SWAP1 DUP2 DUP2 MSTORE PUSH1 0x20 ADD DUP3 DUP1 SLOAD PUSH2 0x405 SWAP1 PUSH2 0x2BB1 JUMP JUMPDEST DUP1 ISZERO PUSH2 0x452 JUMPI DUP1 PUSH1 0x1F LT PUSH2 0x427 JUMPI PUSH2 0x100 DUP1 DUP4 SLOAD DIV MUL DUP4 MSTORE SWAP2 PUSH1 0x20 ADD SWAP2 PUSH2 0x452 JUMP JUMPDEST DUP3 ADD SWAP2 SWAP1 PUSH1 0x0 MSTORE PUSH1 0x20 PUSH1 0x0 KECCAK256 SWAP1 JUMPDEST DUP2 SLOAD DUP2 MSTORE SWAP1 PUSH1 0x1 ADD SWAP1 PUSH1 0x20 ADD DUP1 DUP4 GT PUSH2 0x435 JUMPI DUP3 SWAP1 SUB PUSH1 0x1F AND DUP3 ADD SWAP2 JUMPDEST POP POP POP POP POP DUP2 MSTORE PUSH1 0x20 ADD PUSH1 0x3 DUP3 ADD DUP1 SLOAD PUSH2 0x46B SWAP1 PUSH2 0x2BB1 JUMP JUMPDEST DUP1 PUSH1 0x1F ADD PUSH1 0x20 DUP1 SWAP2 DIV MUL PUSH1 0x20 ADD PUSH1 0x40 MLOAD SWAP1 DUP2 ADD PUSH1 0x40 MSTORE DUP1 SWAP3 SWAP2 SWAP1 DUP2 DUP2 MSTORE PUSH1 0x20 ADD DUP3 DUP1 SLOAD PUSH2 0x497 SWAP1 PUSH2 0x2BB1 JUMP JUMPDEST DUP1 ISZERO PUSH2 0x4E4 JUMPI DUP1 PUSH1 0x1F LT PUSH2 0x4B9 JUMPI PUSH2 0x100 DUP1 DUP4 SLOAD DIV MUL DUP4 MSTORE SWAP2 PUSH1 0x20 ADD SWAP2 PUSH2 0x4E4 JUMP JUMPDEST DUP3 ADD SWAP2 SWAP1 PUSH1 0x0 MSTORE PUSH1 0x20 PUSH1 0x0 KECCAK256 SWAP1 JUMPDEST DUP2 SLOAD DUP2 MSTORE SWAP1 PUSH1 0x1 ADD SWAP1 PUSH1 0x20 ADD DUP1 DUP4 GT PUSH2 0x4C7 JUMPI DUP3 SWAP1 SUB PUSH1 0x1F AND DUP3 ADD SWAP2 JUMPDEST POP POP POP POP POP DUP2 MSTORE PUSH1 0x20 ADD PUSH1 0x4 DUP3 ADD DUP1 SLOAD PUSH2 0x4FD SWAP1 PUSH2 0x2BB1 JUMP JUMPDEST DUP1 PUSH1 0x1F ADD PUSH1 0x20 DUP1 SWAP2 DIV MUL PUSH1 0x20 ADD PUSH1 0x40 MLOAD SWAP1 DUP2 ADD PUSH1 0x40 MSTORE DUP1 SWAP3 SWAP2 SWAP1 DUP2 DUP2 MSTORE PUSH1 0x20 ADD DUP3 DUP1 SLOAD PUSH2 0x529 SWAP1 PUSH2 0x2BB1 JUMP JUMPDEST DUP1 ISZERO PUSH2 0x576 JUMPI DUP1 PUSH1 0x1F LT PUSH2 0x54B JUMPI PUSH2 0x100 DUP1 DUP4 SLOAD DIV MUL DUP4 MSTORE SWAP2 PUSH1 0x20 ADD SWAP2 PUSH2 0x576 JUMP JUMPDEST DUP3 ADD SWAP2 SWAP1 PUSH1 0x0 MSTORE PUSH1 0x20 PUSH1 0x0 KECCAK256 SWAP1 JUMPDEST DUP2 SLOAD DUP2 MSTORE SWAP1 PUSH1 0x1 ADD SWAP1 PUSH1 0x20 ADD DUP1 DUP4 GT PUSH2 0x559 JUMPI DUP3 SWAP1 SUB PUSH1 0x1F AND DUP3 ADD SWAP2 JUMPDEST POP POP POP POP POP DUP2 MSTORE PUSH1 0x20 ADD PUSH1 0x5 DUP3 ADD DUP1 SLOAD PUSH2 0x58F SWAP1 PUSH2 0x2BB1 JUMP JUMPDEST DUP1 PUSH1 0x1F ADD PUSH1 0x20 DUP1 SWAP2 DIV MUL PUSH1 0x20 ADD PUSH1 0x40 MLOAD SWAP1 DUP2 ADD PUSH1 0x40 MSTORE DUP1 SWAP3 SWAP2 SWAP1 DUP2 DUP2 MSTORE PUSH1 0x20 ADD DUP3 DUP1 SLOAD PUSH2 0x5BB SWAP1 PUSH2 0x2BB1 JUMP JUMPDEST DUP1 ISZERO PUSH2 0x608 JUMPI DUP1 PUSH1 0x1F LT PUSH2 0x5DD JUMPI PUSH2 0x100 DUP1 DUP4 SLOAD DIV MUL DUP4 MSTORE SWAP2 PUSH1 0x20 ADD SWAP2 PUSH2 0x608 JUMP JUMPDEST DUP3 ADD SWAP2 SWAP1 PUSH1 0x0 MSTORE PUSH1 0x20 PUSH1 0x0 KECCAK256 SWAP1 JUMPDEST DUP2 SLOAD DUP2 MSTORE SWAP1 PUSH1 0x1 ADD SWAP1 PUSH1 0x20 ADD DUP1 DUP4 GT PUSH2 0x5EB JUMPI DUP3 SWAP1 SUB PUSH1 0x1F AND DUP3 ADD SWAP2 JUMPDEST POP POP POP POP POP DUP2 MSTORE PUSH1 0x20 ADD PUSH1 0x6 DUP3 ADD DUP1 SLOAD PUSH2 0x621 SWAP1 PUSH2 0x2BB1 JUMP JUMPDEST DUP1 PUSH1 0x1F ADD PUSH1 0x20 DUP1 SWAP2 DIV MUL PUSH1 0x20 ADD PUSH1 0x40 MLOAD SWAP1 DUP2 ADD PUSH1 0x40 MSTORE DUP1 SWAP3 SWAP2 SWAP1 DUP2 DUP2 MSTORE PUSH1 0x20 ADD DUP3 DUP1 SLOAD PUSH2 0x64D SWAP1 PUSH2 0x2BB1 JUMP JUMPDEST DUP1 ISZERO PUSH2 0x69A JUMPI DUP1 PUSH1 0x1F LT PUSH2 0x66F JUMPI PUSH2 0x100 DUP1 DUP4 SLOAD DIV MUL DUP4 MSTORE SWAP2 PUSH1 0x20 ADD SWAP2 PUSH2 0x69A JUMP JUMPDEST DUP3 ADD SWAP2 SWAP1 PUSH1 0x0 MSTORE PUSH1 0x20 PUSH1 0x0 KECCAK256 SWAP1 JUMPDEST DUP2 SLOAD DUP2 MSTORE SWAP1 PUSH1 0x1 ADD SWAP1 PUSH1 0x20 ADD DUP1 DUP4 GT PUSH2 0x67D JUMPI DUP3 SWAP1 SUB PUSH1 0x1F AND DUP3 ADD SWAP2 JUMPDEST POP POP POP POP POP DUP2 MSTORE PUSH1 0x20 ADD PUSH1 0x7 DUP3 ADD SLOAD DUP2 MSTORE PUSH1 0x20 ADD PUSH1 0x8 DUP3 ADD SLOAD DUP2 MSTORE POP POP SWAP2 POP POP SWAP2 SWAP1 POP JUMP JUMPDEST PUSH1 0x1 ADD PUSH2 0x32E JUMP JUMPDEST POP PUSH1 0x40 MLOAD PUSH3 0x461BCD PUSH1 0xE5 SHL DUP2 MSTORE PUSH1 0x20 PUSH1 0x4 DUP3 ADD MSTORE PUSH1 0x15 PUSH1 0x24 DUP3 ADD MSTORE PUSH21 0x141D589B1A58C8199A5B19481B9BDD08199BDD5B99 PUSH1 0x5A SHL PUSH1 0x44 DUP3 ADD MSTORE PUSH1 0x64 ADD JUMPDEST PUSH1 0x40 MLOAD DUP1 SWAP2 SUB SWAP1 REVERT JUMPDEST PUSH1 0x6 DUP1 SLOAD SWAP1 PUSH1 0x0 PUSH2 0x71D DUP4 PUSH2 0x2C01 JUMP JUMPDEST SWAP1 SWAP2 SSTORE POP POP PUSH1 0x40 DUP1 MLOAD PUSH2 0x120 DUP2 ADD DUP3 MSTORE PUSH1 0x6 SLOAD DUP2 MSTORE CALLER PUSH1 0x20 DUP1 DUP4 ADD DUP3 DUP2 MSTORE DUP4 DUP6 ADD DUP12 DUP2 MSTORE PUSH1 0x60 DUP6 ADD DUP12 SWAP1 MSTORE PUSH1 0x80 DUP6 ADD DUP11 SWAP1 MSTORE PUSH1 0xA0 DUP6 ADD DUP10 SWAP1 MSTORE PUSH1 0xC0 DUP6 ADD DUP8 SWAP1 MSTORE PUSH1 0xE0 DUP6 ADD DUP9 SWAP1 MSTORE TIMESTAMP PUSH2 0x100 DUP7 ADD MSTORE PUSH1 0x0 SWAP4 DUP5 MSTORE PUSH1 0x1 DUP1 DUP5 MSTORE SWAP6 DUP5 KECCAK256 DUP1 SLOAD DUP1 DUP9 ADD DUP3 SSTORE SWAP1 DUP6 MSTORE SWAP3 SWAP1 SWAP4 KECCAK256 DUP5 MLOAD PUSH1 0x9 SWAP1 SWAP4 MUL ADD SWAP2 DUP3 SSTORE MLOAD SWAP4 DUP2 ADD DUP1 SLOAD PUSH1 0x1 PUSH1 0x1 PUSH1 0xA0 SHL SUB NOT AND PUSH1 0x1 PUSH1 0x1 PUSH1 0xA0 SHL SUB SWAP1 SWAP6 AND SWAP5 SWAP1 SWAP5 OR SWAP1 SWAP4 SSTORE MLOAD SWAP1 SWAP2 DUP3 SWAP2 PUSH1 0x2 DUP3 ADD SWAP1 PUSH2 0x7C7 SWAP1 DUP3 PUSH2 0x2C6B JUMP JUMPDEST POP PUSH1 0x60 DUP3 ADD MLOAD PUSH1 0x3 DUP3 ADD SWAP1 PUSH2 0x7DC SWAP1 DUP3 PUSH2 0x2C6B JUMP JUMPDEST POP PUSH1 0x80 DUP3 ADD MLOAD PUSH1 0x4 DUP3 ADD SWAP1 PUSH2 0x7F1 SWAP1 DUP3 PUSH2 0x2C6B JUMP JUMPDEST POP PUSH1 0xA0 DUP3 ADD MLOAD PUSH1 0x5 DUP3 ADD SWAP1 PUSH2 0x806 SWAP1 DUP3 PUSH2 0x2C6B JUMP JUMPDEST POP PUSH1 0xC0 DUP3 ADD MLOAD PUSH1 0x6 DUP3 ADD SWAP1 PUSH2 0x81B SWAP1 DUP3 PUSH2 0x2C6B JUMP JUMPDEST POP PUSH1 0xE0 DUP3 ADD MLOAD PUSH1 0x7 DUP3 ADD SSTORE PUSH2 0x100 SWAP1 SWAP2 ADD MLOAD PUSH1 0x8 SWAP1 SWAP2 ADD SSTORE PUSH1 0x5 DUP1 SLOAD PUSH1 0x1 DUP2 ADD DUP3 SSTORE PUSH1 0x0 SWAP2 SWAP1 SWAP2 MSTORE DUP2 MLOAD PUSH32 0x36B6384B5ECA791C62761152D0C79BB0604C104A5FB6F4EB0703F3154BB3DB0 PUSH1 0x9 SWAP1 SWAP3 MUL SWAP2 DUP3 ADD SWAP1 DUP2 SSTORE PUSH1 0x20 DUP4 ADD MLOAD PUSH32 0x36B6384B5ECA791C62761152D0C79BB0604C104A5FB6F4EB0703F3154BB3DB1 DUP4 ADD DUP1 SLOAD PUSH1 0x1 PUSH1 0x1 PUSH1 0xA0 SHL SUB NOT AND PUSH1 0x1 PUSH1 0x1 PUSH1 0xA0 SHL SUB SWAP1 SWAP3 AND SWAP2 SWAP1 SWAP2 OR SWAP1 SSTORE PUSH1 0x40 DUP4 ADD MLOAD DUP4 SWAP3 PUSH32 0x36B6384B5ECA791C62761152D0C79BB0604C104A5FB6F4EB0703F3154BB3DB2 ADD SWAP1 PUSH2 0x8EA SWAP1 DUP3 PUSH2 0x2C6B JUMP JUMPDEST POP PUSH1 0x60 DUP3 ADD MLOAD PUSH1 0x3 DUP3 ADD SWAP1 PUSH2 0x8FF SWAP1 DUP3 PUSH2 0x2C6B JUMP JUMPDEST POP PUSH1 0x80 DUP3 ADD MLOAD PUSH1 0x4 DUP3 ADD SWAP1 PUSH2 0x914 SWAP1 DUP3 PUSH2 0x2C6B JUMP JUMPDEST POP PUSH1 0xA0 DUP3 ADD MLOAD PUSH1 0x5 DUP3 ADD SWAP1 PUSH2 0x929 SWAP1 DUP3 PUSH2 0x2C6B JUMP JUMPDEST POP PUSH1 0xC0 DUP3 ADD MLOAD PUSH1 0x6 DUP3 ADD SWAP1 PUSH2 0x93E SWAP1 DUP3 PUSH2 0x2C6B JUMP JUMPDEST POP PUSH1 0xE0 DUP3 ADD MLOAD DUP2 PUSH1 0x7 ADD SSTORE PUSH2 0x100 DUP3 ADD MLOAD DUP2 PUSH1 0x8 ADD SSTORE POP POP CALLER PUSH1 0x1 PUSH1 0x1 PUSH1 0xA0 SHL SUB AND PUSH32 0xE03C7E37AD39057585E52C6E4F117A61225036A88A2ADA7F870A6B994A1BC21 DUP9 PUSH1 0x40 MLOAD PUSH2 0x98F SWAP2 SWAP1 PUSH2 0x2D2B JUMP JUMPDEST PUSH1 0x40 MLOAD DUP1 SWAP2 SUB SWAP1 LOG2 POP POP POP POP POP POP POP JUMP JUMPDEST PUSH1 0x60 PUSH1 0x0 PUSH1 0x1 JUMPDEST PUSH1 0x7 SLOAD DUP2 GT PUSH2 0x9F3 JUMPI PUSH1 0x0 DUP2 DUP2 MSTORE PUSH1 0x3 PUSH1 0x20 MSTORE PUSH1 0x40 SWAP1 KECCAK256 PUSH1 0x2 ADD SLOAD CALLER PUSH1 0x1 PUSH1 0x1 PUSH1 0xA0 SHL SUB SWAP1 SWAP2 AND SUB PUSH2 0x9E1 JUMPI DUP2 PUSH2 0x9DD DUP2 PUSH2 0x2C01 JUMP JUMPDEST SWAP3 POP POP JUMPDEST DUP1 PUSH2 0x9EB DUP2 PUSH2 0x2C01 JUMP JUMPDEST SWAP2 POP POP PUSH2 0x9A7 JUMP JUMPDEST POP PUSH1 0x0 DUP2 PUSH8 0xFFFFFFFFFFFFFFFF DUP2 GT ISZERO PUSH2 0xA0F JUMPI PUSH2 0xA0F PUSH2 0x2701 JUMP JUMPDEST PUSH1 0x40 MLOAD SWAP1 DUP1 DUP3 MSTORE DUP1 PUSH1 0x20 MUL PUSH1 0x20 ADD DUP3 ADD PUSH1 0x40 MSTORE DUP1 ISZERO PUSH2 0xA68 JUMPI DUP2 PUSH1 0x20 ADD JUMPDEST PUSH1 0x40 DUP1 MLOAD PUSH1 0xA0 DUP2 ADD DUP3 MSTORE PUSH1 0x0 DUP1 DUP3 MSTORE PUSH1 0x20 DUP1 DUP4 ADD DUP3 SWAP1 MSTORE SWAP3 DUP3 ADD DUP2 SWAP1 MSTORE PUSH1 0x60 DUP3 ADD DUP2 SWAP1 MSTORE PUSH1 0x80 DUP3 ADD MSTORE DUP3 MSTORE PUSH1 0x0 NOT SWAP1 SWAP3 ADD SWAP2 ADD DUP2 PUSH2 0xA2D JUMPI SWAP1 POP JUMPDEST POP SWAP1 POP PUSH1 0x0 PUSH1 0x1 JUMPDEST PUSH1 0x7 SLOAD DUP2 GT PUSH2 0xB3B JUMPI PUSH1 0x0 DUP2 DUP2 MSTORE PUSH1 0x3 PUSH1 0x20 MSTORE PUSH1 0x40 SWAP1 KECCAK256 PUSH1 0x2 ADD SLOAD CALLER PUSH1 0x1 PUSH1 0x1 PUSH1 0xA0 SHL SUB SWAP1 SWAP2 AND SUB PUSH2 0xB29 JUMPI PUSH1 0x0 DUP2 DUP2 MSTORE PUSH1 0x3 PUSH1 0x20 DUP2 DUP2 MSTORE PUSH1 0x40 SWAP3 DUP4 SWAP1 KECCAK256 DUP4 MLOAD PUSH1 0xA0 DUP2 ADD DUP6 MSTORE DUP2 SLOAD DUP2 MSTORE PUSH1 0x1 DUP3 ADD SLOAD SWAP3 DUP2 ADD SWAP3 SWAP1 SWAP3 MSTORE PUSH1 0x2 DUP2 ADD SLOAD PUSH1 0x1 PUSH1 0x1 PUSH1 0xA0 SHL SUB SWAP1 DUP2 AND SWAP5 DUP4 ADD SWAP5 SWAP1 SWAP5 MSTORE SWAP1 SWAP2 ADD SLOAD SWAP2 DUP3 AND PUSH1 0x60 DUP3 ADD MSTORE PUSH1 0x1 PUSH1 0xA0 SHL SWAP1 SWAP2 DIV PUSH1 0xFF AND ISZERO ISZERO PUSH1 0x80 DUP3 ADD MSTORE DUP4 MLOAD DUP5 SWAP1 DUP5 SWAP1 DUP2 LT PUSH2 0xB0F JUMPI PUSH2 0xB0F PUSH2 0x2B9B JUMP JUMPDEST PUSH1 0x20 MUL PUSH1 0x20 ADD ADD DUP2 SWAP1 MSTORE POP DUP2 DUP1 PUSH2 0xB25 SWAP1 PUSH2 0x2C01 JUMP JUMPDEST SWAP3 POP POP JUMPDEST DUP1 PUSH2 0xB33 DUP2 PUSH2 0x2C01 JUMP JUMPDEST SWAP2 POP POP PUSH2 0xA70 JUMP JUMPDEST POP SWAP1 SWAP4 SWAP3 POP POP POP JUMP JUMPDEST PUSH1 0x0 PUSH1 0x6 SLOAD PUSH1 0x1 PUSH2 0xB55 SWAP2 SWAP1 PUSH2 0x2D3E JUMP JUMPDEST SWAP1 POP SWAP1 JUMP JUMPDEST PUSH1 0x5 DUP2 DUP2 SLOAD DUP2 LT PUSH2 0xB6A JUMPI PUSH1 0x0 DUP1 REVERT JUMPDEST PUSH1 0x0 SWAP2 DUP3 MSTORE PUSH1 0x20 SWAP1 SWAP2 KECCAK256 PUSH1 0x9 SWAP1 SWAP2 MUL ADD DUP1 SLOAD PUSH1 0x1 DUP3 ADD SLOAD PUSH1 0x2 DUP4 ADD DUP1 SLOAD SWAP3 SWAP5 POP PUSH1 0x1 PUSH1 0x1 PUSH1 0xA0 SHL SUB SWAP1 SWAP2 AND SWAP3 SWAP2 PUSH2 0xBA0 SWAP1 PUSH2 0x2BB1 JUMP JUMPDEST DUP1 PUSH1 0x1F ADD PUSH1 0x20 DUP1 SWAP2 DIV MUL PUSH1 0x20 ADD PUSH1 0x40 MLOAD SWAP1 DUP2 ADD PUSH1 0x40 MSTORE DUP1 SWAP3 SWAP2 SWAP1 DUP2 DUP2 MSTORE PUSH1 0x20 ADD DUP3 DUP1 SLOAD PUSH2 0xBCC SWAP1 PUSH2 0x2BB1 JUMP JUMPDEST DUP1 ISZERO PUSH2 0xC19 JUMPI DUP1 PUSH1 0x1F LT PUSH2 0xBEE JUMPI PUSH2 0x100 DUP1 DUP4 SLOAD DIV MUL DUP4 MSTORE SWAP2 PUSH1 0x20 ADD SWAP2 PUSH2 0xC19 JUMP JUMPDEST DUP3 ADD SWAP2 SWAP1 PUSH1 0x0 MSTORE PUSH1 0x20 PUSH1 0x0 KECCAK256 SWAP1 JUMPDEST DUP2 SLOAD DUP2 MSTORE SWAP1 PUSH1 0x1 ADD SWAP1 PUSH1 0x20 ADD DUP1 DUP4 GT PUSH2 0xBFC JUMPI DUP3 SWAP1 SUB PUSH1 0x1F AND DUP3 ADD SWAP2 JUMPDEST POP POP POP POP POP SWAP1 DUP1 PUSH1 0x3 ADD DUP1 SLOAD PUSH2 0xC2E SWAP1 PUSH2 0x2BB1 JUMP JUMPDEST DUP1 PUSH1 0x1F ADD PUSH1 0x20 DUP1 SWAP2 DIV MUL PUSH1 0x20 ADD PUSH1 0x40 MLOAD SWAP1 DUP2 ADD PUSH1 0x40 MSTORE DUP1 SWAP3 SWAP2 SWAP1 DUP2 DUP2 MSTORE PUSH1 0x20 ADD DUP3 DUP1 SLOAD PUSH2 0xC5A SWAP1 PUSH2 0x2BB1 JUMP JUMPDEST DUP1 ISZERO PUSH2 0xCA7 JUMPI DUP1 PUSH1 0x1F LT PUSH2 0xC7C JUMPI PUSH2 0x100 DUP1 DUP4 SLOAD DIV MUL DUP4 MSTORE SWAP2 PUSH1 0x20 ADD SWAP2 PUSH2 0xCA7 JUMP JUMPDEST DUP3 ADD SWAP2 SWAP1 PUSH1 0x0 MSTORE PUSH1 0x20 PUSH1 0x0 KECCAK256 SWAP1 JUMPDEST DUP2 SLOAD DUP2 MSTORE SWAP1 PUSH1 0x1 ADD SWAP1 PUSH1 0x20 ADD DUP1 DUP4 GT PUSH2 0xC8A JUMPI DUP3 SWAP1 SUB PUSH1 0x1F AND DUP3 ADD SWAP2 JUMPDEST POP POP POP POP POP SWAP1 DUP1 PUSH1 0x4 ADD DUP1 SLOAD PUSH2 0xCBC SWAP1 PUSH2 0x2BB1 JUMP JUMPDEST DUP1 PUSH1 0x1F ADD PUSH1 0x20 DUP1 SWAP2 DIV MUL PUSH1 0x20 ADD PUSH1 0x40 MLOAD SWAP1 DUP2 ADD PUSH1 0x40 MSTORE DUP1 SWAP3 SWAP2 SWAP1 DUP2 DUP2 MSTORE PUSH1 0x20 ADD DUP3 DUP1 SLOAD PUSH2 0xCE8 SWAP1 PUSH2 0x2BB1 JUMP JUMPDEST DUP1 ISZERO PUSH2 0xD35 JUMPI DUP1 PUSH1 0x1F LT PUSH2 0xD0A JUMPI PUSH2 0x100 DUP1 DUP4 SLOAD DIV MUL DUP4 MSTORE SWAP2 PUSH1 0x20 ADD SWAP2 PUSH2 0xD35 JUMP JUMPDEST DUP3 ADD SWAP2 SWAP1 PUSH1 0x0 MSTORE PUSH1 0x20 PUSH1 0x0 KECCAK256 SWAP1 JUMPDEST DUP2 SLOAD DUP2 MSTORE SWAP1 PUSH1 0x1 ADD SWAP1 PUSH1 0x20 ADD DUP1 DUP4 GT PUSH2 0xD18 JUMPI DUP3 SWAP1 SUB PUSH1 0x1F AND DUP3 ADD SWAP2 JUMPDEST POP POP POP POP POP SWAP1 DUP1 PUSH1 0x5 ADD DUP1 SLOAD PUSH2 0xD4A SWAP1 PUSH2 0x2BB1 JUMP JUMPDEST DUP1 PUSH1 0x1F ADD PUSH1 0x20 DUP1 SWAP2 DIV MUL PUSH1 0x20 ADD PUSH1 0x40 MLOAD SWAP1 DUP2 ADD PUSH1 0x40 MSTORE DUP1 SWAP3 SWAP2 SWAP1 DUP2 DUP2 MSTORE PUSH1 0x20 ADD DUP3 DUP1 SLOAD PUSH2 0xD76 SWAP1 PUSH2 0x2BB1 JUMP JUMPDEST DUP1 ISZERO PUSH2 0xDC3 JUMPI DUP1 PUSH1 0x1F LT PUSH2 0xD98 JUMPI PUSH2 0x100 DUP1 DUP4 SLOAD DIV MUL DUP4 MSTORE SWAP2 PUSH1 0x20 ADD SWAP2 PUSH2 0xDC3 JUMP JUMPDEST DUP3 ADD SWAP2 SWAP1 PUSH1 0x0 MSTORE PUSH1 0x20 PUSH1 0x0 KECCAK256 SWAP1 JUMPDEST DUP2 SLOAD DUP2 MSTORE SWAP1 PUSH1 0x1 ADD SWAP1 PUSH1 0x20 ADD DUP1 DUP4 GT PUSH2 0xDA6 JUMPI DUP3 SWAP1 SUB PUSH1 0x1F AND DUP3 ADD SWAP2 JUMPDEST POP POP POP POP POP SWAP1 DUP1 PUSH1 0x6 ADD DUP1 SLOAD PUSH2 0xDD8 SWAP1 PUSH2 0x2BB1 JUMP JUMPDEST DUP1 PUSH1 0x1F ADD PUSH1 0x20 DUP1 SWAP2 DIV MUL PUSH1 0x20 ADD PUSH1 0x40 MLOAD SWAP1 DUP2 ADD PUSH1 0x40 MSTORE DUP1 SWAP3 SWAP2 SWAP1 DUP2 DUP2 MSTORE PUSH1 0x20 ADD DUP3 DUP1 SLOAD PUSH2 0xE04 SWAP1 PUSH2 0x2BB1 JUMP JUMPDEST DUP1 ISZERO PUSH2 0xE51 JUMPI DUP1 PUSH1 0x1F LT PUSH2 0xE26 JUMPI PUSH2 0x100 DUP1 DUP4 SLOAD DIV MUL DUP4 MSTORE SWAP2 PUSH1 0x20 ADD SWAP2 PUSH2 0xE51 JUMP JUMPDEST DUP3 ADD SWAP2 SWAP1 PUSH1 0x0 MSTORE PUSH1 0x20 PUSH1 0x0 KECCAK256 SWAP1 JUMPDEST DUP2 SLOAD DUP2 MSTORE SWAP1 PUSH1 0x1 ADD SWAP1 PUSH1 0x20 ADD DUP1 DUP4 GT PUSH2 0xE34 JUMPI DUP3 SWAP1 SUB PUSH1 0x1F AND DUP3 ADD SWAP2 JUMPDEST POP POP POP POP POP SWAP1 DUP1 PUSH1 0x7 ADD SLOAD SWAP1 DUP1 PUSH1 0x8 ADD SLOAD SWAP1 POP DUP10 JUMP JUMPDEST PUSH2 0xE71 CALLER DUP4 PUSH2 0x1CE8 JUMP JUMPDEST ISZERO PUSH2 0xED7 JUMPI PUSH1 0x40 MLOAD PUSH3 0x461BCD PUSH1 0xE5 SHL DUP2 MSTORE PUSH1 0x20 PUSH1 0x4 DUP3 ADD MSTORE PUSH1 0x30 PUSH1 0x24 DUP3 ADD MSTORE PUSH32 0x5573657220616C7265616479206F776E73206F72206861732061206C6963656E PUSH1 0x44 DUP3 ADD MSTORE PUSH16 0x736520666F7220746869732066696C65 PUSH1 0x80 SHL PUSH1 0x64 DUP3 ADD MSTORE PUSH1 0x84 ADD PUSH2 0x704 JUMP JUMPDEST PUSH1 0x7 DUP1 SLOAD SWAP1 PUSH1 0x0 PUSH2 0xEE7 DUP4 PUSH2 0x2C01 JUMP JUMPDEST SWAP1 SWAP2 SSTORE POP POP PUSH1 0x40 DUP1 MLOAD PUSH1 0xA0 DUP2 ADD DUP3 MSTORE PUSH1 0x7 DUP1 SLOAD DUP1 DUP4 MSTORE PUSH1 0x20 DUP1 DUP5 ADD DUP8 DUP2 MSTORE CALLER DUP6 DUP8 ADD DUP2 DUP2 MSTORE PUSH1 0x1 PUSH1 0x1 PUSH1 0xA0 SHL SUB DUP10 DUP2 AND PUSH1 0x60 DUP1 DUP11 ADD DUP3 DUP2 MSTORE PUSH1 0x0 PUSH1 0x80 DUP13 ADD DUP2 DUP2 MSTORE SWAP10 DUP2 MSTORE PUSH1 0x3 DUP1 DUP11 MSTORE SWAP1 DUP14 SWAP1 KECCAK256 DUP13 MLOAD DUP2 SSTORE SWAP8 MLOAD PUSH1 0x1 DUP10 ADD SSTORE SWAP5 MLOAD PUSH1 0x2 DUP9 ADD DUP1 SLOAD SWAP2 DUP7 AND PUSH1 0x1 PUSH1 0x1 PUSH1 0xA0 SHL SUB NOT SWAP1 SWAP3 AND SWAP2 SWAP1 SWAP2 OR SWAP1 SSTORE MLOAD SWAP6 SWAP1 SWAP4 ADD DUP1 SLOAD SWAP8 MLOAD ISZERO ISZERO PUSH1 0x1 PUSH1 0xA0 SHL MUL PUSH1 0x1 PUSH1 0x1 PUSH1 0xA8 SHL SUB NOT SWAP1 SWAP9 AND SWAP6 SWAP1 SWAP3 AND SWAP5 SWAP1 SWAP5 OR SWAP6 SWAP1 SWAP6 OR SWAP1 SWAP5 SSTORE SWAP4 SLOAD DUP7 MLOAD DUP10 DUP2 MSTORE SWAP3 DUP4 ADD SWAP5 SWAP1 SWAP5 MSTORE SWAP5 DUP2 ADD SWAP5 SWAP1 SWAP5 MSTORE SWAP2 SWAP3 SWAP1 SWAP2 PUSH32 0x3563C2AB88374E4253E716E489B51ED99C61EDFECC313080B65CB94EFB16B3AA SWAP2 ADD PUSH1 0x40 MLOAD DUP1 SWAP2 SUB SWAP1 LOG2 POP POP POP JUMP JUMPDEST PUSH1 0x60 PUSH1 0x0 PUSH1 0x1 JUMPDEST PUSH1 0x7 SLOAD DUP2 GT PUSH2 0x1025 JUMPI PUSH1 0x0 DUP2 DUP2 MSTORE PUSH1 0x3 PUSH1 0x20 DUP2 SWAP1 MSTORE PUSH1 0x40 SWAP1 SWAP2 KECCAK256 ADD SLOAD CALLER PUSH1 0x1 PUSH1 0x1 PUSH1 0xA0 SHL SUB SWAP1 SWAP2 AND SUB PUSH2 0x1013 JUMPI DUP2 PUSH2 0x100F DUP2 PUSH2 0x2C01 JUMP JUMPDEST SWAP3 POP POP JUMPDEST DUP1 PUSH2 0x101D DUP2 PUSH2 0x2C01 JUMP JUMPDEST SWAP2 POP POP PUSH2 0xFD8 JUMP JUMPDEST POP PUSH1 0x0 DUP2 PUSH8 0xFFFFFFFFFFFFFFFF DUP2 GT ISZERO PUSH2 0x1041 JUMPI PUSH2 0x1041 PUSH2 0x2701 JUMP JUMPDEST PUSH1 0x40 MLOAD SWAP1 DUP1 DUP3 MSTORE DUP1 PUSH1 0x20 MUL PUSH1 0x20 ADD DUP3 ADD PUSH1 0x40 MSTORE DUP1 ISZERO PUSH2 0x109A JUMPI DUP2 PUSH1 0x20 ADD JUMPDEST PUSH1 0x40 DUP1 MLOAD PUSH1 0xA0 DUP2 ADD DUP3 MSTORE PUSH1 0x0 DUP1 DUP3 MSTORE PUSH1 0x20 DUP1 DUP4 ADD DUP3 SWAP1 MSTORE SWAP3 DUP3 ADD DUP2 SWAP1 MSTORE PUSH1 0x60 DUP3 ADD DUP2 SWAP1 MSTORE PUSH1 0x80 DUP3 ADD MSTORE DUP3 MSTORE PUSH1 0x0 NOT SWAP1 SWAP3 ADD SWAP2 ADD DUP2 PUSH2 0x105F JUMPI SWAP1 POP JUMPDEST POP SWAP1 POP PUSH1 0x0 PUSH1 0x1 JUMPDEST PUSH1 0x7 SLOAD DUP2 GT PUSH2 0xB3B JUMPI PUSH1 0x0 DUP2 DUP2 MSTORE PUSH1 0x3 PUSH1 0x20 DUP2 SWAP1 MSTORE PUSH1 0x40 SWAP1 SWAP2 KECCAK256 ADD SLOAD CALLER PUSH1 0x1 PUSH1 0x1 PUSH1 0xA0 SHL SUB SWAP1 SWAP2 AND SUB PUSH2 0x115C JUMPI PUSH1 0x0 DUP2 DUP2 MSTORE PUSH1 0x3 PUSH1 0x20 DUP2 DUP2 MSTORE PUSH1 0x40 SWAP3 DUP4 SWAP1 KECCAK256 DUP4 MLOAD PUSH1 0xA0 DUP2 ADD DUP6 MSTORE DUP2 SLOAD DUP2 MSTORE PUSH1 0x1 DUP3 ADD SLOAD SWAP3 DUP2 ADD SWAP3 SWAP1 SWAP3 MSTORE PUSH1 0x2 DUP2 ADD SLOAD PUSH1 0x1 PUSH1 0x1 PUSH1 0xA0 SHL SUB SWAP1 DUP2 AND SWAP5 DUP4 ADD SWAP5 SWAP1 SWAP5 MSTORE SWAP1 SWAP2 ADD SLOAD SWAP2 DUP3 AND PUSH1 0x60 DUP3 ADD MSTORE PUSH1 0x1 PUSH1 0xA0 SHL SWAP1 SWAP2 DIV PUSH1 0xFF AND ISZERO ISZERO PUSH1 0x80 DUP3 ADD MSTORE DUP4 MLOAD DUP5 SWAP1 DUP5 SWAP1 DUP2 LT PUSH2 0x1142 JUMPI PUSH2 0x1142 PUSH2 0x2B9B JUMP JUMPDEST PUSH1 0x20 MUL PUSH1 0x20 ADD ADD DUP2 SWAP1 MSTORE POP DUP2 DUP1 PUSH2 0x1158 SWAP1 PUSH2 0x2C01 JUMP JUMPDEST SWAP3 POP POP JUMPDEST DUP1 PUSH2 0x1166 DUP2 PUSH2 0x2C01 JUMP JUMPDEST SWAP2 POP POP PUSH2 0x10A2 JUMP JUMPDEST PUSH1 0x0 DUP2 DUP2 MSTORE PUSH1 0x3 PUSH1 0x20 DUP2 SWAP1 MSTORE PUSH1 0x40 SWAP1 SWAP2 KECCAK256 SWAP1 DUP2 ADD SLOAD PUSH1 0x1 PUSH1 0x1 PUSH1 0xA0 SHL SUB AND CALLER EQ PUSH2 0x11EE JUMPI PUSH1 0x40 MLOAD PUSH3 0x461BCD PUSH1 0xE5 SHL DUP2 MSTORE PUSH1 0x20 PUSH1 0x4 DUP3 ADD MSTORE PUSH1 0x2B PUSH1 0x24 DUP3 ADD MSTORE PUSH32 0x4F6E6C79207468652066696C65206F776E65722063616E20617070726F766520 PUSH1 0x44 DUP3 ADD MSTORE PUSH11 0x1D1A19481C995C5D595CDD PUSH1 0xAA SHL PUSH1 0x64 DUP3 ADD MSTORE PUSH1 0x84 ADD PUSH2 0x704 JUMP JUMPDEST PUSH1 0x3 DUP2 ADD SLOAD PUSH1 0x1 PUSH1 0xA0 SHL SWAP1 DIV PUSH1 0xFF AND ISZERO PUSH2 0x1245 JUMPI PUSH1 0x40 MLOAD PUSH3 0x461BCD PUSH1 0xE5 SHL DUP2 MSTORE PUSH1 0x20 PUSH1 0x4 DUP3 ADD MSTORE PUSH1 0x18 PUSH1 0x24 DUP3 ADD MSTORE PUSH24 0x14995C5D595CDD08185B1C9958591E48185C1C1C9BDD9959 PUSH1 0x42 SHL PUSH1 0x44 DUP3 ADD MSTORE PUSH1 0x64 ADD PUSH2 0x704 JUMP JUMPDEST PUSH1 0x3 DUP2 ADD DUP1 SLOAD PUSH1 0xFF PUSH1 0xA0 SHL NOT AND PUSH1 0x1 PUSH1 0xA0 SHL OR SWAP1 SSTORE PUSH1 0x1 DUP2 ADD SLOAD PUSH1 0x0 SWAP1 PUSH2 0x126B SWAP1 PUSH2 0x2D3 JUMP JUMPDEST SWAP1 POP PUSH1 0x0 PUSH2 0x1277 PUSH2 0x24D8 JUMP JUMPDEST PUSH1 0x40 DUP1 MLOAD PUSH2 0x160 DUP2 ADD DUP3 MSTORE DUP3 DUP2 MSTORE DUP5 MLOAD PUSH1 0x20 DUP1 DUP4 ADD SWAP2 DUP3 MSTORE DUP1 DUP8 ADD MLOAD PUSH1 0x1 PUSH1 0x1 PUSH1 0xA0 SHL SUB SWAP1 DUP2 AND DUP5 DUP7 ADD SWAP1 DUP2 MSTORE PUSH1 0x2 DUP11 DUP2 ADD SLOAD DUP4 AND PUSH1 0x60 DUP1 DUP9 ADD DUP3 DUP2 MSTORE DUP13 DUP11 ADD MLOAD PUSH1 0x80 DUP1 DUP12 ADD SWAP2 DUP3 MSTORE SWAP3 DUP15 ADD MLOAD PUSH1 0xA0 DUP1 DUP13 ADD SWAP2 SWAP1 SWAP2 MSTORE SWAP3 DUP15 ADD MLOAD PUSH1 0xC0 DUP1 DUP13 ADD SWAP2 SWAP1 SWAP2 MSTORE SWAP3 DUP15 ADD MLOAD PUSH1 0xE0 DUP1 DUP13 ADD SWAP2 SWAP1 SWAP2 MSTORE SWAP3 DUP15 ADD MLOAD PUSH2 0x100 DUP12 ADD MSTORE SWAP2 DUP14 ADD MLOAD PUSH2 0x120 DUP11 ADD MSTORE TIMESTAMP PUSH2 0x140 DUP11 ADD MSTORE PUSH1 0x0 SWAP3 DUP4 MSTORE DUP4 DUP8 MSTORE SWAP9 DUP3 KECCAK256 DUP1 SLOAD PUSH1 0x1 DUP1 DUP3 ADD DUP4 SSTORE SWAP2 DUP5 MSTORE SWAP7 SWAP1 SWAP3 KECCAK256 DUP9 MLOAD PUSH1 0xB SWAP1 SWAP8 MUL ADD SWAP6 DUP7 SSTORE SWAP6 MLOAD SWAP1 DUP6 ADD SSTORE SWAP1 MLOAD SWAP1 DUP4 ADD DUP1 SLOAD PUSH1 0x1 PUSH1 0x1 PUSH1 0xA0 SHL SUB NOT SWAP1 DUP2 AND SWAP3 DUP5 AND SWAP3 SWAP1 SWAP3 OR SWAP1 SSTORE SWAP5 MLOAD PUSH1 0x3 DUP4 ADD DUP1 SLOAD SWAP1 SWAP7 AND SWAP2 AND OR SWAP1 SWAP4 SSTORE MLOAD SWAP3 SWAP4 POP SWAP2 DUP3 SWAP2 SWAP1 PUSH1 0x4 DUP3 ADD SWAP1 PUSH2 0x1372 SWAP1 DUP3 PUSH2 0x2C6B JUMP JUMPDEST POP PUSH1 0xA0 DUP3 ADD MLOAD PUSH1 0x5 DUP3 ADD SWAP1 PUSH2 0x1387 SWAP1 DUP3 PUSH2 0x2C6B JUMP JUMPDEST POP PUSH1 0xC0 DUP3 ADD MLOAD PUSH1 0x6 DUP3 ADD SWAP1 PUSH2 0x139C SWAP1 DUP3 PUSH2 0x2C6B JUMP JUMPDEST POP PUSH1 0xE0 DUP3 ADD MLOAD PUSH1 0x7 DUP3 ADD SWAP1 PUSH2 0x13B1 SWAP1 DUP3 PUSH2 0x2C6B JUMP JUMPDEST POP PUSH2 0x100 DUP3 ADD MLOAD PUSH1 0x8 DUP3 ADD SWAP1 PUSH2 0x13C7 SWAP1 DUP3 PUSH2 0x2C6B JUMP JUMPDEST POP PUSH2 0x120 DUP3 ADD MLOAD PUSH1 0x9 DUP3 ADD SSTORE PUSH2 0x140 SWAP1 SWAP2 ADD MLOAD PUSH1 0xA SWAP1 SWAP2 ADD SSTORE PUSH1 0x2 DUP5 ADD SLOAD PUSH1 0x20 DUP5 ADD MLOAD PUSH1 0x40 DUP1 DUP7 ADD MLOAD SWAP1 MLOAD PUSH1 0x1 PUSH1 0x1 PUSH1 0xA0 SHL SUB SWAP4 DUP5 AND SWAP4 SWAP1 SWAP3 AND SWAP2 PUSH32 0x36B71A34B45297C2EDDBB6D8A95B9703618F6300D0676FA891C58BCDAA90DBB3 SWAP2 PUSH2 0x142D SWAP2 PUSH2 0x2D2B JUMP JUMPDEST PUSH1 0x40 MLOAD DUP1 SWAP2 SUB SWAP1 LOG3 PUSH1 0x1 DUP5 ADD SLOAD PUSH1 0x2 DUP6 ADD SLOAD PUSH1 0x3 DUP7 ADD SLOAD PUSH1 0x40 DUP1 MLOAD SWAP4 DUP5 MSTORE PUSH1 0x1 PUSH1 0x1 PUSH1 0xA0 SHL SUB SWAP3 DUP4 AND PUSH1 0x20 DUP6 ADD MSTORE SWAP2 AND SWAP1 DUP3 ADD MSTORE DUP6 SWAP1 PUSH32 0x6E12100D9A45DA1A9E96A9FC000FF4DB7BFC27CC43FDF07DAB275B581483FB49 SWAP1 PUSH1 0x60 ADD PUSH1 0x40 MLOAD DUP1 SWAP2 SUB SWAP1 LOG2 POP POP POP POP POP JUMP JUMPDEST PUSH1 0x0 DUP2 DUP2 MSTORE PUSH1 0x3 PUSH1 0x20 DUP2 SWAP1 MSTORE PUSH1 0x40 SWAP1 SWAP2 KECCAK256 SWAP1 DUP2 ADD SLOAD PUSH1 0x1 PUSH1 0x1 PUSH1 0xA0 SHL SUB AND CALLER EQ PUSH2 0x1516 JUMPI PUSH1 0x40 MLOAD PUSH3 0x461BCD PUSH1 0xE5 SHL DUP2 MSTORE PUSH1 0x20 PUSH1 0x4 DUP3 ADD MSTORE PUSH1 0x2A PUSH1 0x24 DUP3 ADD MSTORE PUSH32 0x4F6E6C79207468652066696C65206F776E65722063616E2072656A6563742074 PUSH1 0x44 DUP3 ADD MSTORE PUSH10 0x1A19481C995C5D595CDD PUSH1 0xB2 SHL PUSH1 0x64 DUP3 ADD MSTORE PUSH1 0x84 ADD PUSH2 0x704 JUMP JUMPDEST PUSH1 0x3 DUP2 ADD SLOAD PUSH1 0x1 PUSH1 0xA0 SHL SWAP1 DIV PUSH1 0xFF AND ISZERO PUSH2 0x156D JUMPI PUSH1 0x40 MLOAD PUSH3 0x461BCD PUSH1 0xE5 SHL DUP2 MSTORE PUSH1 0x20 PUSH1 0x4 DUP3 ADD MSTORE PUSH1 0x18 PUSH1 0x24 DUP3 ADD MSTORE PUSH24 0x14995C5D595CDD08185B1C9958591E48185C1C1C9BDD9959 PUSH1 0x42 SHL PUSH1 0x44 DUP3 ADD MSTORE PUSH1 0x64 ADD PUSH2 0x704 JUMP JUMPDEST PUSH1 0x0 DUP3 DUP2 MSTORE PUSH1 0x3 PUSH1 0x20 DUP2 DUP2 MSTORE PUSH1 0x40 DUP1 DUP5 KECCAK256 DUP5 DUP2 SSTORE PUSH1 0x1 DUP1 DUP3 ADD SWAP6 SWAP1 SWAP6 SSTORE PUSH1 0x2 DUP1 DUP3 ADD DUP1 SLOAD PUSH1 0x1 PUSH1 0x1 PUSH1 0xA0 SHL SUB NOT AND SWAP1 SSTORE SWAP1 DUP5 ADD DUP1 SLOAD PUSH1 0x1 PUSH1 0x1 PUSH1 0xA8 SHL SUB NOT AND SWAP1 SSTORE SWAP4 DUP6 ADD SLOAD SWAP4 DUP6 ADD SLOAD SWAP3 DUP6 ADD SLOAD DUP2 MLOAD SWAP5 DUP6 MSTORE PUSH1 0x1 PUSH1 0x1 PUSH1 0xA0 SHL SUB SWAP4 DUP5 AND SWAP3 DUP6 ADD SWAP3 SWAP1 SWAP3 MSTORE SWAP2 AND SWAP1 DUP3 ADD MSTORE DUP3 SWAP1 PUSH32 0x23BC048E2726B66E4B6DF842E8940378C39EAD4CEEEABBBE237BD71CAF10603B SWAP1 PUSH1 0x60 ADD PUSH1 0x40 MLOAD DUP1 SWAP2 SUB SWAP1 LOG2 POP POP JUMP JUMPDEST PUSH1 0x60 PUSH1 0x5 DUP1 SLOAD DUP1 PUSH1 0x20 MUL PUSH1 0x20 ADD PUSH1 0x40 MLOAD SWAP1 DUP2 ADD PUSH1 0x40 MSTORE DUP1 SWAP3 SWAP2 SWAP1 DUP2 DUP2 MSTORE PUSH1 0x20 ADD PUSH1 0x0 SWAP1 JUMPDEST DUP3 DUP3 LT ISZERO PUSH2 0x196F JUMPI PUSH1 0x0 DUP5 DUP2 MSTORE PUSH1 0x20 SWAP1 DUP2 SWAP1 KECCAK256 PUSH1 0x40 DUP1 MLOAD PUSH2 0x120 DUP2 ADD DUP3 MSTORE PUSH1 0x9 DUP7 MUL SWAP1 SWAP3 ADD DUP1 SLOAD DUP4 MSTORE PUSH1 0x1 DUP2 ADD SLOAD PUSH1 0x1 PUSH1 0x1 PUSH1 0xA0 SHL SUB AND SWAP4 DUP4 ADD SWAP4 SWAP1 SWAP4 MSTORE PUSH1 0x2 DUP4 ADD DUP1 SLOAD SWAP3 SWAP4 SWAP3 SWAP2 DUP5 ADD SWAP2 PUSH2 0x1682 SWAP1 PUSH2 0x2BB1 JUMP JUMPDEST DUP1 PUSH1 0x1F ADD PUSH1 0x20 DUP1 SWAP2 DIV MUL PUSH1 0x20 ADD PUSH1 0x40 MLOAD SWAP1 DUP2 ADD PUSH1 0x40 MSTORE DUP1 SWAP3 SWAP2 SWAP1 DUP2 DUP2 MSTORE PUSH1 0x20 ADD DUP3 DUP1 SLOAD PUSH2 0x16AE SWAP1 PUSH2 0x2BB1 JUMP JUMPDEST DUP1 ISZERO PUSH2 0x16FB JUMPI DUP1 PUSH1 0x1F LT PUSH2 0x16D0 JUMPI PUSH2 0x100 DUP1 DUP4 SLOAD DIV MUL DUP4 MSTORE SWAP2 PUSH1 0x20 ADD SWAP2 PUSH2 0x16FB JUMP JUMPDEST DUP3 ADD SWAP2 SWAP1 PUSH1 0x0 MSTORE PUSH1 0x20 PUSH1 0x0 KECCAK256 SWAP1 JUMPDEST DUP2 SLOAD DUP2 MSTORE SWAP1 PUSH1 0x1 ADD SWAP1 PUSH1 0x20 ADD DUP1 DUP4 GT PUSH2 0x16DE JUMPI DUP3 SWAP1 SUB PUSH1 0x1F AND DUP3 ADD SWAP2 JUMPDEST POP POP POP POP POP DUP2 MSTORE PUSH1 0x20 ADD PUSH1 0x3 DUP3 ADD DUP1 SLOAD PUSH2 0x1714 SWAP1 PUSH2 0x2BB1 JUMP JUMPDEST DUP1 PUSH1 0x1F ADD PUSH1 0x20 DUP1 SWAP2 DIV MUL PUSH1 0x20 ADD PUSH1 0x40 MLOAD SWAP1 DUP2 ADD PUSH1 0x40 MSTORE DUP1 SWAP3 SWAP2 SWAP1 DUP2 DUP2 MSTORE PUSH1 0x20 ADD DUP3 DUP1 SLOAD PUSH2 0x1740 SWAP1 PUSH2 0x2BB1 JUMP JUMPDEST DUP1 ISZERO PUSH2 0x178D JUMPI DUP1 PUSH1 0x1F LT PUSH2 0x1762 JUMPI PUSH2 0x100 DUP1 DUP4 SLOAD DIV MUL DUP4 MSTORE SWAP2 PUSH1 0x20 ADD SWAP2 PUSH2 0x178D JUMP JUMPDEST DUP3 ADD SWAP2 SWAP1 PUSH1 0x0 MSTORE PUSH1 0x20 PUSH1 0x0 KECCAK256 SWAP1 JUMPDEST DUP2 SLOAD DUP2 MSTORE SWAP1 PUSH1 0x1 ADD SWAP1 PUSH1 0x20 ADD DUP1 DUP4 GT PUSH2 0x1770 JUMPI DUP3 SWAP1 SUB PUSH1 0x1F AND DUP3 ADD SWAP2 JUMPDEST POP POP POP POP POP DUP2 MSTORE PUSH1 0x20 ADD PUSH1 0x4 DUP3 ADD DUP1 SLOAD PUSH2 0x17A6 SWAP1 PUSH2 0x2BB1 JUMP JUMPDEST DUP1 PUSH1 0x1F ADD PUSH1 0x20 DUP1 SWAP2 DIV MUL PUSH1 0x20 ADD PUSH1 0x40 MLOAD SWAP1 DUP2 ADD PUSH1 0x40 MSTORE DUP1 SWAP3 SWAP2 SWAP1 DUP2 DUP2 MSTORE PUSH1 0x20 ADD DUP3 DUP1 SLOAD PUSH2 0x17D2 SWAP1 PUSH2 0x2BB1 JUMP JUMPDEST DUP1 ISZERO PUSH2 0x181F JUMPI DUP1 PUSH1 0x1F LT PUSH2 0x17F4 JUMPI PUSH2 0x100 DUP1 DUP4 SLOAD DIV MUL DUP4 MSTORE SWAP2 PUSH1 0x20 ADD SWAP2 PUSH2 0x181F JUMP JUMPDEST DUP3 ADD SWAP2 SWAP1 PUSH1 0x0 MSTORE PUSH1 0x20 PUSH1 0x0 KECCAK256 SWAP1 JUMPDEST DUP2 SLOAD DUP2 MSTORE SWAP1 PUSH1 0x1 ADD SWAP1 PUSH1 0x20 ADD DUP1 DUP4 GT PUSH2 0x1802 JUMPI DUP3 SWAP1 SUB PUSH1 0x1F AND DUP3 ADD SWAP2 JUMPDEST POP POP POP POP POP DUP2 MSTORE PUSH1 0x20 ADD PUSH1 0x5 DUP3 ADD DUP1 SLOAD PUSH2 0x1838 SWAP1 PUSH2 0x2BB1 JUMP JUMPDEST DUP1 PUSH1 0x1F ADD PUSH1 0x20 DUP1 SWAP2 DIV MUL PUSH1 0x20 ADD PUSH1 0x40 MLOAD SWAP1 DUP2 ADD PUSH1 0x40 MSTORE DUP1 SWAP3 SWAP2 SWAP1 DUP2 DUP2 MSTORE PUSH1 0x20 ADD DUP3 DUP1 SLOAD PUSH2 0x1864 SWAP1 PUSH2 0x2BB1 JUMP JUMPDEST DUP1 ISZERO PUSH2 0x18B1 JUMPI DUP1 PUSH1 0x1F LT PUSH2 0x1886 JUMPI PUSH2 0x100 DUP1 DUP4 SLOAD DIV MUL DUP4 MSTORE SWAP2 PUSH1 0x20 ADD SWAP2 PUSH2 0x18B1 JUMP JUMPDEST DUP3 ADD SWAP2 SWAP1 PUSH1 0x0 MSTORE PUSH1 0x20 PUSH1 0x0 KECCAK256 SWAP1 JUMPDEST DUP2 SLOAD DUP2 MSTORE SWAP1 PUSH1 0x1 ADD SWAP1 PUSH1 0x20 ADD DUP1 DUP4 GT PUSH2 0x1894 JUMPI DUP3 SWAP1 SUB PUSH1 0x1F AND DUP3 ADD SWAP2 JUMPDEST POP POP POP POP POP DUP2 MSTORE PUSH1 0x20 ADD PUSH1 0x6 DUP3 ADD DUP1 SLOAD PUSH2 0x18CA SWAP1 PUSH2 0x2BB1 JUMP JUMPDEST DUP1 PUSH1 0x1F ADD PUSH1 0x20 DUP1 SWAP2 DIV MUL PUSH1 0x20 ADD PUSH1 0x40 MLOAD SWAP1 DUP2 ADD PUSH1 0x40 MSTORE DUP1 SWAP3 SWAP2 SWAP1 DUP2 DUP2 MSTORE PUSH1 0x20 ADD DUP3 DUP1 SLOAD PUSH2 0x18F6 SWAP1 PUSH2 0x2BB1 JUMP JUMPDEST DUP1 ISZERO PUSH2 0x1943 JUMPI DUP1 PUSH1 0x1F LT PUSH2 0x1918 JUMPI PUSH2 0x100 DUP1 DUP4 SLOAD DIV MUL DUP4 MSTORE SWAP2 PUSH1 0x20 ADD SWAP2 PUSH2 0x1943 JUMP JUMPDEST DUP3 ADD SWAP2 SWAP1 PUSH1 0x0 MSTORE PUSH1 0x20 PUSH1 0x0 KECCAK256 SWAP1 JUMPDEST DUP2 SLOAD DUP2 MSTORE SWAP1 PUSH1 0x1 ADD SWAP1 PUSH1 0x20 ADD DUP1 DUP4 GT PUSH2 0x1926 JUMPI DUP3 SWAP1 SUB PUSH1 0x1F AND DUP3 ADD SWAP2 JUMPDEST POP POP POP POP POP DUP2 MSTORE PUSH1 0x20 ADD PUSH1 0x7 DUP3 ADD SLOAD DUP2 MSTORE PUSH1 0x20 ADD PUSH1 0x8 DUP3 ADD SLOAD DUP2 MSTORE POP POP DUP2 MSTORE PUSH1 0x20 ADD SWAP1 PUSH1 0x1 ADD SWAP1 PUSH2 0x162E JUMP JUMPDEST POP POP POP POP SWAP1 POP SWAP1 JUMP JUMPDEST CALLER PUSH1 0x0 SWAP1 DUP2 MSTORE PUSH1 0x1 PUSH1 0x20 SWAP1 DUP2 MSTORE PUSH1 0x40 DUP1 DUP4 KECCAK256 DUP1 SLOAD DUP3 MLOAD DUP2 DUP6 MUL DUP2 ADD DUP6 ADD SWAP1 SWAP4 MSTORE DUP1 DUP4 MSTORE PUSH1 0x60 SWAP5 SWAP3 SWAP4 SWAP2 SWAP3 SWAP1 SWAP2 DUP5 ADD JUMPDEST DUP3 DUP3 LT ISZERO PUSH2 0x196F JUMPI PUSH1 0x0 DUP5 DUP2 MSTORE PUSH1 0x20 SWAP1 DUP2 SWAP1 KECCAK256 PUSH1 0x40 DUP1 MLOAD PUSH2 0x120 DUP2 ADD DUP3 MSTORE PUSH1 0x9 DUP7 MUL SWAP1 SWAP3 ADD DUP1 SLOAD DUP4 MSTORE PUSH1 0x1 DUP2 ADD SLOAD PUSH1 0x1 PUSH1 0x1 PUSH1 0xA0 SHL SUB AND SWAP4 DUP4 ADD SWAP4 SWAP1 SWAP4 MSTORE PUSH1 0x2 DUP4 ADD DUP1 SLOAD SWAP3 SWAP4 SWAP3 SWAP2 DUP5 ADD SWAP2 PUSH2 0x19FB SWAP1 PUSH2 0x2BB1 JUMP JUMPDEST DUP1 PUSH1 0x1F ADD PUSH1 0x20 DUP1 SWAP2 DIV MUL PUSH1 0x20 ADD PUSH1 0x40 MLOAD SWAP1 DUP2 ADD PUSH1 0x40 MSTORE DUP1 SWAP3 SWAP2 SWAP1 DUP2 DUP2 MSTORE PUSH1 0x20 ADD DUP3 DUP1 SLOAD PUSH2 0x1A27 SWAP1 PUSH2 0x2BB1 JUMP JUMPDEST DUP1 ISZERO PUSH2 0x1A74 JUMPI DUP1 PUSH1 0x1F LT PUSH2 0x1A49 JUMPI PUSH2 0x100 DUP1 DUP4 SLOAD DIV MUL DUP4 MSTORE SWAP2 PUSH1 0x20 ADD SWAP2 PUSH2 0x1A74 JUMP JUMPDEST DUP3 ADD SWAP2 SWAP1 PUSH1 0x0 MSTORE PUSH1 0x20 PUSH1 0x0 KECCAK256 SWAP1 JUMPDEST DUP2 SLOAD DUP2 MSTORE SWAP1 PUSH1 0x1 ADD SWAP1 PUSH1 0x20 ADD DUP1 DUP4 GT PUSH2 0x1A57 JUMPI DUP3 SWAP1 SUB PUSH1 0x1F AND DUP3 ADD SWAP2 JUMPDEST POP POP POP POP POP DUP2 MSTORE PUSH1 0x20 ADD PUSH1 0x3 DUP3 ADD DUP1 SLOAD PUSH2 0x1A8D SWAP1 PUSH2 0x2BB1 JUMP JUMPDEST DUP1 PUSH1 0x1F ADD PUSH1 0x20 DUP1 SWAP2 DIV MUL PUSH1 0x20 ADD PUSH1 0x40 MLOAD SWAP1 DUP2 ADD PUSH1 0x40 MSTORE DUP1 SWAP3 SWAP2 SWAP1 DUP2 DUP2 MSTORE PUSH1 0x20 ADD DUP3 DUP1 SLOAD PUSH2 0x1AB9 SWAP1 PUSH2 0x2BB1 JUMP JUMPDEST DUP1 ISZERO PUSH2 0x1B06 JUMPI DUP1 PUSH1 0x1F LT PUSH2 0x1ADB JUMPI PUSH2 0x100 DUP1 DUP4 SLOAD DIV MUL DUP4 MSTORE SWAP2 PUSH1 0x20 ADD SWAP2 PUSH2 0x1B06 JUMP JUMPDEST DUP3 ADD SWAP2 SWAP1 PUSH1 0x0 MSTORE PUSH1 0x20 PUSH1 0x0 KECCAK256 SWAP1 JUMPDEST DUP2 SLOAD DUP2 MSTORE SWAP1 PUSH1 0x1 ADD SWAP1 PUSH1 0x20 ADD DUP1 DUP4 GT PUSH2 0x1AE9 JUMPI DUP3 SWAP1 SUB PUSH1 0x1F AND DUP3 ADD SWAP2 JUMPDEST POP POP POP POP POP DUP2 MSTORE PUSH1 0x20 ADD PUSH1 0x4 DUP3 ADD DUP1 SLOAD PUSH2 0x1B1F SWAP1 PUSH2 0x2BB1 JUMP JUMPDEST DUP1 PUSH1 0x1F ADD PUSH1 0x20 DUP1 SWAP2 DIV MUL PUSH1 0x20 ADD PUSH1 0x40 MLOAD SWAP1 DUP2 ADD PUSH1 0x40 MSTORE DUP1 SWAP3 SWAP2 SWAP1 DUP2 DUP2 MSTORE PUSH1 0x20 ADD DUP3 DUP1 SLOAD PUSH2 0x1B4B SWAP1 PUSH2 0x2BB1 JUMP JUMPDEST DUP1 ISZERO PUSH2 0x1B98 JUMPI DUP1 PUSH1 0x1F LT PUSH2 0x1B6D JUMPI PUSH2 0x100 DUP1 DUP4 SLOAD DIV MUL DUP4 MSTORE SWAP2 PUSH1 0x20 ADD SWAP2 PUSH2 0x1B98 JUMP JUMPDEST DUP3 ADD SWAP2 SWAP1 PUSH1 0x0 MSTORE PUSH1 0x20 PUSH1 0x0 KECCAK256 SWAP1 JUMPDEST DUP2 SLOAD DUP2 MSTORE SWAP1 PUSH1 0x1 ADD SWAP1 PUSH1 0x20 ADD DUP1 DUP4 GT PUSH2 0x1B7B JUMPI DUP3 SWAP1 SUB PUSH1 0x1F AND DUP3 ADD SWAP2 JUMPDEST POP POP POP POP POP DUP2 MSTORE PUSH1 0x20 ADD PUSH1 0x5 DUP3 ADD DUP1 SLOAD PUSH2 0x1BB1 SWAP1 PUSH2 0x2BB1 JUMP JUMPDEST DUP1 PUSH1 0x1F ADD PUSH1 0x20 DUP1 SWAP2 DIV MUL PUSH1 0x20 ADD PUSH1 0x40 MLOAD SWAP1 DUP2 ADD PUSH1 0x40 MSTORE DUP1 SWAP3 SWAP2 SWAP1 DUP2 DUP2 MSTORE PUSH1 0x20 ADD DUP3 DUP1 SLOAD PUSH2 0x1BDD SWAP1 PUSH2 0x2BB1 JUMP JUMPDEST DUP1 ISZERO PUSH2 0x1C2A JUMPI DUP1 PUSH1 0x1F LT PUSH2 0x1BFF JUMPI PUSH2 0x100 DUP1 DUP4 SLOAD DIV MUL DUP4 MSTORE SWAP2 PUSH1 0x20 ADD SWAP2 PUSH2 0x1C2A JUMP JUMPDEST DUP3 ADD SWAP2 SWAP1 PUSH1 0x0 MSTORE PUSH1 0x20 PUSH1 0x0 KECCAK256 SWAP1 JUMPDEST DUP2 SLOAD DUP2 MSTORE SWAP1 PUSH1 0x1 ADD SWAP1 PUSH1 0x20 ADD DUP1 DUP4 GT PUSH2 0x1C0D JUMPI DUP3 SWAP1 SUB PUSH1 0x1F AND DUP3 ADD SWAP2 JUMPDEST POP POP POP POP POP DUP2 MSTORE PUSH1 0x20 ADD PUSH1 0x6 DUP3 ADD DUP1 SLOAD PUSH2 0x1C43 SWAP1 PUSH2 0x2BB1 JUMP JUMPDEST DUP1 PUSH1 0x1F ADD PUSH1 0x20 DUP1 SWAP2 DIV MUL PUSH1 0x20 ADD PUSH1 0x40 MLOAD SWAP1 DUP2 ADD PUSH1 0x40 MSTORE DUP1 SWAP3 SWAP2 SWAP1 DUP2 DUP2 MSTORE PUSH1 0x20 ADD DUP3 DUP1 SLOAD PUSH2 0x1C6F SWAP1 PUSH2 0x2BB1 JUMP JUMPDEST DUP1 ISZERO PUSH2 0x1CBC JUMPI DUP1 PUSH1 0x1F LT PUSH2 0x1C91 JUMPI PUSH2 0x100 DUP1 DUP4 SLOAD DIV MUL DUP4 MSTORE SWAP2 PUSH1 0x20 ADD SWAP2 PUSH2 0x1CBC JUMP JUMPDEST DUP3 ADD SWAP2 SWAP1 PUSH1 0x0 MSTORE PUSH1 0x20 PUSH1 0x0 KECCAK256 SWAP1 JUMPDEST DUP2 SLOAD DUP2 MSTORE SWAP1 PUSH1 0x1 ADD SWAP1 PUSH1 0x20 ADD DUP1 DUP4 GT PUSH2 0x1C9F JUMPI DUP3 SWAP1 SUB PUSH1 0x1F AND DUP3 ADD SWAP2 JUMPDEST POP POP POP POP POP DUP2 MSTORE PUSH1 0x20 ADD PUSH1 0x7 DUP3 ADD SLOAD DUP2 MSTORE PUSH1 0x20 ADD PUSH1 0x8 DUP3 ADD SLOAD DUP2 MSTORE POP POP DUP2 MSTORE PUSH1 0x20 ADD SWAP1 PUSH1 0x1 ADD SWAP1 PUSH2 0x19A7 JUMP JUMPDEST PUSH1 0x0 DUP1 JUMPDEST PUSH1 0x1 PUSH1 0x1 PUSH1 0xA0 SHL SUB DUP5 AND PUSH1 0x0 SWAP1 DUP2 MSTORE PUSH1 0x1 PUSH1 0x20 MSTORE PUSH1 0x40 SWAP1 KECCAK256 SLOAD DUP2 LT ISZERO PUSH2 0x1D62 JUMPI PUSH1 0x1 PUSH1 0x1 PUSH1 0xA0 SHL SUB DUP5 AND PUSH1 0x0 SWAP1 DUP2 MSTORE PUSH1 0x1 PUSH1 0x20 MSTORE PUSH1 0x40 SWAP1 KECCAK256 DUP1 SLOAD DUP5 SWAP2 SWAP1 DUP4 SWAP1 DUP2 LT PUSH2 0x1D39 JUMPI PUSH2 0x1D39 PUSH2 0x2B9B JUMP JUMPDEST SWAP1 PUSH1 0x0 MSTORE PUSH1 0x20 PUSH1 0x0 KECCAK256 SWAP1 PUSH1 0x9 MUL ADD PUSH1 0x0 ADD SLOAD SUB PUSH2 0x1D5A JUMPI PUSH1 0x1 SWAP2 POP POP PUSH2 0x1DE2 JUMP JUMPDEST PUSH1 0x1 ADD PUSH2 0x1CEC JUMP JUMPDEST POP PUSH1 0x0 JUMPDEST PUSH1 0x1 PUSH1 0x1 PUSH1 0xA0 SHL SUB DUP5 AND PUSH1 0x0 SWAP1 DUP2 MSTORE PUSH1 0x2 PUSH1 0x20 MSTORE PUSH1 0x40 SWAP1 KECCAK256 SLOAD DUP2 LT ISZERO PUSH2 0x1DDC JUMPI PUSH1 0x1 PUSH1 0x1 PUSH1 0xA0 SHL SUB DUP5 AND PUSH1 0x0 SWAP1 DUP2 MSTORE PUSH1 0x2 PUSH1 0x20 MSTORE PUSH1 0x40 SWAP1 KECCAK256 DUP1 SLOAD DUP5 SWAP2 SWAP1 DUP4 SWAP1 DUP2 LT PUSH2 0x1DB3 JUMPI PUSH2 0x1DB3 PUSH2 0x2B9B JUMP JUMPDEST SWAP1 PUSH1 0x0 MSTORE PUSH1 0x20 PUSH1 0x0 KECCAK256 SWAP1 PUSH1 0xB MUL ADD PUSH1 0x1 ADD SLOAD SUB PUSH2 0x1DD4 JUMPI PUSH1 0x1 SWAP2 POP POP PUSH2 0x1DE2 JUMP JUMPDEST PUSH1 0x1 ADD PUSH2 0x1D66 JUMP JUMPDEST POP PUSH1 0x0 SWAP1 POP JUMPDEST SWAP3 SWAP2 POP POP JUMP JUMPDEST CALLER PUSH1 0x0 SWAP1 DUP2 MSTORE PUSH1 0x2 PUSH1 0x20 SWAP1 DUP2 MSTORE PUSH1 0x40 DUP1 DUP4 KECCAK256 DUP1 SLOAD DUP3 MLOAD DUP2 DUP6 MUL DUP2 ADD DUP6 ADD SWAP1 SWAP4 MSTORE DUP1 DUP4 MSTORE PUSH1 0x60 SWAP5 SWAP3 SWAP4 SWAP2 SWAP3 SWAP1 SWAP2 DUP5 ADD JUMPDEST DUP3 DUP3 LT ISZERO PUSH2 0x196F JUMPI PUSH1 0x0 DUP5 DUP2 MSTORE PUSH1 0x20 SWAP1 DUP2 SWAP1 KECCAK256 PUSH1 0x40 DUP1 MLOAD PUSH2 0x160 DUP2 ADD DUP3 MSTORE PUSH1 0xB DUP7 MUL SWAP1 SWAP3 ADD DUP1 SLOAD DUP4 MSTORE PUSH1 0x1 DUP2 ADD SLOAD SWAP4 DUP4 ADD SWAP4 SWAP1 SWAP4 MSTORE PUSH1 0x2 DUP4 ADD SLOAD PUSH1 0x1 PUSH1 0x1 PUSH1 0xA0 SHL SUB SWAP1 DUP2 AND SWAP2 DUP4 ADD SWAP2 SWAP1 SWAP2 MSTORE PUSH1 0x3 DUP4 ADD SLOAD AND PUSH1 0x60 DUP3 ADD MSTORE PUSH1 0x4 DUP3 ADD DUP1 SLOAD SWAP2 SWAP3 SWAP2 PUSH1 0x80 DUP5 ADD SWAP2 SWAP1 PUSH2 0x1E86 SWAP1 PUSH2 0x2BB1 JUMP JUMPDEST DUP1 PUSH1 0x1F ADD PUSH1 0x20 DUP1 SWAP2 DIV MUL PUSH1 0x20 ADD PUSH1 0x40 MLOAD SWAP1 DUP2 ADD PUSH1 0x40 MSTORE DUP1 SWAP3 SWAP2 SWAP1 DUP2 DUP2 MSTORE PUSH1 0x20 ADD DUP3 DUP1 SLOAD PUSH2 0x1EB2 SWAP1 PUSH2 0x2BB1 JUMP JUMPDEST DUP1 ISZERO PUSH2 0x1EFF JUMPI DUP1 PUSH1 0x1F LT PUSH2 0x1ED4 JUMPI PUSH2 0x100 DUP1 DUP4 SLOAD DIV MUL DUP4 MSTORE SWAP2 PUSH1 0x20 ADD SWAP2 PUSH2 0x1EFF JUMP JUMPDEST DUP3 ADD SWAP2 SWAP1 PUSH1 0x0 MSTORE PUSH1 0x20 PUSH1 0x0 KECCAK256 SWAP1 JUMPDEST DUP2 SLOAD DUP2 MSTORE SWAP1 PUSH1 0x1 ADD SWAP1 PUSH1 0x20 ADD DUP1 DUP4 GT PUSH2 0x1EE2 JUMPI DUP3 SWAP1 SUB PUSH1 0x1F AND DUP3 ADD SWAP2 JUMPDEST POP POP POP POP POP DUP2 MSTORE PUSH1 0x20 ADD PUSH1 0x5 DUP3 ADD DUP1 SLOAD PUSH2 0x1F18 SWAP1 PUSH2 0x2BB1 JUMP JUMPDEST DUP1 PUSH1 0x1F ADD PUSH1 0x20 DUP1 SWAP2 DIV MUL PUSH1 0x20 ADD PUSH1 0x40 MLOAD SWAP1 DUP2 ADD PUSH1 0x40 MSTORE DUP1 SWAP3 SWAP2 SWAP1 DUP2 DUP2 MSTORE PUSH1 0x20 ADD DUP3 DUP1 SLOAD PUSH2 0x1F44 SWAP1 PUSH2 0x2BB1 JUMP JUMPDEST DUP1 ISZERO PUSH2 0x1F91 JUMPI DUP1 PUSH1 0x1F LT PUSH2 0x1F66 JUMPI PUSH2 0x100 DUP1 DUP4 SLOAD DIV MUL DUP4 MSTORE SWAP2 PUSH1 0x20 ADD SWAP2 PUSH2 0x1F91 JUMP JUMPDEST DUP3 ADD SWAP2 SWAP1 PUSH1 0x0 MSTORE PUSH1 0x20 PUSH1 0x0 KECCAK256 SWAP1 JUMPDEST DUP2 SLOAD DUP2 MSTORE SWAP1 PUSH1 0x1 ADD SWAP1 PUSH1 0x20 ADD DUP1 DUP4 GT PUSH2 0x1F74 JUMPI DUP3 SWAP1 SUB PUSH1 0x1F AND DUP3 ADD SWAP2 JUMPDEST POP POP POP POP POP DUP2 MSTORE PUSH1 0x20 ADD PUSH1 0x6 DUP3 ADD DUP1 SLOAD PUSH2 0x1FAA SWAP1 PUSH2 0x2BB1 JUMP JUMPDEST DUP1 PUSH1 0x1F ADD PUSH1 0x20 DUP1 SWAP2 DIV MUL PUSH1 0x20 ADD PUSH1 0x40 MLOAD SWAP1 DUP2 ADD PUSH1 0x40 MSTORE DUP1 SWAP3 SWAP2 SWAP1 DUP2 DUP2 MSTORE PUSH1 0x20 ADD DUP3 DUP1 SLOAD PUSH2 0x1FD6 SWAP1 PUSH2 0x2BB1 JUMP JUMPDEST DUP1 ISZERO PUSH2 0x2023 JUMPI DUP1 PUSH1 0x1F LT PUSH2 0x1FF8 JUMPI PUSH2 0x100 DUP1 DUP4 SLOAD DIV MUL DUP4 MSTORE SWAP2 PUSH1 0x20 ADD SWAP2 PUSH2 0x2023 JUMP JUMPDEST DUP3 ADD SWAP2 SWAP1 PUSH1 0x0 MSTORE PUSH1 0x20 PUSH1 0x0 KECCAK256 SWAP1 JUMPDEST DUP2 SLOAD DUP2 MSTORE SWAP1 PUSH1 0x1 ADD SWAP1 PUSH1 0x20 ADD DUP1 DUP4 GT PUSH2 0x2006 JUMPI DUP3 SWAP1 SUB PUSH1 0x1F AND DUP3 ADD SWAP2 JUMPDEST POP POP POP POP POP DUP2 MSTORE PUSH1 0x20 ADD PUSH1 0x7 DUP3 ADD DUP1 SLOAD PUSH2 0x203C SWAP1 PUSH2 0x2BB1 JUMP JUMPDEST DUP1 PUSH1 0x1F ADD PUSH1 0x20 DUP1 SWAP2 DIV MUL PUSH1 0x20 ADD PUSH1 0x40 MLOAD SWAP1 DUP2 ADD PUSH1 0x40 MSTORE DUP1 SWAP3 SWAP2 SWAP1 DUP2 DUP2 MSTORE PUSH1 0x20 ADD DUP3 DUP1 SLOAD PUSH2 0x2068 SWAP1 PUSH2 0x2BB1 JUMP JUMPDEST DUP1 ISZERO PUSH2 0x20B5 JUMPI DUP1 PUSH1 0x1F LT PUSH2 0x208A JUMPI PUSH2 0x100 DUP1 DUP4 SLOAD DIV MUL DUP4 MSTORE SWAP2 PUSH1 0x20 ADD SWAP2 PUSH2 0x20B5 JUMP JUMPDEST DUP3 ADD SWAP2 SWAP1 PUSH1 0x0 MSTORE PUSH1 0x20 PUSH1 0x0 KECCAK256 SWAP1 JUMPDEST DUP2 SLOAD DUP2 MSTORE SWAP1 PUSH1 0x1 ADD SWAP1 PUSH1 0x20 ADD DUP1 DUP4 GT PUSH2 0x2098 JUMPI DUP3 SWAP1 SUB PUSH1 0x1F AND DUP3 ADD SWAP2 JUMPDEST POP POP POP POP POP DUP2 MSTORE PUSH1 0x20 ADD PUSH1 0x8 DUP3 ADD DUP1 SLOAD PUSH2 0x20CE SWAP1 PUSH2 0x2BB1 JUMP JUMPDEST DUP1 PUSH1 0x1F ADD PUSH1 0x20 DUP1 SWAP2 DIV MUL PUSH1 0x20 ADD PUSH1 0x40 MLOAD SWAP1 DUP2 ADD PUSH1 0x40 MSTORE DUP1 SWAP3 SWAP2 SWAP1 DUP2 DUP2 MSTORE PUSH1 0x20 ADD DUP3 DUP1 SLOAD PUSH2 0x20FA SWAP1 PUSH2 0x2BB1 JUMP JUMPDEST DUP1 ISZERO PUSH2 0x2147 JUMPI DUP1 PUSH1 0x1F LT PUSH2 0x211C JUMPI PUSH2 0x100 DUP1 DUP4 SLOAD DIV MUL DUP4 MSTORE SWAP2 PUSH1 0x20 ADD SWAP2 PUSH2 0x2147 JUMP JUMPDEST DUP3 ADD SWAP2 SWAP1 PUSH1 0x0 MSTORE PUSH1 0x20 PUSH1 0x0 KECCAK256 SWAP1 JUMPDEST DUP2 SLOAD DUP2 MSTORE SWAP1 PUSH1 0x1 ADD SWAP1 PUSH1 0x20 ADD DUP1 DUP4 GT PUSH2 0x212A JUMPI DUP3 SWAP1 SUB PUSH1 0x1F AND DUP3 ADD SWAP2 JUMPDEST POP POP POP POP POP DUP2 MSTORE PUSH1 0x20 ADD PUSH1 0x9 DUP3 ADD SLOAD DUP2 MSTORE PUSH1 0x20 ADD PUSH1 0xA DUP3 ADD SLOAD DUP2 MSTORE POP POP DUP2 MSTORE PUSH1 0x20 ADD SWAP1 PUSH1 0x1 ADD SWAP1 PUSH2 0x1E17 JUMP JUMPDEST PUSH1 0x60 PUSH1 0x5 DUP1 SLOAD DUP1 PUSH1 0x20 MUL PUSH1 0x20 ADD PUSH1 0x40 MLOAD SWAP1 DUP2 ADD PUSH1 0x40 MSTORE DUP1 SWAP3 SWAP2 SWAP1 DUP2 DUP2 MSTORE PUSH1 0x20 ADD PUSH1 0x0 SWAP1 JUMPDEST DUP3 DUP3 LT ISZERO PUSH2 0x196F JUMPI PUSH1 0x0 DUP5 DUP2 MSTORE PUSH1 0x20 SWAP1 DUP2 SWAP1 KECCAK256 PUSH1 0x40 DUP1 MLOAD PUSH2 0x120 DUP2 ADD DUP3 MSTORE PUSH1 0x9 DUP7 MUL SWAP1 SWAP3 ADD DUP1 SLOAD DUP4 MSTORE PUSH1 0x1 DUP2 ADD SLOAD PUSH1 0x1 PUSH1 0x1 PUSH1 0xA0 SHL SUB AND SWAP4 DUP4 ADD SWAP4 SWAP1 SWAP4 MSTORE PUSH1 0x2 DUP4 ADD DUP1 SLOAD SWAP3 SWAP4 SWAP3 SWAP2 DUP5 ADD SWAP2 PUSH2 0x21EB SWAP1 PUSH2 0x2BB1 JUMP JUMPDEST DUP1 PUSH1 0x1F ADD PUSH1 0x20 DUP1 SWAP2 DIV MUL PUSH1 0x20 ADD PUSH1 0x40 MLOAD SWAP1 DUP2 ADD PUSH1 0x40 MSTORE DUP1 SWAP3 SWAP2 SWAP1 DUP2 DUP2 MSTORE PUSH1 0x20 ADD DUP3 DUP1 SLOAD PUSH2 0x2217 SWAP1 PUSH2 0x2BB1 JUMP JUMPDEST DUP1 ISZERO PUSH2 0x2264 JUMPI DUP1 PUSH1 0x1F LT PUSH2 0x2239 JUMPI PUSH2 0x100 DUP1 DUP4 SLOAD DIV MUL DUP4 MSTORE SWAP2 PUSH1 0x20 ADD SWAP2 PUSH2 0x2264 JUMP JUMPDEST DUP3 ADD SWAP2 SWAP1 PUSH1 0x0 MSTORE PUSH1 0x20 PUSH1 0x0 KECCAK256 SWAP1 JUMPDEST DUP2 SLOAD DUP2 MSTORE SWAP1 PUSH1 0x1 ADD SWAP1 PUSH1 0x20 ADD DUP1 DUP4 GT PUSH2 0x2247 JUMPI DUP3 SWAP1 SUB PUSH1 0x1F AND DUP3 ADD SWAP2 JUMPDEST POP POP POP POP POP DUP2 MSTORE PUSH1 0x20 ADD PUSH1 0x3 DUP3 ADD DUP1 SLOAD PUSH2 0x227D SWAP1 PUSH2 0x2BB1 JUMP JUMPDEST DUP1 PUSH1 0x1F ADD PUSH1 0x20 DUP1 SWAP2 DIV MUL PUSH1 0x20 ADD PUSH1 0x40 MLOAD SWAP1 DUP2 ADD PUSH1 0x40 MSTORE DUP1 SWAP3 SWAP2 SWAP1 DUP2 DUP2 MSTORE PUSH1 0x20 ADD DUP3 DUP1 SLOAD PUSH2 0x22A9 SWAP1 PUSH2 0x2BB1 JUMP JUMPDEST DUP1 ISZERO PUSH2 0x22F6 JUMPI DUP1 PUSH1 0x1F LT PUSH2 0x22CB JUMPI PUSH2 0x100 DUP1 DUP4 SLOAD DIV MUL DUP4 MSTORE SWAP2 PUSH1 0x20 ADD SWAP2 PUSH2 0x22F6 JUMP JUMPDEST DUP3 ADD SWAP2 SWAP1 PUSH1 0x0 MSTORE PUSH1 0x20 PUSH1 0x0 KECCAK256 SWAP1 JUMPDEST DUP2 SLOAD DUP2 MSTORE SWAP1 PUSH1 0x1 ADD SWAP1 PUSH1 0x20 ADD DUP1 DUP4 GT PUSH2 0x22D9 JUMPI DUP3 SWAP1 SUB PUSH1 0x1F AND DUP3 ADD SWAP2 JUMPDEST POP POP POP POP POP DUP2 MSTORE PUSH1 0x20 ADD PUSH1 0x4 DUP3 ADD DUP1 SLOAD PUSH2 0x230F SWAP1 PUSH2 0x2BB1 JUMP JUMPDEST DUP1 PUSH1 0x1F ADD PUSH1 0x20 DUP1 SWAP2 DIV MUL PUSH1 0x20 ADD PUSH1 0x40 MLOAD SWAP1 DUP2 ADD PUSH1 0x40 MSTORE DUP1 SWAP3 SWAP2 SWAP1 DUP2 DUP2 MSTORE PUSH1 0x20 ADD DUP3 DUP1 SLOAD PUSH2 0x233B SWAP1 PUSH2 0x2BB1 JUMP JUMPDEST DUP1 ISZERO PUSH2 0x2388 JUMPI DUP1 PUSH1 0x1F LT PUSH2 0x235D JUMPI PUSH2 0x100 DUP1 DUP4 SLOAD DIV MUL DUP4 MSTORE SWAP2 PUSH1 0x20 ADD SWAP2 PUSH2 0x2388 JUMP JUMPDEST DUP3 ADD SWAP2 SWAP1 PUSH1 0x0 MSTORE PUSH1 0x20 PUSH1 0x0 KECCAK256 SWAP1 JUMPDEST DUP2 SLOAD DUP2 MSTORE SWAP1 PUSH1 0x1 ADD SWAP1 PUSH1 0x20 ADD DUP1 DUP4 GT PUSH2 0x236B JUMPI DUP3 SWAP1 SUB PUSH1 0x1F AND DUP3 ADD SWAP2 JUMPDEST POP POP POP POP POP DUP2 MSTORE PUSH1 0x20 ADD PUSH1 0x5 DUP3 ADD DUP1 SLOAD PUSH2 0x23A1 SWAP1 PUSH2 0x2BB1 JUMP JUMPDEST DUP1 PUSH1 0x1F ADD PUSH1 0x20 DUP1 SWAP2 DIV MUL PUSH1 0x20 ADD PUSH1 0x40 MLOAD SWAP1 DUP2 ADD PUSH1 0x40 MSTORE DUP1 SWAP3 SWAP2 SWAP1 DUP2 DUP2 MSTORE PUSH1 0x20 ADD DUP3 DUP1 SLOAD PUSH2 0x23CD SWAP1 PUSH2 0x2BB1 JUMP JUMPDEST DUP1 ISZERO PUSH2 0x241A JUMPI DUP1 PUSH1 0x1F LT PUSH2 0x23EF JUMPI PUSH2 0x100 DUP1 DUP4 SLOAD DIV MUL DUP4 MSTORE SWAP2 PUSH1 0x20 ADD SWAP2 PUSH2 0x241A JUMP JUMPDEST DUP3 ADD SWAP2 SWAP1 PUSH1 0x0 MSTORE PUSH1 0x20 PUSH1 0x0 KECCAK256 SWAP1 JUMPDEST DUP2 SLOAD DUP2 MSTORE SWAP1 PUSH1 0x1 ADD SWAP1 PUSH1 0x20 ADD DUP1 DUP4 GT PUSH2 0x23FD JUMPI DUP3 SWAP1 SUB PUSH1 0x1F AND DUP3 ADD SWAP2 JUMPDEST POP POP POP POP POP DUP2 MSTORE PUSH1 0x20 ADD PUSH1 0x6 DUP3 ADD DUP1 SLOAD PUSH2 0x2433 SWAP1 PUSH2 0x2BB1 JUMP JUMPDEST DUP1 PUSH1 0x1F ADD PUSH1 0x20 DUP1 SWAP2 DIV MUL PUSH1 0x20 ADD PUSH1 0x40 MLOAD SWAP1 DUP2 ADD PUSH1 0x40 MSTORE DUP1 SWAP3 SWAP2 SWAP1 DUP2 DUP2 MSTORE PUSH1 0x20 ADD DUP3 DUP1 SLOAD PUSH2 0x245F SWAP1 PUSH2 0x2BB1 JUMP JUMPDEST DUP1 ISZERO PUSH2 0x24AC JUMPI DUP1 PUSH1 0x1F LT PUSH2 0x2481 JUMPI PUSH2 0x100 DUP1 DUP4 SLOAD DIV MUL DUP4 MSTORE SWAP2 PUSH1 0x20 ADD SWAP2 PUSH2 0x24AC JUMP JUMPDEST DUP3 ADD SWAP2 SWAP1 PUSH1 0x0 MSTORE PUSH1 0x20 PUSH1 0x0 KECCAK256 SWAP1 JUMPDEST DUP2 SLOAD DUP2 MSTORE SWAP1 PUSH1 0x1 ADD SWAP1 PUSH1 0x20 ADD DUP1 DUP4 GT PUSH2 0x248F JUMPI DUP3 SWAP1 SUB PUSH1 0x1F AND DUP3 ADD SWAP2 JUMPDEST POP POP POP POP POP DUP2 MSTORE PUSH1 0x20 ADD PUSH1 0x7 DUP3 ADD SLOAD DUP2 MSTORE PUSH1 0x20 ADD PUSH1 0x8 DUP3 ADD SLOAD DUP2 MSTORE POP POP DUP2 MSTORE PUSH1 0x20 ADD SWAP1 PUSH1 0x1 ADD SWAP1 PUSH2 0x2197 JUMP JUMPDEST PUSH1 0x0 DUP1 TIMESTAMP NUMBER BLOCKHASH CALLER PUSH1 0x40 MLOAD PUSH1 0x20 ADD PUSH2 0x2514 SWAP4 SWAP3 SWAP2 SWAP1 SWAP3 DUP4 MSTORE PUSH1 0x20 DUP4 ADD SWAP2 SWAP1 SWAP2 MSTORE PUSH1 0x60 SHL PUSH12 0xFFFFFFFFFFFFFFFFFFFFFFFF NOT AND PUSH1 0x40 DUP3 ADD MSTORE PUSH1 0x54 ADD SWAP1 JUMP JUMPDEST PUSH1 0x40 DUP1 MLOAD PUSH1 0x1F NOT DUP2 DUP5 SUB ADD DUP2 MSTORE SWAP2 SWAP1 MSTORE DUP1 MLOAD PUSH1 0x20 SWAP1 SWAP2 ADD KECCAK256 SWAP1 POP PUSH1 0x0 PUSH2 0x253F PUSH5 0x2540BE400 DUP4 PUSH2 0x2D51 JUMP JUMPDEST SWAP1 POP JUMPDEST PUSH1 0x0 DUP2 DUP2 MSTORE PUSH1 0x4 PUSH1 0x20 MSTORE PUSH1 0x40 SWAP1 KECCAK256 SLOAD PUSH1 0xFF AND ISZERO PUSH2 0x25A5 JUMPI DUP2 TIMESTAMP PUSH1 0x40 MLOAD PUSH1 0x20 ADD PUSH2 0x2575 SWAP3 SWAP2 SWAP1 SWAP2 DUP3 MSTORE PUSH1 0x20 DUP3 ADD MSTORE PUSH1 0x40 ADD SWAP1 JUMP JUMPDEST PUSH1 0x40 DUP1 MLOAD PUSH1 0x1F NOT DUP2 DUP5 SUB ADD DUP2 MSTORE SWAP2 SWAP1 MSTORE DUP1 MLOAD PUSH1 0x20 SWAP1 SWAP2 ADD KECCAK256 SWAP2 POP PUSH2 0x259E PUSH5 0x2540BE400 DUP4 PUSH2 0x2D51 JUMP JUMPDEST SWAP1 POP PUSH2 0x2542 JUMP JUMPDEST PUSH1 0x0 DUP2 DUP2 MSTORE PUSH1 0x4 PUSH1 0x20 MSTORE PUSH1 0x40 SWAP1 KECCAK256 DUP1 SLOAD PUSH1 0xFF NOT AND PUSH1 0x1 OR SWAP1 SSTORE SWAP3 SWAP2 POP POP JUMP JUMPDEST PUSH1 0x0 PUSH1 0x20 DUP3 DUP5 SUB SLT ISZERO PUSH2 0x25D6 JUMPI PUSH1 0x0 DUP1 REVERT JUMPDEST POP CALLDATALOAD SWAP2 SWAP1 POP JUMP JUMPDEST PUSH1 0x0 DUP2 MLOAD DUP1 DUP5 MSTORE PUSH1 0x0 JUMPDEST DUP2 DUP2 LT ISZERO PUSH2 0x2603 JUMPI PUSH1 0x20 DUP2 DUP6 ADD DUP2 ADD MLOAD DUP7 DUP4 ADD DUP3 ADD MSTORE ADD PUSH2 0x25E7 JUMP JUMPDEST POP PUSH1 0x0 PUSH1 0x20 DUP3 DUP7 ADD ADD MSTORE PUSH1 0x20 PUSH1 0x1F NOT PUSH1 0x1F DUP4 ADD AND DUP6 ADD ADD SWAP2 POP POP SWAP3 SWAP2 POP POP JUMP JUMPDEST PUSH1 0x0 PUSH2 0x120 DUP3 MLOAD DUP5 MSTORE PUSH1 0x20 DUP4 ADD MLOAD PUSH2 0x2646 PUSH1 0x20 DUP7 ADD DUP3 PUSH1 0x1 PUSH1 0x1 PUSH1 0xA0 SHL SUB AND SWAP1 MSTORE JUMP JUMPDEST POP PUSH1 0x40 DUP4 ADD MLOAD DUP2 PUSH1 0x40 DUP7 ADD MSTORE PUSH2 0x265E DUP3 DUP7 ADD DUP3 PUSH2 0x25DD JUMP JUMPDEST SWAP2 POP POP PUSH1 0x60 DUP4 ADD MLOAD DUP5 DUP3 SUB PUSH1 0x60 DUP7 ADD MSTORE PUSH2 0x2678 DUP3 DUP3 PUSH2 0x25DD JUMP JUMPDEST SWAP2 POP POP PUSH1 0x80 DUP4 ADD MLOAD DUP5 DUP3 SUB PUSH1 0x80 DUP7 ADD MSTORE PUSH2 0x2692 DUP3 DUP3 PUSH2 0x25DD JUMP JUMPDEST SWAP2 POP POP PUSH1 0xA0 DUP4 ADD MLOAD DUP5 DUP3 SUB PUSH1 0xA0 DUP7 ADD MSTORE PUSH2 0x26AC DUP3 DUP3 PUSH2 0x25DD JUMP JUMPDEST SWAP2 POP POP PUSH1 0xC0 DUP4 ADD MLOAD DUP5 DUP3 SUB PUSH1 0xC0 DUP7 ADD MSTORE PUSH2 0x26C6 DUP3 DUP3 PUSH2 0x25DD JUMP JUMPDEST PUSH1 0xE0 DUP6 DUP2 ADD MLOAD SWAP1 DUP8 ADD MSTORE PUSH2 0x100 SWAP5 DUP6 ADD MLOAD SWAP5 SWAP1 SWAP6 ADD SWAP4 SWAP1 SWAP4 MSTORE POP SWAP2 SWAP3 SWAP2 POP POP JUMP JUMPDEST PUSH1 0x20 DUP2 MSTORE PUSH1 0x0 PUSH2 0x26FA PUSH1 0x20 DUP4 ADD DUP5 PUSH2 0x2623 JUMP JUMPDEST SWAP4 SWAP3 POP POP POP JUMP JUMPDEST PUSH4 0x4E487B71 PUSH1 0xE0 SHL PUSH1 0x0 MSTORE PUSH1 0x41 PUSH1 0x4 MSTORE PUSH1 0x24 PUSH1 0x0 REVERT JUMPDEST PUSH1 0x0 DUP3 PUSH1 0x1F DUP4 ADD SLT PUSH2 0x2728 JUMPI PUSH1 0x0 DUP1 REVERT JUMPDEST DUP2 CALLDATALOAD PUSH8 0xFFFFFFFFFFFFFFFF DUP1 DUP3 GT ISZERO PUSH2 0x2743 JUMPI PUSH2 0x2743 PUSH2 0x2701 JUMP JUMPDEST PUSH1 0x40 MLOAD PUSH1 0x1F DUP4 ADD PUSH1 0x1F NOT SWAP1 DUP2 AND PUSH1 0x3F ADD AND DUP2 ADD SWAP1 DUP3 DUP3 GT DUP2 DUP4 LT OR ISZERO PUSH2 0x276B JUMPI PUSH2 0x276B PUSH2 0x2701 JUMP JUMPDEST DUP2 PUSH1 0x40 MSTORE DUP4 DUP2 MSTORE DUP7 PUSH1 0x20 DUP6 DUP9 ADD ADD GT ISZERO PUSH2 0x2784 JUMPI PUSH1 0x0 DUP1 REVERT JUMPDEST DUP4 PUSH1 0x20 DUP8 ADD PUSH1 0x20 DUP4 ADD CALLDATACOPY PUSH1 0x0 PUSH1 0x20 DUP6 DUP4 ADD ADD MSTORE DUP1 SWAP5 POP POP POP POP POP SWAP3 SWAP2 POP POP JUMP JUMPDEST PUSH1 0x0 DUP1 PUSH1 0x0 DUP1 PUSH1 0x0 DUP1 PUSH1 0xC0 DUP8 DUP10 SUB SLT ISZERO PUSH2 0x27BD JUMPI PUSH1 0x0 DUP1 REVERT JUMPDEST DUP7 CALLDATALOAD PUSH8 0xFFFFFFFFFFFFFFFF DUP1 DUP3 GT ISZERO PUSH2 0x27D5 JUMPI PUSH1 0x0 DUP1 REVERT JUMPDEST PUSH2 0x27E1 DUP11 DUP4 DUP12 ADD PUSH2 0x2717 JUMP JUMPDEST SWAP8 POP PUSH1 0x20 DUP10 ADD CALLDATALOAD SWAP2 POP DUP1 DUP3 GT ISZERO PUSH2 0x27F7 JUMPI PUSH1 0x0 DUP1 REVERT JUMPDEST PUSH2 0x2803 DUP11 DUP4 DUP12 ADD PUSH2 0x2717 JUMP JUMPDEST SWAP7 POP PUSH1 0x40 DUP10 ADD CALLDATALOAD SWAP2 POP DUP1 DUP3 GT ISZERO PUSH2 0x2819 JUMPI PUSH1 0x0 DUP1 REVERT JUMPDEST PUSH2 0x2825 DUP11 DUP4 DUP12 ADD PUSH2 0x2717 JUMP JUMPDEST SWAP6 POP PUSH1 0x60 DUP10 ADD CALLDATALOAD SWAP2 POP DUP1 DUP3 GT ISZERO PUSH2 0x283B JUMPI PUSH1 0x0 DUP1 REVERT JUMPDEST PUSH2 0x2847 DUP11 DUP4 DUP12 ADD PUSH2 0x2717 JUMP JUMPDEST SWAP5 POP PUSH1 0x80 DUP10 ADD CALLDATALOAD SWAP4 POP PUSH1 0xA0 DUP10 ADD CALLDATALOAD SWAP2 POP DUP1 DUP3 GT ISZERO PUSH2 0x2864 JUMPI PUSH1 0x0 DUP1 REVERT JUMPDEST POP PUSH2 0x2871 DUP10 DUP3 DUP11 ADD PUSH2 0x2717 JUMP JUMPDEST SWAP2 POP POP SWAP3 SWAP6 POP SWAP3 SWAP6 POP SWAP3 SWAP6 JUMP JUMPDEST PUSH1 0x20 DUP1 DUP3 MSTORE DUP3 MLOAD DUP3 DUP3 ADD DUP2 SWAP1 MSTORE PUSH1 0x0 SWAP2 SWAP1 PUSH1 0x40 SWAP1 DUP2 DUP6 ADD SWAP1 DUP7 DUP5 ADD DUP6 JUMPDEST DUP3 DUP2 LT ISZERO PUSH2 0x28EF JUMPI DUP2 MLOAD DUP1 MLOAD DUP6 MSTORE DUP7 DUP2 ADD MLOAD DUP8 DUP7 ADD MSTORE DUP6 DUP2 ADD MLOAD PUSH1 0x1 PUSH1 0x1 PUSH1 0xA0 SHL SUB SWAP1 DUP2 AND DUP8 DUP8 ADD MSTORE PUSH1 0x60 DUP1 DUP4 ADD MLOAD SWAP1 SWAP2 AND SWAP1 DUP7 ADD MSTORE PUSH1 0x80 SWAP1 DUP2 ADD MLOAD ISZERO ISZERO SWAP1 DUP6 ADD MSTORE PUSH1 0xA0 SWAP1 SWAP4 ADD SWAP3 SWAP1 DUP6 ADD SWAP1 PUSH1 0x1 ADD PUSH2 0x289B JUMP JUMPDEST POP SWAP2 SWAP8 SWAP7 POP POP POP POP POP POP POP JUMP JUMPDEST DUP10 DUP2 MSTORE PUSH1 0x1 PUSH1 0x1 PUSH1 0xA0 SHL SUB DUP10 AND PUSH1 0x20 DUP3 ADD MSTORE PUSH2 0x120 PUSH1 0x40 DUP3 ADD DUP2 SWAP1 MSTORE PUSH1 0x0 SWAP1 PUSH2 0x2927 DUP4 DUP3 ADD DUP12 PUSH2 0x25DD JUMP JUMPDEST SWAP1 POP DUP3 DUP2 SUB PUSH1 0x60 DUP5 ADD MSTORE PUSH2 0x293B DUP2 DUP11 PUSH2 0x25DD JUMP JUMPDEST SWAP1 POP DUP3 DUP2 SUB PUSH1 0x80 DUP5 ADD MSTORE PUSH2 0x294F DUP2 DUP10 PUSH2 0x25DD JUMP JUMPDEST SWAP1 POP DUP3 DUP2 SUB PUSH1 0xA0 DUP5 ADD MSTORE PUSH2 0x2963 DUP2 DUP9 PUSH2 0x25DD JUMP JUMPDEST SWAP1 POP DUP3 DUP2 SUB PUSH1 0xC0 DUP5 ADD MSTORE PUSH2 0x2977 DUP2 DUP8 PUSH2 0x25DD JUMP JUMPDEST PUSH1 0xE0 DUP5 ADD SWAP6 SWAP1 SWAP6 MSTORE POP POP PUSH2 0x100 ADD MSTORE SWAP8 SWAP7 POP POP POP POP POP POP POP JUMP JUMPDEST DUP1 CALLDATALOAD PUSH1 0x1 PUSH1 0x1 PUSH1 0xA0 SHL SUB DUP2 AND DUP2 EQ PUSH2 0x29A8 JUMPI PUSH1 0x0 DUP1 REVERT JUMPDEST SWAP2 SWAP1 POP JUMP JUMPDEST PUSH1 0x0 DUP1 PUSH1 0x40 DUP4 DUP6 SUB SLT ISZERO PUSH2 0x29C0 JUMPI PUSH1 0x0 DUP1 REVERT JUMPDEST DUP3 CALLDATALOAD SWAP2 POP PUSH2 0x29D0 PUSH1 0x20 DUP5 ADD PUSH2 0x2991 JUMP JUMPDEST SWAP1 POP SWAP3 POP SWAP3 SWAP1 POP JUMP JUMPDEST PUSH1 0x0 PUSH1 0x20 DUP1 DUP4 ADD PUSH1 0x20 DUP5 MSTORE DUP1 DUP6 MLOAD DUP1 DUP4 MSTORE PUSH1 0x40 DUP7 ADD SWAP2 POP PUSH1 0x40 DUP2 PUSH1 0x5 SHL DUP8 ADD ADD SWAP3 POP PUSH1 0x20 DUP8 ADD PUSH1 0x0 JUMPDEST DUP3 DUP2 LT ISZERO PUSH2 0x2A30 JUMPI PUSH1 0x3F NOT DUP9 DUP7 SUB ADD DUP5 MSTORE PUSH2 0x2A1E DUP6 DUP4 MLOAD PUSH2 0x2623 JUMP JUMPDEST SWAP5 POP SWAP3 DUP6 ADD SWAP3 SWAP1 DUP6 ADD SWAP1 PUSH1 0x1 ADD PUSH2 0x2A02 JUMP JUMPDEST POP SWAP3 SWAP8 SWAP7 POP POP POP POP POP POP POP JUMP JUMPDEST PUSH1 0x0 DUP1 PUSH1 0x40 DUP4 DUP6 SUB SLT ISZERO PUSH2 0x2A50 JUMPI PUSH1 0x0 DUP1 REVERT JUMPDEST PUSH2 0x2A59 DUP4 PUSH2 0x2991 JUMP JUMPDEST SWAP5 PUSH1 0x20 SWAP4 SWAP1 SWAP4 ADD CALLDATALOAD SWAP4 POP POP POP JUMP JUMPDEST PUSH1 0x0 PUSH1 0x20 DUP1 DUP4 ADD DUP2 DUP5 MSTORE DUP1 DUP6 MLOAD DUP1 DUP4 MSTORE PUSH1 0x40 SWAP3 POP PUSH1 0x40 DUP7 ADD SWAP2 POP PUSH1 0x40 DUP2 PUSH1 0x5 SHL DUP8 ADD ADD DUP5 DUP9 ADD PUSH1 0x0 JUMPDEST DUP4 DUP2 LT ISZERO PUSH2 0x2B8D JUMPI DUP9 DUP4 SUB PUSH1 0x3F NOT ADD DUP6 MSTORE DUP2 MLOAD DUP1 MLOAD DUP5 MSTORE DUP8 DUP2 ADD MLOAD DUP9 DUP6 ADD MSTORE DUP7 DUP2 ADD MLOAD PUSH1 0x1 PUSH1 0x1 PUSH1 0xA0 SHL SUB DUP2 AND DUP9 DUP7 ADD MSTORE PUSH2 0x160 SWAP1 POP PUSH1 0x60 DUP3 DUP2 ADD MLOAD PUSH1 0x1 PUSH1 0x1 PUSH1 0xA0 SHL SUB DUP2 AND DUP8 DUP4 ADD MSTORE POP POP PUSH1 0x80 DUP1 DUP4 ADD MLOAD DUP3 DUP3 DUP9 ADD MSTORE PUSH2 0x2AF3 DUP4 DUP9 ADD DUP3 PUSH2 0x25DD JUMP JUMPDEST SWAP3 POP POP POP PUSH1 0xA0 DUP1 DUP4 ADD MLOAD DUP7 DUP4 SUB DUP3 DUP9 ADD MSTORE PUSH2 0x2B0E DUP4 DUP3 PUSH2 0x25DD JUMP JUMPDEST SWAP3 POP POP POP PUSH1 0xC0 DUP1 DUP4 ADD MLOAD DUP7 DUP4 SUB DUP3 DUP9 ADD MSTORE PUSH2 0x2B29 DUP4 DUP3 PUSH2 0x25DD JUMP JUMPDEST SWAP3 POP POP POP PUSH1 0xE0 DUP1 DUP4 ADD MLOAD DUP7 DUP4 SUB DUP3 DUP9 ADD MSTORE PUSH2 0x2B44 DUP4 DUP3 PUSH2 0x25DD JUMP JUMPDEST SWAP3 POP POP POP PUSH2 0x100 DUP1 DUP4 ADD MLOAD DUP7 DUP4 SUB DUP3 DUP9 ADD MSTORE PUSH2 0x2B60 DUP4 DUP3 PUSH2 0x25DD JUMP JUMPDEST PUSH2 0x120 DUP6 DUP2 ADD MLOAD SWAP1 DUP10 ADD MSTORE PUSH2 0x140 SWAP5 DUP6 ADD MLOAD SWAP5 SWAP1 SWAP8 ADD SWAP4 SWAP1 SWAP4 MSTORE POP POP POP SWAP4 DUP7 ADD SWAP4 SWAP1 DUP7 ADD SWAP1 PUSH1 0x1 ADD PUSH2 0x2A90 JUMP JUMPDEST POP SWAP1 SWAP9 SWAP8 POP POP POP POP POP POP POP POP JUMP JUMPDEST PUSH4 0x4E487B71 PUSH1 0xE0 SHL PUSH1 0x0 MSTORE PUSH1 0x32 PUSH1 0x4 MSTORE PUSH1 0x24 PUSH1 0x0 REVERT JUMPDEST PUSH1 0x1 DUP2 DUP2 SHR SWAP1 DUP3 AND DUP1 PUSH2 0x2BC5 JUMPI PUSH1 0x7F DUP3 AND SWAP2 POP JUMPDEST PUSH1 0x20 DUP3 LT DUP2 SUB PUSH2 0x2BE5 JUMPI PUSH4 0x4E487B71 PUSH1 0xE0 SHL PUSH1 0x0 MSTORE PUSH1 0x22 PUSH1 0x4 MSTORE PUSH1 0x24 PUSH1 0x0 REVERT JUMPDEST POP SWAP2 SWAP1 POP JUMP JUMPDEST PUSH4 0x4E487B71 PUSH1 0xE0 SHL PUSH1 0x0 MSTORE PUSH1 0x11 PUSH1 0x4 MSTORE PUSH1 0x24 PUSH1 0x0 REVERT JUMPDEST PUSH1 0x0 PUSH1 0x1 DUP3 ADD PUSH2 0x2C13 JUMPI PUSH2 0x2C13 PUSH2 0x2BEB JUMP JUMPDEST POP PUSH1 0x1 ADD SWAP1 JUMP JUMPDEST PUSH1 0x1F DUP3 GT ISZERO PUSH2 0x2C66 JUMPI PUSH1 0x0 DUP2 PUSH1 0x0 MSTORE PUSH1 0x20 PUSH1 0x0 KECCAK256 PUSH1 0x1F DUP6 ADD PUSH1 0x5 SHR DUP2 ADD PUSH1 0x20 DUP7 LT ISZERO PUSH2 0x2C43 JUMPI POP DUP1 JUMPDEST PUSH1 0x1F DUP6 ADD PUSH1 0x5 SHR DUP3 ADD SWAP2 POP JUMPDEST DUP2 DUP2 LT ISZERO PUSH2 0x2C62 JUMPI DUP3 DUP2 SSTORE PUSH1 0x1 ADD PUSH2 0x2C4F JUMP JUMPDEST POP POP POP JUMPDEST POP POP POP JUMP JUMPDEST DUP2 MLOAD PUSH8 0xFFFFFFFFFFFFFFFF DUP2 GT ISZERO PUSH2 0x2C85 JUMPI PUSH2 0x2C85 PUSH2 0x2701 JUMP JUMPDEST PUSH2 0x2C99 DUP2 PUSH2 0x2C93 DUP5 SLOAD PUSH2 0x2BB1 JUMP JUMPDEST DUP5 PUSH2 0x2C1A JUMP JUMPDEST PUSH1 0x20 DUP1 PUSH1 0x1F DUP4 GT PUSH1 0x1 DUP2 EQ PUSH2 0x2CCE JUMPI PUSH1 0x0 DUP5 ISZERO PUSH2 0x2CB6 JUMPI POP DUP6 DUP4 ADD MLOAD JUMPDEST PUSH1 0x0 NOT PUSH1 0x3 DUP7 SWAP1 SHL SHR NOT AND PUSH1 0x1 DUP6 SWAP1 SHL OR DUP6 SSTORE PUSH2 0x2C62 JUMP JUMPDEST PUSH1 0x0 DUP6 DUP2 MSTORE PUSH1 0x20 DUP2 KECCAK256 PUSH1 0x1F NOT DUP7 AND SWAP2 JUMPDEST DUP3 DUP2 LT ISZERO PUSH2 0x2CFD JUMPI DUP9 DUP7 ADD MLOAD DUP3 SSTORE SWAP5 DUP5 ADD SWAP5 PUSH1 0x1 SWAP1 SWAP2 ADD SWAP1 DUP5 ADD PUSH2 0x2CDE JUMP JUMPDEST POP DUP6 DUP3 LT ISZERO PUSH2 0x2D1B JUMPI DUP8 DUP6 ADD MLOAD PUSH1 0x0 NOT PUSH1 0x3 DUP9 SWAP1 SHL PUSH1 0xF8 AND SHR NOT AND DUP2 SSTORE JUMPDEST POP POP POP POP POP PUSH1 0x1 SWAP1 DUP2 SHL ADD SWAP1 SSTORE POP JUMP JUMPDEST PUSH1 0x20 DUP2 MSTORE PUSH1 0x0 PUSH2 0x26FA PUSH1 0x20 DUP4 ADD DUP5 PUSH2 0x25DD JUMP JUMPDEST DUP1 DUP3 ADD DUP1 DUP3 GT ISZERO PUSH2 0x1DE2 JUMPI PUSH2 0x1DE2 PUSH2 0x2BEB JUMP JUMPDEST PUSH1 0x0 DUP3 PUSH2 0x2D6E JUMPI PUSH4 0x4E487B71 PUSH1 0xE0 SHL PUSH1 0x0 MSTORE PUSH1 0x12 PUSH1 0x4 MSTORE PUSH1 0x24 PUSH1 0x0 REVERT JUMPDEST POP MOD SWAP1 JUMP INVALID LOG2 PUSH5 0x6970667358 0x22 SLT KECCAK256 CREATE TIMESTAMP SELFBALANCE ORIGIN CALL 0xAC 0x22 BYTE PUSH10 0xD86D94EF1CF5C1B92648 0xDA SELFDESTRUCT PUSH16 0x2C2AFF6D1F5309190B0764736F6C6343 STOP ADDMOD XOR STOP CALLER "},"methodIdentifiers":{"approveLicenseRequest(uint256)":"a764b9cd","createFile(string,string,string,string,uint256,string)":"1b4a422c","fileId()":"641b66e4","getAllPublicFiles()":"e90b39ec","getAllUserFiles()":"c3ba2cd9","getAllUserLicenses()":"e399e268","getFileId()":"40187599","getFileOwnerLicenseRequests()":"a6b9bcf6","getPublicFileById(uint256)":"0cc6f1a2","getPublicFiles()":"b98e644d","getUserLicenseRequests()":"37ef9440","isFileOwnedOrLicensed(address,uint256)":"db58b57f","owner()":"8da5cb5b","publicFiles(uint256)":"4506708e","rejectLicenseRequest(uint256)":"b448bb2d","requestId()":"006d6cae","requestLicense(uint256,address)":"95d892a1","usedLicenses(uint256)":"787a37b9","validateLicense(uint256)":"5f70a8fe"}}}}}