{
  "_format": "hh-sol-artifact-1",
  "contractName": "LicenseMarketplace",
  "sourceName": "contracts/LicenseMarketplace.sol",
  "abi": [
    {
      "inputs": [],
      "stateMutability": "nonpayable",
      "type": "constructor"
    },
    {
      "anonymous": false,
      "inputs": [
        {
          "indexed": true,
          "internalType": "address",
          "name": "owner",
          "type": "address"
        },
        {
          "indexed": true,
          "internalType": "address",
          "name": "buyer",
          "type": "address"
        },
        {
          "indexed": false,
          "internalType": "string",
          "name": "fileName",
          "type": "string"
        },
        {
          "indexed": false,
          "internalType": "string",
          "name": "fileCid",
          "type": "string"
        }
      ],
      "name": "FileLicense",
      "type": "event"
    },
    {
      "anonymous": false,
      "inputs": [
        {
          "indexed": true,
          "internalType": "address",
          "name": "owner",
          "type": "address"
        },
        {
          "indexed": false,
          "internalType": "string",
          "name": "fileName",
          "type": "string"
        },
        {
          "indexed": false,
          "internalType": "string",
          "name": "fileCid",
          "type": "string"
        },
        {
          "indexed": false,
          "internalType": "bool",
          "name": "isPublic",
          "type": "bool"
        }
      ],
      "name": "FileShared",
      "type": "event"
    },
    {
      "anonymous": false,
      "inputs": [
        {
          "indexed": true,
          "internalType": "uint256",
          "name": "requestId",
          "type": "uint256"
        },
        {
          "indexed": false,
          "internalType": "uint256",
          "name": "fileId",
          "type": "uint256"
        },
        {
          "indexed": false,
          "internalType": "address",
          "name": "requester",
          "type": "address"
        },
        {
          "indexed": false,
          "internalType": "address",
          "name": "fileOwner",
          "type": "address"
        }
      ],
      "name": "LicenseRequestApproved",
      "type": "event"
    },
    {
      "anonymous": false,
      "inputs": [
        {
          "indexed": true,
          "internalType": "uint256",
          "name": "requestId",
          "type": "uint256"
        },
        {
          "indexed": false,
          "internalType": "uint256",
          "name": "fileId",
          "type": "uint256"
        },
        {
          "indexed": false,
          "internalType": "address",
          "name": "requester",
          "type": "address"
        },
        {
          "indexed": false,
          "internalType": "address",
          "name": "fileOwner",
          "type": "address"
        }
      ],
      "name": "LicenseRequestCreated",
      "type": "event"
    },
    {
      "anonymous": false,
      "inputs": [
        {
          "indexed": true,
          "internalType": "uint256",
          "name": "requestId",
          "type": "uint256"
        },
        {
          "indexed": false,
          "internalType": "uint256",
          "name": "fileId",
          "type": "uint256"
        },
        {
          "indexed": false,
          "internalType": "address",
          "name": "requester",
          "type": "address"
        },
        {
          "indexed": false,
          "internalType": "address",
          "name": "fileOwner",
          "type": "address"
        }
      ],
      "name": "LicenseRequestRejected",
      "type": "event"
    },
    {
      "inputs": [
        {
          "internalType": "uint256",
          "name": "_requestId",
          "type": "uint256"
        }
      ],
      "name": "approveLicenseRequest",
      "outputs": [],
      "stateMutability": "nonpayable",
      "type": "function"
    },
    {
      "inputs": [
        {
          "internalType": "string",
          "name": "_fileName",
          "type": "string"
        },
        {
          "internalType": "string",
          "name": "_description",
          "type": "string"
        },
        {
          "internalType": "string",
          "name": "_category",
          "type": "string"
        },
        {
          "internalType": "string",
          "name": "_fileCid",
          "type": "string"
        },
        {
          "internalType": "bool",
          "name": "_isPublic",
          "type": "bool"
        }
      ],
      "name": "createFile",
      "outputs": [],
      "stateMutability": "nonpayable",
      "type": "function"
    },
    {
      "inputs": [],
      "name": "fileId",
      "outputs": [
        {
          "internalType": "uint256",
          "name": "",
          "type": "uint256"
        }
      ],
      "stateMutability": "view",
      "type": "function"
    },
    {
      "inputs": [],
      "name": "getAllPublicFiles",
      "outputs": [
        {
          "components": [
            {
              "internalType": "uint256",
              "name": "id",
              "type": "uint256"
            },
            {
              "internalType": "address",
              "name": "fileOwner",
              "type": "address"
            },
            {
              "internalType": "string",
              "name": "fileName",
              "type": "string"
            },
            {
              "internalType": "string",
              "name": "description",
              "type": "string"
            },
            {
              "internalType": "string",
              "name": "category",
              "type": "string"
            },
            {
              "internalType": "string",
              "name": "fileCid",
              "type": "string"
            },
            {
              "internalType": "bool",
              "name": "isPublic",
              "type": "bool"
            },
            {
              "internalType": "uint256",
              "name": "createdAt",
              "type": "uint256"
            }
          ],
          "internalType": "struct LicenseMarketplace.File[]",
          "name": "",
          "type": "tuple[]"
        }
      ],
      "stateMutability": "view",
      "type": "function"
    },
    {
      "inputs": [],
      "name": "getAllUserFiles",
      "outputs": [
        {
          "components": [
            {
              "internalType": "uint256",
              "name": "id",
              "type": "uint256"
            },
            {
              "internalType": "address",
              "name": "fileOwner",
              "type": "address"
            },
            {
              "internalType": "string",
              "name": "fileName",
              "type": "string"
            },
            {
              "internalType": "string",
              "name": "description",
              "type": "string"
            },
            {
              "internalType": "string",
              "name": "category",
              "type": "string"
            },
            {
              "internalType": "string",
              "name": "fileCid",
              "type": "string"
            },
            {
              "internalType": "bool",
              "name": "isPublic",
              "type": "bool"
            },
            {
              "internalType": "uint256",
              "name": "createdAt",
              "type": "uint256"
            }
          ],
          "internalType": "struct LicenseMarketplace.File[]",
          "name": "",
          "type": "tuple[]"
        }
      ],
      "stateMutability": "view",
      "type": "function"
    },
    {
      "inputs": [],
      "name": "getAllUserLicenses",
      "outputs": [
        {
          "components": [
            {
              "internalType": "uint256",
              "name": "licenseNumber",
              "type": "uint256"
            },
            {
              "internalType": "uint256",
              "name": "fileId",
              "type": "uint256"
            },
            {
              "internalType": "address",
              "name": "fileOwner",
              "type": "address"
            },
            {
              "internalType": "address",
              "name": "buyer",
              "type": "address"
            },
            {
              "internalType": "string",
              "name": "fileName",
              "type": "string"
            },
            {
              "internalType": "string",
              "name": "description",
              "type": "string"
            },
            {
              "internalType": "string",
              "name": "category",
              "type": "string"
            },
            {
              "internalType": "string",
              "name": "fileCid",
              "type": "string"
            },
            {
              "internalType": "bool",
              "name": "isPublic",
              "type": "bool"
            },
            {
              "internalType": "uint256",
              "name": "createdAt",
              "type": "uint256"
            }
          ],
          "internalType": "struct LicenseMarketplace.License[]",
          "name": "",
          "type": "tuple[]"
        }
      ],
      "stateMutability": "view",
      "type": "function"
    },
    {
      "inputs": [],
      "name": "getFileId",
      "outputs": [
        {
          "internalType": "uint256",
          "name": "",
          "type": "uint256"
        }
      ],
      "stateMutability": "view",
      "type": "function"
    },
    {
      "inputs": [],
      "name": "getFileOwnerLicenseRequests",
      "outputs": [
        {
          "components": [
            {
              "internalType": "uint256",
              "name": "requestId",
              "type": "uint256"
            },
            {
              "internalType": "uint256",
              "name": "fileId",
              "type": "uint256"
            },
            {
              "internalType": "address",
              "name": "requester",
              "type": "address"
            },
            {
              "internalType": "address",
              "name": "fileOwner",
              "type": "address"
            },
            {
              "internalType": "bool",
              "name": "isApproved",
              "type": "bool"
            }
          ],
          "internalType": "struct LicenseMarketplace.LicenseRequest[]",
          "name": "",
          "type": "tuple[]"
        }
      ],
      "stateMutability": "view",
      "type": "function"
    },
    {
      "inputs": [
        {
          "internalType": "uint256",
          "name": "_id",
          "type": "uint256"
        }
      ],
      "name": "getPublicFileById",
      "outputs": [
        {
          "components": [
            {
              "internalType": "uint256",
              "name": "id",
              "type": "uint256"
            },
            {
              "internalType": "address",
              "name": "fileOwner",
              "type": "address"
            },
            {
              "internalType": "string",
              "name": "fileName",
              "type": "string"
            },
            {
              "internalType": "string",
              "name": "description",
              "type": "string"
            },
            {
              "internalType": "string",
              "name": "category",
              "type": "string"
            },
            {
              "internalType": "string",
              "name": "fileCid",
              "type": "string"
            },
            {
              "internalType": "bool",
              "name": "isPublic",
              "type": "bool"
            },
            {
              "internalType": "uint256",
              "name": "createdAt",
              "type": "uint256"
            }
          ],
          "internalType": "struct LicenseMarketplace.File",
          "name": "",
          "type": "tuple"
        }
      ],
      "stateMutability": "view",
      "type": "function"
    },
    {
      "inputs": [],
      "name": "getPublicFilesExceptUser",
      "outputs": [
        {
          "components": [
            {
              "internalType": "uint256",
              "name": "id",
              "type": "uint256"
            },
            {
              "internalType": "address",
              "name": "fileOwner",
              "type": "address"
            },
            {
              "internalType": "string",
              "name": "fileName",
              "type": "string"
            },
            {
              "internalType": "string",
              "name": "description",
              "type": "string"
            },
            {
              "internalType": "string",
              "name": "category",
              "type": "string"
            },
            {
              "internalType": "string",
              "name": "fileCid",
              "type": "string"
            },
            {
              "internalType": "bool",
              "name": "isPublic",
              "type": "bool"
            },
            {
              "internalType": "uint256",
              "name": "createdAt",
              "type": "uint256"
            }
          ],
          "internalType": "struct LicenseMarketplace.File[]",
          "name": "",
          "type": "tuple[]"
        }
      ],
      "stateMutability": "view",
      "type": "function"
    },
    {
      "inputs": [],
      "name": "getUserLicenseRequests",
      "outputs": [
        {
          "components": [
            {
              "internalType": "uint256",
              "name": "requestId",
              "type": "uint256"
            },
            {
              "internalType": "uint256",
              "name": "fileId",
              "type": "uint256"
            },
            {
              "internalType": "address",
              "name": "requester",
              "type": "address"
            },
            {
              "internalType": "address",
              "name": "fileOwner",
              "type": "address"
            },
            {
              "internalType": "bool",
              "name": "isApproved",
              "type": "bool"
            }
          ],
          "internalType": "struct LicenseMarketplace.LicenseRequest[]",
          "name": "",
          "type": "tuple[]"
        }
      ],
      "stateMutability": "view",
      "type": "function"
    },
    {
      "inputs": [
        {
          "internalType": "address",
          "name": "_user",
          "type": "address"
        },
        {
          "internalType": "uint256",
          "name": "_fileId",
          "type": "uint256"
        }
      ],
      "name": "isFileOwnedOrLicensed",
      "outputs": [
        {
          "internalType": "bool",
          "name": "",
          "type": "bool"
        }
      ],
      "stateMutability": "view",
      "type": "function"
    },
    {
      "inputs": [],
      "name": "owner",
      "outputs": [
        {
          "internalType": "address",
          "name": "",
          "type": "address"
        }
      ],
      "stateMutability": "view",
      "type": "function"
    },
    {
      "inputs": [
        {
          "internalType": "uint256",
          "name": "",
          "type": "uint256"
        }
      ],
      "name": "publicFiles",
      "outputs": [
        {
          "internalType": "uint256",
          "name": "id",
          "type": "uint256"
        },
        {
          "internalType": "address",
          "name": "fileOwner",
          "type": "address"
        },
        {
          "internalType": "string",
          "name": "fileName",
          "type": "string"
        },
        {
          "internalType": "string",
          "name": "description",
          "type": "string"
        },
        {
          "internalType": "string",
          "name": "category",
          "type": "string"
        },
        {
          "internalType": "string",
          "name": "fileCid",
          "type": "string"
        },
        {
          "internalType": "bool",
          "name": "isPublic",
          "type": "bool"
        },
        {
          "internalType": "uint256",
          "name": "createdAt",
          "type": "uint256"
        }
      ],
      "stateMutability": "view",
      "type": "function"
    },
    {
      "inputs": [
        {
          "internalType": "uint256",
          "name": "_requestId",
          "type": "uint256"
        }
      ],
      "name": "rejectLicenseRequest",
      "outputs": [],
      "stateMutability": "nonpayable",
      "type": "function"
    },
    {
      "inputs": [],
      "name": "requestId",
      "outputs": [
        {
          "internalType": "uint256",
          "name": "",
          "type": "uint256"
        }
      ],
      "stateMutability": "view",
      "type": "function"
    },
    {
      "inputs": [
        {
          "internalType": "uint256",
          "name": "_fileId",
          "type": "uint256"
        },
        {
          "internalType": "address",
          "name": "_fileOwner",
          "type": "address"
        }
      ],
      "name": "requestLicense",
      "outputs": [],
      "stateMutability": "nonpayable",
      "type": "function"
    },
    {
      "inputs": [
        {
          "internalType": "uint256",
          "name": "",
          "type": "uint256"
        }
      ],
      "name": "usedLicenses",
      "outputs": [
        {
          "internalType": "bool",
          "name": "",
          "type": "bool"
        }
      ],
      "stateMutability": "view",
      "type": "function"
    },
    {
      "inputs": [
        {
          "internalType": "uint256",
          "name": "licenseNumber",
          "type": "uint256"
        }
      ],
      "name": "validateLicense",
      "outputs": [
        {
          "internalType": "bool",
          "name": "",
          "type": "bool"
        }
      ],
      "stateMutability": "view",
      "type": "function"
    }
  ],
  "bytecode": "0x608060405234801561001057600080fd5b50600080546001600160a01b03191633179055612c3b806100326000396000f3fe608060405234801561001057600080fd5b50600436106101205760003560e01c80637d0ac00c116100ad578063b448bb2d11610071578063b448bb2d14610287578063c3ba2cd91461029a578063db58b57f146102a2578063e399e268146102b5578063e90b39ec146102ca57600080fd5b80637d0ac00c146102195780638da5cb5b1461022e57806395d892a114610259578063a6b9bcf61461026c578063a764b9cd1461027457600080fd5b80634506708e116100f45780634506708e1461017e5780635f70a8fe146101a5578063641b66e4146101d8578063787a37b9146101e15780637be338b61461020457600080fd5b80626d6cae146101255780630cc6f1a21461014157806337ef9440146101615780634018759914610176575b600080fd5b61012e60075481565b6040519081526020015b60405180910390f35b61015461014f366004612439565b6102d2565b604051610138919061254c565b61016961062f565b6040516101389190612566565b61012e6107d3565b61019161018c366004612439565b6107e9565b6040516101389897969594939291906125e4565b6101c86101b3366004612439565b60009081526004602052604090205460ff1690565b6040519015158152602001610138565b61012e60065481565b6101c86101ef366004612439565b60046020526000908152604090205460ff1681565b610217610212366004612706565b610a6c565b005b610221610cf2565b60405161013891906127cd565b600054610241906001600160a01b031681565b6040516001600160a01b039091168152602001610138565b61021761026736600461284d565b611204565b6101696112fe565b610217610282366004612439565b61149b565b610217610295366004612439565b6117b6565b610221611929565b6101c86102b0366004612879565b611c1b565b6102bd611d1b565b60405161013891906128a3565b61022161201f565b6102da6123e9565b60005b6005548110156105e95782600582815481106102fb576102fb6129c7565b906000526020600020906008020160000154036105e15760058181548110610325576103256129c7565b906000526020600020906008020160405180610100016040529081600082015481526020016001820160009054906101000a90046001600160a01b03166001600160a01b03166001600160a01b03168152602001600282018054610388906129dd565b80601f01602080910402602001604051908101604052809291908181526020018280546103b4906129dd565b80156104015780601f106103d657610100808354040283529160200191610401565b820191906000526020600020905b8154815290600101906020018083116103e457829003601f168201915b5050505050815260200160038201805461041a906129dd565b80601f0160208091040260200160405190810160405280929190818152602001828054610446906129dd565b80156104935780601f1061046857610100808354040283529160200191610493565b820191906000526020600020905b81548152906001019060200180831161047657829003601f168201915b505050505081526020016004820180546104ac906129dd565b80601f01602080910402602001604051908101604052809291908181526020018280546104d8906129dd565b80156105255780601f106104fa57610100808354040283529160200191610525565b820191906000526020600020905b81548152906001019060200180831161050857829003601f168201915b5050505050815260200160058201805461053e906129dd565b80601f016020809104026020016040519081016040528092919081815260200182805461056a906129dd565b80156105b75780601f1061058c576101008083540402835291602001916105b7565b820191906000526020600020905b81548152906001019060200180831161059a57829003601f168201915b5050509183525050600682015460ff16151560208201526007909101546040909101529392505050565b6001016102dd565b5060405162461bcd60e51b8152602060048201526015602482015274141d589b1a58c8199a5b19481b9bdd08199bdd5b99605a1b60448201526064015b60405180910390fd5b6060600060015b600754811161068257600081815260036020526040902060020154336001600160a01b0390911603610670578161066c81612a2d565b9250505b8061067a81612a2d565b915050610636565b5060008167ffffffffffffffff81111561069e5761069e612663565b6040519080825280602002602001820160405280156106f757816020015b6040805160a0810182526000808252602080830182905292820181905260608201819052608082015282526000199092019101816106bc5790505b509050600060015b60075481116107ca57600081815260036020526040902060020154336001600160a01b03909116036107b857600081815260036020818152604092839020835160a0810185528154815260018201549281019290925260028101546001600160a01b0390811694830194909452909101549182166060820152600160a01b90910460ff1615156080820152835184908490811061079e5761079e6129c7565b602002602001018190525081806107b490612a2d565b9250505b806107c281612a2d565b9150506106ff565b50909392505050565b600060065460016107e49190612a46565b905090565b600581815481106107f957600080fd5b60009182526020909120600890910201805460018201546002830180549294506001600160a01b03909116929161082f906129dd565b80601f016020809104026020016040519081016040528092919081815260200182805461085b906129dd565b80156108a85780601f1061087d576101008083540402835291602001916108a8565b820191906000526020600020905b81548152906001019060200180831161088b57829003601f168201915b5050505050908060030180546108bd906129dd565b80601f01602080910402602001604051908101604052809291908181526020018280546108e9906129dd565b80156109365780601f1061090b57610100808354040283529160200191610936565b820191906000526020600020905b81548152906001019060200180831161091957829003601f168201915b50505050509080600401805461094b906129dd565b80601f0160208091040260200160405190810160405280929190818152602001828054610977906129dd565b80156109c45780601f10610999576101008083540402835291602001916109c4565b820191906000526020600020905b8154815290600101906020018083116109a757829003601f168201915b5050505050908060050180546109d9906129dd565b80601f0160208091040260200160405190810160405280929190818152602001828054610a05906129dd565b8015610a525780601f10610a2757610100808354040283529160200191610a52565b820191906000526020600020905b815481529060010190602001808311610a3557829003601f168201915b505050506006830154600790930154919260ff1691905088565b60068054906000610a7c83612a2d565b9091555050604080516101008101825260065481523360208083018281528385018a8152606085018a90526080850189905260a0850188905286151560c08601524260e086015260009384526001808452958420805480880182559085529290932084516008909302019182555193810180546001600160a01b0319166001600160a01b039095169490941790935551909182916002820190610b1f9082612aaa565b5060608201516003820190610b349082612aaa565b5060808201516004820190610b499082612aaa565b5060a08201516005820190610b5e9082612aaa565b5060c082015160068201805460ff191691151591909117905560e0909101516007909101558115610ca5576005805460018101825560009190915281517f036b6384b5eca791c62761152d0c79bb0604c104a5fb6f4eb0703f3154bb3db0600890920291820190815560208301517f036b6384b5eca791c62761152d0c79bb0604c104a5fb6f4eb0703f3154bb3db1830180546001600160a01b0319166001600160a01b03909216919091179055604083015183927f036b6384b5eca791c62761152d0c79bb0604c104a5fb6f4eb0703f3154bb3db20190610c409082612aaa565b5060608201516003820190610c559082612aaa565b5060808201516004820190610c6a9082612aaa565b5060a08201516005820190610c7f9082612aaa565b5060c082015160068201805460ff191691151591909117905560e0909101516007909101555b336001600160a01b03167f4b0334d6e57f0bb5a6c26031c3e1ea6c2a4c8413e216bd4f3c2f73be81f70aea878585604051610ce293929190612b6a565b60405180910390a2505050505050565b3360009081526001602052604081205460055460609282905b33600090815260026020526040902054811015610d7557336000908152600260205260409020805482908110610d4357610d436129c7565b600091825260209091206008600a90920201015460ff1615610d6d5781610d6981612a2d565b9250505b600101610d0b565b506000610d828284612ba2565b67ffffffffffffffff811115610d9a57610d9a612663565b604051908082528060200260200182016040528015610dd357816020015b610dc06123e9565b815260200190600190039081610db85790505b5090506000805b848110156111f95760008060005b88811015610e5e57336000908152600160205260409020805482908110610e1157610e116129c7565b90600052602060002090600802016000015460058581548110610e3657610e366129c7565b90600052602060002090600802016000015403610e565760019250610e5e565b600101610de8565b5060005b33600090815260026020526040902054811015610ee757336000908152600260205260409020805482908110610e9a57610e9a6129c7565b90600052602060002090600a02016001015460058581548110610ebf57610ebf6129c7565b90600052602060002090600802016000015403610edf5760019150610ee7565b600101610e62565b5081158015610ef4575080155b156111ef5760058381548110610f0c57610f0c6129c7565b906000526020600020906008020160405180610100016040529081600082015481526020016001820160009054906101000a90046001600160a01b03166001600160a01b03166001600160a01b03168152602001600282018054610f6f906129dd565b80601f0160208091040260200160405190810160405280929190818152602001828054610f9b906129dd565b8015610fe85780601f10610fbd57610100808354040283529160200191610fe8565b820191906000526020600020905b815481529060010190602001808311610fcb57829003601f168201915b50505050508152602001600382018054611001906129dd565b80601f016020809104026020016040519081016040528092919081815260200182805461102d906129dd565b801561107a5780601f1061104f5761010080835404028352916020019161107a565b820191906000526020600020905b81548152906001019060200180831161105d57829003601f168201915b50505050508152602001600482018054611093906129dd565b80601f01602080910402602001604051908101604052809291908181526020018280546110bf906129dd565b801561110c5780601f106110e15761010080835404028352916020019161110c565b820191906000526020600020905b8154815290600101906020018083116110ef57829003601f168201915b50505050508152602001600582018054611125906129dd565b80601f0160208091040260200160405190810160405280929190818152602001828054611151906129dd565b801561119e5780601f106111735761010080835404028352916020019161119e565b820191906000526020600020905b81548152906001019060200180831161118157829003601f168201915b5050509183525050600682015460ff161515602082015260079091015460409091015285518690869081106111d5576111d56129c7565b602002602001018190525083806111eb90612a2d565b9450505b5050600101610dda565b509095945050505050565b6007805490600061121483612a2d565b90915550506040805160a081018252600780548083526020808401878152338587018181526001600160a01b038981166060808a01828152600060808c018181529981526003808a52908d90208c5181559751600189015594516002880180549186166001600160a01b03199092169190911790555195909301805497511515600160a01b026001600160a81b0319909816959092169490941795909517909455935486518981529283019490945294810194909452919290917f3563c2ab88374e4253e716e489b51ed99c61edfecc313080b65cb94efb16b3aa910160405180910390a2505050565b6060600060015b60075481116113525760008181526003602081905260409091200154336001600160a01b0390911603611340578161133c81612a2d565b9250505b8061134a81612a2d565b915050611305565b5060008167ffffffffffffffff81111561136e5761136e612663565b6040519080825280602002602001820160405280156113c757816020015b6040805160a08101825260008082526020808301829052928201819052606082018190526080820152825260001990920191018161138c5790505b509050600060015b60075481116107ca5760008181526003602081905260409091200154336001600160a01b039091160361148957600081815260036020818152604092839020835160a0810185528154815260018201549281019290925260028101546001600160a01b0390811694830194909452909101549182166060820152600160a01b90910460ff1615156080820152835184908490811061146f5761146f6129c7565b6020026020010181905250818061148590612a2d565b9250505b8061149381612a2d565b9150506113cf565b6000818152600360208190526040909120908101546001600160a01b0316331461151b5760405162461bcd60e51b815260206004820152602b60248201527f4f6e6c79207468652066696c65206f776e65722063616e20617070726f76652060448201526a1d1a19481c995c5d595cdd60aa1b6064820152608401610626565b6003810154600160a01b900460ff16156115725760405162461bcd60e51b815260206004820152601860248201527714995c5d595cdd08185b1c9958591e48185c1c1c9bdd995960421b6044820152606401610626565b60038101805460ff60a01b1916600160a01b1790556001810154600090611598906102d2565b905060006115a46122fd565b604080516101408101825282815284516020808301918252808701516001600160a01b0390811684860190815260028a810154831660608088018281528c8a01516080808b01918252928e015160a0808c0191909152928e015160c0808c0191909152928e015160e08b0152918d015115156101008a0152426101208a01526000928352838752988220805460018082018355918452969092208851600a90970201958655955190850155905190830180546001600160a01b03199081169284169290921790559451600383018054909616911617909355519293509182919060048201906116939082612aaa565b5060a082015160058201906116a89082612aaa565b5060c082015160068201906116bd9082612aaa565b5060e082015160078201906116d29082612aaa565b5061010082015160088201805460ff1916911515919091179055610120909101516009909101556002840154602084015160408086015160a087015191516001600160a01b0394851694909316927fdb512b8780437591f9dd72ca8ab2dfce82baaa1c45f1eb9f45e8ee890fd6077f9261174c9291612bb5565b60405180910390a3600184015460028501546003860154604080519384526001600160a01b03928316602085015291169082015285907f6e12100d9a45da1a9e96a9fc000ff4db7bfc27cc43fdf07dab275b581483fb499060600160405180910390a25050505050565b6000818152600360208190526040909120908101546001600160a01b031633146118355760405162461bcd60e51b815260206004820152602a60248201527f4f6e6c79207468652066696c65206f776e65722063616e2072656a65637420746044820152691a19481c995c5d595cdd60b21b6064820152608401610626565b6003810154600160a01b900460ff161561188c5760405162461bcd60e51b815260206004820152601860248201527714995c5d595cdd08185b1c9958591e48185c1c1c9bdd995960421b6044820152606401610626565b6000828152600360208181526040808420848155600180820195909555600280820180546001600160a01b031916905590840180546001600160a81b031916905593850154938501549285015481519485526001600160a01b039384169285019290925291169082015282907f23bc048e2726b66e4b6df842e8940378c39ead4ceeeabbbe237bd71caf10603b9060600160405180910390a25050565b336000908152600160209081526040808320805482518185028101850190935280835260609492939192909184015b82821015611c125760008481526020908190206040805161010081018252600886029092018054835260018101546001600160a01b031693830193909352600283018054929392918401916119ac906129dd565b80601f01602080910402602001604051908101604052809291908181526020018280546119d8906129dd565b8015611a255780601f106119fa57610100808354040283529160200191611a25565b820191906000526020600020905b815481529060010190602001808311611a0857829003601f168201915b50505050508152602001600382018054611a3e906129dd565b80601f0160208091040260200160405190810160405280929190818152602001828054611a6a906129dd565b8015611ab75780601f10611a8c57610100808354040283529160200191611ab7565b820191906000526020600020905b815481529060010190602001808311611a9a57829003601f168201915b50505050508152602001600482018054611ad0906129dd565b80601f0160208091040260200160405190810160405280929190818152602001828054611afc906129dd565b8015611b495780601f10611b1e57610100808354040283529160200191611b49565b820191906000526020600020905b815481529060010190602001808311611b2c57829003601f168201915b50505050508152602001600582018054611b62906129dd565b80601f0160208091040260200160405190810160405280929190818152602001828054611b8e906129dd565b8015611bdb5780601f10611bb057610100808354040283529160200191611bdb565b820191906000526020600020905b815481529060010190602001808311611bbe57829003601f168201915b5050509183525050600682015460ff1615156020808301919091526007909201546040909101529082526001929092019101611958565b50505050905090565b6000805b6001600160a01b038416600090815260016020526040902054811015611c95576001600160a01b0384166000908152600160205260409020805484919083908110611c6c57611c6c6129c7565b90600052602060002090600802016000015403611c8d576001915050611d15565b600101611c1f565b5060005b6001600160a01b038416600090815260026020526040902054811015611d0f576001600160a01b0384166000908152600260205260409020805484919083908110611ce657611ce66129c7565b90600052602060002090600a02016001015403611d07576001915050611d15565b600101611c99565b50600090505b92915050565b336000908152600260209081526040808320805482518185028101850190935280835260609492939192909184015b82821015611c125760008481526020908190206040805161014081018252600a86029092018054835260018101549383019390935260028301546001600160a01b03908116918301919091526003830154166060820152600482018054919291608084019190611db9906129dd565b80601f0160208091040260200160405190810160405280929190818152602001828054611de5906129dd565b8015611e325780601f10611e0757610100808354040283529160200191611e32565b820191906000526020600020905b815481529060010190602001808311611e1557829003601f168201915b50505050508152602001600582018054611e4b906129dd565b80601f0160208091040260200160405190810160405280929190818152602001828054611e77906129dd565b8015611ec45780601f10611e9957610100808354040283529160200191611ec4565b820191906000526020600020905b815481529060010190602001808311611ea757829003601f168201915b50505050508152602001600682018054611edd906129dd565b80601f0160208091040260200160405190810160405280929190818152602001828054611f09906129dd565b8015611f565780601f10611f2b57610100808354040283529160200191611f56565b820191906000526020600020905b815481529060010190602001808311611f3957829003601f168201915b50505050508152602001600782018054611f6f906129dd565b80601f0160208091040260200160405190810160405280929190818152602001828054611f9b906129dd565b8015611fe85780601f10611fbd57610100808354040283529160200191611fe8565b820191906000526020600020905b815481529060010190602001808311611fcb57829003601f168201915b5050509183525050600882015460ff1615156020808301919091526009909201546040909101529082526001929092019101611d4a565b60606005805480602002602001604051908101604052809291908181526020016000905b82821015611c125760008481526020908190206040805161010081018252600886029092018054835260018101546001600160a01b03169383019390935260028301805492939291840191612097906129dd565b80601f01602080910402602001604051908101604052809291908181526020018280546120c3906129dd565b80156121105780601f106120e557610100808354040283529160200191612110565b820191906000526020600020905b8154815290600101906020018083116120f357829003601f168201915b50505050508152602001600382018054612129906129dd565b80601f0160208091040260200160405190810160405280929190818152602001828054612155906129dd565b80156121a25780601f10612177576101008083540402835291602001916121a2565b820191906000526020600020905b81548152906001019060200180831161218557829003601f168201915b505050505081526020016004820180546121bb906129dd565b80601f01602080910402602001604051908101604052809291908181526020018280546121e7906129dd565b80156122345780601f1061220957610100808354040283529160200191612234565b820191906000526020600020905b81548152906001019060200180831161221757829003601f168201915b5050505050815260200160058201805461224d906129dd565b80601f0160208091040260200160405190810160405280929190818152602001828054612279906129dd565b80156122c65780601f1061229b576101008083540402835291602001916122c6565b820191906000526020600020905b8154815290600101906020018083116122a957829003601f168201915b5050509183525050600682015460ff1615156020808301919091526007909201546040909101529082526001929092019101612043565b6000804243403360405160200161233993929190928352602083019190915260601b6bffffffffffffffffffffffff1916604082015260540190565b60408051601f198184030181529190528051602090910120905060006123646402540be40083612be3565b90505b60008181526004602052604090205460ff16156123ca57814260405160200161239a929190918252602082015260400190565b60408051601f19818403018152919052805160209091012091506123c36402540be40083612be3565b9050612367565b6000818152600460205260409020805460ff1916600117905592915050565b6040518061010001604052806000815260200160006001600160a01b0316815260200160608152602001606081526020016060815260200160608152602001600015158152602001600081525090565b60006020828403121561244b57600080fd5b5035919050565b6000815180845260005b818110156124785760208185018101518683018201520161245c565b506000602082860101526020601f19601f83011685010191505092915050565b60006101008251845260208301516124bb60208601826001600160a01b03169052565b5060408301518160408601526124d382860182612452565b915050606083015184820360608601526124ed8282612452565b915050608083015184820360808601526125078282612452565b91505060a083015184820360a08601526125218282612452565b91505060c083015161253760c086018215159052565b5060e083015160e08501528091505092915050565b60208152600061255f6020830184612498565b9392505050565b602080825282518282018190526000919060409081850190868401855b828110156125d7578151805185528681015187860152858101516001600160a01b03908116878701526060808301519091169086015260809081015115159085015260a09093019290850190600101612583565b5091979650505050505050565b8881526001600160a01b03881660208201526101006040820181905260009061260f8382018a612452565b905082810360608401526126238189612452565b905082810360808401526126378188612452565b905082810360a084015261264b8187612452565b94151560c0840152505060e001529695505050505050565b634e487b7160e01b600052604160045260246000fd5b600082601f83011261268a57600080fd5b813567ffffffffffffffff808211156126a5576126a5612663565b604051601f8301601f19908116603f011681019082821181831017156126cd576126cd612663565b816040528381528660208588010111156126e657600080fd5b836020870160208301376000602085830101528094505050505092915050565b600080600080600060a0868803121561271e57600080fd5b853567ffffffffffffffff8082111561273657600080fd5b61274289838a01612679565b9650602088013591508082111561275857600080fd5b61276489838a01612679565b9550604088013591508082111561277a57600080fd5b61278689838a01612679565b9450606088013591508082111561279c57600080fd5b506127a988828901612679565b925050608086013580151581146127bf57600080fd5b809150509295509295909350565b600060208083016020845280855180835260408601915060408160051b87010192506020870160005b8281101561282457603f19888603018452612812858351612498565b945092850192908501906001016127f6565b5092979650505050505050565b80356001600160a01b038116811461284857600080fd5b919050565b6000806040838503121561286057600080fd5b8235915061287060208401612831565b90509250929050565b6000806040838503121561288c57600080fd5b61289583612831565b946020939093013593505050565b600060208083018184528085518083526040925060408601915060408160051b87010184880160005b838110156129b957888303603f190185528151805184528781015188850152868101516001600160a01b0381168886015261014090506060828101516001600160a01b038116878301525050608080830151828288015261292f83880182612452565b9250505060a0808301518683038288015261294a8382612452565b9250505060c080830151868303828801526129658382612452565b9250505060e080830151868303828801526129808382612452565b92505050610100808301516129988288018215159052565b505061012091820151949091019390935293860193908601906001016128cc565b509098975050505050505050565b634e487b7160e01b600052603260045260246000fd5b600181811c908216806129f157607f821691505b602082108103612a1157634e487b7160e01b600052602260045260246000fd5b50919050565b634e487b7160e01b600052601160045260246000fd5b600060018201612a3f57612a3f612a17565b5060010190565b80820180821115611d1557611d15612a17565b601f821115612aa5576000816000526020600020601f850160051c81016020861015612a825750805b601f850160051c820191505b81811015612aa157828155600101612a8e565b5050505b505050565b815167ffffffffffffffff811115612ac457612ac4612663565b612ad881612ad284546129dd565b84612a59565b602080601f831160018114612b0d5760008415612af55750858301515b600019600386901b1c1916600185901b178555612aa1565b600085815260208120601f198616915b82811015612b3c57888601518255948401946001909101908401612b1d565b5085821015612b5a5787850151600019600388901b60f8161c191681555b5050505050600190811b01905550565b606081526000612b7d6060830186612452565b8281036020840152612b8f8186612452565b9150508215156040830152949350505050565b81810381811115611d1557611d15612a17565b604081526000612bc86040830185612452565b8281036020840152612bda8185612452565b95945050505050565b600082612c0057634e487b7160e01b600052601260045260246000fd5b50069056fea264697066735822122074c7a9fbde2b2ffec8c8419cc874116456ccd6e94a77a280b80b099d4dede25664736f6c63430008180033",
  "linkReferences": {},
  "deployedLinkReferences": {}
}