{
  "_format": "hh-sol-artifact-1",
  "contractName": "LicenseMarketplace",
  "sourceName": "contracts/LicenseMarketplace.sol",
  "abi": [
    {
      "inputs": [],
      "stateMutability": "nonpayable",
      "type": "constructor"
    },
    {
      "anonymous": false,
      "inputs": [
        {
          "indexed": true,
          "internalType": "address",
          "name": "owner",
          "type": "address"
        },
        {
          "indexed": true,
          "internalType": "address",
          "name": "buyer",
          "type": "address"
        },
        {
          "indexed": false,
          "internalType": "string",
          "name": "fileName",
          "type": "string"
        },
        {
          "indexed": false,
          "internalType": "string",
          "name": "fileHash",
          "type": "string"
        }
      ],
      "name": "FileLicense",
      "type": "event"
    },
    {
      "anonymous": false,
      "inputs": [
        {
          "indexed": true,
          "internalType": "address",
          "name": "owner",
          "type": "address"
        },
        {
          "indexed": false,
          "internalType": "string",
          "name": "fileName",
          "type": "string"
        },
        {
          "indexed": false,
          "internalType": "string",
          "name": "fileHash",
          "type": "string"
        },
        {
          "indexed": false,
          "internalType": "bool",
          "name": "isPublic",
          "type": "bool"
        }
      ],
      "name": "FileShared",
      "type": "event"
    },
    {
      "anonymous": false,
      "inputs": [
        {
          "indexed": true,
          "internalType": "address",
          "name": "userAddress",
          "type": "address"
        },
        {
          "indexed": false,
          "internalType": "string",
          "name": "username",
          "type": "string"
        }
      ],
      "name": "userLoggedIn",
      "type": "event"
    },
    {
      "anonymous": false,
      "inputs": [
        {
          "indexed": true,
          "internalType": "address",
          "name": "userAddress",
          "type": "address"
        },
        {
          "indexed": false,
          "internalType": "string",
          "name": "username",
          "type": "string"
        }
      ],
      "name": "userSignedUp",
      "type": "event"
    },
    {
      "inputs": [
        {
          "internalType": "address",
          "name": "_newOwner",
          "type": "address"
        }
      ],
      "name": "changeOwner",
      "outputs": [],
      "stateMutability": "nonpayable",
      "type": "function"
    },
    {
      "inputs": [
        {
          "internalType": "string",
          "name": "_fileName",
          "type": "string"
        },
        {
          "internalType": "string",
          "name": "_description",
          "type": "string"
        },
        {
          "internalType": "string",
          "name": "_category",
          "type": "string"
        },
        {
          "internalType": "string",
          "name": "_fileHash",
          "type": "string"
        },
        {
          "internalType": "bool",
          "name": "_isPublic",
          "type": "bool"
        }
      ],
      "name": "createFile",
      "outputs": [],
      "stateMutability": "nonpayable",
      "type": "function"
    },
    {
      "inputs": [],
      "name": "fileId",
      "outputs": [
        {
          "internalType": "uint256",
          "name": "",
          "type": "uint256"
        }
      ],
      "stateMutability": "view",
      "type": "function"
    },
    {
      "inputs": [],
      "name": "getAllPublicFiles",
      "outputs": [
        {
          "components": [
            {
              "internalType": "uint256",
              "name": "id",
              "type": "uint256"
            },
            {
              "internalType": "address",
              "name": "owner",
              "type": "address"
            },
            {
              "internalType": "string",
              "name": "fileName",
              "type": "string"
            },
            {
              "internalType": "string",
              "name": "description",
              "type": "string"
            },
            {
              "internalType": "string",
              "name": "category",
              "type": "string"
            },
            {
              "internalType": "string",
              "name": "fileHash",
              "type": "string"
            },
            {
              "internalType": "bool",
              "name": "isPublic",
              "type": "bool"
            },
            {
              "internalType": "uint256",
              "name": "createdAt",
              "type": "uint256"
            }
          ],
          "internalType": "struct LicenseMarketplace.File[]",
          "name": "",
          "type": "tuple[]"
        }
      ],
      "stateMutability": "view",
      "type": "function"
    },
    {
      "inputs": [],
      "name": "getAllRegisterdUsers",
      "outputs": [
        {
          "components": [
            {
              "internalType": "address",
              "name": "_address",
              "type": "address"
            },
            {
              "internalType": "string",
              "name": "firstname",
              "type": "string"
            },
            {
              "internalType": "string",
              "name": "lastname",
              "type": "string"
            },
            {
              "internalType": "string",
              "name": "username",
              "type": "string"
            },
            {
              "internalType": "string",
              "name": "email",
              "type": "string"
            },
            {
              "internalType": "string",
              "name": "password",
              "type": "string"
            },
            {
              "internalType": "bool",
              "name": "isRegistered",
              "type": "bool"
            }
          ],
          "internalType": "struct LicenseMarketplace.User[]",
          "name": "",
          "type": "tuple[]"
        }
      ],
      "stateMutability": "view",
      "type": "function"
    },
    {
      "inputs": [],
      "name": "getAllUserFiles",
      "outputs": [
        {
          "components": [
            {
              "internalType": "uint256",
              "name": "id",
              "type": "uint256"
            },
            {
              "internalType": "address",
              "name": "owner",
              "type": "address"
            },
            {
              "internalType": "string",
              "name": "fileName",
              "type": "string"
            },
            {
              "internalType": "string",
              "name": "description",
              "type": "string"
            },
            {
              "internalType": "string",
              "name": "category",
              "type": "string"
            },
            {
              "internalType": "string",
              "name": "fileHash",
              "type": "string"
            },
            {
              "internalType": "bool",
              "name": "isPublic",
              "type": "bool"
            },
            {
              "internalType": "uint256",
              "name": "createdAt",
              "type": "uint256"
            }
          ],
          "internalType": "struct LicenseMarketplace.File[]",
          "name": "",
          "type": "tuple[]"
        }
      ],
      "stateMutability": "view",
      "type": "function"
    },
    {
      "inputs": [],
      "name": "getAllUserLicenses",
      "outputs": [
        {
          "components": [
            {
              "internalType": "uint256",
              "name": "licenseNumber",
              "type": "uint256"
            },
            {
              "internalType": "uint256",
              "name": "fileId",
              "type": "uint256"
            },
            {
              "internalType": "address",
              "name": "owner",
              "type": "address"
            },
            {
              "internalType": "string",
              "name": "fileName",
              "type": "string"
            },
            {
              "internalType": "string",
              "name": "description",
              "type": "string"
            },
            {
              "internalType": "string",
              "name": "category",
              "type": "string"
            },
            {
              "internalType": "string",
              "name": "fileHash",
              "type": "string"
            },
            {
              "internalType": "bool",
              "name": "isPublic",
              "type": "bool"
            },
            {
              "internalType": "uint256",
              "name": "createdAt",
              "type": "uint256"
            }
          ],
          "internalType": "struct LicenseMarketplace.License[]",
          "name": "",
          "type": "tuple[]"
        }
      ],
      "stateMutability": "view",
      "type": "function"
    },
    {
      "inputs": [
        {
          "internalType": "uint256",
          "name": "_id",
          "type": "uint256"
        }
      ],
      "name": "getPublicFileById",
      "outputs": [
        {
          "components": [
            {
              "internalType": "uint256",
              "name": "id",
              "type": "uint256"
            },
            {
              "internalType": "address",
              "name": "owner",
              "type": "address"
            },
            {
              "internalType": "string",
              "name": "fileName",
              "type": "string"
            },
            {
              "internalType": "string",
              "name": "description",
              "type": "string"
            },
            {
              "internalType": "string",
              "name": "category",
              "type": "string"
            },
            {
              "internalType": "string",
              "name": "fileHash",
              "type": "string"
            },
            {
              "internalType": "bool",
              "name": "isPublic",
              "type": "bool"
            },
            {
              "internalType": "uint256",
              "name": "createdAt",
              "type": "uint256"
            }
          ],
          "internalType": "struct LicenseMarketplace.File",
          "name": "",
          "type": "tuple"
        }
      ],
      "stateMutability": "view",
      "type": "function"
    },
    {
      "inputs": [],
      "name": "getPublicFilesExceptUser",
      "outputs": [
        {
          "components": [
            {
              "internalType": "uint256",
              "name": "id",
              "type": "uint256"
            },
            {
              "internalType": "address",
              "name": "owner",
              "type": "address"
            },
            {
              "internalType": "string",
              "name": "fileName",
              "type": "string"
            },
            {
              "internalType": "string",
              "name": "description",
              "type": "string"
            },
            {
              "internalType": "string",
              "name": "category",
              "type": "string"
            },
            {
              "internalType": "string",
              "name": "fileHash",
              "type": "string"
            },
            {
              "internalType": "bool",
              "name": "isPublic",
              "type": "bool"
            },
            {
              "internalType": "uint256",
              "name": "createdAt",
              "type": "uint256"
            }
          ],
          "internalType": "struct LicenseMarketplace.File[]",
          "name": "",
          "type": "tuple[]"
        }
      ],
      "stateMutability": "view",
      "type": "function"
    },
    {
      "inputs": [
        {
          "internalType": "address",
          "name": "_owner",
          "type": "address"
        },
        {
          "internalType": "uint256",
          "name": "_id",
          "type": "uint256"
        },
        {
          "internalType": "string",
          "name": "_fileName",
          "type": "string"
        },
        {
          "internalType": "string",
          "name": "_description",
          "type": "string"
        },
        {
          "internalType": "string",
          "name": "_category",
          "type": "string"
        },
        {
          "internalType": "string",
          "name": "_fileHash",
          "type": "string"
        },
        {
          "internalType": "bool",
          "name": "_isPublic",
          "type": "bool"
        }
      ],
      "name": "issueLicense",
      "outputs": [],
      "stateMutability": "nonpayable",
      "type": "function"
    },
    {
      "inputs": [
        {
          "internalType": "string",
          "name": "_password",
          "type": "string"
        }
      ],
      "name": "login",
      "outputs": [
        {
          "internalType": "address",
          "name": "",
          "type": "address"
        },
        {
          "internalType": "string",
          "name": "",
          "type": "string"
        },
        {
          "internalType": "bool",
          "name": "",
          "type": "bool"
        }
      ],
      "stateMutability": "nonpayable",
      "type": "function"
    },
    {
      "inputs": [],
      "name": "owner",
      "outputs": [
        {
          "internalType": "address",
          "name": "",
          "type": "address"
        }
      ],
      "stateMutability": "view",
      "type": "function"
    },
    {
      "inputs": [
        {
          "internalType": "uint256",
          "name": "",
          "type": "uint256"
        }
      ],
      "name": "publicFiles",
      "outputs": [
        {
          "internalType": "uint256",
          "name": "id",
          "type": "uint256"
        },
        {
          "internalType": "address",
          "name": "owner",
          "type": "address"
        },
        {
          "internalType": "string",
          "name": "fileName",
          "type": "string"
        },
        {
          "internalType": "string",
          "name": "description",
          "type": "string"
        },
        {
          "internalType": "string",
          "name": "category",
          "type": "string"
        },
        {
          "internalType": "string",
          "name": "fileHash",
          "type": "string"
        },
        {
          "internalType": "bool",
          "name": "isPublic",
          "type": "bool"
        },
        {
          "internalType": "uint256",
          "name": "createdAt",
          "type": "uint256"
        }
      ],
      "stateMutability": "view",
      "type": "function"
    },
    {
      "inputs": [
        {
          "internalType": "string",
          "name": "_newPassword",
          "type": "string"
        }
      ],
      "name": "resetPassword",
      "outputs": [],
      "stateMutability": "nonpayable",
      "type": "function"
    },
    {
      "inputs": [
        {
          "internalType": "string",
          "name": "_firstname",
          "type": "string"
        },
        {
          "internalType": "string",
          "name": "_lastname",
          "type": "string"
        },
        {
          "internalType": "string",
          "name": "_username",
          "type": "string"
        },
        {
          "internalType": "string",
          "name": "_email",
          "type": "string"
        },
        {
          "internalType": "string",
          "name": "_password",
          "type": "string"
        }
      ],
      "name": "signUp",
      "outputs": [],
      "stateMutability": "nonpayable",
      "type": "function"
    },
    {
      "inputs": [
        {
          "internalType": "uint256",
          "name": "",
          "type": "uint256"
        }
      ],
      "name": "usedLicenses",
      "outputs": [
        {
          "internalType": "bool",
          "name": "",
          "type": "bool"
        }
      ],
      "stateMutability": "view",
      "type": "function"
    },
    {
      "inputs": [
        {
          "internalType": "uint256",
          "name": "licenseNumber",
          "type": "uint256"
        }
      ],
      "name": "validateLicense",
      "outputs": [
        {
          "internalType": "bool",
          "name": "",
          "type": "bool"
        }
      ],
      "stateMutability": "view",
      "type": "function"
    }
  ],
  "bytecode": "0x608060405234801561001057600080fd5b50600080546001600160a01b03191633179055613012806100326000396000f3fe608060405234801561001057600080fd5b506004361061010b5760003560e01c80637d0ac00c116100a2578063c1716c7711610071578063c1716c771461027d578063c3ba2cd914610292578063e399e2681461029a578063e90b39ec146102af578063ed9b54c4146102b757600080fd5b80637d0ac00c146102175780638da5cb5b1461022c578063a6f9dae114610257578063b642c1e91461026a57600080fd5b8063641b66e4116100de578063641b66e4146101b557806373a6094a146101cc578063787a37b9146101e15780637be338b61461020457600080fd5b80630cc6f1a2146101105780633a7d280c146101395780634506708e1461015b5780635f70a8fe14610182575b600080fd5b61012361011e366004612493565b6102ca565b60405161013091906125b0565b60405180910390f35b61014c61014736600461266d565b610627565b604051610130939291906126aa565b61016e610169366004612493565b61081d565b6040516101309897969594939291906126e0565b6101a5610190366004612493565b60009081526004602052604090205460ff1690565b6040519015158152602001610130565b6101be60075481565b604051908152602001610130565b6101df6101da36600461266d565b610aa0565b005b6101a56101ef366004612493565b60046020526000908152604090205460ff1681565b6101df610212366004612774565b610b18565b61021f610da0565b6040516101309190612832565b60005461023f906001600160a01b031681565b6040516001600160a01b039091168152602001610130565b6101df6102653660046128ad565b6112b2565b6101df6102783660046128c8565b61133c565b6102856114b4565b60405161013091906129a0565b61021f611815565b6102a2611afe565b6040516101309190612aa5565b61021f611df2565b6101df6102c5366004612ba4565b6120d0565b6102d2612443565b60005b6005548110156105e15782600582815481106102f3576102f3612c76565b906000526020600020906008020160000154036105d9576005818154811061031d5761031d612c76565b906000526020600020906008020160405180610100016040529081600082015481526020016001820160009054906101000a90046001600160a01b03166001600160a01b03166001600160a01b0316815260200160028201805461038090612c8c565b80601f01602080910402602001604051908101604052809291908181526020018280546103ac90612c8c565b80156103f95780601f106103ce576101008083540402835291602001916103f9565b820191906000526020600020905b8154815290600101906020018083116103dc57829003601f168201915b5050505050815260200160038201805461041290612c8c565b80601f016020809104026020016040519081016040528092919081815260200182805461043e90612c8c565b801561048b5780601f106104605761010080835404028352916020019161048b565b820191906000526020600020905b81548152906001019060200180831161046e57829003601f168201915b505050505081526020016004820180546104a490612c8c565b80601f01602080910402602001604051908101604052809291908181526020018280546104d090612c8c565b801561051d5780601f106104f25761010080835404028352916020019161051d565b820191906000526020600020905b81548152906001019060200180831161050057829003601f168201915b5050505050815260200160058201805461053690612c8c565b80601f016020809104026020016040519081016040528092919081815260200182805461056290612c8c565b80156105af5780601f10610584576101008083540402835291602001916105af565b820191906000526020600020905b81548152906001019060200180831161059257829003601f168201915b5050509183525050600682015460ff16151560208201526007909101546040909101529392505050565b6001016102d5565b5060405162461bcd60e51b8152602060048201526015602482015274141d589b1a58c8199a5b19481b9bdd08199bdd5b99605a1b60448201526064015b60405180910390fd5b33600090815260036020526040812060060154606090829060ff166106845760405162461bcd60e51b8152602060048201526013602482015272155cd95c881b9bdd081c9959da5cdd195c9959606a1b604482015260640161061e565b3360009081526003602090815260409182902091516106a7926005019101612cc6565b60405160208183030381529060405280519060200120846040516020016106ce9190612d3c565b60405160208183030381529060405280519060200120146107245760405162461bcd60e51b815260206004820152601060248201526f125b9d9b185a59081c185cdcdddbdc9960821b604482015260640161061e565b3360008181526003602081905260409182902091517f1732e660d4b2e125ea2cdba3ff57da5379f6b98385fa1c9885964b87cebec6d392610766920190612d58565b60405180910390a23360008181526003602052604090206005018054600190829061079090612c8c565b80601f01602080910402602001604051908101604052809291908181526020018280546107bc90612c8c565b80156108095780601f106107de57610100808354040283529160200191610809565b820191906000526020600020905b8154815290600101906020018083116107ec57829003601f168201915b505050505091509250925092509193909250565b6005818154811061082d57600080fd5b60009182526020909120600890910201805460018201546002830180549294506001600160a01b03909116929161086390612c8c565b80601f016020809104026020016040519081016040528092919081815260200182805461088f90612c8c565b80156108dc5780601f106108b1576101008083540402835291602001916108dc565b820191906000526020600020905b8154815290600101906020018083116108bf57829003601f168201915b5050505050908060030180546108f190612c8c565b80601f016020809104026020016040519081016040528092919081815260200182805461091d90612c8c565b801561096a5780601f1061093f5761010080835404028352916020019161096a565b820191906000526020600020905b81548152906001019060200180831161094d57829003601f168201915b50505050509080600401805461097f90612c8c565b80601f01602080910402602001604051908101604052809291908181526020018280546109ab90612c8c565b80156109f85780601f106109cd576101008083540402835291602001916109f8565b820191906000526020600020905b8154815290600101906020018083116109db57829003601f168201915b505050505090806005018054610a0d90612c8c565b80601f0160208091040260200160405190810160405280929190818152602001828054610a3990612c8c565b8015610a865780601f10610a5b57610100808354040283529160200191610a86565b820191906000526020600020905b815481529060010190602001808311610a6957829003601f168201915b505050506006830154600790930154919260ff1691905088565b3360009081526003602052604090206006015460ff16610af85760405162461bcd60e51b8152602060048201526013602482015272155cd95c881b9bdd081c9959da5cdd195c9959606a1b604482015260640161061e565b336000908152600360205260409020600501610b148282612e39565b5050565b60078054906000610b2883612f0f565b909155505060075460408051610100810182528281523360208083018281528385018b8152606085018b9052608085018a905260a0850189905287151560c08601524260e086015260009384526001808452958420805480880182559085529290932084516008909302019182555193810180546001600160a01b0319166001600160a01b039095169490941790935551909182916002820190610bcc9082612e39565b5060608201516003820190610be19082612e39565b5060808201516004820190610bf69082612e39565b5060a08201516005820190610c0b9082612e39565b5060c082015160068201805460ff191691151591909117905560e0909101516007909101558215610d52576005805460018101825560009190915281517f036b6384b5eca791c62761152d0c79bb0604c104a5fb6f4eb0703f3154bb3db0600890920291820190815560208301517f036b6384b5eca791c62761152d0c79bb0604c104a5fb6f4eb0703f3154bb3db1830180546001600160a01b0319166001600160a01b03909216919091179055604083015183927f036b6384b5eca791c62761152d0c79bb0604c104a5fb6f4eb0703f3154bb3db20190610ced9082612e39565b5060608201516003820190610d029082612e39565b5060808201516004820190610d179082612e39565b5060a08201516005820190610d2c9082612e39565b5060c082015160068201805460ff191691151591909117905560e0909101516007909101555b336001600160a01b03167f4b0334d6e57f0bb5a6c26031c3e1ea6c2a4c8413e216bd4f3c2f73be81f70aea888686604051610d8f93929190612f28565b60405180910390a250505050505050565b3360009081526001602052604081205460055460609282905b33600090815260026020526040902054811015610e2357336000908152600260205260409020805482908110610df157610df1612c76565b600091825260209091206007600990920201015460ff1615610e1b5781610e1781612f0f565b9250505b600101610db9565b506000610e308284612f60565b67ffffffffffffffff811115610e4857610e486125ca565b604051908082528060200260200182016040528015610e8157816020015b610e6e612443565b815260200190600190039081610e665790505b5090506000805b848110156112a75760008060005b88811015610f0c57336000908152600160205260409020805482908110610ebf57610ebf612c76565b90600052602060002090600802016000015460058581548110610ee457610ee4612c76565b90600052602060002090600802016000015403610f045760019250610f0c565b600101610e96565b5060005b33600090815260026020526040902054811015610f9557336000908152600260205260409020805482908110610f4857610f48612c76565b90600052602060002090600902016001015460058581548110610f6d57610f6d612c76565b90600052602060002090600802016000015403610f8d5760019150610f95565b600101610f10565b5081158015610fa2575080155b1561129d5760058381548110610fba57610fba612c76565b906000526020600020906008020160405180610100016040529081600082015481526020016001820160009054906101000a90046001600160a01b03166001600160a01b03166001600160a01b0316815260200160028201805461101d90612c8c565b80601f016020809104026020016040519081016040528092919081815260200182805461104990612c8c565b80156110965780601f1061106b57610100808354040283529160200191611096565b820191906000526020600020905b81548152906001019060200180831161107957829003601f168201915b505050505081526020016003820180546110af90612c8c565b80601f01602080910402602001604051908101604052809291908181526020018280546110db90612c8c565b80156111285780601f106110fd57610100808354040283529160200191611128565b820191906000526020600020905b81548152906001019060200180831161110b57829003601f168201915b5050505050815260200160048201805461114190612c8c565b80601f016020809104026020016040519081016040528092919081815260200182805461116d90612c8c565b80156111ba5780601f1061118f576101008083540402835291602001916111ba565b820191906000526020600020905b81548152906001019060200180831161119d57829003601f168201915b505050505081526020016005820180546111d390612c8c565b80601f01602080910402602001604051908101604052809291908181526020018280546111ff90612c8c565b801561124c5780601f106112215761010080835404028352916020019161124c565b820191906000526020600020905b81548152906001019060200180831161122f57829003601f168201915b5050509183525050600682015460ff1615156020820152600790910154604090910152855186908690811061128357611283612c76565b6020026020010181905250838061129990612f0f565b9450505b5050600101610e88565b509095945050505050565b6000546001600160a01b0316331461131a5760405162461bcd60e51b815260206004820152602560248201527f4f6e6c7920746865206f776e65722063616e2063616c6c20746869732066756e60448201526431ba34b7b760d91b606482015260840161061e565b600080546001600160a01b0319166001600160a01b0392909216919091179055565b6000611346612358565b604080516101208101825282815260208082018b81526001600160a01b038d8116848601908152606085018d8152608086018d905260a086018c905260c086018b905289151560e08701524261010087015233600090815260028087529781208054600180820183559183529690912087516009909702019586559351938501939093555194830180546001600160a01b031916959091169490941790935591519293509182919060038201906113fd9082612e39565b50608082015160048201906114129082612e39565b5060a082015160058201906114279082612e39565b5060c0820151600682019061143c9082612e39565b5060e082015160078201805460ff19169115159190911790556101009091015160089091015560405133906001600160a01b038b16907fdb512b8780437591f9dd72ca8ab2dfce82baaa1c45f1eb9f45e8ee890fd6077f906114a1908b908990612f79565b60405180910390a3505050505050505050565b60606006805480602002602001604051908101604052809291908181526020016000905b8282101561180c5760008481526020908190206040805160e081019091526007850290910180546001600160a01b03168252600181018054929391929184019161152190612c8c565b80601f016020809104026020016040519081016040528092919081815260200182805461154d90612c8c565b801561159a5780601f1061156f5761010080835404028352916020019161159a565b820191906000526020600020905b81548152906001019060200180831161157d57829003601f168201915b505050505081526020016002820180546115b390612c8c565b80601f01602080910402602001604051908101604052809291908181526020018280546115df90612c8c565b801561162c5780601f106116015761010080835404028352916020019161162c565b820191906000526020600020905b81548152906001019060200180831161160f57829003601f168201915b5050505050815260200160038201805461164590612c8c565b80601f016020809104026020016040519081016040528092919081815260200182805461167190612c8c565b80156116be5780601f10611693576101008083540402835291602001916116be565b820191906000526020600020905b8154815290600101906020018083116116a157829003601f168201915b505050505081526020016004820180546116d790612c8c565b80601f016020809104026020016040519081016040528092919081815260200182805461170390612c8c565b80156117505780601f1061172557610100808354040283529160200191611750565b820191906000526020600020905b81548152906001019060200180831161173357829003601f168201915b5050505050815260200160058201805461176990612c8c565b80601f016020809104026020016040519081016040528092919081815260200182805461179590612c8c565b80156117e25780601f106117b7576101008083540402835291602001916117e2565b820191906000526020600020905b8154815290600101906020018083116117c557829003601f168201915b50505091835250506006919091015460ff16151560209182015290825260019290920191016114d8565b50505050905090565b336000908152600160209081526040808320805482518185028101850190935280835260609492939192909184015b8282101561180c5760008481526020908190206040805161010081018252600886029092018054835260018101546001600160a01b0316938301939093526002830180549293929184019161189890612c8c565b80601f01602080910402602001604051908101604052809291908181526020018280546118c490612c8c565b80156119115780601f106118e657610100808354040283529160200191611911565b820191906000526020600020905b8154815290600101906020018083116118f457829003601f168201915b5050505050815260200160038201805461192a90612c8c565b80601f016020809104026020016040519081016040528092919081815260200182805461195690612c8c565b80156119a35780601f10611978576101008083540402835291602001916119a3565b820191906000526020600020905b81548152906001019060200180831161198657829003601f168201915b505050505081526020016004820180546119bc90612c8c565b80601f01602080910402602001604051908101604052809291908181526020018280546119e890612c8c565b8015611a355780601f10611a0a57610100808354040283529160200191611a35565b820191906000526020600020905b815481529060010190602001808311611a1857829003601f168201915b50505050508152602001600582018054611a4e90612c8c565b80601f0160208091040260200160405190810160405280929190818152602001828054611a7a90612c8c565b8015611ac75780601f10611a9c57610100808354040283529160200191611ac7565b820191906000526020600020905b815481529060010190602001808311611aaa57829003601f168201915b5050509183525050600682015460ff1615156020808301919091526007909201546040909101529082526001929092019101611844565b336000908152600260209081526040808320805482518185028101850190935280835260609492939192909184015b8282101561180c5760008481526020908190206040805161012081018252600986029092018054835260018101549383019390935260028301546001600160a01b031690820152600382018054919291606084019190611b8c90612c8c565b80601f0160208091040260200160405190810160405280929190818152602001828054611bb890612c8c565b8015611c055780601f10611bda57610100808354040283529160200191611c05565b820191906000526020600020905b815481529060010190602001808311611be857829003601f168201915b50505050508152602001600482018054611c1e90612c8c565b80601f0160208091040260200160405190810160405280929190818152602001828054611c4a90612c8c565b8015611c975780601f10611c6c57610100808354040283529160200191611c97565b820191906000526020600020905b815481529060010190602001808311611c7a57829003601f168201915b50505050508152602001600582018054611cb090612c8c565b80601f0160208091040260200160405190810160405280929190818152602001828054611cdc90612c8c565b8015611d295780601f10611cfe57610100808354040283529160200191611d29565b820191906000526020600020905b815481529060010190602001808311611d0c57829003601f168201915b50505050508152602001600682018054611d4290612c8c565b80601f0160208091040260200160405190810160405280929190818152602001828054611d6e90612c8c565b8015611dbb5780601f10611d9057610100808354040283529160200191611dbb565b820191906000526020600020905b815481529060010190602001808311611d9e57829003601f168201915b5050509183525050600782015460ff1615156020808301919091526008909201546040909101529082526001929092019101611b2d565b60606005805480602002602001604051908101604052809291908181526020016000905b8282101561180c5760008481526020908190206040805161010081018252600886029092018054835260018101546001600160a01b03169383019390935260028301805492939291840191611e6a90612c8c565b80601f0160208091040260200160405190810160405280929190818152602001828054611e9690612c8c565b8015611ee35780601f10611eb857610100808354040283529160200191611ee3565b820191906000526020600020905b815481529060010190602001808311611ec657829003601f168201915b50505050508152602001600382018054611efc90612c8c565b80601f0160208091040260200160405190810160405280929190818152602001828054611f2890612c8c565b8015611f755780601f10611f4a57610100808354040283529160200191611f75565b820191906000526020600020905b815481529060010190602001808311611f5857829003601f168201915b50505050508152602001600482018054611f8e90612c8c565b80601f0160208091040260200160405190810160405280929190818152602001828054611fba90612c8c565b80156120075780601f10611fdc57610100808354040283529160200191612007565b820191906000526020600020905b815481529060010190602001808311611fea57829003601f168201915b5050505050815260200160058201805461202090612c8c565b80601f016020809104026020016040519081016040528092919081815260200182805461204c90612c8c565b80156120995780601f1061206e57610100808354040283529160200191612099565b820191906000526020600020905b81548152906001019060200180831161207c57829003601f168201915b5050509183525050600682015460ff1615156020808301919091526007909201546040909101529082526001929092019101611e16565b3360009081526003602052604090206006015460ff16156121335760405162461bcd60e51b815260206004820152601760248201527f5573657220616c72656164792072656769737465726564000000000000000000604482015260640161061e565b6040805160e081018252338082526020808301898152838501899052606084018890526080840187905260a08401869052600160c085018190526000938452600390925293909120825181546001600160a01b0319166001600160a01b0390911617815592519192839290918201906121ac9082612e39565b50604082015160028201906121c19082612e39565b50606082015160038201906121d69082612e39565b50608082015160048201906121eb9082612e39565b5060a082015160058201906122009082612e39565b5060c091909101516006918201805460ff1916911515919091179055805460018101825560009190915281517ff652222313e28459528d920b65115c16c04f3efc82aaedc97be59f3f377c0d3f600790920291820180546001600160a01b0319166001600160a01b03909216919091178155602083015183927ff652222313e28459528d920b65115c16c04f3efc82aaedc97be59f3f377c0d4001906122a69082612e39565b50604082015160028201906122bb9082612e39565b50606082015160038201906122d09082612e39565b50608082015160048201906122e59082612e39565b5060a082015160058201906122fa9082612e39565b5060c091909101516006909101805460ff191691151591909117905560405133907f8f4d87d07c48b68f8281fb8420a0f851ddcb1fe47564547262e3eb287587d8d790612348908790612fa7565b60405180910390a2505050505050565b60008042443360405160200161239393929190928352602083019190915260601b6bffffffffffffffffffffffff1916604082015260540190565b60408051601f198184030181529190528051602090910120905060006123be6402540be40083612fba565b90505b60008181526004602052604090205460ff16156124245781426040516020016123f4929190918252602082015260400190565b60408051601f198184030181529190528051602090910120915061241d6402540be40083612fba565b90506123c1565b6000818152600460205260409020805460ff1916600117905592915050565b6040518061010001604052806000815260200160006001600160a01b0316815260200160608152602001606081526020016060815260200160608152602001600015158152602001600081525090565b6000602082840312156124a557600080fd5b5035919050565b60005b838110156124c75781810151838201526020016124af565b50506000910152565b600081518084526124e88160208601602086016124ac565b601f01601f19169290920160200192915050565b600061010082518452602083015161251f60208601826001600160a01b03169052565b506040830151816040860152612537828601826124d0565b9150506060830151848203606086015261255182826124d0565b9150506080830151848203608086015261256b82826124d0565b91505060a083015184820360a086015261258582826124d0565b91505060c083015161259b60c086018215159052565b5060e083015160e08501528091505092915050565b6020815260006125c360208301846124fc565b9392505050565b634e487b7160e01b600052604160045260246000fd5b600082601f8301126125f157600080fd5b813567ffffffffffffffff8082111561260c5761260c6125ca565b604051601f8301601f19908116603f01168101908282118183101715612634576126346125ca565b8160405283815286602085880101111561264d57600080fd5b836020870160208301376000602085830101528094505050505092915050565b60006020828403121561267f57600080fd5b813567ffffffffffffffff81111561269657600080fd5b6126a2848285016125e0565b949350505050565b6001600160a01b03841681526060602082018190526000906126ce908301856124d0565b90508215156040830152949350505050565b8881526001600160a01b03881660208201526101006040820181905260009061270b8382018a6124d0565b9050828103606084015261271f81896124d0565b9050828103608084015261273381886124d0565b905082810360a084015261274781876124d0565b94151560c0840152505060e001529695505050505050565b8035801515811461276f57600080fd5b919050565b600080600080600060a0868803121561278c57600080fd5b853567ffffffffffffffff808211156127a457600080fd5b6127b089838a016125e0565b965060208801359150808211156127c657600080fd5b6127d289838a016125e0565b955060408801359150808211156127e857600080fd5b6127f489838a016125e0565b9450606088013591508082111561280a57600080fd5b50612817888289016125e0565b9250506128266080870161275f565b90509295509295909350565b600060208083016020845280855180835260408601915060408160051b87010192506020870160005b8281101561288957603f198886030184526128778583516124fc565b9450928501929085019060010161285b565b5092979650505050505050565b80356001600160a01b038116811461276f57600080fd5b6000602082840312156128bf57600080fd5b6125c382612896565b600080600080600080600060e0888a0312156128e357600080fd5b6128ec88612896565b965060208801359550604088013567ffffffffffffffff8082111561291057600080fd5b61291c8b838c016125e0565b965060608a013591508082111561293257600080fd5b61293e8b838c016125e0565b955060808a013591508082111561295457600080fd5b6129608b838c016125e0565b945060a08a013591508082111561297657600080fd5b506129838a828b016125e0565b92505061299260c0890161275f565b905092959891949750929550565b600060208083018184528085518083526040925060408601915060408160051b87010184880160005b83811015612a9757888303603f19018552815180516001600160a01b031684528781015160e089860181905290612a02828701826124d0565b9150508782015185820389870152612a1a82826124d0565b91505060608083015186830382880152612a3483826124d0565b9250505060808083015186830382880152612a4f83826124d0565b9250505060a08083015186830382880152612a6a83826124d0565b9250505060c0808301519250612a838187018415159052565b5095880195935050908601906001016129c9565b509098975050505050505050565b600060208083018184528085518083526040925060408601915060408160051b87010184880160005b83811015612a9757888303603f190185528151805184528781015188850152868101516001600160a01b0381168886015261012090506060808301518282880152612b1b838801826124d0565b9250505060808083015186830382880152612b3683826124d0565b9250505060a08083015186830382880152612b5183826124d0565b9250505060c08083015186830382880152612b6c83826124d0565b9250505060e080830151612b838288018215159052565b50506101009182015194909101939093529386019390860190600101612ace565b600080600080600060a08688031215612bbc57600080fd5b853567ffffffffffffffff80821115612bd457600080fd5b612be089838a016125e0565b96506020880135915080821115612bf657600080fd5b612c0289838a016125e0565b95506040880135915080821115612c1857600080fd5b612c2489838a016125e0565b94506060880135915080821115612c3a57600080fd5b612c4689838a016125e0565b93506080880135915080821115612c5c57600080fd5b50612c69888289016125e0565b9150509295509295909350565b634e487b7160e01b600052603260045260246000fd5b600181811c90821680612ca057607f821691505b602082108103612cc057634e487b7160e01b600052602260045260246000fd5b50919050565b6000808354612cd481612c8c565b60018281168015612cec5760018114612d0157612d30565b60ff1984168752821515830287019450612d30565b8760005260208060002060005b85811015612d275781548a820152908401908201612d0e565b50505082870194505b50929695505050505050565b60008251612d4e8184602087016124ac565b9190910192915050565b6000602080835260008454612d6c81612c8c565b8060208701526040600180841660008114612d8e5760018114612daa57612dda565b60ff19851660408a0152604084151560051b8a01019550612dda565b89600052602060002060005b85811015612dd15781548b8201860152908301908801612db6565b8a016040019650505b509398975050505050505050565b601f821115612e34576000816000526020600020601f850160051c81016020861015612e115750805b601f850160051c820191505b81811015612e3057828155600101612e1d565b5050505b505050565b815167ffffffffffffffff811115612e5357612e536125ca565b612e6781612e618454612c8c565b84612de8565b602080601f831160018114612e9c5760008415612e845750858301515b600019600386901b1c1916600185901b178555612e30565b600085815260208120601f198616915b82811015612ecb57888601518255948401946001909101908401612eac565b5085821015612ee95787850151600019600388901b60f8161c191681555b5050505050600190811b01905550565b634e487b7160e01b600052601160045260246000fd5b600060018201612f2157612f21612ef9565b5060010190565b606081526000612f3b60608301866124d0565b8281036020840152612f4d81866124d0565b9150508215156040830152949350505050565b81810381811115612f7357612f73612ef9565b92915050565b604081526000612f8c60408301856124d0565b8281036020840152612f9e81856124d0565b95945050505050565b6020815260006125c360208301846124d0565b600082612fd757634e487b7160e01b600052601260045260246000fd5b50069056fea2646970667358221220f13875f5a62145070029ed857542dc65967536124a71d90f067c888fd75a252264736f6c63430008180033",
  "linkReferences": {},
  "deployedLinkReferences": {}
}