{
  "_format": "hh-sol-artifact-1",
  "contractName": "LicenseMarketplace",
  "sourceName": "contracts/LicenseMarketplace.sol",
  "abi": [
    {
      "inputs": [],
      "stateMutability": "nonpayable",
      "type": "constructor"
    },
    {
      "anonymous": false,
      "inputs": [
        {
          "indexed": true,
          "internalType": "address",
          "name": "owner",
          "type": "address"
        },
        {
          "indexed": true,
          "internalType": "address",
          "name": "buyer",
          "type": "address"
        },
        {
          "indexed": false,
          "internalType": "string",
          "name": "fileName",
          "type": "string"
        }
      ],
      "name": "FileLicense",
      "type": "event"
    },
    {
      "anonymous": false,
      "inputs": [
        {
          "indexed": true,
          "internalType": "address",
          "name": "owner",
          "type": "address"
        },
        {
          "indexed": false,
          "internalType": "string",
          "name": "fileName",
          "type": "string"
        }
      ],
      "name": "FileShared",
      "type": "event"
    },
    {
      "anonymous": false,
      "inputs": [
        {
          "indexed": true,
          "internalType": "uint256",
          "name": "requestId",
          "type": "uint256"
        },
        {
          "indexed": false,
          "internalType": "uint256",
          "name": "fileId",
          "type": "uint256"
        },
        {
          "indexed": false,
          "internalType": "address",
          "name": "requester",
          "type": "address"
        },
        {
          "indexed": false,
          "internalType": "address",
          "name": "fileOwner",
          "type": "address"
        }
      ],
      "name": "LicenseRequestApproved",
      "type": "event"
    },
    {
      "anonymous": false,
      "inputs": [
        {
          "indexed": true,
          "internalType": "uint256",
          "name": "requestId",
          "type": "uint256"
        },
        {
          "indexed": false,
          "internalType": "uint256",
          "name": "fileId",
          "type": "uint256"
        },
        {
          "indexed": false,
          "internalType": "address",
          "name": "requester",
          "type": "address"
        },
        {
          "indexed": false,
          "internalType": "address",
          "name": "fileOwner",
          "type": "address"
        }
      ],
      "name": "LicenseRequestCreated",
      "type": "event"
    },
    {
      "anonymous": false,
      "inputs": [
        {
          "indexed": true,
          "internalType": "uint256",
          "name": "requestId",
          "type": "uint256"
        },
        {
          "indexed": false,
          "internalType": "uint256",
          "name": "fileId",
          "type": "uint256"
        },
        {
          "indexed": false,
          "internalType": "address",
          "name": "requester",
          "type": "address"
        },
        {
          "indexed": false,
          "internalType": "address",
          "name": "fileOwner",
          "type": "address"
        }
      ],
      "name": "LicenseRequestRejected",
      "type": "event"
    },
    {
      "inputs": [
        {
          "internalType": "uint256",
          "name": "_requestId",
          "type": "uint256"
        }
      ],
      "name": "approveLicenseRequest",
      "outputs": [],
      "stateMutability": "nonpayable",
      "type": "function"
    },
    {
      "inputs": [
        {
          "internalType": "string",
          "name": "_fileName",
          "type": "string"
        },
        {
          "internalType": "string",
          "name": "_description",
          "type": "string"
        },
        {
          "internalType": "string",
          "name": "_category",
          "type": "string"
        },
        {
          "internalType": "string",
          "name": "_fileCid",
          "type": "string"
        },
        {
          "internalType": "uint256",
          "name": "_fileSize",
          "type": "uint256"
        },
        {
          "internalType": "string",
          "name": "_imgUrl",
          "type": "string"
        },
        {
          "internalType": "uint256",
          "name": "_price",
          "type": "uint256"
        }
      ],
      "name": "createFile",
      "outputs": [],
      "stateMutability": "nonpayable",
      "type": "function"
    },
    {
      "inputs": [],
      "name": "fileId",
      "outputs": [
        {
          "internalType": "uint256",
          "name": "",
          "type": "uint256"
        }
      ],
      "stateMutability": "view",
      "type": "function"
    },
    {
      "inputs": [],
      "name": "getAllUserFiles",
      "outputs": [
        {
          "components": [
            {
              "internalType": "uint256",
              "name": "id",
              "type": "uint256"
            },
            {
              "internalType": "address",
              "name": "fileOwner",
              "type": "address"
            },
            {
              "internalType": "string",
              "name": "fileName",
              "type": "string"
            },
            {
              "internalType": "string",
              "name": "description",
              "type": "string"
            },
            {
              "internalType": "string",
              "name": "category",
              "type": "string"
            },
            {
              "internalType": "string",
              "name": "fileCid",
              "type": "string"
            },
            {
              "internalType": "string",
              "name": "imgUrl",
              "type": "string"
            },
            {
              "internalType": "uint256",
              "name": "fileSize",
              "type": "uint256"
            },
            {
              "internalType": "uint256",
              "name": "createdAt",
              "type": "uint256"
            },
            {
              "internalType": "uint256",
              "name": "price",
              "type": "uint256"
            }
          ],
          "internalType": "struct LicenseMarketplace.File[]",
          "name": "",
          "type": "tuple[]"
        }
      ],
      "stateMutability": "view",
      "type": "function"
    },
    {
      "inputs": [],
      "name": "getAllUserLicenses",
      "outputs": [
        {
          "components": [
            {
              "internalType": "uint256",
              "name": "licenseNumber",
              "type": "uint256"
            },
            {
              "internalType": "uint256",
              "name": "fileId",
              "type": "uint256"
            },
            {
              "internalType": "address",
              "name": "fileOwner",
              "type": "address"
            },
            {
              "internalType": "address",
              "name": "buyer",
              "type": "address"
            },
            {
              "internalType": "string",
              "name": "fileName",
              "type": "string"
            },
            {
              "internalType": "string",
              "name": "description",
              "type": "string"
            },
            {
              "internalType": "string",
              "name": "category",
              "type": "string"
            },
            {
              "internalType": "string",
              "name": "fileCid",
              "type": "string"
            },
            {
              "internalType": "string",
              "name": "imgUrl",
              "type": "string"
            },
            {
              "internalType": "uint256",
              "name": "fileSize",
              "type": "uint256"
            },
            {
              "internalType": "uint256",
              "name": "createdAt",
              "type": "uint256"
            },
            {
              "internalType": "uint256",
              "name": "price",
              "type": "uint256"
            }
          ],
          "internalType": "struct LicenseMarketplace.License[]",
          "name": "",
          "type": "tuple[]"
        }
      ],
      "stateMutability": "view",
      "type": "function"
    },
    {
      "inputs": [],
      "name": "getFileId",
      "outputs": [
        {
          "internalType": "uint256",
          "name": "",
          "type": "uint256"
        }
      ],
      "stateMutability": "view",
      "type": "function"
    },
    {
      "inputs": [],
      "name": "getFileOwnerLicenseRequests",
      "outputs": [
        {
          "components": [
            {
              "internalType": "uint256",
              "name": "requestId",
              "type": "uint256"
            },
            {
              "internalType": "uint256",
              "name": "fileId",
              "type": "uint256"
            },
            {
              "internalType": "address",
              "name": "requester",
              "type": "address"
            },
            {
              "internalType": "address",
              "name": "fileOwner",
              "type": "address"
            },
            {
              "internalType": "bool",
              "name": "isApproved",
              "type": "bool"
            },
            {
              "internalType": "uint256",
              "name": "assetPrice",
              "type": "uint256"
            }
          ],
          "internalType": "struct LicenseMarketplace.LicenseRequest[]",
          "name": "",
          "type": "tuple[]"
        }
      ],
      "stateMutability": "view",
      "type": "function"
    },
    {
      "inputs": [],
      "name": "getFund",
      "outputs": [
        {
          "internalType": "uint256",
          "name": "",
          "type": "uint256"
        }
      ],
      "stateMutability": "view",
      "type": "function"
    },
    {
      "inputs": [
        {
          "internalType": "uint256",
          "name": "_id",
          "type": "uint256"
        }
      ],
      "name": "getPublicFileById",
      "outputs": [
        {
          "components": [
            {
              "internalType": "uint256",
              "name": "id",
              "type": "uint256"
            },
            {
              "internalType": "address",
              "name": "fileOwner",
              "type": "address"
            },
            {
              "internalType": "string",
              "name": "fileName",
              "type": "string"
            },
            {
              "internalType": "string",
              "name": "description",
              "type": "string"
            },
            {
              "internalType": "string",
              "name": "category",
              "type": "string"
            },
            {
              "internalType": "string",
              "name": "fileCid",
              "type": "string"
            },
            {
              "internalType": "string",
              "name": "imgUrl",
              "type": "string"
            },
            {
              "internalType": "uint256",
              "name": "fileSize",
              "type": "uint256"
            },
            {
              "internalType": "uint256",
              "name": "createdAt",
              "type": "uint256"
            },
            {
              "internalType": "uint256",
              "name": "price",
              "type": "uint256"
            }
          ],
          "internalType": "struct LicenseMarketplace.File",
          "name": "",
          "type": "tuple"
        }
      ],
      "stateMutability": "view",
      "type": "function"
    },
    {
      "inputs": [],
      "name": "getPublicFiles",
      "outputs": [
        {
          "components": [
            {
              "internalType": "uint256",
              "name": "id",
              "type": "uint256"
            },
            {
              "internalType": "address",
              "name": "fileOwner",
              "type": "address"
            },
            {
              "internalType": "string",
              "name": "fileName",
              "type": "string"
            },
            {
              "internalType": "string",
              "name": "description",
              "type": "string"
            },
            {
              "internalType": "string",
              "name": "category",
              "type": "string"
            },
            {
              "internalType": "string",
              "name": "fileCid",
              "type": "string"
            },
            {
              "internalType": "string",
              "name": "imgUrl",
              "type": "string"
            },
            {
              "internalType": "uint256",
              "name": "fileSize",
              "type": "uint256"
            },
            {
              "internalType": "uint256",
              "name": "createdAt",
              "type": "uint256"
            },
            {
              "internalType": "uint256",
              "name": "price",
              "type": "uint256"
            }
          ],
          "internalType": "struct LicenseMarketplace.File[]",
          "name": "",
          "type": "tuple[]"
        }
      ],
      "stateMutability": "view",
      "type": "function"
    },
    {
      "inputs": [],
      "name": "getUserLicenseRequests",
      "outputs": [
        {
          "components": [
            {
              "internalType": "uint256",
              "name": "requestId",
              "type": "uint256"
            },
            {
              "internalType": "uint256",
              "name": "fileId",
              "type": "uint256"
            },
            {
              "internalType": "address",
              "name": "requester",
              "type": "address"
            },
            {
              "internalType": "address",
              "name": "fileOwner",
              "type": "address"
            },
            {
              "internalType": "bool",
              "name": "isApproved",
              "type": "bool"
            },
            {
              "internalType": "uint256",
              "name": "assetPrice",
              "type": "uint256"
            }
          ],
          "internalType": "struct LicenseMarketplace.LicenseRequest[]",
          "name": "",
          "type": "tuple[]"
        }
      ],
      "stateMutability": "view",
      "type": "function"
    },
    {
      "inputs": [],
      "name": "getWithdrawableFund",
      "outputs": [
        {
          "internalType": "uint256",
          "name": "",
          "type": "uint256"
        }
      ],
      "stateMutability": "view",
      "type": "function"
    },
    {
      "inputs": [
        {
          "internalType": "address",
          "name": "_user",
          "type": "address"
        },
        {
          "internalType": "uint256",
          "name": "_fileId",
          "type": "uint256"
        }
      ],
      "name": "isFileOwnedOrLicensed",
      "outputs": [
        {
          "internalType": "bool",
          "name": "",
          "type": "bool"
        }
      ],
      "stateMutability": "view",
      "type": "function"
    },
    {
      "inputs": [],
      "name": "owner",
      "outputs": [
        {
          "internalType": "address",
          "name": "",
          "type": "address"
        }
      ],
      "stateMutability": "view",
      "type": "function"
    },
    {
      "inputs": [
        {
          "internalType": "uint256",
          "name": "",
          "type": "uint256"
        }
      ],
      "name": "publicFiles",
      "outputs": [
        {
          "internalType": "uint256",
          "name": "id",
          "type": "uint256"
        },
        {
          "internalType": "address",
          "name": "fileOwner",
          "type": "address"
        },
        {
          "internalType": "string",
          "name": "fileName",
          "type": "string"
        },
        {
          "internalType": "string",
          "name": "description",
          "type": "string"
        },
        {
          "internalType": "string",
          "name": "category",
          "type": "string"
        },
        {
          "internalType": "string",
          "name": "fileCid",
          "type": "string"
        },
        {
          "internalType": "string",
          "name": "imgUrl",
          "type": "string"
        },
        {
          "internalType": "uint256",
          "name": "fileSize",
          "type": "uint256"
        },
        {
          "internalType": "uint256",
          "name": "createdAt",
          "type": "uint256"
        },
        {
          "internalType": "uint256",
          "name": "price",
          "type": "uint256"
        }
      ],
      "stateMutability": "view",
      "type": "function"
    },
    {
      "inputs": [
        {
          "internalType": "uint256",
          "name": "_requestId",
          "type": "uint256"
        }
      ],
      "name": "rejectLicenseRequest",
      "outputs": [],
      "stateMutability": "nonpayable",
      "type": "function"
    },
    {
      "inputs": [],
      "name": "requestId",
      "outputs": [
        {
          "internalType": "uint256",
          "name": "",
          "type": "uint256"
        }
      ],
      "stateMutability": "view",
      "type": "function"
    },
    {
      "inputs": [
        {
          "internalType": "uint256",
          "name": "_fileId",
          "type": "uint256"
        },
        {
          "internalType": "address",
          "name": "_fileOwner",
          "type": "address"
        },
        {
          "internalType": "uint256",
          "name": "_assetPrice",
          "type": "uint256"
        }
      ],
      "name": "requestLicense",
      "outputs": [],
      "stateMutability": "payable",
      "type": "function"
    },
    {
      "inputs": [
        {
          "internalType": "uint256",
          "name": "",
          "type": "uint256"
        }
      ],
      "name": "usedLicenses",
      "outputs": [
        {
          "internalType": "bool",
          "name": "",
          "type": "bool"
        }
      ],
      "stateMutability": "view",
      "type": "function"
    },
    {
      "inputs": [
        {
          "internalType": "uint256",
          "name": "licenseNumber",
          "type": "uint256"
        }
      ],
      "name": "validateLicense",
      "outputs": [
        {
          "internalType": "bool",
          "name": "",
          "type": "bool"
        }
      ],
      "stateMutability": "view",
      "type": "function"
    },
    {
      "inputs": [],
      "name": "withdrawFund",
      "outputs": [],
      "stateMutability": "nonpayable",
      "type": "function"
    }
  ],
  "bytecode": "0x608060405234801561001057600080fd5b50600080546001600160a01b03191633179055612e8c806100326000396000f3fe6080604052600436106101275760003560e01c80638da5cb5b116100ab578063b448bb2d1161006f578063b448bb2d14610357578063b98e644d14610377578063c3ba2cd914610399578063db58b57f146103ae578063e07fa3c1146103ce578063e399e268146103e357600080fd5b80638da5cb5b146102a85780638edd6eb6146102e0578063a5bcf14a14610302578063a6b9bcf614610322578063a764b9cd1461033757600080fd5b80634506708e116100f25780634506708e146101d75780635f70a8fe1461020d578063641b66e41461024d578063787a37b9146102635780638882898c1461029357600080fd5b806183631461012c5780626d6cae1461015d5780630cc6f1a21461017357806337ef9440146101a057806340187599146101c2575b600080fd5b34801561013857600080fd5b50336000908152600660205260409020545b6040519081526020015b60405180910390f35b34801561016957600080fd5b5061014a60095481565b34801561017f57600080fd5b5061019361018e366004612656565b610405565b6040516101549190612784565b3480156101ac57600080fd5b506101b5610850565b604051610154919061279e565b3480156101ce57600080fd5b5061014a6109dd565b3480156101e357600080fd5b506101f76101f2366004612656565b6109f3565b6040516101549a99989796959493929190612826565b34801561021957600080fd5b5061023d610228366004612656565b60009081526004602052604090205460ff1690565b6040519015158152602001610154565b34801561025957600080fd5b5061014a60085481565b34801561026f57600080fd5b5061023d61027e366004612656565b60046020526000908152604090205460ff1681565b6102a66102a13660046128e2565b610d06565b005b3480156102b457600080fd5b506000546102c8906001600160a01b031681565b6040516001600160a01b039091168152602001610154565b3480156102ec57600080fd5b503360009081526005602052604090205461014a565b34801561030e57600080fd5b506102a661031d3660046129ba565b610ee2565b34801561032e57600080fd5b506101b5611196565b34801561034357600080fd5b506102a6610352366004612656565b61131c565b34801561036357600080fd5b506102a6610372366004612656565b6116af565b34801561038357600080fd5b5061038c611889565b6040516101549190612a9f565b3480156103a557600080fd5b5061038c611c01565b3480156103ba57600080fd5b5061023d6103c9366004612b03565b611f7b565b3480156103da57600080fd5b506102a661207b565b3480156103ef57600080fd5b506103f86120ec565b6040516101549190612b2d565b6104646040518061014001604052806000815260200160006001600160a01b0316815260200160608152602001606081526020016060815260200160608152602001606081526020016000815260200160008152602001600081525090565b60005b60075481101561080a57826007828154811061048557610485612c6c565b90600052602060002090600a0201600001540361080257600781815481106104af576104af612c6c565b90600052602060002090600a020160405180610140016040529081600082015481526020016001820160009054906101000a90046001600160a01b03166001600160a01b03166001600160a01b0316815260200160028201805461051290612c82565b80601f016020809104026020016040519081016040528092919081815260200182805461053e90612c82565b801561058b5780601f106105605761010080835404028352916020019161058b565b820191906000526020600020905b81548152906001019060200180831161056e57829003601f168201915b505050505081526020016003820180546105a490612c82565b80601f01602080910402602001604051908101604052809291908181526020018280546105d090612c82565b801561061d5780601f106105f25761010080835404028352916020019161061d565b820191906000526020600020905b81548152906001019060200180831161060057829003601f168201915b5050505050815260200160048201805461063690612c82565b80601f016020809104026020016040519081016040528092919081815260200182805461066290612c82565b80156106af5780601f10610684576101008083540402835291602001916106af565b820191906000526020600020905b81548152906001019060200180831161069257829003601f168201915b505050505081526020016005820180546106c890612c82565b80601f01602080910402602001604051908101604052809291908181526020018280546106f490612c82565b80156107415780601f1061071657610100808354040283529160200191610741565b820191906000526020600020905b81548152906001019060200180831161072457829003601f168201915b5050505050815260200160068201805461075a90612c82565b80601f016020809104026020016040519081016040528092919081815260200182805461078690612c82565b80156107d35780601f106107a8576101008083540402835291602001916107d3565b820191906000526020600020905b8154815290600101906020018083116107b657829003601f168201915b505050505081526020016007820154815260200160088201548152602001600982015481525050915050919050565b600101610467565b5060405162461bcd60e51b8152602060048201526015602482015274141d589b1a58c8199a5b19481b9bdd08199bdd5b99605a1b60448201526064015b60405180910390fd5b6060600060015b60095481116108a357600081815260036020526040902060020154336001600160a01b0390911603610891578161088d81612cd2565b9250505b8061089b81612cd2565b915050610857565b5060008167ffffffffffffffff8111156108bf576108bf612917565b6040519080825280602002602001820160405280156108f857816020015b6108e561260c565b8152602001906001900390816108dd5790505b509050600060015b60095481116109d457600081815260036020526040902060020154336001600160a01b03909116036109c257600081815260036020818152604092839020835160c0810185528154815260018201549281019290925260028101546001600160a01b0390811694830194909452918201549283166060820152600160a01b90920460ff16151560808301526004015460a082015283518490849081106109a8576109a8612c6c565b602002602001018190525081806109be90612cd2565b9250505b806109cc81612cd2565b915050610900565b50909392505050565b600060085460016109ee9190612ceb565b905090565b60078181548110610a0357600080fd5b60009182526020909120600a90910201805460018201546002830180549294506001600160a01b039091169291610a3990612c82565b80601f0160208091040260200160405190810160405280929190818152602001828054610a6590612c82565b8015610ab25780601f10610a8757610100808354040283529160200191610ab2565b820191906000526020600020905b815481529060010190602001808311610a9557829003601f168201915b505050505090806003018054610ac790612c82565b80601f0160208091040260200160405190810160405280929190818152602001828054610af390612c82565b8015610b405780601f10610b1557610100808354040283529160200191610b40565b820191906000526020600020905b815481529060010190602001808311610b2357829003601f168201915b505050505090806004018054610b5590612c82565b80601f0160208091040260200160405190810160405280929190818152602001828054610b8190612c82565b8015610bce5780601f10610ba357610100808354040283529160200191610bce565b820191906000526020600020905b815481529060010190602001808311610bb157829003601f168201915b505050505090806005018054610be390612c82565b80601f0160208091040260200160405190810160405280929190818152602001828054610c0f90612c82565b8015610c5c5780601f10610c3157610100808354040283529160200191610c5c565b820191906000526020600020905b815481529060010190602001808311610c3f57829003601f168201915b505050505090806006018054610c7190612c82565b80601f0160208091040260200160405190810160405280929190818152602001828054610c9d90612c82565b8015610cea5780601f10610cbf57610100808354040283529160200191610cea565b820191906000526020600020905b815481529060010190602001808311610ccd57829003601f168201915b505050505090806007015490806008015490806009015490508a565b610d103384611f7b565b15610d765760405162461bcd60e51b815260206004820152603060248201527f5573657220616c7265616479206f776e73206f72206861732061206c6963656e60448201526f736520666f7220746869732066696c6560801b6064820152608401610847565b803414610db55760405162461bcd60e51b815260206004820152600d60248201526c141c9a58d9481b9bdd081b595d609a1b6044820152606401610847565b60098054906000610dc583612cd2565b90915550506040805160c0810182526009548082526020808301878152338486019081526001600160a01b038881166060870181815260006080890181815260a08a018c815298825260038089528b83208b5181559751600189015595516002880180549187166001600160a01b03199092169190911790559151948601805492511515600160a01b026001600160a81b0319909316959094169490941717909155935160049092019190915591825260059052918220805491923492610e8d908490612ceb565b9091555050600954604080518681523360208201526001600160a01b0386168183015290517f3563c2ab88374e4253e716e489b51ed99c61edfecc313080b65cb94efb16b3aa9181900360600190a250505050565b60088054906000610ef283612cd2565b9091555050604080516101408101825260085481523360208083018281528385018c8152606085018c9052608085018b905260a085018a905260c0850188905260e085018990524261010086015261012085018790526000938452600180845295842080548088018255908552929093208451600a909302019182555193810180546001600160a01b0319166001600160a01b039095169490941790935551909182916002820190610fa49082612d4e565b5060608201516003820190610fb99082612d4e565b5060808201516004820190610fce9082612d4e565b5060a08201516005820190610fe39082612d4e565b5060c08201516006820190610ff89082612d4e565b5060e0820151600782810191909155610100830151600883015561012090920151600990910155805460018101825560009190915281517fa66cc928b5edb82af9bd49922954155ab7b0942694bea4ce44661d9a8736c688600a90920291820190815560208301517fa66cc928b5edb82af9bd49922954155ab7b0942694bea4ce44661d9a8736c689830180546001600160a01b0319166001600160a01b03909216919091179055604083015183927fa66cc928b5edb82af9bd49922954155ab7b0942694bea4ce44661d9a8736c68a01906110d49082612d4e565b50606082015160038201906110e99082612d4e565b50608082015160048201906110fe9082612d4e565b5060a082015160058201906111139082612d4e565b5060c082015160068201906111289082612d4e565b5060e08201518160070155610100820151816008015561012082015181600901555050336001600160a01b03167f0e03c7e37ad39057585e52c6e4f117a61225036a88a2ada7f870a6b994a1bc21896040516111849190612e0e565b60405180910390a25050505050505050565b6060600060015b60095481116111ea5760008181526003602081905260409091200154336001600160a01b03909116036111d857816111d481612cd2565b9250505b806111e281612cd2565b91505061119d565b5060008167ffffffffffffffff81111561120657611206612917565b60405190808252806020026020018201604052801561123f57816020015b61122c61260c565b8152602001906001900390816112245790505b509050600060015b60095481116109d45760008181526003602081905260409091200154336001600160a01b039091160361130a57600081815260036020818152604092839020835160c0810185528154815260018201549281019290925260028101546001600160a01b0390811694830194909452918201549283166060820152600160a01b90920460ff16151560808301526004015460a082015283518490849081106112f0576112f0612c6c565b6020026020010181905250818061130690612cd2565b9250505b8061131481612cd2565b915050611247565b6000818152600360208190526040909120908101546001600160a01b0316331461139c5760405162461bcd60e51b815260206004820152602b60248201527f4f6e6c79207468652066696c65206f776e65722063616e20617070726f76652060448201526a1d1a19481c995c5d595cdd60aa1b6064820152608401610847565b6003810154600160a01b900460ff16156113f35760405162461bcd60e51b815260206004820152601860248201527714995c5d595cdd08185b1c9958591e48185c1c1c9bdd995960421b6044820152606401610847565b60038101805460ff60a01b1916600160a01b179055600181015460009061141990610405565b90506000611425612481565b604080516101808101825282815284516020808301918252808701516001600160a01b0390811684860190815260028a810154831660608088018281528c8a01516080808b01918252928e015160a0808c0191909152928e015160c0808c0191909152928e015160e0808c0191909152928e01516101008b0152918d0151610120808b0191909152426101408b01528d01516101608a01526000928352838752988220805460018082018355918452969092208851600c90970201958655955190850155905190830180546001600160a01b031990811692841692909217905594516003830180549096169116179093555192935091829190600482019061152d9082612d4e565b5060a082015160058201906115429082612d4e565b5060c082015160068201906115579082612d4e565b5060e0820151600782019061156c9082612d4e565b5061010082015160088201906115829082612d4e565b50610120828101516009830155610140830151600a83015561016090920151600b9091015583015133600090815260056020526040812080549091906115c9908490612e21565b909155505061012083015133600090815260066020526040812080549091906115f3908490612ceb565b90915550506002840154602084015160408086015190516001600160a01b0393841693909216917f36b71a34b45297c2eddbb6d8a95b9703618f6300d0676fa891c58bcdaa90dbb39161164591612e0e565b60405180910390a3600184015460028501546003860154604080519384526001600160a01b03928316602085015291169082015285907f6e12100d9a45da1a9e96a9fc000ff4db7bfc27cc43fdf07dab275b581483fb499060600160405180910390a25050505050565b6000818152600360208190526040909120908101546001600160a01b0316331461172e5760405162461bcd60e51b815260206004820152602a60248201527f4f6e6c79207468652066696c65206f776e65722063616e2072656a65637420746044820152691a19481c995c5d595cdd60b21b6064820152608401610847565b6003810154600160a01b900460ff16156117855760405162461bcd60e51b815260206004820152601860248201527714995c5d595cdd08185b1c9958591e48185c1c1c9bdd995960421b6044820152606401610847565b600481015460028201546001600160a01b0316600090815260066020526040812080549091906117b6908490612ceb565b9091555050600481015433600090815260056020526040812080549091906117df908490612e21565b909155505060008281526003602081815260408084208481556001808201869055600280830180546001600160a01b031916905582860180546001600160a81b031916905560049092019590955593850154938501549285015481519485526001600160a01b039384169285019290925291169082015282907f23bc048e2726b66e4b6df842e8940378c39ead4ceeeabbbe237bd71caf10603b9060600160405180910390a25050565b60606007805480602002602001604051908101604052809291908181526020016000905b82821015611bf85760008481526020908190206040805161014081018252600a86029092018054835260018101546001600160a01b0316938301939093526002830180549293929184019161190190612c82565b80601f016020809104026020016040519081016040528092919081815260200182805461192d90612c82565b801561197a5780601f1061194f5761010080835404028352916020019161197a565b820191906000526020600020905b81548152906001019060200180831161195d57829003601f168201915b5050505050815260200160038201805461199390612c82565b80601f01602080910402602001604051908101604052809291908181526020018280546119bf90612c82565b8015611a0c5780601f106119e157610100808354040283529160200191611a0c565b820191906000526020600020905b8154815290600101906020018083116119ef57829003601f168201915b50505050508152602001600482018054611a2590612c82565b80601f0160208091040260200160405190810160405280929190818152602001828054611a5190612c82565b8015611a9e5780601f10611a7357610100808354040283529160200191611a9e565b820191906000526020600020905b815481529060010190602001808311611a8157829003601f168201915b50505050508152602001600582018054611ab790612c82565b80601f0160208091040260200160405190810160405280929190818152602001828054611ae390612c82565b8015611b305780601f10611b0557610100808354040283529160200191611b30565b820191906000526020600020905b815481529060010190602001808311611b1357829003601f168201915b50505050508152602001600682018054611b4990612c82565b80601f0160208091040260200160405190810160405280929190818152602001828054611b7590612c82565b8015611bc25780601f10611b9757610100808354040283529160200191611bc2565b820191906000526020600020905b815481529060010190602001808311611ba557829003601f168201915b505050505081526020016007820154815260200160088201548152602001600982015481525050815260200190600101906118ad565b50505050905090565b336000908152600160209081526040808320805482518185028101850190935280835260609492939192909184015b82821015611bf85760008481526020908190206040805161014081018252600a86029092018054835260018101546001600160a01b03169383019390935260028301805492939291840191611c8490612c82565b80601f0160208091040260200160405190810160405280929190818152602001828054611cb090612c82565b8015611cfd5780601f10611cd257610100808354040283529160200191611cfd565b820191906000526020600020905b815481529060010190602001808311611ce057829003601f168201915b50505050508152602001600382018054611d1690612c82565b80601f0160208091040260200160405190810160405280929190818152602001828054611d4290612c82565b8015611d8f5780601f10611d6457610100808354040283529160200191611d8f565b820191906000526020600020905b815481529060010190602001808311611d7257829003601f168201915b50505050508152602001600482018054611da890612c82565b80601f0160208091040260200160405190810160405280929190818152602001828054611dd490612c82565b8015611e215780601f10611df657610100808354040283529160200191611e21565b820191906000526020600020905b815481529060010190602001808311611e0457829003601f168201915b50505050508152602001600582018054611e3a90612c82565b80601f0160208091040260200160405190810160405280929190818152602001828054611e6690612c82565b8015611eb35780601f10611e8857610100808354040283529160200191611eb3565b820191906000526020600020905b815481529060010190602001808311611e9657829003601f168201915b50505050508152602001600682018054611ecc90612c82565b80601f0160208091040260200160405190810160405280929190818152602001828054611ef890612c82565b8015611f455780601f10611f1a57610100808354040283529160200191611f45565b820191906000526020600020905b815481529060010190602001808311611f2857829003601f168201915b50505050508152602001600782015481526020016008820154815260200160098201548152505081526020019060010190611c30565b6000805b6001600160a01b038416600090815260016020526040902054811015611ff5576001600160a01b0384166000908152600160205260409020805484919083908110611fcc57611fcc612c6c565b90600052602060002090600a02016000015403611fed576001915050612075565b600101611f7f565b5060005b6001600160a01b03841660009081526002602052604090205481101561206f576001600160a01b038416600090815260026020526040902080548491908390811061204657612046612c6c565b90600052602060002090600c02016001015403612067576001915050612075565b600101611ff9565b50600090505b92915050565b33600090815260066020526040902054806120cf5760405162461bcd60e51b81526020600482015260146024820152734e6f2066756e647320746f20776974686472617760601b6044820152606401610847565b336000818152600660205260408120556120e9908261256d565b50565b336000908152600260209081526040808320805482518185028101850190935280835260609492939192909184015b82821015611bf85760008481526020908190206040805161018081018252600c86029092018054835260018101549383019390935260028301546001600160a01b0390811691830191909152600383015416606082015260048201805491929160808401919061218a90612c82565b80601f01602080910402602001604051908101604052809291908181526020018280546121b690612c82565b80156122035780601f106121d857610100808354040283529160200191612203565b820191906000526020600020905b8154815290600101906020018083116121e657829003601f168201915b5050505050815260200160058201805461221c90612c82565b80601f016020809104026020016040519081016040528092919081815260200182805461224890612c82565b80156122955780601f1061226a57610100808354040283529160200191612295565b820191906000526020600020905b81548152906001019060200180831161227857829003601f168201915b505050505081526020016006820180546122ae90612c82565b80601f01602080910402602001604051908101604052809291908181526020018280546122da90612c82565b80156123275780601f106122fc57610100808354040283529160200191612327565b820191906000526020600020905b81548152906001019060200180831161230a57829003601f168201915b5050505050815260200160078201805461234090612c82565b80601f016020809104026020016040519081016040528092919081815260200182805461236c90612c82565b80156123b95780601f1061238e576101008083540402835291602001916123b9565b820191906000526020600020905b81548152906001019060200180831161239c57829003601f168201915b505050505081526020016008820180546123d290612c82565b80601f01602080910402602001604051908101604052809291908181526020018280546123fe90612c82565b801561244b5780601f106124205761010080835404028352916020019161244b565b820191906000526020600020905b81548152906001019060200180831161242e57829003601f168201915b5050505050815260200160098201548152602001600a8201548152602001600b820154815250508152602001906001019061211b565b600080424340336040516020016124bd93929190928352602083019190915260601b6bffffffffffffffffffffffff1916604082015260540190565b60408051601f198184030181529190528051602090910120905060006124e86402540be40083612e34565b90505b60008181526004602052604090205460ff161561254e57814260405160200161251e929190918252602082015260400190565b60408051601f19818403018152919052805160209091012091506125476402540be40083612e34565b90506124eb565b6000818152600460205260409020805460ff1916600117905592915050565b6000826001600160a01b03168260405160006040518083038185875af1925050503d80600081146125ba576040519150601f19603f3d011682016040523d82523d6000602084013e6125bf565b606091505b50509050806126075760405162461bcd60e51b8152602060048201526014602482015273151c985b9cd9995c88199d5b990819985a5b195960621b6044820152606401610847565b505050565b6040518060c00160405280600081526020016000815260200160006001600160a01b0316815260200160006001600160a01b03168152602001600015158152602001600081525090565b60006020828403121561266857600080fd5b5035919050565b6000815180845260005b8181101561269557602081850181015186830182015201612679565b506000602082860101526020601f19601f83011685010191505092915050565b60006101408251845260208301516126d860208601826001600160a01b03169052565b5060408301518160408601526126f08286018261266f565b9150506060830151848203606086015261270a828261266f565b91505060808301518482036080860152612724828261266f565b91505060a083015184820360a086015261273e828261266f565b91505060c083015184820360c0860152612758828261266f565b60e085810151908701526101008086015190870152610120948501519490950193909352509192915050565b60208152600061279760208301846126b5565b9392505050565b602080825282518282018190526000919060409081850190868401855b82811015612819578151805185528681015187860152858101516001600160a01b03908116878701526060808301519091169086015260808082015115159086015260a0908101519085015260c090930192908501906001016127bb565b5091979650505050505050565b8a81526001600160a01b038a166020820152610140604082018190526000906128518382018c61266f565b90508281036060840152612865818b61266f565b90508281036080840152612879818a61266f565b905082810360a084015261288d818961266f565b905082810360c08401526128a1818861266f565b60e0840196909652505061010081019290925261012090910152979650505050505050565b80356001600160a01b03811681146128dd57600080fd5b919050565b6000806000606084860312156128f757600080fd5b83359250612907602085016128c6565b9150604084013590509250925092565b634e487b7160e01b600052604160045260246000fd5b600082601f83011261293e57600080fd5b813567ffffffffffffffff8082111561295957612959612917565b604051601f8301601f19908116603f0116810190828211818310171561298157612981612917565b8160405283815286602085880101111561299a57600080fd5b836020870160208301376000602085830101528094505050505092915050565b600080600080600080600060e0888a0312156129d557600080fd5b873567ffffffffffffffff808211156129ed57600080fd5b6129f98b838c0161292d565b985060208a0135915080821115612a0f57600080fd5b612a1b8b838c0161292d565b975060408a0135915080821115612a3157600080fd5b612a3d8b838c0161292d565b965060608a0135915080821115612a5357600080fd5b612a5f8b838c0161292d565b955060808a0135945060a08a0135915080821115612a7c57600080fd5b50612a898a828b0161292d565b92505060c0880135905092959891949750929550565b600060208083016020845280855180835260408601915060408160051b87010192506020870160005b82811015612af657603f19888603018452612ae48583516126b5565b94509285019290850190600101612ac8565b5092979650505050505050565b60008060408385031215612b1657600080fd5b612b1f836128c6565b946020939093013593505050565b600060208083018184528085518083526040925060408601915060408160051b87010184880160005b83811015612c5e57888303603f190185528151805184528781015188850152868101516001600160a01b0381168886015261018090506060828101516001600160a01b0381168783015250506080808301518282880152612bb98388018261266f565b9250505060a08083015186830382880152612bd4838261266f565b9250505060c08083015186830382880152612bef838261266f565b9250505060e08083015186830382880152612c0a838261266f565b925050506101008083015186830382880152612c26838261266f565b610120858101519089015261014080860151908901526101609485015194909701939093525050509386019390860190600101612b56565b509098975050505050505050565b634e487b7160e01b600052603260045260246000fd5b600181811c90821680612c9657607f821691505b602082108103612cb657634e487b7160e01b600052602260045260246000fd5b50919050565b634e487b7160e01b600052601160045260246000fd5b600060018201612ce457612ce4612cbc565b5060010190565b8082018082111561207557612075612cbc565b601f821115612607576000816000526020600020601f850160051c81016020861015612d275750805b601f850160051c820191505b81811015612d4657828155600101612d33565b505050505050565b815167ffffffffffffffff811115612d6857612d68612917565b612d7c81612d768454612c82565b84612cfe565b602080601f831160018114612db15760008415612d995750858301515b600019600386901b1c1916600185901b178555612d46565b600085815260208120601f198616915b82811015612de057888601518255948401946001909101908401612dc1565b5085821015612dfe5787850151600019600388901b60f8161c191681555b5050505050600190811b01905550565b602081526000612797602083018461266f565b8181038181111561207557612075612cbc565b600082612e5157634e487b7160e01b600052601260045260246000fd5b50069056fea26469706673582212205b46982c82fb681704c5df74e0234f676d06038d36967210d0646f74f369013064736f6c63430008180033",
  "linkReferences": {},
  "deployedLinkReferences": {}
}