{
  "_format": "hh-sol-artifact-1",
  "contractName": "LicenseMarketplace",
  "sourceName": "contracts/LicenseMarketplace.sol",
  "abi": [
    {
      "inputs": [],
      "stateMutability": "nonpayable",
      "type": "constructor"
    },
    {
      "anonymous": false,
      "inputs": [
        {
          "indexed": true,
          "internalType": "address",
          "name": "owner",
          "type": "address"
        },
        {
          "indexed": true,
          "internalType": "address",
          "name": "buyer",
          "type": "address"
        },
        {
          "indexed": false,
          "internalType": "string",
          "name": "fileName",
          "type": "string"
        }
      ],
      "name": "FileLicense",
      "type": "event"
    },
    {
      "anonymous": false,
      "inputs": [
        {
          "indexed": true,
          "internalType": "address",
          "name": "owner",
          "type": "address"
        },
        {
          "indexed": false,
          "internalType": "string",
          "name": "fileName",
          "type": "string"
        }
      ],
      "name": "FileShared",
      "type": "event"
    },
    {
      "anonymous": false,
      "inputs": [
        {
          "indexed": true,
          "internalType": "uint256",
          "name": "requestId",
          "type": "uint256"
        },
        {
          "indexed": false,
          "internalType": "uint256",
          "name": "fileId",
          "type": "uint256"
        },
        {
          "indexed": false,
          "internalType": "address",
          "name": "requester",
          "type": "address"
        },
        {
          "indexed": false,
          "internalType": "address",
          "name": "fileOwner",
          "type": "address"
        }
      ],
      "name": "LicenseRequestApproved",
      "type": "event"
    },
    {
      "anonymous": false,
      "inputs": [
        {
          "indexed": true,
          "internalType": "uint256",
          "name": "requestId",
          "type": "uint256"
        },
        {
          "indexed": false,
          "internalType": "uint256",
          "name": "fileId",
          "type": "uint256"
        },
        {
          "indexed": false,
          "internalType": "address",
          "name": "requester",
          "type": "address"
        },
        {
          "indexed": false,
          "internalType": "address",
          "name": "fileOwner",
          "type": "address"
        }
      ],
      "name": "LicenseRequestCreated",
      "type": "event"
    },
    {
      "anonymous": false,
      "inputs": [
        {
          "indexed": true,
          "internalType": "uint256",
          "name": "requestId",
          "type": "uint256"
        },
        {
          "indexed": false,
          "internalType": "uint256",
          "name": "fileId",
          "type": "uint256"
        },
        {
          "indexed": false,
          "internalType": "address",
          "name": "requester",
          "type": "address"
        },
        {
          "indexed": false,
          "internalType": "address",
          "name": "fileOwner",
          "type": "address"
        }
      ],
      "name": "LicenseRequestRejected",
      "type": "event"
    },
    {
      "inputs": [
        {
          "internalType": "uint256",
          "name": "_requestId",
          "type": "uint256"
        }
      ],
      "name": "approveLicenseRequest",
      "outputs": [],
      "stateMutability": "nonpayable",
      "type": "function"
    },
    {
      "inputs": [
        {
          "internalType": "string",
          "name": "_fileName",
          "type": "string"
        },
        {
          "internalType": "string",
          "name": "_description",
          "type": "string"
        },
        {
          "internalType": "string",
          "name": "_category",
          "type": "string"
        },
        {
          "internalType": "string",
          "name": "_fileCid",
          "type": "string"
        },
        {
          "internalType": "uint256",
          "name": "_fileSize",
          "type": "uint256"
        }
      ],
      "name": "createFile",
      "outputs": [],
      "stateMutability": "nonpayable",
      "type": "function"
    },
    {
      "inputs": [],
      "name": "fileId",
      "outputs": [
        {
          "internalType": "uint256",
          "name": "",
          "type": "uint256"
        }
      ],
      "stateMutability": "view",
      "type": "function"
    },
    {
      "inputs": [],
      "name": "getAllPublicFiles",
      "outputs": [
        {
          "components": [
            {
              "internalType": "uint256",
              "name": "id",
              "type": "uint256"
            },
            {
              "internalType": "address",
              "name": "fileOwner",
              "type": "address"
            },
            {
              "internalType": "string",
              "name": "fileName",
              "type": "string"
            },
            {
              "internalType": "string",
              "name": "description",
              "type": "string"
            },
            {
              "internalType": "string",
              "name": "category",
              "type": "string"
            },
            {
              "internalType": "string",
              "name": "fileCid",
              "type": "string"
            },
            {
              "internalType": "uint256",
              "name": "fileSize",
              "type": "uint256"
            },
            {
              "internalType": "uint256",
              "name": "createdAt",
              "type": "uint256"
            }
          ],
          "internalType": "struct LicenseMarketplace.File[]",
          "name": "",
          "type": "tuple[]"
        }
      ],
      "stateMutability": "view",
      "type": "function"
    },
    {
      "inputs": [],
      "name": "getAllUserFiles",
      "outputs": [
        {
          "components": [
            {
              "internalType": "uint256",
              "name": "id",
              "type": "uint256"
            },
            {
              "internalType": "address",
              "name": "fileOwner",
              "type": "address"
            },
            {
              "internalType": "string",
              "name": "fileName",
              "type": "string"
            },
            {
              "internalType": "string",
              "name": "description",
              "type": "string"
            },
            {
              "internalType": "string",
              "name": "category",
              "type": "string"
            },
            {
              "internalType": "string",
              "name": "fileCid",
              "type": "string"
            },
            {
              "internalType": "uint256",
              "name": "fileSize",
              "type": "uint256"
            },
            {
              "internalType": "uint256",
              "name": "createdAt",
              "type": "uint256"
            }
          ],
          "internalType": "struct LicenseMarketplace.File[]",
          "name": "",
          "type": "tuple[]"
        }
      ],
      "stateMutability": "view",
      "type": "function"
    },
    {
      "inputs": [],
      "name": "getAllUserLicenses",
      "outputs": [
        {
          "components": [
            {
              "internalType": "uint256",
              "name": "licenseNumber",
              "type": "uint256"
            },
            {
              "internalType": "uint256",
              "name": "fileId",
              "type": "uint256"
            },
            {
              "internalType": "address",
              "name": "fileOwner",
              "type": "address"
            },
            {
              "internalType": "address",
              "name": "buyer",
              "type": "address"
            },
            {
              "internalType": "string",
              "name": "fileName",
              "type": "string"
            },
            {
              "internalType": "string",
              "name": "description",
              "type": "string"
            },
            {
              "internalType": "string",
              "name": "category",
              "type": "string"
            },
            {
              "internalType": "string",
              "name": "fileCid",
              "type": "string"
            },
            {
              "internalType": "uint256",
              "name": "fileSize",
              "type": "uint256"
            },
            {
              "internalType": "uint256",
              "name": "createdAt",
              "type": "uint256"
            }
          ],
          "internalType": "struct LicenseMarketplace.License[]",
          "name": "",
          "type": "tuple[]"
        }
      ],
      "stateMutability": "view",
      "type": "function"
    },
    {
      "inputs": [],
      "name": "getFileId",
      "outputs": [
        {
          "internalType": "uint256",
          "name": "",
          "type": "uint256"
        }
      ],
      "stateMutability": "view",
      "type": "function"
    },
    {
      "inputs": [],
      "name": "getFileOwnerLicenseRequests",
      "outputs": [
        {
          "components": [
            {
              "internalType": "uint256",
              "name": "requestId",
              "type": "uint256"
            },
            {
              "internalType": "uint256",
              "name": "fileId",
              "type": "uint256"
            },
            {
              "internalType": "address",
              "name": "requester",
              "type": "address"
            },
            {
              "internalType": "address",
              "name": "fileOwner",
              "type": "address"
            },
            {
              "internalType": "bool",
              "name": "isApproved",
              "type": "bool"
            }
          ],
          "internalType": "struct LicenseMarketplace.LicenseRequest[]",
          "name": "",
          "type": "tuple[]"
        }
      ],
      "stateMutability": "view",
      "type": "function"
    },
    {
      "inputs": [
        {
          "internalType": "uint256",
          "name": "_id",
          "type": "uint256"
        }
      ],
      "name": "getPublicFileById",
      "outputs": [
        {
          "components": [
            {
              "internalType": "uint256",
              "name": "id",
              "type": "uint256"
            },
            {
              "internalType": "address",
              "name": "fileOwner",
              "type": "address"
            },
            {
              "internalType": "string",
              "name": "fileName",
              "type": "string"
            },
            {
              "internalType": "string",
              "name": "description",
              "type": "string"
            },
            {
              "internalType": "string",
              "name": "category",
              "type": "string"
            },
            {
              "internalType": "string",
              "name": "fileCid",
              "type": "string"
            },
            {
              "internalType": "uint256",
              "name": "fileSize",
              "type": "uint256"
            },
            {
              "internalType": "uint256",
              "name": "createdAt",
              "type": "uint256"
            }
          ],
          "internalType": "struct LicenseMarketplace.File",
          "name": "",
          "type": "tuple"
        }
      ],
      "stateMutability": "view",
      "type": "function"
    },
    {
      "inputs": [],
      "name": "getPublicFiles",
      "outputs": [
        {
          "components": [
            {
              "internalType": "uint256",
              "name": "id",
              "type": "uint256"
            },
            {
              "internalType": "address",
              "name": "fileOwner",
              "type": "address"
            },
            {
              "internalType": "string",
              "name": "fileName",
              "type": "string"
            },
            {
              "internalType": "string",
              "name": "description",
              "type": "string"
            },
            {
              "internalType": "string",
              "name": "category",
              "type": "string"
            },
            {
              "internalType": "string",
              "name": "fileCid",
              "type": "string"
            },
            {
              "internalType": "uint256",
              "name": "fileSize",
              "type": "uint256"
            },
            {
              "internalType": "uint256",
              "name": "createdAt",
              "type": "uint256"
            }
          ],
          "internalType": "struct LicenseMarketplace.File[]",
          "name": "",
          "type": "tuple[]"
        }
      ],
      "stateMutability": "view",
      "type": "function"
    },
    {
      "inputs": [],
      "name": "getUserLicenseRequests",
      "outputs": [
        {
          "components": [
            {
              "internalType": "uint256",
              "name": "requestId",
              "type": "uint256"
            },
            {
              "internalType": "uint256",
              "name": "fileId",
              "type": "uint256"
            },
            {
              "internalType": "address",
              "name": "requester",
              "type": "address"
            },
            {
              "internalType": "address",
              "name": "fileOwner",
              "type": "address"
            },
            {
              "internalType": "bool",
              "name": "isApproved",
              "type": "bool"
            }
          ],
          "internalType": "struct LicenseMarketplace.LicenseRequest[]",
          "name": "",
          "type": "tuple[]"
        }
      ],
      "stateMutability": "view",
      "type": "function"
    },
    {
      "inputs": [
        {
          "internalType": "address",
          "name": "_user",
          "type": "address"
        },
        {
          "internalType": "uint256",
          "name": "_fileId",
          "type": "uint256"
        }
      ],
      "name": "isFileOwnedOrLicensed",
      "outputs": [
        {
          "internalType": "bool",
          "name": "",
          "type": "bool"
        }
      ],
      "stateMutability": "view",
      "type": "function"
    },
    {
      "inputs": [],
      "name": "owner",
      "outputs": [
        {
          "internalType": "address",
          "name": "",
          "type": "address"
        }
      ],
      "stateMutability": "view",
      "type": "function"
    },
    {
      "inputs": [
        {
          "internalType": "uint256",
          "name": "",
          "type": "uint256"
        }
      ],
      "name": "publicFiles",
      "outputs": [
        {
          "internalType": "uint256",
          "name": "id",
          "type": "uint256"
        },
        {
          "internalType": "address",
          "name": "fileOwner",
          "type": "address"
        },
        {
          "internalType": "string",
          "name": "fileName",
          "type": "string"
        },
        {
          "internalType": "string",
          "name": "description",
          "type": "string"
        },
        {
          "internalType": "string",
          "name": "category",
          "type": "string"
        },
        {
          "internalType": "string",
          "name": "fileCid",
          "type": "string"
        },
        {
          "internalType": "uint256",
          "name": "fileSize",
          "type": "uint256"
        },
        {
          "internalType": "uint256",
          "name": "createdAt",
          "type": "uint256"
        }
      ],
      "stateMutability": "view",
      "type": "function"
    },
    {
      "inputs": [
        {
          "internalType": "uint256",
          "name": "_requestId",
          "type": "uint256"
        }
      ],
      "name": "rejectLicenseRequest",
      "outputs": [],
      "stateMutability": "nonpayable",
      "type": "function"
    },
    {
      "inputs": [],
      "name": "requestId",
      "outputs": [
        {
          "internalType": "uint256",
          "name": "",
          "type": "uint256"
        }
      ],
      "stateMutability": "view",
      "type": "function"
    },
    {
      "inputs": [
        {
          "internalType": "uint256",
          "name": "_fileId",
          "type": "uint256"
        },
        {
          "internalType": "address",
          "name": "_fileOwner",
          "type": "address"
        }
      ],
      "name": "requestLicense",
      "outputs": [],
      "stateMutability": "nonpayable",
      "type": "function"
    },
    {
      "inputs": [
        {
          "internalType": "uint256",
          "name": "",
          "type": "uint256"
        }
      ],
      "name": "usedLicenses",
      "outputs": [
        {
          "internalType": "bool",
          "name": "",
          "type": "bool"
        }
      ],
      "stateMutability": "view",
      "type": "function"
    },
    {
      "inputs": [
        {
          "internalType": "uint256",
          "name": "licenseNumber",
          "type": "uint256"
        }
      ],
      "name": "validateLicense",
      "outputs": [
        {
          "internalType": "bool",
          "name": "",
          "type": "bool"
        }
      ],
      "stateMutability": "view",
      "type": "function"
    }
  ],
  "bytecode": "0x608060405234801561001057600080fd5b50600080546001600160a01b0319163317905561296f806100326000396000f3fe608060405234801561001057600080fd5b50600436106101205760003560e01c806395d892a1116100ad578063b98e644d11610071578063b98e644d14610285578063c3ba2cd91461029a578063db58b57f146102a2578063e399e268146102b5578063e90b39ec146102ca57600080fd5b806395d892a11461022f578063a6b9bcf614610244578063a764b9cd1461024c578063b2206ade1461025f578063b448bb2d1461027257600080fd5b80634506708e116100f45780634506708e1461017e5780635f70a8fe146101a5578063641b66e4146101d8578063787a37b9146101e15780638da5cb5b1461020457600080fd5b80626d6cae146101255780630cc6f1a21461014157806337ef9440146101615780634018759914610176575b600080fd5b61012e60075481565b6040519081526020015b60405180910390f35b61015461014f3660046121fb565b6102d2565b6040516101389190612304565b610169610673565b604051610138919061231e565b61012e610817565b61019161018c3660046121fb565b61082d565b60405161013898979695949392919061239c565b6101c86101b33660046121fb565b60009081526004602052604090205460ff1690565b6040519015158152602001610138565b61012e60065481565b6101c86101ef3660046121fb565b60046020526000908152604090205460ff1681565b600054610217906001600160a01b031681565b6040516001600160a01b039091168152602001610138565b61024261023d366004612437565b610aac565b005b610169610c16565b61024261025a3660046121fb565b610db3565b61024261026d366004612506565b6110b8565b6102426102803660046121fb565b611316565b61028d611489565b60405161013891906125bb565b61028d611765565b6101c86102b036600461261f565b611a43565b6102bd611b43565b6040516101389190612649565b61028d611e3c565b6103236040518061010001604052806000815260200160006001600160a01b031681526020016060815260200160608152602001606081526020016060815260200160008152602001600081525090565b60005b60055481101561062d57826005828154811061034457610344612761565b90600052602060002090600802016000015403610625576005818154811061036e5761036e612761565b906000526020600020906008020160405180610100016040529081600082015481526020016001820160009054906101000a90046001600160a01b03166001600160a01b03166001600160a01b031681526020016002820180546103d190612777565b80601f01602080910402602001604051908101604052809291908181526020018280546103fd90612777565b801561044a5780601f1061041f5761010080835404028352916020019161044a565b820191906000526020600020905b81548152906001019060200180831161042d57829003601f168201915b5050505050815260200160038201805461046390612777565b80601f016020809104026020016040519081016040528092919081815260200182805461048f90612777565b80156104dc5780601f106104b1576101008083540402835291602001916104dc565b820191906000526020600020905b8154815290600101906020018083116104bf57829003601f168201915b505050505081526020016004820180546104f590612777565b80601f016020809104026020016040519081016040528092919081815260200182805461052190612777565b801561056e5780601f106105435761010080835404028352916020019161056e565b820191906000526020600020905b81548152906001019060200180831161055157829003601f168201915b5050505050815260200160058201805461058790612777565b80601f01602080910402602001604051908101604052809291908181526020018280546105b390612777565b80156106005780601f106105d557610100808354040283529160200191610600565b820191906000526020600020905b8154815290600101906020018083116105e357829003601f168201915b5050505050815260200160068201548152602001600782015481525050915050919050565b600101610326565b5060405162461bcd60e51b8152602060048201526015602482015274141d589b1a58c8199a5b19481b9bdd08199bdd5b99605a1b60448201526064015b60405180910390fd5b6060600060015b60075481116106c657600081815260036020526040902060020154336001600160a01b03909116036106b457816106b0816127c7565b9250505b806106be816127c7565b91505061067a565b5060008167ffffffffffffffff8111156106e2576106e2612463565b60405190808252806020026020018201604052801561073b57816020015b6040805160a0810182526000808252602080830182905292820181905260608201819052608082015282526000199092019101816107005790505b509050600060015b600754811161080e57600081815260036020526040902060020154336001600160a01b03909116036107fc57600081815260036020818152604092839020835160a0810185528154815260018201549281019290925260028101546001600160a01b0390811694830194909452909101549182166060820152600160a01b90910460ff161515608082015283518490849081106107e2576107e2612761565b602002602001018190525081806107f8906127c7565b9250505b80610806816127c7565b915050610743565b50909392505050565b6000600654600161082891906127e0565b905090565b6005818154811061083d57600080fd5b60009182526020909120600890910201805460018201546002830180549294506001600160a01b03909116929161087390612777565b80601f016020809104026020016040519081016040528092919081815260200182805461089f90612777565b80156108ec5780601f106108c1576101008083540402835291602001916108ec565b820191906000526020600020905b8154815290600101906020018083116108cf57829003601f168201915b50505050509080600301805461090190612777565b80601f016020809104026020016040519081016040528092919081815260200182805461092d90612777565b801561097a5780601f1061094f5761010080835404028352916020019161097a565b820191906000526020600020905b81548152906001019060200180831161095d57829003601f168201915b50505050509080600401805461098f90612777565b80601f01602080910402602001604051908101604052809291908181526020018280546109bb90612777565b8015610a085780601f106109dd57610100808354040283529160200191610a08565b820191906000526020600020905b8154815290600101906020018083116109eb57829003601f168201915b505050505090806005018054610a1d90612777565b80601f0160208091040260200160405190810160405280929190818152602001828054610a4990612777565b8015610a965780601f10610a6b57610100808354040283529160200191610a96565b820191906000526020600020905b815481529060010190602001808311610a7957829003601f168201915b5050505050908060060154908060070154905088565b610ab63383611a43565b15610b1c5760405162461bcd60e51b815260206004820152603060248201527f5573657220616c7265616479206f776e73206f72206861732061206c6963656e60448201526f736520666f7220746869732066696c6560801b606482015260840161066a565b60078054906000610b2c836127c7565b90915550506040805160a081018252600780548083526020808401878152338587018181526001600160a01b038981166060808a01828152600060808c018181529981526003808a52908d90208c5181559751600189015594516002880180549186166001600160a01b03199092169190911790555195909301805497511515600160a01b026001600160a81b0319909816959092169490941795909517909455935486518981529283019490945294810194909452919290917f3563c2ab88374e4253e716e489b51ed99c61edfecc313080b65cb94efb16b3aa910160405180910390a2505050565b6060600060015b6007548111610c6a5760008181526003602081905260409091200154336001600160a01b0390911603610c585781610c54816127c7565b9250505b80610c62816127c7565b915050610c1d565b5060008167ffffffffffffffff811115610c8657610c86612463565b604051908082528060200260200182016040528015610cdf57816020015b6040805160a081018252600080825260208083018290529282018190526060820181905260808201528252600019909201910181610ca45790505b509050600060015b600754811161080e5760008181526003602081905260409091200154336001600160a01b0390911603610da157600081815260036020818152604092839020835160a0810185528154815260018201549281019290925260028101546001600160a01b0390811694830194909452909101549182166060820152600160a01b90910460ff16151560808201528351849084908110610d8757610d87612761565b60200260200101819052508180610d9d906127c7565b9250505b80610dab816127c7565b915050610ce7565b6000818152600360208190526040909120908101546001600160a01b03163314610e335760405162461bcd60e51b815260206004820152602b60248201527f4f6e6c79207468652066696c65206f776e65722063616e20617070726f76652060448201526a1d1a19481c995c5d595cdd60aa1b606482015260840161066a565b6003810154600160a01b900460ff1615610e8a5760405162461bcd60e51b815260206004820152601860248201527714995c5d595cdd08185b1c9958591e48185c1c1c9bdd995960421b604482015260640161066a565b60038101805460ff60a01b1916600160a01b1790556001810154600090610eb0906102d2565b90506000610ebc61210f565b604080516101408101825282815284516020808301918252808701516001600160a01b0390811684860190815260028a810154831660608088018281528c8a01516080808b01918252928e015160a0808c0191909152928e015160c0808c0191909152928e015160e08b0152918d01516101008a0152426101208a01526000928352838752988220805460018082018355918452969092208851600a90970201958655955190850155905190830180546001600160a01b0319908116928416929092179055945160038301805490961691161790935551929350918291906004820190610fa99082612844565b5060a08201516005820190610fbe9082612844565b5060c08201516006820190610fd39082612844565b5060e08201516007820190610fe89082612844565b506101008201516008820155610120909101516009909101556002840154602084015160408086015190516001600160a01b0393841693909216917f36b71a34b45297c2eddbb6d8a95b9703618f6300d0676fa891c58bcdaa90dbb39161104e91612904565b60405180910390a3600184015460028501546003860154604080519384526001600160a01b03928316602085015291169082015285907f6e12100d9a45da1a9e96a9fc000ff4db7bfc27cc43fdf07dab275b581483fb499060600160405180910390a25050505050565b600680549060006110c8836127c7565b9091555050604080516101008101825260065481523360208083018281528385018a8152606085018a90526080850189905260a0850188905260c085018790524260e086015260009384526001808452958420805480880182559085529290932084516008909302019182555193810180546001600160a01b0319166001600160a01b03909516949094179093555190918291600282019061116a9082612844565b506060820151600382019061117f9082612844565b50608082015160048201906111949082612844565b5060a082015160058201906111a99082612844565b5060c0820151600682015560e0909101516007909101556005805460018101825560009190915281517f036b6384b5eca791c62761152d0c79bb0604c104a5fb6f4eb0703f3154bb3db0600890920291820190815560208301517f036b6384b5eca791c62761152d0c79bb0604c104a5fb6f4eb0703f3154bb3db1830180546001600160a01b0319166001600160a01b03909216919091179055604083015183927f036b6384b5eca791c62761152d0c79bb0604c104a5fb6f4eb0703f3154bb3db201906112779082612844565b506060820151600382019061128c9082612844565b50608082015160048201906112a19082612844565b5060a082015160058201906112b69082612844565b5060c0820151816006015560e082015181600701555050336001600160a01b03167f0e03c7e37ad39057585e52c6e4f117a61225036a88a2ada7f870a6b994a1bc21876040516113069190612904565b60405180910390a2505050505050565b6000818152600360208190526040909120908101546001600160a01b031633146113955760405162461bcd60e51b815260206004820152602a60248201527f4f6e6c79207468652066696c65206f776e65722063616e2072656a65637420746044820152691a19481c995c5d595cdd60b21b606482015260840161066a565b6003810154600160a01b900460ff16156113ec5760405162461bcd60e51b815260206004820152601860248201527714995c5d595cdd08185b1c9958591e48185c1c1c9bdd995960421b604482015260640161066a565b6000828152600360208181526040808420848155600180820195909555600280820180546001600160a01b031916905590840180546001600160a81b031916905593850154938501549285015481519485526001600160a01b039384169285019290925291169082015282907f23bc048e2726b66e4b6df842e8940378c39ead4ceeeabbbe237bd71caf10603b9060600160405180910390a25050565b60606005805480602002602001604051908101604052809291908181526020016000905b8282101561175c5760008481526020908190206040805161010081018252600886029092018054835260018101546001600160a01b0316938301939093526002830180549293929184019161150190612777565b80601f016020809104026020016040519081016040528092919081815260200182805461152d90612777565b801561157a5780601f1061154f5761010080835404028352916020019161157a565b820191906000526020600020905b81548152906001019060200180831161155d57829003601f168201915b5050505050815260200160038201805461159390612777565b80601f01602080910402602001604051908101604052809291908181526020018280546115bf90612777565b801561160c5780601f106115e15761010080835404028352916020019161160c565b820191906000526020600020905b8154815290600101906020018083116115ef57829003601f168201915b5050505050815260200160048201805461162590612777565b80601f016020809104026020016040519081016040528092919081815260200182805461165190612777565b801561169e5780601f106116735761010080835404028352916020019161169e565b820191906000526020600020905b81548152906001019060200180831161168157829003601f168201915b505050505081526020016005820180546116b790612777565b80601f01602080910402602001604051908101604052809291908181526020018280546116e390612777565b80156117305780601f1061170557610100808354040283529160200191611730565b820191906000526020600020905b81548152906001019060200180831161171357829003601f168201915b5050505050815260200160068201548152602001600782015481525050815260200190600101906114ad565b50505050905090565b336000908152600160209081526040808320805482518185028101850190935280835260609492939192909184015b8282101561175c5760008481526020908190206040805161010081018252600886029092018054835260018101546001600160a01b031693830193909352600283018054929392918401916117e890612777565b80601f016020809104026020016040519081016040528092919081815260200182805461181490612777565b80156118615780601f1061183657610100808354040283529160200191611861565b820191906000526020600020905b81548152906001019060200180831161184457829003601f168201915b5050505050815260200160038201805461187a90612777565b80601f01602080910402602001604051908101604052809291908181526020018280546118a690612777565b80156118f35780601f106118c8576101008083540402835291602001916118f3565b820191906000526020600020905b8154815290600101906020018083116118d657829003601f168201915b5050505050815260200160048201805461190c90612777565b80601f016020809104026020016040519081016040528092919081815260200182805461193890612777565b80156119855780601f1061195a57610100808354040283529160200191611985565b820191906000526020600020905b81548152906001019060200180831161196857829003601f168201915b5050505050815260200160058201805461199e90612777565b80601f01602080910402602001604051908101604052809291908181526020018280546119ca90612777565b8015611a175780601f106119ec57610100808354040283529160200191611a17565b820191906000526020600020905b8154815290600101906020018083116119fa57829003601f168201915b505050505081526020016006820154815260200160078201548152505081526020019060010190611794565b6000805b6001600160a01b038416600090815260016020526040902054811015611abd576001600160a01b0384166000908152600160205260409020805484919083908110611a9457611a94612761565b90600052602060002090600802016000015403611ab5576001915050611b3d565b600101611a47565b5060005b6001600160a01b038416600090815260026020526040902054811015611b37576001600160a01b0384166000908152600260205260409020805484919083908110611b0e57611b0e612761565b90600052602060002090600a02016001015403611b2f576001915050611b3d565b600101611ac1565b50600090505b92915050565b336000908152600260209081526040808320805482518185028101850190935280835260609492939192909184015b8282101561175c5760008481526020908190206040805161014081018252600a86029092018054835260018101549383019390935260028301546001600160a01b03908116918301919091526003830154166060820152600482018054919291608084019190611be190612777565b80601f0160208091040260200160405190810160405280929190818152602001828054611c0d90612777565b8015611c5a5780601f10611c2f57610100808354040283529160200191611c5a565b820191906000526020600020905b815481529060010190602001808311611c3d57829003601f168201915b50505050508152602001600582018054611c7390612777565b80601f0160208091040260200160405190810160405280929190818152602001828054611c9f90612777565b8015611cec5780601f10611cc157610100808354040283529160200191611cec565b820191906000526020600020905b815481529060010190602001808311611ccf57829003601f168201915b50505050508152602001600682018054611d0590612777565b80601f0160208091040260200160405190810160405280929190818152602001828054611d3190612777565b8015611d7e5780601f10611d5357610100808354040283529160200191611d7e565b820191906000526020600020905b815481529060010190602001808311611d6157829003601f168201915b50505050508152602001600782018054611d9790612777565b80601f0160208091040260200160405190810160405280929190818152602001828054611dc390612777565b8015611e105780601f10611de557610100808354040283529160200191611e10565b820191906000526020600020905b815481529060010190602001808311611df357829003601f168201915b505050505081526020016008820154815260200160098201548152505081526020019060010190611b72565b60606005805480602002602001604051908101604052809291908181526020016000905b8282101561175c5760008481526020908190206040805161010081018252600886029092018054835260018101546001600160a01b03169383019390935260028301805492939291840191611eb490612777565b80601f0160208091040260200160405190810160405280929190818152602001828054611ee090612777565b8015611f2d5780601f10611f0257610100808354040283529160200191611f2d565b820191906000526020600020905b815481529060010190602001808311611f1057829003601f168201915b50505050508152602001600382018054611f4690612777565b80601f0160208091040260200160405190810160405280929190818152602001828054611f7290612777565b8015611fbf5780601f10611f9457610100808354040283529160200191611fbf565b820191906000526020600020905b815481529060010190602001808311611fa257829003601f168201915b50505050508152602001600482018054611fd890612777565b80601f016020809104026020016040519081016040528092919081815260200182805461200490612777565b80156120515780601f1061202657610100808354040283529160200191612051565b820191906000526020600020905b81548152906001019060200180831161203457829003601f168201915b5050505050815260200160058201805461206a90612777565b80601f016020809104026020016040519081016040528092919081815260200182805461209690612777565b80156120e35780601f106120b8576101008083540402835291602001916120e3565b820191906000526020600020905b8154815290600101906020018083116120c657829003601f168201915b505050505081526020016006820154815260200160078201548152505081526020019060010190611e60565b6000804243403360405160200161214b93929190928352602083019190915260601b6bffffffffffffffffffffffff1916604082015260540190565b60408051601f198184030181529190528051602090910120905060006121766402540be40083612917565b90505b60008181526004602052604090205460ff16156121dc5781426040516020016121ac929190918252602082015260400190565b60408051601f19818403018152919052805160209091012091506121d56402540be40083612917565b9050612179565b6000818152600460205260409020805460ff1916600117905592915050565b60006020828403121561220d57600080fd5b5035919050565b6000815180845260005b8181101561223a5760208185018101518683018201520161221e565b506000602082860101526020601f19601f83011685010191505092915050565b600061010082518452602083015161227d60208601826001600160a01b03169052565b50604083015181604086015261229582860182612214565b915050606083015184820360608601526122af8282612214565b915050608083015184820360808601526122c98282612214565b91505060a083015184820360a08601526122e38282612214565b91505060c083015160c085015260e083015160e08501528091505092915050565b602081526000612317602083018461225a565b9392505050565b602080825282518282018190526000919060409081850190868401855b8281101561238f578151805185528681015187860152858101516001600160a01b03908116878701526060808301519091169086015260809081015115159085015260a0909301929085019060010161233b565b5091979650505050505050565b8881526001600160a01b0388166020820152610100604082018190526000906123c78382018a612214565b905082810360608401526123db8189612214565b905082810360808401526123ef8188612214565b905082810360a08401526124038187612214565b60c0840195909552505060e001529695505050505050565b80356001600160a01b038116811461243257600080fd5b919050565b6000806040838503121561244a57600080fd5b8235915061245a6020840161241b565b90509250929050565b634e487b7160e01b600052604160045260246000fd5b600082601f83011261248a57600080fd5b813567ffffffffffffffff808211156124a5576124a5612463565b604051601f8301601f19908116603f011681019082821181831017156124cd576124cd612463565b816040528381528660208588010111156124e657600080fd5b836020870160208301376000602085830101528094505050505092915050565b600080600080600060a0868803121561251e57600080fd5b853567ffffffffffffffff8082111561253657600080fd5b61254289838a01612479565b9650602088013591508082111561255857600080fd5b61256489838a01612479565b9550604088013591508082111561257a57600080fd5b61258689838a01612479565b9450606088013591508082111561259c57600080fd5b506125a988828901612479565b95989497509295608001359392505050565b600060208083016020845280855180835260408601915060408160051b87010192506020870160005b8281101561261257603f1988860301845261260085835161225a565b945092850192908501906001016125e4565b5092979650505050505050565b6000806040838503121561263257600080fd5b61263b8361241b565b946020939093013593505050565b600060208083018184528085518083526040925060408601915060408160051b87010184880160005b8381101561275357888303603f190185528151805184528781015188850152868101516001600160a01b0381168886015261014090506060828101516001600160a01b03811687830152505060808083015182828801526126d583880182612214565b9250505060a080830151868303828801526126f08382612214565b9250505060c0808301518683038288015261270b8382612214565b9250505060e080830151868303828801526127268382612214565b61010085810151908901526101209485015194909701939093525050509386019390860190600101612672565b509098975050505050505050565b634e487b7160e01b600052603260045260246000fd5b600181811c9082168061278b57607f821691505b6020821081036127ab57634e487b7160e01b600052602260045260246000fd5b50919050565b634e487b7160e01b600052601160045260246000fd5b6000600182016127d9576127d96127b1565b5060010190565b80820180821115611b3d57611b3d6127b1565b601f82111561283f576000816000526020600020601f850160051c8101602086101561281c5750805b601f850160051c820191505b8181101561283b57828155600101612828565b5050505b505050565b815167ffffffffffffffff81111561285e5761285e612463565b6128728161286c8454612777565b846127f3565b602080601f8311600181146128a7576000841561288f5750858301515b600019600386901b1c1916600185901b17855561283b565b600085815260208120601f198616915b828110156128d6578886015182559484019460019091019084016128b7565b50858210156128f45787850151600019600388901b60f8161c191681555b5050505050600190811b01905550565b6020815260006123176020830184612214565b60008261293457634e487b7160e01b600052601260045260246000fd5b50069056fea2646970667358221220b4ef9e6ab2410b450a5d20ff75dde078a998d5e16cdd4fa810859621fbf099c464736f6c63430008180033",
  "linkReferences": {},
  "deployedLinkReferences": {}
}