{
  "_format": "hh-sol-artifact-1",
  "contractName": "LicenseMarketplace",
  "sourceName": "contracts/LicenseMarketplace.sol",
  "abi": [
    {
      "inputs": [],
      "stateMutability": "nonpayable",
      "type": "constructor"
    },
    {
      "anonymous": false,
      "inputs": [
        {
          "indexed": true,
          "internalType": "address",
          "name": "owner",
          "type": "address"
        },
        {
          "indexed": true,
          "internalType": "address",
          "name": "buyer",
          "type": "address"
        },
        {
          "indexed": false,
          "internalType": "string",
          "name": "fileName",
          "type": "string"
        },
        {
          "indexed": false,
          "internalType": "string",
          "name": "fileCid",
          "type": "string"
        }
      ],
      "name": "FileLicense",
      "type": "event"
    },
    {
      "anonymous": false,
      "inputs": [
        {
          "indexed": true,
          "internalType": "address",
          "name": "owner",
          "type": "address"
        },
        {
          "indexed": false,
          "internalType": "string",
          "name": "fileName",
          "type": "string"
        },
        {
          "indexed": false,
          "internalType": "string",
          "name": "fileCid",
          "type": "string"
        },
        {
          "indexed": false,
          "internalType": "bool",
          "name": "isPublic",
          "type": "bool"
        }
      ],
      "name": "FileShared",
      "type": "event"
    },
    {
      "anonymous": false,
      "inputs": [
        {
          "indexed": true,
          "internalType": "uint256",
          "name": "requestId",
          "type": "uint256"
        },
        {
          "indexed": false,
          "internalType": "uint256",
          "name": "fileId",
          "type": "uint256"
        },
        {
          "indexed": false,
          "internalType": "address",
          "name": "requester",
          "type": "address"
        },
        {
          "indexed": false,
          "internalType": "address",
          "name": "fileOwner",
          "type": "address"
        }
      ],
      "name": "LicenseRequestApproved",
      "type": "event"
    },
    {
      "anonymous": false,
      "inputs": [
        {
          "indexed": true,
          "internalType": "uint256",
          "name": "requestId",
          "type": "uint256"
        },
        {
          "indexed": false,
          "internalType": "uint256",
          "name": "fileId",
          "type": "uint256"
        },
        {
          "indexed": false,
          "internalType": "address",
          "name": "requester",
          "type": "address"
        },
        {
          "indexed": false,
          "internalType": "address",
          "name": "fileOwner",
          "type": "address"
        }
      ],
      "name": "LicenseRequestCreated",
      "type": "event"
    },
    {
      "anonymous": false,
      "inputs": [
        {
          "indexed": true,
          "internalType": "uint256",
          "name": "requestId",
          "type": "uint256"
        },
        {
          "indexed": false,
          "internalType": "uint256",
          "name": "fileId",
          "type": "uint256"
        },
        {
          "indexed": false,
          "internalType": "address",
          "name": "requester",
          "type": "address"
        },
        {
          "indexed": false,
          "internalType": "address",
          "name": "fileOwner",
          "type": "address"
        }
      ],
      "name": "LicenseRequestRejected",
      "type": "event"
    },
    {
      "anonymous": false,
      "inputs": [
        {
          "indexed": true,
          "internalType": "address",
          "name": "userAddress",
          "type": "address"
        },
        {
          "indexed": false,
          "internalType": "string",
          "name": "username",
          "type": "string"
        }
      ],
      "name": "userLoggedIn",
      "type": "event"
    },
    {
      "anonymous": false,
      "inputs": [
        {
          "indexed": true,
          "internalType": "address",
          "name": "userAddress",
          "type": "address"
        },
        {
          "indexed": false,
          "internalType": "string",
          "name": "username",
          "type": "string"
        }
      ],
      "name": "userSignedUp",
      "type": "event"
    },
    {
      "inputs": [
        {
          "internalType": "uint256",
          "name": "_requestId",
          "type": "uint256"
        }
      ],
      "name": "approveLicenseRequest",
      "outputs": [],
      "stateMutability": "nonpayable",
      "type": "function"
    },
    {
      "inputs": [
        {
          "internalType": "string",
          "name": "_fileName",
          "type": "string"
        },
        {
          "internalType": "string",
          "name": "_description",
          "type": "string"
        },
        {
          "internalType": "string",
          "name": "_category",
          "type": "string"
        },
        {
          "internalType": "string",
          "name": "_fileCid",
          "type": "string"
        },
        {
          "internalType": "bool",
          "name": "_isPublic",
          "type": "bool"
        }
      ],
      "name": "createFile",
      "outputs": [],
      "stateMutability": "nonpayable",
      "type": "function"
    },
    {
      "inputs": [],
      "name": "fileId",
      "outputs": [
        {
          "internalType": "uint256",
          "name": "",
          "type": "uint256"
        }
      ],
      "stateMutability": "view",
      "type": "function"
    },
    {
      "inputs": [],
      "name": "getAllPublicFiles",
      "outputs": [
        {
          "components": [
            {
              "internalType": "uint256",
              "name": "id",
              "type": "uint256"
            },
            {
              "internalType": "address",
              "name": "fileOwner",
              "type": "address"
            },
            {
              "internalType": "string",
              "name": "fileName",
              "type": "string"
            },
            {
              "internalType": "string",
              "name": "description",
              "type": "string"
            },
            {
              "internalType": "string",
              "name": "category",
              "type": "string"
            },
            {
              "internalType": "string",
              "name": "fileCid",
              "type": "string"
            },
            {
              "internalType": "bool",
              "name": "isPublic",
              "type": "bool"
            },
            {
              "internalType": "uint256",
              "name": "createdAt",
              "type": "uint256"
            }
          ],
          "internalType": "struct LicenseMarketplace.File[]",
          "name": "",
          "type": "tuple[]"
        }
      ],
      "stateMutability": "view",
      "type": "function"
    },
    {
      "inputs": [],
      "name": "getAllRegisterdUsers",
      "outputs": [
        {
          "components": [
            {
              "internalType": "address",
              "name": "_address",
              "type": "address"
            },
            {
              "internalType": "string",
              "name": "firstname",
              "type": "string"
            },
            {
              "internalType": "string",
              "name": "lastname",
              "type": "string"
            },
            {
              "internalType": "string",
              "name": "username",
              "type": "string"
            },
            {
              "internalType": "string",
              "name": "email",
              "type": "string"
            },
            {
              "internalType": "string",
              "name": "password",
              "type": "string"
            },
            {
              "internalType": "bool",
              "name": "isRegistered",
              "type": "bool"
            }
          ],
          "internalType": "struct LicenseMarketplace.User[]",
          "name": "",
          "type": "tuple[]"
        }
      ],
      "stateMutability": "view",
      "type": "function"
    },
    {
      "inputs": [],
      "name": "getAllUserFiles",
      "outputs": [
        {
          "components": [
            {
              "internalType": "uint256",
              "name": "id",
              "type": "uint256"
            },
            {
              "internalType": "address",
              "name": "fileOwner",
              "type": "address"
            },
            {
              "internalType": "string",
              "name": "fileName",
              "type": "string"
            },
            {
              "internalType": "string",
              "name": "description",
              "type": "string"
            },
            {
              "internalType": "string",
              "name": "category",
              "type": "string"
            },
            {
              "internalType": "string",
              "name": "fileCid",
              "type": "string"
            },
            {
              "internalType": "bool",
              "name": "isPublic",
              "type": "bool"
            },
            {
              "internalType": "uint256",
              "name": "createdAt",
              "type": "uint256"
            }
          ],
          "internalType": "struct LicenseMarketplace.File[]",
          "name": "",
          "type": "tuple[]"
        }
      ],
      "stateMutability": "view",
      "type": "function"
    },
    {
      "inputs": [],
      "name": "getAllUserLicenses",
      "outputs": [
        {
          "components": [
            {
              "internalType": "uint256",
              "name": "licenseNumber",
              "type": "uint256"
            },
            {
              "internalType": "uint256",
              "name": "fileId",
              "type": "uint256"
            },
            {
              "internalType": "address",
              "name": "fileOwner",
              "type": "address"
            },
            {
              "internalType": "address",
              "name": "buyer",
              "type": "address"
            },
            {
              "internalType": "string",
              "name": "fileName",
              "type": "string"
            },
            {
              "internalType": "string",
              "name": "description",
              "type": "string"
            },
            {
              "internalType": "string",
              "name": "category",
              "type": "string"
            },
            {
              "internalType": "string",
              "name": "fileCid",
              "type": "string"
            },
            {
              "internalType": "bool",
              "name": "isPublic",
              "type": "bool"
            },
            {
              "internalType": "uint256",
              "name": "createdAt",
              "type": "uint256"
            }
          ],
          "internalType": "struct LicenseMarketplace.License[]",
          "name": "",
          "type": "tuple[]"
        }
      ],
      "stateMutability": "view",
      "type": "function"
    },
    {
      "inputs": [],
      "name": "getFileId",
      "outputs": [
        {
          "internalType": "uint256",
          "name": "",
          "type": "uint256"
        }
      ],
      "stateMutability": "view",
      "type": "function"
    },
    {
      "inputs": [],
      "name": "getFileOwnerLicenseRequests",
      "outputs": [
        {
          "components": [
            {
              "internalType": "uint256",
              "name": "requestId",
              "type": "uint256"
            },
            {
              "internalType": "uint256",
              "name": "fileId",
              "type": "uint256"
            },
            {
              "internalType": "address",
              "name": "requester",
              "type": "address"
            },
            {
              "internalType": "address",
              "name": "fileOwner",
              "type": "address"
            },
            {
              "internalType": "bool",
              "name": "isApproved",
              "type": "bool"
            }
          ],
          "internalType": "struct LicenseMarketplace.LicenseRequest[]",
          "name": "",
          "type": "tuple[]"
        }
      ],
      "stateMutability": "view",
      "type": "function"
    },
    {
      "inputs": [
        {
          "internalType": "uint256",
          "name": "_id",
          "type": "uint256"
        }
      ],
      "name": "getPublicFileById",
      "outputs": [
        {
          "components": [
            {
              "internalType": "uint256",
              "name": "id",
              "type": "uint256"
            },
            {
              "internalType": "address",
              "name": "fileOwner",
              "type": "address"
            },
            {
              "internalType": "string",
              "name": "fileName",
              "type": "string"
            },
            {
              "internalType": "string",
              "name": "description",
              "type": "string"
            },
            {
              "internalType": "string",
              "name": "category",
              "type": "string"
            },
            {
              "internalType": "string",
              "name": "fileCid",
              "type": "string"
            },
            {
              "internalType": "bool",
              "name": "isPublic",
              "type": "bool"
            },
            {
              "internalType": "uint256",
              "name": "createdAt",
              "type": "uint256"
            }
          ],
          "internalType": "struct LicenseMarketplace.File",
          "name": "",
          "type": "tuple"
        }
      ],
      "stateMutability": "view",
      "type": "function"
    },
    {
      "inputs": [],
      "name": "getPublicFilesExceptUser",
      "outputs": [
        {
          "components": [
            {
              "internalType": "uint256",
              "name": "id",
              "type": "uint256"
            },
            {
              "internalType": "address",
              "name": "fileOwner",
              "type": "address"
            },
            {
              "internalType": "string",
              "name": "fileName",
              "type": "string"
            },
            {
              "internalType": "string",
              "name": "description",
              "type": "string"
            },
            {
              "internalType": "string",
              "name": "category",
              "type": "string"
            },
            {
              "internalType": "string",
              "name": "fileCid",
              "type": "string"
            },
            {
              "internalType": "bool",
              "name": "isPublic",
              "type": "bool"
            },
            {
              "internalType": "uint256",
              "name": "createdAt",
              "type": "uint256"
            }
          ],
          "internalType": "struct LicenseMarketplace.File[]",
          "name": "",
          "type": "tuple[]"
        }
      ],
      "stateMutability": "view",
      "type": "function"
    },
    {
      "inputs": [],
      "name": "getUserLicenseRequests",
      "outputs": [
        {
          "components": [
            {
              "internalType": "uint256",
              "name": "requestId",
              "type": "uint256"
            },
            {
              "internalType": "uint256",
              "name": "fileId",
              "type": "uint256"
            },
            {
              "internalType": "address",
              "name": "requester",
              "type": "address"
            },
            {
              "internalType": "address",
              "name": "fileOwner",
              "type": "address"
            },
            {
              "internalType": "bool",
              "name": "isApproved",
              "type": "bool"
            }
          ],
          "internalType": "struct LicenseMarketplace.LicenseRequest[]",
          "name": "",
          "type": "tuple[]"
        }
      ],
      "stateMutability": "view",
      "type": "function"
    },
    {
      "inputs": [
        {
          "internalType": "address",
          "name": "_user",
          "type": "address"
        },
        {
          "internalType": "uint256",
          "name": "_fileId",
          "type": "uint256"
        }
      ],
      "name": "isFileOwnedOrLicensed",
      "outputs": [
        {
          "internalType": "bool",
          "name": "",
          "type": "bool"
        }
      ],
      "stateMutability": "view",
      "type": "function"
    },
    {
      "inputs": [
        {
          "internalType": "string",
          "name": "_password",
          "type": "string"
        }
      ],
      "name": "login",
      "outputs": [
        {
          "internalType": "address",
          "name": "",
          "type": "address"
        },
        {
          "internalType": "string",
          "name": "",
          "type": "string"
        },
        {
          "internalType": "bool",
          "name": "",
          "type": "bool"
        }
      ],
      "stateMutability": "nonpayable",
      "type": "function"
    },
    {
      "inputs": [],
      "name": "owner",
      "outputs": [
        {
          "internalType": "address",
          "name": "",
          "type": "address"
        }
      ],
      "stateMutability": "view",
      "type": "function"
    },
    {
      "inputs": [
        {
          "internalType": "uint256",
          "name": "",
          "type": "uint256"
        }
      ],
      "name": "publicFiles",
      "outputs": [
        {
          "internalType": "uint256",
          "name": "id",
          "type": "uint256"
        },
        {
          "internalType": "address",
          "name": "fileOwner",
          "type": "address"
        },
        {
          "internalType": "string",
          "name": "fileName",
          "type": "string"
        },
        {
          "internalType": "string",
          "name": "description",
          "type": "string"
        },
        {
          "internalType": "string",
          "name": "category",
          "type": "string"
        },
        {
          "internalType": "string",
          "name": "fileCid",
          "type": "string"
        },
        {
          "internalType": "bool",
          "name": "isPublic",
          "type": "bool"
        },
        {
          "internalType": "uint256",
          "name": "createdAt",
          "type": "uint256"
        }
      ],
      "stateMutability": "view",
      "type": "function"
    },
    {
      "inputs": [
        {
          "internalType": "uint256",
          "name": "_requestId",
          "type": "uint256"
        }
      ],
      "name": "rejectLicenseRequest",
      "outputs": [],
      "stateMutability": "nonpayable",
      "type": "function"
    },
    {
      "inputs": [],
      "name": "requestId",
      "outputs": [
        {
          "internalType": "uint256",
          "name": "",
          "type": "uint256"
        }
      ],
      "stateMutability": "view",
      "type": "function"
    },
    {
      "inputs": [
        {
          "internalType": "uint256",
          "name": "_fileId",
          "type": "uint256"
        },
        {
          "internalType": "address",
          "name": "_fileOwner",
          "type": "address"
        }
      ],
      "name": "requestLicense",
      "outputs": [],
      "stateMutability": "nonpayable",
      "type": "function"
    },
    {
      "inputs": [
        {
          "internalType": "string",
          "name": "_newPassword",
          "type": "string"
        }
      ],
      "name": "resetPassword",
      "outputs": [],
      "stateMutability": "nonpayable",
      "type": "function"
    },
    {
      "inputs": [
        {
          "internalType": "string",
          "name": "_firstname",
          "type": "string"
        },
        {
          "internalType": "string",
          "name": "_lastname",
          "type": "string"
        },
        {
          "internalType": "string",
          "name": "_username",
          "type": "string"
        },
        {
          "internalType": "string",
          "name": "_email",
          "type": "string"
        },
        {
          "internalType": "string",
          "name": "_password",
          "type": "string"
        }
      ],
      "name": "signUp",
      "outputs": [],
      "stateMutability": "nonpayable",
      "type": "function"
    },
    {
      "inputs": [
        {
          "internalType": "uint256",
          "name": "",
          "type": "uint256"
        }
      ],
      "name": "usedLicenses",
      "outputs": [
        {
          "internalType": "bool",
          "name": "",
          "type": "bool"
        }
      ],
      "stateMutability": "view",
      "type": "function"
    },
    {
      "inputs": [
        {
          "internalType": "uint256",
          "name": "licenseNumber",
          "type": "uint256"
        }
      ],
      "name": "validateLicense",
      "outputs": [
        {
          "internalType": "bool",
          "name": "",
          "type": "bool"
        }
      ],
      "stateMutability": "view",
      "type": "function"
    }
  ],
  "bytecode": "0x608060405234801561001057600080fd5b50600080546001600160a01b03191633179055613884806100326000396000f3fe608060405234801561001057600080fd5b506004361061014c5760003560e01c80637d0ac00c116100c3578063c1716c771161007c578063c1716c77146102fb578063c3ba2cd914610310578063db58b57f14610318578063e399e2681461032b578063e90b39ec14610340578063ed9b54c41461034857600080fd5b80637d0ac00c1461027a5780638da5cb5b1461028f57806395d892a1146102ba578063a6b9bcf6146102cd578063a764b9cd146102d5578063b448bb2d146102e857600080fd5b80634506708e116101155780634506708e146101cc5780635f70a8fe146101f3578063641b66e41461022657806373a6094a1461022f578063787a37b9146102445780637be338b61461026757600080fd5b80626d6cae146101515780630cc6f1a21461016d57806337ef94401461018d5780633a7d280c146101a257806340187599146101c4575b600080fd5b61015a60095481565b6040519081526020015b60405180910390f35b61018061017b366004612d07565b61035b565b6040516101649190612e24565b6101956106b8565b6040516101649190612e3e565b6101b56101b0366004612f5f565b61085c565b60405161016493929190612f9c565b61015a610a54565b6101df6101da366004612d07565b610a6a565b604051610164989796959493929190612fd2565b610216610201366004612d07565b60009081526005602052604090205460ff1690565b6040519015158152602001610164565b61015a60085481565b61024261023d366004612f5f565b610ced565b005b610216610252366004612d07565b60056020526000908152604090205460ff1681565b610242610275366004613051565b610d65565b610282610fef565b6040516101649190613118565b6000546102a2906001600160a01b031681565b6040516001600160a01b039091168152602001610164565b6102426102c8366004613198565b611501565b6101956115fb565b6102426102e3366004612d07565b611798565b6102426102f6366004612d07565b611ab3565b610303611c26565b60405161016491906131c4565b610282611f87565b6102166103263660046132c9565b612270565b610333612370565b60405161016491906132f3565b610282612674565b610242610356366004613409565b612952565b610363612cb7565b60005b600654811015610672578260068281548110610384576103846134db565b9060005260206000209060080201600001540361066a57600681815481106103ae576103ae6134db565b906000526020600020906008020160405180610100016040529081600082015481526020016001820160009054906101000a90046001600160a01b03166001600160a01b03166001600160a01b03168152602001600282018054610411906134f1565b80601f016020809104026020016040519081016040528092919081815260200182805461043d906134f1565b801561048a5780601f1061045f5761010080835404028352916020019161048a565b820191906000526020600020905b81548152906001019060200180831161046d57829003601f168201915b505050505081526020016003820180546104a3906134f1565b80601f01602080910402602001604051908101604052809291908181526020018280546104cf906134f1565b801561051c5780601f106104f15761010080835404028352916020019161051c565b820191906000526020600020905b8154815290600101906020018083116104ff57829003601f168201915b50505050508152602001600482018054610535906134f1565b80601f0160208091040260200160405190810160405280929190818152602001828054610561906134f1565b80156105ae5780601f10610583576101008083540402835291602001916105ae565b820191906000526020600020905b81548152906001019060200180831161059157829003601f168201915b505050505081526020016005820180546105c7906134f1565b80601f01602080910402602001604051908101604052809291908181526020018280546105f3906134f1565b80156106405780601f1061061557610100808354040283529160200191610640565b820191906000526020600020905b81548152906001019060200180831161062357829003601f168201915b5050509183525050600682015460ff16151560208201526007909101546040909101529392505050565b600101610366565b5060405162461bcd60e51b8152602060048201526015602482015274141d589b1a58c8199a5b19481b9bdd08199bdd5b99605a1b60448201526064015b60405180910390fd5b6060600060015b600954811161070b57600081815260036020526040902060020154336001600160a01b03909116036106f957816106f581613541565b9250505b8061070381613541565b9150506106bf565b5060008167ffffffffffffffff81111561072757610727612ebc565b60405190808252806020026020018201604052801561078057816020015b6040805160a0810182526000808252602080830182905292820181905260608201819052608082015282526000199092019101816107455790505b509050600060015b600954811161085357600081815260036020526040902060020154336001600160a01b039091160361084157600081815260036020818152604092839020835160a0810185528154815260018201549281019290925260028101546001600160a01b0390811694830194909452909101549182166060820152600160a01b90910460ff16151560808201528351849084908110610827576108276134db565b6020026020010181905250818061083d90613541565b9250505b8061084b81613541565b915050610788565b50909392505050565b33600090815260046020526040812060060154606090829060ff166108b95760405162461bcd60e51b8152602060048201526013602482015272155cd95c881b9bdd081c9959da5cdd195c9959606a1b60448201526064016106af565b3360009081526004602090815260409182902091516108dc92600501910161355a565b604051602081830303815290604052805190602001208460405160200161090391906135d0565b60405160208183030381529060405280519060200120146109595760405162461bcd60e51b815260206004820152601060248201526f125b9d9b185a59081c185cdcdddbdc9960821b60448201526064016106af565b336000818152600460205260409081902090517f1732e660d4b2e125ea2cdba3ff57da5379f6b98385fa1c9885964b87cebec6d39161099d916003909101906135ec565b60405180910390a2336000818152600460205260409020600501805460019082906109c7906134f1565b80601f01602080910402602001604051908101604052809291908181526020018280546109f3906134f1565b8015610a405780601f10610a1557610100808354040283529160200191610a40565b820191906000526020600020905b815481529060010190602001808311610a2357829003601f168201915b505050505091509250925092509193909250565b60006008546001610a65919061367c565b905090565b60068181548110610a7a57600080fd5b60009182526020909120600890910201805460018201546002830180549294506001600160a01b039091169291610ab0906134f1565b80601f0160208091040260200160405190810160405280929190818152602001828054610adc906134f1565b8015610b295780601f10610afe57610100808354040283529160200191610b29565b820191906000526020600020905b815481529060010190602001808311610b0c57829003601f168201915b505050505090806003018054610b3e906134f1565b80601f0160208091040260200160405190810160405280929190818152602001828054610b6a906134f1565b8015610bb75780601f10610b8c57610100808354040283529160200191610bb7565b820191906000526020600020905b815481529060010190602001808311610b9a57829003601f168201915b505050505090806004018054610bcc906134f1565b80601f0160208091040260200160405190810160405280929190818152602001828054610bf8906134f1565b8015610c455780601f10610c1a57610100808354040283529160200191610c45565b820191906000526020600020905b815481529060010190602001808311610c2857829003601f168201915b505050505090806005018054610c5a906134f1565b80601f0160208091040260200160405190810160405280929190818152602001828054610c86906134f1565b8015610cd35780601f10610ca857610100808354040283529160200191610cd3565b820191906000526020600020905b815481529060010190602001808311610cb657829003601f168201915b505050506006830154600790930154919260ff1691905088565b3360009081526004602052604090206006015460ff16610d455760405162461bcd60e51b8152602060048201526013602482015272155cd95c881b9bdd081c9959da5cdd195c9959606a1b60448201526064016106af565b336000908152600460205260409020600501610d6182826136e0565b5050565b60088054906000610d7583613541565b909155505060408051610100810182526008805482523360208084018281528486018b8152606086018b9052608086018a905260a0860189905287151560c08701524260e0870152600093845260018084529684208054808901825590855292909320855192909402909301908155915193820180546001600160a01b0319166001600160a01b03909516949094179093559151909182916002820190610e1c90826136e0565b5060608201516003820190610e3190826136e0565b5060808201516004820190610e4690826136e0565b5060a08201516005820190610e5b90826136e0565b5060c082015160068201805460ff191691151591909117905560e0909101516007909101558115610fa2576006805460018101825560009190915281517ff652222313e28459528d920b65115c16c04f3efc82aaedc97be59f3f377c0d3f600890920291820190815560208301517ff652222313e28459528d920b65115c16c04f3efc82aaedc97be59f3f377c0d40830180546001600160a01b0319166001600160a01b03909216919091179055604083015183927ff652222313e28459528d920b65115c16c04f3efc82aaedc97be59f3f377c0d410190610f3d90826136e0565b5060608201516003820190610f5290826136e0565b5060808201516004820190610f6790826136e0565b5060a08201516005820190610f7c90826136e0565b5060c082015160068201805460ff191691151591909117905560e0909101516007909101555b336001600160a01b03167f4b0334d6e57f0bb5a6c26031c3e1ea6c2a4c8413e216bd4f3c2f73be81f70aea878585604051610fdf939291906137a0565b60405180910390a2505050505050565b3360009081526001602052604081205460065460609282905b3360009081526002602052604090205481101561107257336000908152600260205260409020805482908110611040576110406134db565b600091825260209091206008600a90920201015460ff161561106a578161106681613541565b9250505b600101611008565b50600061107f82846137d8565b67ffffffffffffffff81111561109757611097612ebc565b6040519080825280602002602001820160405280156110d057816020015b6110bd612cb7565b8152602001906001900390816110b55790505b5090506000805b848110156114f65760008060005b8881101561115b5733600090815260016020526040902080548290811061110e5761110e6134db565b90600052602060002090600802016000015460068581548110611133576111336134db565b90600052602060002090600802016000015403611153576001925061115b565b6001016110e5565b5060005b336000908152600260205260409020548110156111e457336000908152600260205260409020805482908110611197576111976134db565b90600052602060002090600a020160010154600685815481106111bc576111bc6134db565b906000526020600020906008020160000154036111dc57600191506111e4565b60010161115f565b50811580156111f1575080155b156114ec5760068381548110611209576112096134db565b906000526020600020906008020160405180610100016040529081600082015481526020016001820160009054906101000a90046001600160a01b03166001600160a01b03166001600160a01b0316815260200160028201805461126c906134f1565b80601f0160208091040260200160405190810160405280929190818152602001828054611298906134f1565b80156112e55780601f106112ba576101008083540402835291602001916112e5565b820191906000526020600020905b8154815290600101906020018083116112c857829003601f168201915b505050505081526020016003820180546112fe906134f1565b80601f016020809104026020016040519081016040528092919081815260200182805461132a906134f1565b80156113775780601f1061134c57610100808354040283529160200191611377565b820191906000526020600020905b81548152906001019060200180831161135a57829003601f168201915b50505050508152602001600482018054611390906134f1565b80601f01602080910402602001604051908101604052809291908181526020018280546113bc906134f1565b80156114095780601f106113de57610100808354040283529160200191611409565b820191906000526020600020905b8154815290600101906020018083116113ec57829003601f168201915b50505050508152602001600582018054611422906134f1565b80601f016020809104026020016040519081016040528092919081815260200182805461144e906134f1565b801561149b5780601f106114705761010080835404028352916020019161149b565b820191906000526020600020905b81548152906001019060200180831161147e57829003601f168201915b5050509183525050600682015460ff161515602082015260079091015460409091015285518690869081106114d2576114d26134db565b602002602001018190525083806114e890613541565b9450505b50506001016110d7565b509095945050505050565b6009805490600061151183613541565b90915550506040805160a081018252600980548083526020808401878152338587018181526001600160a01b038981166060808a01828152600060808c018181529981526003808a52908d90208c5181559751600189015594516002880180549186166001600160a01b03199092169190911790555195909301805497511515600160a01b026001600160a81b0319909816959092169490941795909517909455935486518981529283019490945294810194909452919290917f3563c2ab88374e4253e716e489b51ed99c61edfecc313080b65cb94efb16b3aa910160405180910390a2505050565b6060600060015b600954811161164f5760008181526003602081905260409091200154336001600160a01b039091160361163d578161163981613541565b9250505b8061164781613541565b915050611602565b5060008167ffffffffffffffff81111561166b5761166b612ebc565b6040519080825280602002602001820160405280156116c457816020015b6040805160a0810182526000808252602080830182905292820181905260608201819052608082015282526000199092019101816116895790505b509050600060015b60095481116108535760008181526003602081905260409091200154336001600160a01b039091160361178657600081815260036020818152604092839020835160a0810185528154815260018201549281019290925260028101546001600160a01b0390811694830194909452909101549182166060820152600160a01b90910460ff1615156080820152835184908490811061176c5761176c6134db565b6020026020010181905250818061178290613541565b9250505b8061179081613541565b9150506116cc565b6000818152600360208190526040909120908101546001600160a01b031633146118185760405162461bcd60e51b815260206004820152602b60248201527f4f6e6c79207468652066696c65206f776e65722063616e20617070726f76652060448201526a1d1a19481c995c5d595cdd60aa1b60648201526084016106af565b6003810154600160a01b900460ff161561186f5760405162461bcd60e51b815260206004820152601860248201527714995c5d595cdd08185b1c9958591e48185c1c1c9bdd995960421b60448201526064016106af565b60038101805460ff60a01b1916600160a01b17905560018101546000906118959061035b565b905060006118a1612bcb565b604080516101408101825282815284516020808301918252808701516001600160a01b0390811684860190815260028a810154831660608088018281528c8a01516080808b01918252928e015160a0808c0191909152928e015160c0808c0191909152928e015160e08b0152918d015115156101008a0152426101208a01526000928352838752988220805460018082018355918452969092208851600a90970201958655955190850155905190830180546001600160a01b031990811692841692909217905594516003830180549096169116179093555192935091829190600482019061199090826136e0565b5060a082015160058201906119a590826136e0565b5060c082015160068201906119ba90826136e0565b5060e082015160078201906119cf90826136e0565b5061010082015160088201805460ff1916911515919091179055610120909101516009909101556002840154602084015160408086015160a087015191516001600160a01b0394851694909316927fdb512b8780437591f9dd72ca8ab2dfce82baaa1c45f1eb9f45e8ee890fd6077f92611a4992916137eb565b60405180910390a3600184015460028501546003860154604080519384526001600160a01b03928316602085015291169082015285907f6e12100d9a45da1a9e96a9fc000ff4db7bfc27cc43fdf07dab275b581483fb499060600160405180910390a25050505050565b6000818152600360208190526040909120908101546001600160a01b03163314611b325760405162461bcd60e51b815260206004820152602a60248201527f4f6e6c79207468652066696c65206f776e65722063616e2072656a65637420746044820152691a19481c995c5d595cdd60b21b60648201526084016106af565b6003810154600160a01b900460ff1615611b895760405162461bcd60e51b815260206004820152601860248201527714995c5d595cdd08185b1c9958591e48185c1c1c9bdd995960421b60448201526064016106af565b6000828152600360208181526040808420848155600180820195909555600280820180546001600160a01b031916905590840180546001600160a81b031916905593850154938501549285015481519485526001600160a01b039384169285019290925291169082015282907f23bc048e2726b66e4b6df842e8940378c39ead4ceeeabbbe237bd71caf10603b9060600160405180910390a25050565b60606007805480602002602001604051908101604052809291908181526020016000905b82821015611f7e5760008481526020908190206040805160e081019091526007850290910180546001600160a01b031682526001810180549293919291840191611c93906134f1565b80601f0160208091040260200160405190810160405280929190818152602001828054611cbf906134f1565b8015611d0c5780601f10611ce157610100808354040283529160200191611d0c565b820191906000526020600020905b815481529060010190602001808311611cef57829003601f168201915b50505050508152602001600282018054611d25906134f1565b80601f0160208091040260200160405190810160405280929190818152602001828054611d51906134f1565b8015611d9e5780601f10611d7357610100808354040283529160200191611d9e565b820191906000526020600020905b815481529060010190602001808311611d8157829003601f168201915b50505050508152602001600382018054611db7906134f1565b80601f0160208091040260200160405190810160405280929190818152602001828054611de3906134f1565b8015611e305780601f10611e0557610100808354040283529160200191611e30565b820191906000526020600020905b815481529060010190602001808311611e1357829003601f168201915b50505050508152602001600482018054611e49906134f1565b80601f0160208091040260200160405190810160405280929190818152602001828054611e75906134f1565b8015611ec25780601f10611e9757610100808354040283529160200191611ec2565b820191906000526020600020905b815481529060010190602001808311611ea557829003601f168201915b50505050508152602001600582018054611edb906134f1565b80601f0160208091040260200160405190810160405280929190818152602001828054611f07906134f1565b8015611f545780601f10611f2957610100808354040283529160200191611f54565b820191906000526020600020905b815481529060010190602001808311611f3757829003601f168201915b50505091835250506006919091015460ff1615156020918201529082526001929092019101611c4a565b50505050905090565b336000908152600160209081526040808320805482518185028101850190935280835260609492939192909184015b82821015611f7e5760008481526020908190206040805161010081018252600886029092018054835260018101546001600160a01b0316938301939093526002830180549293929184019161200a906134f1565b80601f0160208091040260200160405190810160405280929190818152602001828054612036906134f1565b80156120835780601f1061205857610100808354040283529160200191612083565b820191906000526020600020905b81548152906001019060200180831161206657829003601f168201915b5050505050815260200160038201805461209c906134f1565b80601f01602080910402602001604051908101604052809291908181526020018280546120c8906134f1565b80156121155780601f106120ea57610100808354040283529160200191612115565b820191906000526020600020905b8154815290600101906020018083116120f857829003601f168201915b5050505050815260200160048201805461212e906134f1565b80601f016020809104026020016040519081016040528092919081815260200182805461215a906134f1565b80156121a75780601f1061217c576101008083540402835291602001916121a7565b820191906000526020600020905b81548152906001019060200180831161218a57829003601f168201915b505050505081526020016005820180546121c0906134f1565b80601f01602080910402602001604051908101604052809291908181526020018280546121ec906134f1565b80156122395780601f1061220e57610100808354040283529160200191612239565b820191906000526020600020905b81548152906001019060200180831161221c57829003601f168201915b5050509183525050600682015460ff1615156020808301919091526007909201546040909101529082526001929092019101611fb6565b6000805b6001600160a01b0384166000908152600160205260409020548110156122ea576001600160a01b03841660009081526001602052604090208054849190839081106122c1576122c16134db565b906000526020600020906008020160000154036122e257600191505061236a565b600101612274565b5060005b6001600160a01b038416600090815260026020526040902054811015612364576001600160a01b038416600090815260026020526040902080548491908390811061233b5761233b6134db565b90600052602060002090600a0201600101540361235c57600191505061236a565b6001016122ee565b50600090505b92915050565b336000908152600260209081526040808320805482518185028101850190935280835260609492939192909184015b82821015611f7e5760008481526020908190206040805161014081018252600a86029092018054835260018101549383019390935260028301546001600160a01b0390811691830191909152600383015416606082015260048201805491929160808401919061240e906134f1565b80601f016020809104026020016040519081016040528092919081815260200182805461243a906134f1565b80156124875780601f1061245c57610100808354040283529160200191612487565b820191906000526020600020905b81548152906001019060200180831161246a57829003601f168201915b505050505081526020016005820180546124a0906134f1565b80601f01602080910402602001604051908101604052809291908181526020018280546124cc906134f1565b80156125195780601f106124ee57610100808354040283529160200191612519565b820191906000526020600020905b8154815290600101906020018083116124fc57829003601f168201915b50505050508152602001600682018054612532906134f1565b80601f016020809104026020016040519081016040528092919081815260200182805461255e906134f1565b80156125ab5780601f10612580576101008083540402835291602001916125ab565b820191906000526020600020905b81548152906001019060200180831161258e57829003601f168201915b505050505081526020016007820180546125c4906134f1565b80601f01602080910402602001604051908101604052809291908181526020018280546125f0906134f1565b801561263d5780601f106126125761010080835404028352916020019161263d565b820191906000526020600020905b81548152906001019060200180831161262057829003601f168201915b5050509183525050600882015460ff161515602080830191909152600990920154604090910152908252600192909201910161239f565b60606006805480602002602001604051908101604052809291908181526020016000905b82821015611f7e5760008481526020908190206040805161010081018252600886029092018054835260018101546001600160a01b031693830193909352600283018054929392918401916126ec906134f1565b80601f0160208091040260200160405190810160405280929190818152602001828054612718906134f1565b80156127655780601f1061273a57610100808354040283529160200191612765565b820191906000526020600020905b81548152906001019060200180831161274857829003601f168201915b5050505050815260200160038201805461277e906134f1565b80601f01602080910402602001604051908101604052809291908181526020018280546127aa906134f1565b80156127f75780601f106127cc576101008083540402835291602001916127f7565b820191906000526020600020905b8154815290600101906020018083116127da57829003601f168201915b50505050508152602001600482018054612810906134f1565b80601f016020809104026020016040519081016040528092919081815260200182805461283c906134f1565b80156128895780601f1061285e57610100808354040283529160200191612889565b820191906000526020600020905b81548152906001019060200180831161286c57829003601f168201915b505050505081526020016005820180546128a2906134f1565b80601f01602080910402602001604051908101604052809291908181526020018280546128ce906134f1565b801561291b5780601f106128f05761010080835404028352916020019161291b565b820191906000526020600020905b8154815290600101906020018083116128fe57829003601f168201915b5050509183525050600682015460ff1615156020808301919091526007909201546040909101529082526001929092019101612698565b3360009081526004602052604090206006015460ff16156129b55760405162461bcd60e51b815260206004820152601760248201527f5573657220616c7265616479207265676973746572656400000000000000000060448201526064016106af565b6040805160e081018252338082526020808301898152838501899052606084018890526080840187905260a08401869052600160c085018190526000938452600490925293909120825181546001600160a01b0319166001600160a01b039091161781559251919283929091820190612a2e90826136e0565b5060408201516002820190612a4390826136e0565b5060608201516003820190612a5890826136e0565b5060808201516004820190612a6d90826136e0565b5060a08201516005820190612a8290826136e0565b5060c091909101516006909101805460ff191691151591909117905560078054600181018255600082905282517fa66cc928b5edb82af9bd49922954155ab7b0942694bea4ce44661d9a8736c6889190920290810180546001600160a01b0319166001600160a01b0390931692909217825560208301518392917fa66cc928b5edb82af9bd49922954155ab7b0942694bea4ce44661d9a8736c6890190612b2990826136e0565b5060408201516002820190612b3e90826136e0565b5060608201516003820190612b5390826136e0565b5060808201516004820190612b6890826136e0565b5060a08201516005820190612b7d90826136e0565b5060c091909101516006909101805460ff191691151591909117905560405133907f8f4d87d07c48b68f8281fb8420a0f851ddcb1fe47564547262e3eb287587d8d790610fdf908790613819565b60008042434033604051602001612c0793929190928352602083019190915260601b6bffffffffffffffffffffffff1916604082015260540190565b60408051601f19818403018152919052805160209091012090506000612c326402540be4008361382c565b90505b60008181526005602052604090205460ff1615612c98578142604051602001612c68929190918252602082015260400190565b60408051601f1981840301815291905280516020909101209150612c916402540be4008361382c565b9050612c35565b6000818152600560205260409020805460ff1916600117905592915050565b6040518061010001604052806000815260200160006001600160a01b0316815260200160608152602001606081526020016060815260200160608152602001600015158152602001600081525090565b600060208284031215612d1957600080fd5b5035919050565b60005b83811015612d3b578181015183820152602001612d23565b50506000910152565b60008151808452612d5c816020860160208601612d20565b601f01601f19169290920160200192915050565b6000610100825184526020830151612d9360208601826001600160a01b03169052565b506040830151816040860152612dab82860182612d44565b91505060608301518482036060860152612dc58282612d44565b91505060808301518482036080860152612ddf8282612d44565b91505060a083015184820360a0860152612df98282612d44565b91505060c0830151612e0f60c086018215159052565b5060e083015160e08501528091505092915050565b602081526000612e376020830184612d70565b9392505050565b602080825282518282018190526000919060409081850190868401855b82811015612eaf578151805185528681015187860152858101516001600160a01b03908116878701526060808301519091169086015260809081015115159085015260a09093019290850190600101612e5b565b5091979650505050505050565b634e487b7160e01b600052604160045260246000fd5b600082601f830112612ee357600080fd5b813567ffffffffffffffff80821115612efe57612efe612ebc565b604051601f8301601f19908116603f01168101908282118183101715612f2657612f26612ebc565b81604052838152866020858801011115612f3f57600080fd5b836020870160208301376000602085830101528094505050505092915050565b600060208284031215612f7157600080fd5b813567ffffffffffffffff811115612f8857600080fd5b612f9484828501612ed2565b949350505050565b6001600160a01b0384168152606060208201819052600090612fc090830185612d44565b90508215156040830152949350505050565b8881526001600160a01b038816602082015261010060408201819052600090612ffd8382018a612d44565b905082810360608401526130118189612d44565b905082810360808401526130258188612d44565b905082810360a08401526130398187612d44565b94151560c0840152505060e001529695505050505050565b600080600080600060a0868803121561306957600080fd5b853567ffffffffffffffff8082111561308157600080fd5b61308d89838a01612ed2565b965060208801359150808211156130a357600080fd5b6130af89838a01612ed2565b955060408801359150808211156130c557600080fd5b6130d189838a01612ed2565b945060608801359150808211156130e757600080fd5b506130f488828901612ed2565b9250506080860135801515811461310a57600080fd5b809150509295509295909350565b600060208083016020845280855180835260408601915060408160051b87010192506020870160005b8281101561316f57603f1988860301845261315d858351612d70565b94509285019290850190600101613141565b5092979650505050505050565b80356001600160a01b038116811461319357600080fd5b919050565b600080604083850312156131ab57600080fd5b823591506131bb6020840161317c565b90509250929050565b600060208083018184528085518083526040925060408601915060408160051b87010184880160005b838110156132bb57888303603f19018552815180516001600160a01b031684528781015160e08986018190529061322682870182612d44565b915050878201518582038987015261323e8282612d44565b915050606080830151868303828801526132588382612d44565b92505050608080830151868303828801526132738382612d44565b9250505060a0808301518683038288015261328e8382612d44565b9250505060c08083015192506132a78187018415159052565b5095880195935050908601906001016131ed565b509098975050505050505050565b600080604083850312156132dc57600080fd5b6132e58361317c565b946020939093013593505050565b600060208083018184528085518083526040925060408601915060408160051b87010184880160005b838110156132bb57888303603f190185528151805184528781015188850152868101516001600160a01b0381168886015261014090506060828101516001600160a01b038116878301525050608080830151828288015261337f83880182612d44565b9250505060a0808301518683038288015261339a8382612d44565b9250505060c080830151868303828801526133b58382612d44565b9250505060e080830151868303828801526133d08382612d44565b92505050610100808301516133e88288018215159052565b5050610120918201519490910193909352938601939086019060010161331c565b600080600080600060a0868803121561342157600080fd5b853567ffffffffffffffff8082111561343957600080fd5b61344589838a01612ed2565b9650602088013591508082111561345b57600080fd5b61346789838a01612ed2565b9550604088013591508082111561347d57600080fd5b61348989838a01612ed2565b9450606088013591508082111561349f57600080fd5b6134ab89838a01612ed2565b935060808801359150808211156134c157600080fd5b506134ce88828901612ed2565b9150509295509295909350565b634e487b7160e01b600052603260045260246000fd5b600181811c9082168061350557607f821691505b60208210810361352557634e487b7160e01b600052602260045260246000fd5b50919050565b634e487b7160e01b600052601160045260246000fd5b6000600182016135535761355361352b565b5060010190565b6000808354613568816134f1565b600182811680156135805760018114613595576135c4565b60ff19841687528215158302870194506135c4565b8760005260208060002060005b858110156135bb5781548a8201529084019082016135a2565b50505082870194505b50929695505050505050565b600082516135e2818460208701612d20565b9190910192915050565b6000602080835260008454613600816134f1565b8060208701526040600180841660008114613622576001811461363e5761366e565b60ff19851660408a0152604084151560051b8a0101955061366e565b89600052602060002060005b858110156136655781548b820186015290830190880161364a565b8a016040019650505b509398975050505050505050565b8082018082111561236a5761236a61352b565b601f8211156136db576000816000526020600020601f850160051c810160208610156136b85750805b601f850160051c820191505b818110156136d7578281556001016136c4565b5050505b505050565b815167ffffffffffffffff8111156136fa576136fa612ebc565b61370e8161370884546134f1565b8461368f565b602080601f831160018114613743576000841561372b5750858301515b600019600386901b1c1916600185901b1785556136d7565b600085815260208120601f198616915b8281101561377257888601518255948401946001909101908401613753565b50858210156137905787850151600019600388901b60f8161c191681555b5050505050600190811b01905550565b6060815260006137b36060830186612d44565b82810360208401526137c58186612d44565b9150508215156040830152949350505050565b8181038181111561236a5761236a61352b565b6040815260006137fe6040830185612d44565b82810360208401526138108185612d44565b95945050505050565b602081526000612e376020830184612d44565b60008261384957634e487b7160e01b600052601260045260246000fd5b50069056fea26469706673582212201f1501be37ccca8a5bcca774bbdd66e9d93cc1401d5ca1830017d8f97baa203064736f6c63430008180033",
  "linkReferences": {},
  "deployedLinkReferences": {}
}