{
  "_format": "hh-sol-artifact-1",
  "contractName": "LicenseMarketplace",
  "sourceName": "contracts/LicenseMarketplace.sol",
  "abi": [
    {
      "inputs": [],
      "stateMutability": "nonpayable",
      "type": "constructor"
    },
    {
      "anonymous": false,
      "inputs": [
        {
          "indexed": true,
          "internalType": "address",
          "name": "owner",
          "type": "address"
        },
        {
          "indexed": true,
          "internalType": "address",
          "name": "buyer",
          "type": "address"
        },
        {
          "indexed": false,
          "internalType": "string",
          "name": "fileName",
          "type": "string"
        }
      ],
      "name": "FileLicense",
      "type": "event"
    },
    {
      "anonymous": false,
      "inputs": [
        {
          "indexed": true,
          "internalType": "address",
          "name": "owner",
          "type": "address"
        },
        {
          "indexed": false,
          "internalType": "string",
          "name": "fileName",
          "type": "string"
        }
      ],
      "name": "FileShared",
      "type": "event"
    },
    {
      "anonymous": false,
      "inputs": [
        {
          "indexed": true,
          "internalType": "uint256",
          "name": "requestId",
          "type": "uint256"
        },
        {
          "indexed": false,
          "internalType": "uint256",
          "name": "fileId",
          "type": "uint256"
        },
        {
          "indexed": false,
          "internalType": "address",
          "name": "requester",
          "type": "address"
        },
        {
          "indexed": false,
          "internalType": "address",
          "name": "fileOwner",
          "type": "address"
        }
      ],
      "name": "LicenseRequestApproved",
      "type": "event"
    },
    {
      "anonymous": false,
      "inputs": [
        {
          "indexed": true,
          "internalType": "uint256",
          "name": "requestId",
          "type": "uint256"
        },
        {
          "indexed": false,
          "internalType": "uint256",
          "name": "fileId",
          "type": "uint256"
        },
        {
          "indexed": false,
          "internalType": "address",
          "name": "requester",
          "type": "address"
        },
        {
          "indexed": false,
          "internalType": "address",
          "name": "fileOwner",
          "type": "address"
        }
      ],
      "name": "LicenseRequestCreated",
      "type": "event"
    },
    {
      "anonymous": false,
      "inputs": [
        {
          "indexed": true,
          "internalType": "uint256",
          "name": "requestId",
          "type": "uint256"
        },
        {
          "indexed": false,
          "internalType": "uint256",
          "name": "fileId",
          "type": "uint256"
        },
        {
          "indexed": false,
          "internalType": "address",
          "name": "requester",
          "type": "address"
        },
        {
          "indexed": false,
          "internalType": "address",
          "name": "fileOwner",
          "type": "address"
        }
      ],
      "name": "LicenseRequestRejected",
      "type": "event"
    },
    {
      "inputs": [
        {
          "internalType": "uint256",
          "name": "_requestId",
          "type": "uint256"
        }
      ],
      "name": "approveLicenseRequest",
      "outputs": [],
      "stateMutability": "nonpayable",
      "type": "function"
    },
    {
      "inputs": [
        {
          "internalType": "string",
          "name": "_fileName",
          "type": "string"
        },
        {
          "internalType": "string",
          "name": "_description",
          "type": "string"
        },
        {
          "internalType": "string",
          "name": "_category",
          "type": "string"
        },
        {
          "internalType": "string",
          "name": "_fileCid",
          "type": "string"
        },
        {
          "internalType": "uint256",
          "name": "_fileSize",
          "type": "uint256"
        },
        {
          "internalType": "string",
          "name": "_imgUrl",
          "type": "string"
        },
        {
          "internalType": "uint256",
          "name": "_price",
          "type": "uint256"
        }
      ],
      "name": "createFile",
      "outputs": [],
      "stateMutability": "nonpayable",
      "type": "function"
    },
    {
      "inputs": [],
      "name": "fileId",
      "outputs": [
        {
          "internalType": "uint256",
          "name": "",
          "type": "uint256"
        }
      ],
      "stateMutability": "view",
      "type": "function"
    },
    {
      "inputs": [],
      "name": "getAllUserFiles",
      "outputs": [
        {
          "components": [
            {
              "internalType": "uint256",
              "name": "id",
              "type": "uint256"
            },
            {
              "internalType": "address",
              "name": "fileOwner",
              "type": "address"
            },
            {
              "internalType": "string",
              "name": "fileName",
              "type": "string"
            },
            {
              "internalType": "string",
              "name": "description",
              "type": "string"
            },
            {
              "internalType": "string",
              "name": "category",
              "type": "string"
            },
            {
              "internalType": "string",
              "name": "fileCid",
              "type": "string"
            },
            {
              "internalType": "string",
              "name": "imgUrl",
              "type": "string"
            },
            {
              "internalType": "uint256",
              "name": "fileSize",
              "type": "uint256"
            },
            {
              "internalType": "uint256",
              "name": "createdAt",
              "type": "uint256"
            },
            {
              "internalType": "uint256",
              "name": "price",
              "type": "uint256"
            }
          ],
          "internalType": "struct LicenseMarketplace.File[]",
          "name": "",
          "type": "tuple[]"
        }
      ],
      "stateMutability": "view",
      "type": "function"
    },
    {
      "inputs": [],
      "name": "getAllUserLicenses",
      "outputs": [
        {
          "components": [
            {
              "internalType": "uint256",
              "name": "licenseNumber",
              "type": "uint256"
            },
            {
              "internalType": "uint256",
              "name": "fileId",
              "type": "uint256"
            },
            {
              "internalType": "address",
              "name": "fileOwner",
              "type": "address"
            },
            {
              "internalType": "address",
              "name": "buyer",
              "type": "address"
            },
            {
              "internalType": "string",
              "name": "fileName",
              "type": "string"
            },
            {
              "internalType": "string",
              "name": "description",
              "type": "string"
            },
            {
              "internalType": "string",
              "name": "category",
              "type": "string"
            },
            {
              "internalType": "string",
              "name": "fileCid",
              "type": "string"
            },
            {
              "internalType": "string",
              "name": "imgUrl",
              "type": "string"
            },
            {
              "internalType": "uint256",
              "name": "fileSize",
              "type": "uint256"
            },
            {
              "internalType": "uint256",
              "name": "createdAt",
              "type": "uint256"
            },
            {
              "internalType": "uint256",
              "name": "price",
              "type": "uint256"
            }
          ],
          "internalType": "struct LicenseMarketplace.License[]",
          "name": "",
          "type": "tuple[]"
        }
      ],
      "stateMutability": "view",
      "type": "function"
    },
    {
      "inputs": [],
      "name": "getFileId",
      "outputs": [
        {
          "internalType": "uint256",
          "name": "",
          "type": "uint256"
        }
      ],
      "stateMutability": "view",
      "type": "function"
    },
    {
      "inputs": [],
      "name": "getFileOwnerLicenseRequests",
      "outputs": [
        {
          "components": [
            {
              "internalType": "uint256",
              "name": "requestId",
              "type": "uint256"
            },
            {
              "internalType": "uint256",
              "name": "fileId",
              "type": "uint256"
            },
            {
              "internalType": "string",
              "name": "fileName",
              "type": "string"
            },
            {
              "internalType": "address",
              "name": "requester",
              "type": "address"
            },
            {
              "internalType": "address",
              "name": "fileOwner",
              "type": "address"
            },
            {
              "internalType": "uint256",
              "name": "requestedAt",
              "type": "uint256"
            },
            {
              "internalType": "bool",
              "name": "isApproved",
              "type": "bool"
            },
            {
              "internalType": "uint256",
              "name": "assetPrice",
              "type": "uint256"
            }
          ],
          "internalType": "struct LicenseMarketplace.LicenseRequest[]",
          "name": "",
          "type": "tuple[]"
        }
      ],
      "stateMutability": "view",
      "type": "function"
    },
    {
      "inputs": [],
      "name": "getFund",
      "outputs": [
        {
          "internalType": "uint256",
          "name": "",
          "type": "uint256"
        }
      ],
      "stateMutability": "view",
      "type": "function"
    },
    {
      "inputs": [
        {
          "internalType": "uint256",
          "name": "_id",
          "type": "uint256"
        }
      ],
      "name": "getPublicFileById",
      "outputs": [
        {
          "components": [
            {
              "internalType": "uint256",
              "name": "id",
              "type": "uint256"
            },
            {
              "internalType": "address",
              "name": "fileOwner",
              "type": "address"
            },
            {
              "internalType": "string",
              "name": "fileName",
              "type": "string"
            },
            {
              "internalType": "string",
              "name": "description",
              "type": "string"
            },
            {
              "internalType": "string",
              "name": "category",
              "type": "string"
            },
            {
              "internalType": "string",
              "name": "fileCid",
              "type": "string"
            },
            {
              "internalType": "string",
              "name": "imgUrl",
              "type": "string"
            },
            {
              "internalType": "uint256",
              "name": "fileSize",
              "type": "uint256"
            },
            {
              "internalType": "uint256",
              "name": "createdAt",
              "type": "uint256"
            },
            {
              "internalType": "uint256",
              "name": "price",
              "type": "uint256"
            }
          ],
          "internalType": "struct LicenseMarketplace.File",
          "name": "",
          "type": "tuple"
        }
      ],
      "stateMutability": "view",
      "type": "function"
    },
    {
      "inputs": [],
      "name": "getPublicFiles",
      "outputs": [
        {
          "components": [
            {
              "internalType": "uint256",
              "name": "id",
              "type": "uint256"
            },
            {
              "internalType": "address",
              "name": "fileOwner",
              "type": "address"
            },
            {
              "internalType": "string",
              "name": "fileName",
              "type": "string"
            },
            {
              "internalType": "string",
              "name": "description",
              "type": "string"
            },
            {
              "internalType": "string",
              "name": "category",
              "type": "string"
            },
            {
              "internalType": "string",
              "name": "fileCid",
              "type": "string"
            },
            {
              "internalType": "string",
              "name": "imgUrl",
              "type": "string"
            },
            {
              "internalType": "uint256",
              "name": "fileSize",
              "type": "uint256"
            },
            {
              "internalType": "uint256",
              "name": "createdAt",
              "type": "uint256"
            },
            {
              "internalType": "uint256",
              "name": "price",
              "type": "uint256"
            }
          ],
          "internalType": "struct LicenseMarketplace.File[]",
          "name": "",
          "type": "tuple[]"
        }
      ],
      "stateMutability": "view",
      "type": "function"
    },
    {
      "inputs": [],
      "name": "getUserLicenseRequests",
      "outputs": [
        {
          "components": [
            {
              "internalType": "uint256",
              "name": "requestId",
              "type": "uint256"
            },
            {
              "internalType": "uint256",
              "name": "fileId",
              "type": "uint256"
            },
            {
              "internalType": "string",
              "name": "fileName",
              "type": "string"
            },
            {
              "internalType": "address",
              "name": "requester",
              "type": "address"
            },
            {
              "internalType": "address",
              "name": "fileOwner",
              "type": "address"
            },
            {
              "internalType": "uint256",
              "name": "requestedAt",
              "type": "uint256"
            },
            {
              "internalType": "bool",
              "name": "isApproved",
              "type": "bool"
            },
            {
              "internalType": "uint256",
              "name": "assetPrice",
              "type": "uint256"
            }
          ],
          "internalType": "struct LicenseMarketplace.LicenseRequest[]",
          "name": "",
          "type": "tuple[]"
        }
      ],
      "stateMutability": "view",
      "type": "function"
    },
    {
      "inputs": [],
      "name": "getWithdrawableFund",
      "outputs": [
        {
          "internalType": "uint256",
          "name": "",
          "type": "uint256"
        }
      ],
      "stateMutability": "view",
      "type": "function"
    },
    {
      "inputs": [
        {
          "internalType": "address",
          "name": "_user",
          "type": "address"
        },
        {
          "internalType": "uint256",
          "name": "_fileId",
          "type": "uint256"
        }
      ],
      "name": "isFileOwnedOrLicensed",
      "outputs": [
        {
          "internalType": "bool",
          "name": "",
          "type": "bool"
        }
      ],
      "stateMutability": "view",
      "type": "function"
    },
    {
      "inputs": [],
      "name": "owner",
      "outputs": [
        {
          "internalType": "address",
          "name": "",
          "type": "address"
        }
      ],
      "stateMutability": "view",
      "type": "function"
    },
    {
      "inputs": [
        {
          "internalType": "uint256",
          "name": "",
          "type": "uint256"
        }
      ],
      "name": "publicFiles",
      "outputs": [
        {
          "internalType": "uint256",
          "name": "id",
          "type": "uint256"
        },
        {
          "internalType": "address",
          "name": "fileOwner",
          "type": "address"
        },
        {
          "internalType": "string",
          "name": "fileName",
          "type": "string"
        },
        {
          "internalType": "string",
          "name": "description",
          "type": "string"
        },
        {
          "internalType": "string",
          "name": "category",
          "type": "string"
        },
        {
          "internalType": "string",
          "name": "fileCid",
          "type": "string"
        },
        {
          "internalType": "string",
          "name": "imgUrl",
          "type": "string"
        },
        {
          "internalType": "uint256",
          "name": "fileSize",
          "type": "uint256"
        },
        {
          "internalType": "uint256",
          "name": "createdAt",
          "type": "uint256"
        },
        {
          "internalType": "uint256",
          "name": "price",
          "type": "uint256"
        }
      ],
      "stateMutability": "view",
      "type": "function"
    },
    {
      "inputs": [
        {
          "internalType": "uint256",
          "name": "_requestId",
          "type": "uint256"
        }
      ],
      "name": "rejectLicenseRequest",
      "outputs": [],
      "stateMutability": "nonpayable",
      "type": "function"
    },
    {
      "inputs": [],
      "name": "requestId",
      "outputs": [
        {
          "internalType": "uint256",
          "name": "",
          "type": "uint256"
        }
      ],
      "stateMutability": "view",
      "type": "function"
    },
    {
      "inputs": [
        {
          "internalType": "uint256",
          "name": "_fileId",
          "type": "uint256"
        },
        {
          "internalType": "address",
          "name": "_fileOwner",
          "type": "address"
        },
        {
          "internalType": "string",
          "name": "_fileName",
          "type": "string"
        },
        {
          "internalType": "uint256",
          "name": "_assetPrice",
          "type": "uint256"
        }
      ],
      "name": "requestLicense",
      "outputs": [],
      "stateMutability": "payable",
      "type": "function"
    },
    {
      "inputs": [
        {
          "internalType": "uint256",
          "name": "",
          "type": "uint256"
        }
      ],
      "name": "usedLicenses",
      "outputs": [
        {
          "internalType": "bool",
          "name": "",
          "type": "bool"
        }
      ],
      "stateMutability": "view",
      "type": "function"
    },
    {
      "inputs": [
        {
          "internalType": "uint256",
          "name": "licenseNumber",
          "type": "uint256"
        }
      ],
      "name": "validateLicense",
      "outputs": [
        {
          "internalType": "bool",
          "name": "",
          "type": "bool"
        }
      ],
      "stateMutability": "view",
      "type": "function"
    },
    {
      "inputs": [],
      "name": "withdrawFund",
      "outputs": [],
      "stateMutability": "nonpayable",
      "type": "function"
    }
  ],
  "bytecode": "0x608060405234801561001057600080fd5b50600080546001600160a01b031916331790556130d8806100326000396000f3fe6080604052600436106101275760003560e01c80638da5cb5b116100ab578063b448bb2d1161006f578063b448bb2d14610357578063b98e644d14610377578063c3ba2cd914610399578063db58b57f146103ae578063e07fa3c1146103ce578063e399e268146103e357600080fd5b80638da5cb5b146102a85780638edd6eb6146102e0578063a5bcf14a14610302578063a6b9bcf614610322578063a764b9cd1461033757600080fd5b806340187599116100f257806340187599146101d75780634506708e146101ec5780635f70a8fe14610222578063641b66e414610262578063787a37b91461027857600080fd5b806183631461012c5780626d6cae1461015d5780630cc6f1a2146101735780630e41750d146101a057806337ef9440146101b5575b600080fd5b34801561013857600080fd5b50336000908152600660205260409020545b6040519081526020015b60405180910390f35b34801561016957600080fd5b5061014a60095481565b34801561017f57600080fd5b5061019361018e366004612845565b610405565b6040516101549190612973565b6101b36101ae366004612a4c565b610850565b005b3480156101c157600080fd5b506101ca610a75565b6040516101549190612aab565b3480156101e357600080fd5b5061014a610ca5565b3480156101f857600080fd5b5061020c610207366004612845565b610cbb565b6040516101549a99989796959493929190612b74565b34801561022e57600080fd5b5061025261023d366004612845565b60009081526004602052604090205460ff1690565b6040519015158152602001610154565b34801561026e57600080fd5b5061014a60085481565b34801561028457600080fd5b50610252610293366004612845565b60046020526000908152604090205460ff1681565b3480156102b457600080fd5b506000546102c8906001600160a01b031681565b6040516001600160a01b039091168152602001610154565b3480156102ec57600080fd5b503360009081526005602052604090205461014a565b34801561030e57600080fd5b506101b361031d366004612c14565b610fce565b34801561032e57600080fd5b506101ca611282565b34801561034357600080fd5b506101b3610352366004612845565b6114a7565b34801561036357600080fd5b506101b3610372366004612845565b61182a565b34801561038357600080fd5b5061038c611a1b565b6040516101549190612cf9565b3480156103a557600080fd5b5061038c611d93565b3480156103ba57600080fd5b506102526103c9366004612d5d565b61210d565b3480156103da57600080fd5b506101b361220d565b3480156103ef57600080fd5b506103f861227e565b6040516101549190612d87565b6104646040518061014001604052806000815260200160006001600160a01b0316815260200160608152602001606081526020016060815260200160608152602001606081526020016000815260200160008152602001600081525090565b60005b60075481101561080a57826007828154811061048557610485612eb8565b90600052602060002090600a0201600001540361080257600781815481106104af576104af612eb8565b90600052602060002090600a020160405180610140016040529081600082015481526020016001820160009054906101000a90046001600160a01b03166001600160a01b03166001600160a01b0316815260200160028201805461051290612ece565b80601f016020809104026020016040519081016040528092919081815260200182805461053e90612ece565b801561058b5780601f106105605761010080835404028352916020019161058b565b820191906000526020600020905b81548152906001019060200180831161056e57829003601f168201915b505050505081526020016003820180546105a490612ece565b80601f01602080910402602001604051908101604052809291908181526020018280546105d090612ece565b801561061d5780601f106105f25761010080835404028352916020019161061d565b820191906000526020600020905b81548152906001019060200180831161060057829003601f168201915b5050505050815260200160048201805461063690612ece565b80601f016020809104026020016040519081016040528092919081815260200182805461066290612ece565b80156106af5780601f10610684576101008083540402835291602001916106af565b820191906000526020600020905b81548152906001019060200180831161069257829003601f168201915b505050505081526020016005820180546106c890612ece565b80601f01602080910402602001604051908101604052809291908181526020018280546106f490612ece565b80156107415780601f1061071657610100808354040283529160200191610741565b820191906000526020600020905b81548152906001019060200180831161072457829003601f168201915b5050505050815260200160068201805461075a90612ece565b80601f016020809104026020016040519081016040528092919081815260200182805461078690612ece565b80156107d35780601f106107a8576101008083540402835291602001916107d3565b820191906000526020600020905b8154815290600101906020018083116107b657829003601f168201915b505050505081526020016007820154815260200160088201548152602001600982015481525050915050919050565b600101610467565b5060405162461bcd60e51b8152602060048201526015602482015274141d589b1a58c8199a5b19481b9bdd08199bdd5b99605a1b60448201526064015b60405180910390fd5b61085a338561210d565b156108c05760405162461bcd60e51b815260206004820152603060248201527f5573657220616c7265616479206f776e73206f72206861732061206c6963656e60448201526f736520666f7220746869732066696c6560801b6064820152608401610847565b8034146108ff5760405162461bcd60e51b815260206004820152600d60248201526c141c9a58d9481b9bdd081b595d609a1b6044820152606401610847565b6009805490600061090f83612f1e565b9091555050604080516101008101825260095480825260208083018881528385018781523360608601526001600160a01b03891660808601524260a0860152600060c0860181905260e086018890529384526003909252939091208251815592516001840155519091829160028201906109899082612f87565b5060608201516003820180546001600160a01b03199081166001600160a01b0393841617909155608084015160048401805490921690831617905560a083015160058084019190915560c084015160068401805460ff191691151591909117905560e09093015160079092019190915585166000908152602091909152604081208054349290610a1a908490613047565b9091555050600954604080518781523360208201526001600160a01b038716918101919091527f3563c2ab88374e4253e716e489b51ed99c61edfecc313080b65cb94efb16b3aa906060015b60405180910390a25050505050565b6060600060015b6009548111610ac95760008181526003602081905260409091200154336001600160a01b0390911603610ab75781610ab381612f1e565b9250505b80610ac181612f1e565b915050610a7c565b5060008167ffffffffffffffff811115610ae557610ae56129a9565b604051908082528060200260200182016040528015610b1e57816020015b610b0b61279e565b815260200190600190039081610b035790505b509050600060015b6009548111610c9c5760008181526003602081905260409091200154336001600160a01b0390911603610c8a5760036000828152602001908152602001600020604051806101000160405290816000820154815260200160018201548152602001600282018054610b9690612ece565b80601f0160208091040260200160405190810160405280929190818152602001828054610bc290612ece565b8015610c0f5780601f10610be457610100808354040283529160200191610c0f565b820191906000526020600020905b815481529060010190602001808311610bf257829003601f168201915b505050918352505060038201546001600160a01b039081166020830152600483015416604082015260058201546060820152600682015460ff161515608082015260079091015460a0909101528351849084908110610c7057610c70612eb8565b60200260200101819052508180610c8690612f1e565b9250505b80610c9481612f1e565b915050610b26565b50909392505050565b60006008546001610cb69190613047565b905090565b60078181548110610ccb57600080fd5b60009182526020909120600a90910201805460018201546002830180549294506001600160a01b039091169291610d0190612ece565b80601f0160208091040260200160405190810160405280929190818152602001828054610d2d90612ece565b8015610d7a5780601f10610d4f57610100808354040283529160200191610d7a565b820191906000526020600020905b815481529060010190602001808311610d5d57829003601f168201915b505050505090806003018054610d8f90612ece565b80601f0160208091040260200160405190810160405280929190818152602001828054610dbb90612ece565b8015610e085780601f10610ddd57610100808354040283529160200191610e08565b820191906000526020600020905b815481529060010190602001808311610deb57829003601f168201915b505050505090806004018054610e1d90612ece565b80601f0160208091040260200160405190810160405280929190818152602001828054610e4990612ece565b8015610e965780601f10610e6b57610100808354040283529160200191610e96565b820191906000526020600020905b815481529060010190602001808311610e7957829003601f168201915b505050505090806005018054610eab90612ece565b80601f0160208091040260200160405190810160405280929190818152602001828054610ed790612ece565b8015610f245780601f10610ef957610100808354040283529160200191610f24565b820191906000526020600020905b815481529060010190602001808311610f0757829003601f168201915b505050505090806006018054610f3990612ece565b80601f0160208091040260200160405190810160405280929190818152602001828054610f6590612ece565b8015610fb25780601f10610f8757610100808354040283529160200191610fb2565b820191906000526020600020905b815481529060010190602001808311610f9557829003601f168201915b505050505090806007015490806008015490806009015490508a565b60088054906000610fde83612f1e565b9091555050604080516101408101825260085481523360208083018281528385018c8152606085018c9052608085018b905260a085018a905260c0850188905260e085018990524261010086015261012085018790526000938452600180845295842080548088018255908552929093208451600a909302019182555193810180546001600160a01b0319166001600160a01b0390951694909417909355519091829160028201906110909082612f87565b50606082015160038201906110a59082612f87565b50608082015160048201906110ba9082612f87565b5060a082015160058201906110cf9082612f87565b5060c082015160068201906110e49082612f87565b5060e0820151600782810191909155610100830151600883015561012090920151600990910155805460018101825560009190915281517fa66cc928b5edb82af9bd49922954155ab7b0942694bea4ce44661d9a8736c688600a90920291820190815560208301517fa66cc928b5edb82af9bd49922954155ab7b0942694bea4ce44661d9a8736c689830180546001600160a01b0319166001600160a01b03909216919091179055604083015183927fa66cc928b5edb82af9bd49922954155ab7b0942694bea4ce44661d9a8736c68a01906111c09082612f87565b50606082015160038201906111d59082612f87565b50608082015160048201906111ea9082612f87565b5060a082015160058201906111ff9082612f87565b5060c082015160068201906112149082612f87565b5060e08201518160070155610100820151816008015561012082015181600901555050336001600160a01b03167f0e03c7e37ad39057585e52c6e4f117a61225036a88a2ada7f870a6b994a1bc2189604051611270919061305a565b60405180910390a25050505050505050565b6060600060015b60095481116112d557600081815260036020526040902060040154336001600160a01b03909116036112c357816112bf81612f1e565b9250505b806112cd81612f1e565b915050611289565b5060008167ffffffffffffffff8111156112f1576112f16129a9565b60405190808252806020026020018201604052801561132a57816020015b61131761279e565b81526020019060019003908161130f5790505b509050600060015b6009548111610c9c57600081815260036020526040902060040154336001600160a01b039091160361149557600360008281526020019081526020016000206040518061010001604052908160008201548152602001600182015481526020016002820180546113a190612ece565b80601f01602080910402602001604051908101604052809291908181526020018280546113cd90612ece565b801561141a5780601f106113ef5761010080835404028352916020019161141a565b820191906000526020600020905b8154815290600101906020018083116113fd57829003601f168201915b505050918352505060038201546001600160a01b039081166020830152600483015416604082015260058201546060820152600682015460ff161515608082015260079091015460a090910152835184908490811061147b5761147b612eb8565b6020026020010181905250818061149190612f1e565b9250505b8061149f81612f1e565b915050611332565b600081815260036020526040902060048101546001600160a01b031633146115255760405162461bcd60e51b815260206004820152602b60248201527f4f6e6c79207468652066696c65206f776e65722063616e20617070726f76652060448201526a1d1a19481c995c5d595cdd60aa1b6064820152608401610847565b600681015460ff16156115755760405162461bcd60e51b815260206004820152601860248201527714995c5d595cdd08185b1c9958591e48185c1c1c9bdd995960421b6044820152606401610847565b60068101805460ff1916600190811790915581015460009061159690610405565b905060006115a2612613565b604080516101808101825282815284516020808301918252868101516001600160a01b039081168486019081526003808b0154831660608088018281528c8a01516080808b01918252928e015160a0808c0191909152928e015160c0808c0191909152928e015160e0808c0191909152928e01516101008b0152918d0151610120808b0191909152426101408b01528d01516101608a015260009283526002808852998320805460018181018355918552979093208951600c90980201968755965191860191909155915196840180549784166001600160a01b03199889161790559351938301805494909216939095169290921790915591519293509182919060048201906116b29082612f87565b5060a082015160058201906116c79082612f87565b5060c082015160068201906116dc9082612f87565b5060e082015160078201906116f19082612f87565b5061010082015160088201906117079082612f87565b50610120828101516009830155610140830151600a83015561016090920151600b90910155830151336000908152600560205260408120805490919061174e90849061306d565b90915550506101208301513360009081526006602052604081208054909190611778908490613047565b90915550506003840154602084015160408086015190516001600160a01b0393841693909216917f36b71a34b45297c2eddbb6d8a95b9703618f6300d0676fa891c58bcdaa90dbb3916117ca9161305a565b60405180910390a3600184015460038501546004860154604080519384526001600160a01b03928316602085015291169082015285907f6e12100d9a45da1a9e96a9fc000ff4db7bfc27cc43fdf07dab275b581483fb4990606001610a66565b600081815260036020526040902060048101546001600160a01b031633146118a75760405162461bcd60e51b815260206004820152602a60248201527f4f6e6c79207468652066696c65206f776e65722063616e2072656a65637420746044820152691a19481c995c5d595cdd60b21b6064820152608401610847565b600681015460ff16156118f75760405162461bcd60e51b815260206004820152601860248201527714995c5d595cdd08185b1c9958591e48185c1c1c9bdd995960421b6044820152606401610847565b600781015460038201546001600160a01b031660009081526006602052604081208054909190611928908490613047565b90915550506007810154336000908152600560205260408120805490919061195190849061306d565b90915550506000828152600360205260408120818155600181018290559061197c60028301826127f7565b50600381810180546001600160a01b03199081169091556004808401805490921690915560006005840181905560068401805460ff1916905560079093019290925560018301549083015491830154604080519283526001600160a01b039384166020840152921681830152905183917f23bc048e2726b66e4b6df842e8940378c39ead4ceeeabbbe237bd71caf10603b919081900360600190a25050565b60606007805480602002602001604051908101604052809291908181526020016000905b82821015611d8a5760008481526020908190206040805161014081018252600a86029092018054835260018101546001600160a01b03169383019390935260028301805492939291840191611a9390612ece565b80601f0160208091040260200160405190810160405280929190818152602001828054611abf90612ece565b8015611b0c5780601f10611ae157610100808354040283529160200191611b0c565b820191906000526020600020905b815481529060010190602001808311611aef57829003601f168201915b50505050508152602001600382018054611b2590612ece565b80601f0160208091040260200160405190810160405280929190818152602001828054611b5190612ece565b8015611b9e5780601f10611b7357610100808354040283529160200191611b9e565b820191906000526020600020905b815481529060010190602001808311611b8157829003601f168201915b50505050508152602001600482018054611bb790612ece565b80601f0160208091040260200160405190810160405280929190818152602001828054611be390612ece565b8015611c305780601f10611c0557610100808354040283529160200191611c30565b820191906000526020600020905b815481529060010190602001808311611c1357829003601f168201915b50505050508152602001600582018054611c4990612ece565b80601f0160208091040260200160405190810160405280929190818152602001828054611c7590612ece565b8015611cc25780601f10611c9757610100808354040283529160200191611cc2565b820191906000526020600020905b815481529060010190602001808311611ca557829003601f168201915b50505050508152602001600682018054611cdb90612ece565b80601f0160208091040260200160405190810160405280929190818152602001828054611d0790612ece565b8015611d545780601f10611d2957610100808354040283529160200191611d54565b820191906000526020600020905b815481529060010190602001808311611d3757829003601f168201915b50505050508152602001600782015481526020016008820154815260200160098201548152505081526020019060010190611a3f565b50505050905090565b336000908152600160209081526040808320805482518185028101850190935280835260609492939192909184015b82821015611d8a5760008481526020908190206040805161014081018252600a86029092018054835260018101546001600160a01b03169383019390935260028301805492939291840191611e1690612ece565b80601f0160208091040260200160405190810160405280929190818152602001828054611e4290612ece565b8015611e8f5780601f10611e6457610100808354040283529160200191611e8f565b820191906000526020600020905b815481529060010190602001808311611e7257829003601f168201915b50505050508152602001600382018054611ea890612ece565b80601f0160208091040260200160405190810160405280929190818152602001828054611ed490612ece565b8015611f215780601f10611ef657610100808354040283529160200191611f21565b820191906000526020600020905b815481529060010190602001808311611f0457829003601f168201915b50505050508152602001600482018054611f3a90612ece565b80601f0160208091040260200160405190810160405280929190818152602001828054611f6690612ece565b8015611fb35780601f10611f8857610100808354040283529160200191611fb3565b820191906000526020600020905b815481529060010190602001808311611f9657829003601f168201915b50505050508152602001600582018054611fcc90612ece565b80601f0160208091040260200160405190810160405280929190818152602001828054611ff890612ece565b80156120455780601f1061201a57610100808354040283529160200191612045565b820191906000526020600020905b81548152906001019060200180831161202857829003601f168201915b5050505050815260200160068201805461205e90612ece565b80601f016020809104026020016040519081016040528092919081815260200182805461208a90612ece565b80156120d75780601f106120ac576101008083540402835291602001916120d7565b820191906000526020600020905b8154815290600101906020018083116120ba57829003601f168201915b50505050508152602001600782015481526020016008820154815260200160098201548152505081526020019060010190611dc2565b6000805b6001600160a01b038416600090815260016020526040902054811015612187576001600160a01b038416600090815260016020526040902080548491908390811061215e5761215e612eb8565b90600052602060002090600a0201600001540361217f576001915050612207565b600101612111565b5060005b6001600160a01b038416600090815260026020526040902054811015612201576001600160a01b03841660009081526002602052604090208054849190839081106121d8576121d8612eb8565b90600052602060002090600c020160010154036121f9576001915050612207565b60010161218b565b50600090505b92915050565b33600090815260066020526040902054806122615760405162461bcd60e51b81526020600482015260146024820152734e6f2066756e647320746f20776974686472617760601b6044820152606401610847565b3360008181526006602052604081205561227b90826126ff565b50565b336000908152600260209081526040808320805482518185028101850190935280835260609492939192909184015b82821015611d8a5760008481526020908190206040805161018081018252600c86029092018054835260018101549383019390935260028301546001600160a01b0390811691830191909152600383015416606082015260048201805491929160808401919061231c90612ece565b80601f016020809104026020016040519081016040528092919081815260200182805461234890612ece565b80156123955780601f1061236a57610100808354040283529160200191612395565b820191906000526020600020905b81548152906001019060200180831161237857829003601f168201915b505050505081526020016005820180546123ae90612ece565b80601f01602080910402602001604051908101604052809291908181526020018280546123da90612ece565b80156124275780601f106123fc57610100808354040283529160200191612427565b820191906000526020600020905b81548152906001019060200180831161240a57829003601f168201915b5050505050815260200160068201805461244090612ece565b80601f016020809104026020016040519081016040528092919081815260200182805461246c90612ece565b80156124b95780601f1061248e576101008083540402835291602001916124b9565b820191906000526020600020905b81548152906001019060200180831161249c57829003601f168201915b505050505081526020016007820180546124d290612ece565b80601f01602080910402602001604051908101604052809291908181526020018280546124fe90612ece565b801561254b5780601f106125205761010080835404028352916020019161254b565b820191906000526020600020905b81548152906001019060200180831161252e57829003601f168201915b5050505050815260200160088201805461256490612ece565b80601f016020809104026020016040519081016040528092919081815260200182805461259090612ece565b80156125dd5780601f106125b2576101008083540402835291602001916125dd565b820191906000526020600020905b8154815290600101906020018083116125c057829003601f168201915b5050505050815260200160098201548152602001600a8201548152602001600b82015481525050815260200190600101906122ad565b6000804243403360405160200161264f93929190928352602083019190915260601b6bffffffffffffffffffffffff1916604082015260540190565b60408051601f1981840301815291905280516020909101209050600061267a6402540be40083613080565b90505b60008181526004602052604090205460ff16156126e05781426040516020016126b0929190918252602082015260400190565b60408051601f19818403018152919052805160209091012091506126d96402540be40083613080565b905061267d565b6000818152600460205260409020805460ff1916600117905592915050565b6000826001600160a01b03168260405160006040518083038185875af1925050503d806000811461274c576040519150601f19603f3d011682016040523d82523d6000602084013e612751565b606091505b50509050806127995760405162461bcd60e51b8152602060048201526014602482015273151c985b9cd9995c88199d5b990819985a5b195960621b6044820152606401610847565b505050565b60405180610100016040528060008152602001600081526020016060815260200160006001600160a01b0316815260200160006001600160a01b0316815260200160008152602001600015158152602001600081525090565b50805461280390612ece565b6000825580601f10612813575050565b601f01602090049060005260206000209081019061227b91905b80821115612841576000815560010161282d565b5090565b60006020828403121561285757600080fd5b5035919050565b6000815180845260005b8181101561288457602081850181015186830182015201612868565b506000602082860101526020601f19601f83011685010191505092915050565b60006101408251845260208301516128c760208601826001600160a01b03169052565b5060408301518160408601526128df8286018261285e565b915050606083015184820360608601526128f9828261285e565b91505060808301518482036080860152612913828261285e565b91505060a083015184820360a086015261292d828261285e565b91505060c083015184820360c0860152612947828261285e565b60e085810151908701526101008086015190870152610120948501519490950193909352509192915050565b60208152600061298660208301846128a4565b9392505050565b80356001600160a01b03811681146129a457600080fd5b919050565b634e487b7160e01b600052604160045260246000fd5b600082601f8301126129d057600080fd5b813567ffffffffffffffff808211156129eb576129eb6129a9565b604051601f8301601f19908116603f01168101908282118183101715612a1357612a136129a9565b81604052838152866020858801011115612a2c57600080fd5b836020870160208301376000602085830101528094505050505092915050565b60008060008060808587031215612a6257600080fd5b84359350612a726020860161298d565b9250604085013567ffffffffffffffff811115612a8e57600080fd5b612a9a878288016129bf565b949793965093946060013593505050565b600060208083018184528085518083526040925060408601915060408160051b87010184880160005b83811015612b6657603f198984030185528151610100815185528882015189860152878201518189870152612b0b8287018261285e565b6060848101516001600160a01b03908116918901919091526080808601519091169088015260a0808501519088015260c08085015115159088015260e093840151939096019290925250509386019390860190600101612ad4565b509098975050505050505050565b8a81526001600160a01b038a16602082015261014060408201819052600090612b9f8382018c61285e565b90508281036060840152612bb3818b61285e565b90508281036080840152612bc7818a61285e565b905082810360a0840152612bdb818961285e565b905082810360c0840152612bef818861285e565b60e0840196909652505061010081019290925261012090910152979650505050505050565b600080600080600080600060e0888a031215612c2f57600080fd5b873567ffffffffffffffff80821115612c4757600080fd5b612c538b838c016129bf565b985060208a0135915080821115612c6957600080fd5b612c758b838c016129bf565b975060408a0135915080821115612c8b57600080fd5b612c978b838c016129bf565b965060608a0135915080821115612cad57600080fd5b612cb98b838c016129bf565b955060808a0135945060a08a0135915080821115612cd657600080fd5b50612ce38a828b016129bf565b92505060c0880135905092959891949750929550565b600060208083016020845280855180835260408601915060408160051b87010192506020870160005b82811015612d5057603f19888603018452612d3e8583516128a4565b94509285019290850190600101612d22565b5092979650505050505050565b60008060408385031215612d7057600080fd5b612d798361298d565b946020939093013593505050565b600060208083018184528085518083526040925060408601915060408160051b87010184880160005b83811015612b6657888303603f190185528151805184528781015188850152868101516001600160a01b0381168886015261018090506060828101516001600160a01b0381168783015250506080808301518282880152612e138388018261285e565b9250505060a08083015186830382880152612e2e838261285e565b9250505060c08083015186830382880152612e49838261285e565b9250505060e08083015186830382880152612e64838261285e565b925050506101008083015186830382880152612e80838261285e565b610120858101519089015261014080860151908901526101609485015194909701939093525050509386019390860190600101612db0565b634e487b7160e01b600052603260045260246000fd5b600181811c90821680612ee257607f821691505b602082108103612f0257634e487b7160e01b600052602260045260246000fd5b50919050565b634e487b7160e01b600052601160045260246000fd5b600060018201612f3057612f30612f08565b5060010190565b601f821115612799576000816000526020600020601f850160051c81016020861015612f605750805b601f850160051c820191505b81811015612f7f57828155600101612f6c565b505050505050565b815167ffffffffffffffff811115612fa157612fa16129a9565b612fb581612faf8454612ece565b84612f37565b602080601f831160018114612fea5760008415612fd25750858301515b600019600386901b1c1916600185901b178555612f7f565b600085815260208120601f198616915b8281101561301957888601518255948401946001909101908401612ffa565b50858210156130375787850151600019600388901b60f8161c191681555b5050505050600190811b01905550565b8082018082111561220757612207612f08565b602081526000612986602083018461285e565b8181038181111561220757612207612f08565b60008261309d57634e487b7160e01b600052601260045260246000fd5b50069056fea26469706673582212203debd63b45d50601e281bf0a3679b06310fc6e00b98254404b39adc2c899ce9b64736f6c63430008180033",
  "linkReferences": {},
  "deployedLinkReferences": {}
}