{
  "_format": "hh-sol-artifact-1",
  "contractName": "LicenseMarketplace",
  "sourceName": "contracts/LicenseMarketplace.sol",
  "abi": [
    {
      "inputs": [],
      "stateMutability": "nonpayable",
      "type": "constructor"
    },
    {
      "anonymous": false,
      "inputs": [
        {
          "indexed": true,
          "internalType": "address",
          "name": "owner",
          "type": "address"
        },
        {
          "indexed": true,
          "internalType": "address",
          "name": "buyer",
          "type": "address"
        },
        {
          "indexed": false,
          "internalType": "string",
          "name": "fileName",
          "type": "string"
        },
        {
          "indexed": false,
          "internalType": "string",
          "name": "fileHash",
          "type": "string"
        }
      ],
      "name": "FileLicense",
      "type": "event"
    },
    {
      "anonymous": false,
      "inputs": [
        {
          "indexed": true,
          "internalType": "address",
          "name": "owner",
          "type": "address"
        },
        {
          "indexed": false,
          "internalType": "string",
          "name": "fileName",
          "type": "string"
        },
        {
          "indexed": false,
          "internalType": "string",
          "name": "fileHash",
          "type": "string"
        },
        {
          "indexed": false,
          "internalType": "bool",
          "name": "isPublic",
          "type": "bool"
        }
      ],
      "name": "FileShared",
      "type": "event"
    },
    {
      "anonymous": false,
      "inputs": [
        {
          "indexed": true,
          "internalType": "uint256",
          "name": "requestId",
          "type": "uint256"
        },
        {
          "indexed": false,
          "internalType": "uint256",
          "name": "fileId",
          "type": "uint256"
        },
        {
          "indexed": false,
          "internalType": "address",
          "name": "requester",
          "type": "address"
        },
        {
          "indexed": false,
          "internalType": "address",
          "name": "fileOwner",
          "type": "address"
        }
      ],
      "name": "LicenseRequestApproved",
      "type": "event"
    },
    {
      "anonymous": false,
      "inputs": [
        {
          "indexed": true,
          "internalType": "uint256",
          "name": "requestId",
          "type": "uint256"
        },
        {
          "indexed": false,
          "internalType": "uint256",
          "name": "fileId",
          "type": "uint256"
        },
        {
          "indexed": false,
          "internalType": "address",
          "name": "requester",
          "type": "address"
        },
        {
          "indexed": false,
          "internalType": "address",
          "name": "fileOwner",
          "type": "address"
        }
      ],
      "name": "LicenseRequestCreated",
      "type": "event"
    },
    {
      "anonymous": false,
      "inputs": [
        {
          "indexed": true,
          "internalType": "uint256",
          "name": "requestId",
          "type": "uint256"
        },
        {
          "indexed": false,
          "internalType": "uint256",
          "name": "fileId",
          "type": "uint256"
        },
        {
          "indexed": false,
          "internalType": "address",
          "name": "requester",
          "type": "address"
        },
        {
          "indexed": false,
          "internalType": "address",
          "name": "fileOwner",
          "type": "address"
        }
      ],
      "name": "LicenseRequestRejected",
      "type": "event"
    },
    {
      "anonymous": false,
      "inputs": [
        {
          "indexed": true,
          "internalType": "address",
          "name": "userAddress",
          "type": "address"
        },
        {
          "indexed": false,
          "internalType": "string",
          "name": "username",
          "type": "string"
        }
      ],
      "name": "userLoggedIn",
      "type": "event"
    },
    {
      "anonymous": false,
      "inputs": [
        {
          "indexed": true,
          "internalType": "address",
          "name": "userAddress",
          "type": "address"
        },
        {
          "indexed": false,
          "internalType": "string",
          "name": "username",
          "type": "string"
        }
      ],
      "name": "userSignedUp",
      "type": "event"
    },
    {
      "inputs": [
        {
          "internalType": "uint256",
          "name": "_requestId",
          "type": "uint256"
        }
      ],
      "name": "approveLicenseRequest",
      "outputs": [],
      "stateMutability": "nonpayable",
      "type": "function"
    },
    {
      "inputs": [
        {
          "internalType": "string",
          "name": "_fileName",
          "type": "string"
        },
        {
          "internalType": "string",
          "name": "_description",
          "type": "string"
        },
        {
          "internalType": "string",
          "name": "_category",
          "type": "string"
        },
        {
          "internalType": "string",
          "name": "_fileHash",
          "type": "string"
        },
        {
          "internalType": "bool",
          "name": "_isPublic",
          "type": "bool"
        }
      ],
      "name": "createFile",
      "outputs": [],
      "stateMutability": "nonpayable",
      "type": "function"
    },
    {
      "inputs": [],
      "name": "fileId",
      "outputs": [
        {
          "internalType": "uint256",
          "name": "",
          "type": "uint256"
        }
      ],
      "stateMutability": "view",
      "type": "function"
    },
    {
      "inputs": [],
      "name": "getAllPublicFiles",
      "outputs": [
        {
          "components": [
            {
              "internalType": "uint256",
              "name": "id",
              "type": "uint256"
            },
            {
              "internalType": "address",
              "name": "fileOwner",
              "type": "address"
            },
            {
              "internalType": "string",
              "name": "fileName",
              "type": "string"
            },
            {
              "internalType": "string",
              "name": "description",
              "type": "string"
            },
            {
              "internalType": "string",
              "name": "category",
              "type": "string"
            },
            {
              "internalType": "string",
              "name": "fileHash",
              "type": "string"
            },
            {
              "internalType": "bool",
              "name": "isPublic",
              "type": "bool"
            },
            {
              "internalType": "uint256",
              "name": "createdAt",
              "type": "uint256"
            }
          ],
          "internalType": "struct LicenseMarketplace.File[]",
          "name": "",
          "type": "tuple[]"
        }
      ],
      "stateMutability": "view",
      "type": "function"
    },
    {
      "inputs": [],
      "name": "getAllRegisterdUsers",
      "outputs": [
        {
          "components": [
            {
              "internalType": "address",
              "name": "_address",
              "type": "address"
            },
            {
              "internalType": "string",
              "name": "firstname",
              "type": "string"
            },
            {
              "internalType": "string",
              "name": "lastname",
              "type": "string"
            },
            {
              "internalType": "string",
              "name": "username",
              "type": "string"
            },
            {
              "internalType": "string",
              "name": "email",
              "type": "string"
            },
            {
              "internalType": "string",
              "name": "password",
              "type": "string"
            },
            {
              "internalType": "bool",
              "name": "isRegistered",
              "type": "bool"
            }
          ],
          "internalType": "struct LicenseMarketplace.User[]",
          "name": "",
          "type": "tuple[]"
        }
      ],
      "stateMutability": "view",
      "type": "function"
    },
    {
      "inputs": [],
      "name": "getAllUserFiles",
      "outputs": [
        {
          "components": [
            {
              "internalType": "uint256",
              "name": "id",
              "type": "uint256"
            },
            {
              "internalType": "address",
              "name": "fileOwner",
              "type": "address"
            },
            {
              "internalType": "string",
              "name": "fileName",
              "type": "string"
            },
            {
              "internalType": "string",
              "name": "description",
              "type": "string"
            },
            {
              "internalType": "string",
              "name": "category",
              "type": "string"
            },
            {
              "internalType": "string",
              "name": "fileHash",
              "type": "string"
            },
            {
              "internalType": "bool",
              "name": "isPublic",
              "type": "bool"
            },
            {
              "internalType": "uint256",
              "name": "createdAt",
              "type": "uint256"
            }
          ],
          "internalType": "struct LicenseMarketplace.File[]",
          "name": "",
          "type": "tuple[]"
        }
      ],
      "stateMutability": "view",
      "type": "function"
    },
    {
      "inputs": [],
      "name": "getAllUserLicenses",
      "outputs": [
        {
          "components": [
            {
              "internalType": "uint256",
              "name": "licenseNumber",
              "type": "uint256"
            },
            {
              "internalType": "uint256",
              "name": "fileId",
              "type": "uint256"
            },
            {
              "internalType": "address",
              "name": "fileOwner",
              "type": "address"
            },
            {
              "internalType": "address",
              "name": "buyer",
              "type": "address"
            },
            {
              "internalType": "string",
              "name": "fileName",
              "type": "string"
            },
            {
              "internalType": "string",
              "name": "description",
              "type": "string"
            },
            {
              "internalType": "string",
              "name": "category",
              "type": "string"
            },
            {
              "internalType": "string",
              "name": "fileHash",
              "type": "string"
            },
            {
              "internalType": "bool",
              "name": "isPublic",
              "type": "bool"
            },
            {
              "internalType": "uint256",
              "name": "createdAt",
              "type": "uint256"
            }
          ],
          "internalType": "struct LicenseMarketplace.License[]",
          "name": "",
          "type": "tuple[]"
        }
      ],
      "stateMutability": "view",
      "type": "function"
    },
    {
      "inputs": [],
      "name": "getFileOwnerLicenseRequests",
      "outputs": [
        {
          "components": [
            {
              "internalType": "uint256",
              "name": "requestId",
              "type": "uint256"
            },
            {
              "internalType": "uint256",
              "name": "fileId",
              "type": "uint256"
            },
            {
              "internalType": "address",
              "name": "requester",
              "type": "address"
            },
            {
              "internalType": "address",
              "name": "fileOwner",
              "type": "address"
            },
            {
              "internalType": "bool",
              "name": "isApproved",
              "type": "bool"
            }
          ],
          "internalType": "struct LicenseMarketplace.LicenseRequest[]",
          "name": "",
          "type": "tuple[]"
        }
      ],
      "stateMutability": "view",
      "type": "function"
    },
    {
      "inputs": [
        {
          "internalType": "uint256",
          "name": "_id",
          "type": "uint256"
        }
      ],
      "name": "getPublicFileById",
      "outputs": [
        {
          "components": [
            {
              "internalType": "uint256",
              "name": "id",
              "type": "uint256"
            },
            {
              "internalType": "address",
              "name": "fileOwner",
              "type": "address"
            },
            {
              "internalType": "string",
              "name": "fileName",
              "type": "string"
            },
            {
              "internalType": "string",
              "name": "description",
              "type": "string"
            },
            {
              "internalType": "string",
              "name": "category",
              "type": "string"
            },
            {
              "internalType": "string",
              "name": "fileHash",
              "type": "string"
            },
            {
              "internalType": "bool",
              "name": "isPublic",
              "type": "bool"
            },
            {
              "internalType": "uint256",
              "name": "createdAt",
              "type": "uint256"
            }
          ],
          "internalType": "struct LicenseMarketplace.File",
          "name": "",
          "type": "tuple"
        }
      ],
      "stateMutability": "view",
      "type": "function"
    },
    {
      "inputs": [],
      "name": "getPublicFilesExceptUser",
      "outputs": [
        {
          "components": [
            {
              "internalType": "uint256",
              "name": "id",
              "type": "uint256"
            },
            {
              "internalType": "address",
              "name": "fileOwner",
              "type": "address"
            },
            {
              "internalType": "string",
              "name": "fileName",
              "type": "string"
            },
            {
              "internalType": "string",
              "name": "description",
              "type": "string"
            },
            {
              "internalType": "string",
              "name": "category",
              "type": "string"
            },
            {
              "internalType": "string",
              "name": "fileHash",
              "type": "string"
            },
            {
              "internalType": "bool",
              "name": "isPublic",
              "type": "bool"
            },
            {
              "internalType": "uint256",
              "name": "createdAt",
              "type": "uint256"
            }
          ],
          "internalType": "struct LicenseMarketplace.File[]",
          "name": "",
          "type": "tuple[]"
        }
      ],
      "stateMutability": "view",
      "type": "function"
    },
    {
      "inputs": [],
      "name": "getUserLicenseRequests",
      "outputs": [
        {
          "components": [
            {
              "internalType": "uint256",
              "name": "requestId",
              "type": "uint256"
            },
            {
              "internalType": "uint256",
              "name": "fileId",
              "type": "uint256"
            },
            {
              "internalType": "address",
              "name": "requester",
              "type": "address"
            },
            {
              "internalType": "address",
              "name": "fileOwner",
              "type": "address"
            },
            {
              "internalType": "bool",
              "name": "isApproved",
              "type": "bool"
            }
          ],
          "internalType": "struct LicenseMarketplace.LicenseRequest[]",
          "name": "",
          "type": "tuple[]"
        }
      ],
      "stateMutability": "view",
      "type": "function"
    },
    {
      "inputs": [
        {
          "internalType": "string",
          "name": "_password",
          "type": "string"
        }
      ],
      "name": "login",
      "outputs": [
        {
          "internalType": "address",
          "name": "",
          "type": "address"
        },
        {
          "internalType": "string",
          "name": "",
          "type": "string"
        },
        {
          "internalType": "bool",
          "name": "",
          "type": "bool"
        }
      ],
      "stateMutability": "nonpayable",
      "type": "function"
    },
    {
      "inputs": [],
      "name": "owner",
      "outputs": [
        {
          "internalType": "address",
          "name": "",
          "type": "address"
        }
      ],
      "stateMutability": "view",
      "type": "function"
    },
    {
      "inputs": [
        {
          "internalType": "uint256",
          "name": "",
          "type": "uint256"
        }
      ],
      "name": "publicFiles",
      "outputs": [
        {
          "internalType": "uint256",
          "name": "id",
          "type": "uint256"
        },
        {
          "internalType": "address",
          "name": "fileOwner",
          "type": "address"
        },
        {
          "internalType": "string",
          "name": "fileName",
          "type": "string"
        },
        {
          "internalType": "string",
          "name": "description",
          "type": "string"
        },
        {
          "internalType": "string",
          "name": "category",
          "type": "string"
        },
        {
          "internalType": "string",
          "name": "fileHash",
          "type": "string"
        },
        {
          "internalType": "bool",
          "name": "isPublic",
          "type": "bool"
        },
        {
          "internalType": "uint256",
          "name": "createdAt",
          "type": "uint256"
        }
      ],
      "stateMutability": "view",
      "type": "function"
    },
    {
      "inputs": [
        {
          "internalType": "uint256",
          "name": "_requestId",
          "type": "uint256"
        }
      ],
      "name": "rejectLicenseRequest",
      "outputs": [],
      "stateMutability": "nonpayable",
      "type": "function"
    },
    {
      "inputs": [],
      "name": "requestId",
      "outputs": [
        {
          "internalType": "uint256",
          "name": "",
          "type": "uint256"
        }
      ],
      "stateMutability": "view",
      "type": "function"
    },
    {
      "inputs": [
        {
          "internalType": "uint256",
          "name": "_fileId",
          "type": "uint256"
        },
        {
          "internalType": "address",
          "name": "_fileOwner",
          "type": "address"
        }
      ],
      "name": "requestLicense",
      "outputs": [],
      "stateMutability": "nonpayable",
      "type": "function"
    },
    {
      "inputs": [
        {
          "internalType": "string",
          "name": "_newPassword",
          "type": "string"
        }
      ],
      "name": "resetPassword",
      "outputs": [],
      "stateMutability": "nonpayable",
      "type": "function"
    },
    {
      "inputs": [
        {
          "internalType": "string",
          "name": "_firstname",
          "type": "string"
        },
        {
          "internalType": "string",
          "name": "_lastname",
          "type": "string"
        },
        {
          "internalType": "string",
          "name": "_username",
          "type": "string"
        },
        {
          "internalType": "string",
          "name": "_email",
          "type": "string"
        },
        {
          "internalType": "string",
          "name": "_password",
          "type": "string"
        }
      ],
      "name": "signUp",
      "outputs": [],
      "stateMutability": "nonpayable",
      "type": "function"
    },
    {
      "inputs": [
        {
          "internalType": "uint256",
          "name": "",
          "type": "uint256"
        }
      ],
      "name": "usedLicenses",
      "outputs": [
        {
          "internalType": "bool",
          "name": "",
          "type": "bool"
        }
      ],
      "stateMutability": "view",
      "type": "function"
    },
    {
      "inputs": [
        {
          "internalType": "uint256",
          "name": "licenseNumber",
          "type": "uint256"
        }
      ],
      "name": "validateLicense",
      "outputs": [
        {
          "internalType": "bool",
          "name": "",
          "type": "bool"
        }
      ],
      "stateMutability": "view",
      "type": "function"
    }
  ],
  "bytecode": "0x608060405234801561001057600080fd5b50600080546001600160a01b031916331790556136fa806100326000396000f3fe608060405234801561001057600080fd5b50600436106101365760003560e01c80637d0ac00c116100b8578063b448bb2d1161007c578063b448bb2d146102ca578063c1716c77146102dd578063c3ba2cd9146102f2578063e399e268146102fa578063e90b39ec1461030f578063ed9b54c41461031757600080fd5b80637d0ac00c1461025c5780638da5cb5b1461027157806395d892a11461029c578063a6b9bcf6146102af578063a764b9cd146102b757600080fd5b80635f70a8fe116100ff5780635f70a8fe146101d5578063641b66e41461020857806373a6094a14610211578063787a37b9146102265780637be338b61461024957600080fd5b80626d6cae1461013b5780630cc6f1a21461015757806337ef9440146101775780633a7d280c1461018c5780634506708e146101ae575b600080fd5b61014460095481565b6040519081526020015b60405180910390f35b61016a610165366004612bc0565b61032a565b60405161014e9190612cdd565b61017f610687565b60405161014e9190612cf7565b61019f61019a366004612e18565b61082b565b60405161014e93929190612e55565b6101c16101bc366004612bc0565b610a23565b60405161014e989796959493929190612e8b565b6101f86101e3366004612bc0565b60009081526005602052604090205460ff1690565b604051901515815260200161014e565b61014460085481565b61022461021f366004612e18565b610ca6565b005b6101f8610234366004612bc0565b60056020526000908152604090205460ff1681565b610224610257366004612f0a565b610d1e565b610264610fa8565b60405161014e9190612fd1565b600054610284906001600160a01b031681565b6040516001600160a01b03909116815260200161014e565b6102246102aa366004613035565b6114ba565b61017f6115b4565b6102246102c5366004612bc0565b611751565b6102246102d8366004612bc0565b611a6c565b6102e5611bdf565b60405161014e9190613071565b610264611f40565b610302612229565b60405161014e9190613176565b61026461252d565b61022461032536600461328c565b61280b565b610332612b70565b60005b6006548110156106415782600682815481106103535761035361335e565b90600052602060002090600802016000015403610639576006818154811061037d5761037d61335e565b906000526020600020906008020160405180610100016040529081600082015481526020016001820160009054906101000a90046001600160a01b03166001600160a01b03166001600160a01b031681526020016002820180546103e090613374565b80601f016020809104026020016040519081016040528092919081815260200182805461040c90613374565b80156104595780601f1061042e57610100808354040283529160200191610459565b820191906000526020600020905b81548152906001019060200180831161043c57829003601f168201915b5050505050815260200160038201805461047290613374565b80601f016020809104026020016040519081016040528092919081815260200182805461049e90613374565b80156104eb5780601f106104c0576101008083540402835291602001916104eb565b820191906000526020600020905b8154815290600101906020018083116104ce57829003601f168201915b5050505050815260200160048201805461050490613374565b80601f016020809104026020016040519081016040528092919081815260200182805461053090613374565b801561057d5780601f106105525761010080835404028352916020019161057d565b820191906000526020600020905b81548152906001019060200180831161056057829003601f168201915b5050505050815260200160058201805461059690613374565b80601f01602080910402602001604051908101604052809291908181526020018280546105c290613374565b801561060f5780601f106105e45761010080835404028352916020019161060f565b820191906000526020600020905b8154815290600101906020018083116105f257829003601f168201915b5050509183525050600682015460ff16151560208201526007909101546040909101529392505050565b600101610335565b5060405162461bcd60e51b8152602060048201526015602482015274141d589b1a58c8199a5b19481b9bdd08199bdd5b99605a1b60448201526064015b60405180910390fd5b6060600060015b60095481116106da57600081815260036020526040902060020154336001600160a01b03909116036106c857816106c4816133c4565b9250505b806106d2816133c4565b91505061068e565b5060008167ffffffffffffffff8111156106f6576106f6612d75565b60405190808252806020026020018201604052801561074f57816020015b6040805160a0810182526000808252602080830182905292820181905260608201819052608082015282526000199092019101816107145790505b509050600060015b600954811161082257600081815260036020526040902060020154336001600160a01b039091160361081057600081815260036020818152604092839020835160a0810185528154815260018201549281019290925260028101546001600160a01b0390811694830194909452909101549182166060820152600160a01b90910460ff161515608082015283518490849081106107f6576107f661335e565b6020026020010181905250818061080c906133c4565b9250505b8061081a816133c4565b915050610757565b50909392505050565b33600090815260046020526040812060060154606090829060ff166108885760405162461bcd60e51b8152602060048201526013602482015272155cd95c881b9bdd081c9959da5cdd195c9959606a1b604482015260640161067e565b3360009081526004602090815260409182902091516108ab9260050191016133dd565b60405160208183030381529060405280519060200120846040516020016108d29190613453565b60405160208183030381529060405280519060200120146109285760405162461bcd60e51b815260206004820152601060248201526f125b9d9b185a59081c185cdcdddbdc9960821b604482015260640161067e565b336000818152600460205260409081902090517f1732e660d4b2e125ea2cdba3ff57da5379f6b98385fa1c9885964b87cebec6d39161096c9160039091019061346f565b60405180910390a23360008181526004602052604090206005018054600190829061099690613374565b80601f01602080910402602001604051908101604052809291908181526020018280546109c290613374565b8015610a0f5780601f106109e457610100808354040283529160200191610a0f565b820191906000526020600020905b8154815290600101906020018083116109f257829003601f168201915b505050505091509250925092509193909250565b60068181548110610a3357600080fd5b60009182526020909120600890910201805460018201546002830180549294506001600160a01b039091169291610a6990613374565b80601f0160208091040260200160405190810160405280929190818152602001828054610a9590613374565b8015610ae25780601f10610ab757610100808354040283529160200191610ae2565b820191906000526020600020905b815481529060010190602001808311610ac557829003601f168201915b505050505090806003018054610af790613374565b80601f0160208091040260200160405190810160405280929190818152602001828054610b2390613374565b8015610b705780601f10610b4557610100808354040283529160200191610b70565b820191906000526020600020905b815481529060010190602001808311610b5357829003601f168201915b505050505090806004018054610b8590613374565b80601f0160208091040260200160405190810160405280929190818152602001828054610bb190613374565b8015610bfe5780601f10610bd357610100808354040283529160200191610bfe565b820191906000526020600020905b815481529060010190602001808311610be157829003601f168201915b505050505090806005018054610c1390613374565b80601f0160208091040260200160405190810160405280929190818152602001828054610c3f90613374565b8015610c8c5780601f10610c6157610100808354040283529160200191610c8c565b820191906000526020600020905b815481529060010190602001808311610c6f57829003601f168201915b505050506006830154600790930154919260ff1691905088565b3360009081526004602052604090206006015460ff16610cfe5760405162461bcd60e51b8152602060048201526013602482015272155cd95c881b9bdd081c9959da5cdd195c9959606a1b604482015260640161067e565b336000908152600460205260409020600501610d1a8282613550565b5050565b60088054906000610d2e836133c4565b909155505060408051610100810182526008805482523360208084018281528486018b8152606086018b9052608086018a905260a0860189905287151560c08701524260e0870152600093845260018084529684208054808901825590855292909320855192909402909301908155915193820180546001600160a01b0319166001600160a01b03909516949094179093559151909182916002820190610dd59082613550565b5060608201516003820190610dea9082613550565b5060808201516004820190610dff9082613550565b5060a08201516005820190610e149082613550565b5060c082015160068201805460ff191691151591909117905560e0909101516007909101558115610f5b576006805460018101825560009190915281517ff652222313e28459528d920b65115c16c04f3efc82aaedc97be59f3f377c0d3f600890920291820190815560208301517ff652222313e28459528d920b65115c16c04f3efc82aaedc97be59f3f377c0d40830180546001600160a01b0319166001600160a01b03909216919091179055604083015183927ff652222313e28459528d920b65115c16c04f3efc82aaedc97be59f3f377c0d410190610ef69082613550565b5060608201516003820190610f0b9082613550565b5060808201516004820190610f209082613550565b5060a08201516005820190610f359082613550565b5060c082015160068201805460ff191691151591909117905560e0909101516007909101555b336001600160a01b03167f4b0334d6e57f0bb5a6c26031c3e1ea6c2a4c8413e216bd4f3c2f73be81f70aea878585604051610f9893929190613610565b60405180910390a2505050505050565b3360009081526001602052604081205460065460609282905b3360009081526002602052604090205481101561102b57336000908152600260205260409020805482908110610ff957610ff961335e565b600091825260209091206008600a90920201015460ff1615611023578161101f816133c4565b9250505b600101610fc1565b5060006110388284613648565b67ffffffffffffffff81111561105057611050612d75565b60405190808252806020026020018201604052801561108957816020015b611076612b70565b81526020019060019003908161106e5790505b5090506000805b848110156114af5760008060005b88811015611114573360009081526001602052604090208054829081106110c7576110c761335e565b906000526020600020906008020160000154600685815481106110ec576110ec61335e565b9060005260206000209060080201600001540361110c5760019250611114565b60010161109e565b5060005b3360009081526002602052604090205481101561119d573360009081526002602052604090208054829081106111505761115061335e565b90600052602060002090600a020160010154600685815481106111755761117561335e565b90600052602060002090600802016000015403611195576001915061119d565b600101611118565b50811580156111aa575080155b156114a557600683815481106111c2576111c261335e565b906000526020600020906008020160405180610100016040529081600082015481526020016001820160009054906101000a90046001600160a01b03166001600160a01b03166001600160a01b0316815260200160028201805461122590613374565b80601f016020809104026020016040519081016040528092919081815260200182805461125190613374565b801561129e5780601f106112735761010080835404028352916020019161129e565b820191906000526020600020905b81548152906001019060200180831161128157829003601f168201915b505050505081526020016003820180546112b790613374565b80601f01602080910402602001604051908101604052809291908181526020018280546112e390613374565b80156113305780601f1061130557610100808354040283529160200191611330565b820191906000526020600020905b81548152906001019060200180831161131357829003601f168201915b5050505050815260200160048201805461134990613374565b80601f016020809104026020016040519081016040528092919081815260200182805461137590613374565b80156113c25780601f10611397576101008083540402835291602001916113c2565b820191906000526020600020905b8154815290600101906020018083116113a557829003601f168201915b505050505081526020016005820180546113db90613374565b80601f016020809104026020016040519081016040528092919081815260200182805461140790613374565b80156114545780601f1061142957610100808354040283529160200191611454565b820191906000526020600020905b81548152906001019060200180831161143757829003601f168201915b5050509183525050600682015460ff1615156020820152600790910154604090910152855186908690811061148b5761148b61335e565b602002602001018190525083806114a1906133c4565b9450505b5050600101611090565b509095945050505050565b600980549060006114ca836133c4565b90915550506040805160a081018252600980548083526020808401878152338587018181526001600160a01b038981166060808a01828152600060808c018181529981526003808a52908d90208c5181559751600189015594516002880180549186166001600160a01b03199092169190911790555195909301805497511515600160a01b026001600160a81b0319909816959092169490941795909517909455935486518981529283019490945294810194909452919290917f3563c2ab88374e4253e716e489b51ed99c61edfecc313080b65cb94efb16b3aa910160405180910390a2505050565b6060600060015b60095481116116085760008181526003602081905260409091200154336001600160a01b03909116036115f657816115f2816133c4565b9250505b80611600816133c4565b9150506115bb565b5060008167ffffffffffffffff81111561162457611624612d75565b60405190808252806020026020018201604052801561167d57816020015b6040805160a0810182526000808252602080830182905292820181905260608201819052608082015282526000199092019101816116425790505b509050600060015b60095481116108225760008181526003602081905260409091200154336001600160a01b039091160361173f57600081815260036020818152604092839020835160a0810185528154815260018201549281019290925260028101546001600160a01b0390811694830194909452909101549182166060820152600160a01b90910460ff161515608082015283518490849081106117255761172561335e565b6020026020010181905250818061173b906133c4565b9250505b80611749816133c4565b915050611685565b6000818152600360208190526040909120908101546001600160a01b031633146117d15760405162461bcd60e51b815260206004820152602b60248201527f4f6e6c79207468652066696c65206f776e65722063616e20617070726f76652060448201526a1d1a19481c995c5d595cdd60aa1b606482015260840161067e565b6003810154600160a01b900460ff16156118285760405162461bcd60e51b815260206004820152601860248201527714995c5d595cdd08185b1c9958591e48185c1c1c9bdd995960421b604482015260640161067e565b60038101805460ff60a01b1916600160a01b179055600181015460009061184e9061032a565b9050600061185a612a84565b604080516101408101825282815284516020808301918252808701516001600160a01b0390811684860190815260028a810154831660608088018281528c8a01516080808b01918252928e015160a0808c0191909152928e015160c0808c0191909152928e015160e08b0152918d015115156101008a0152426101208a01526000928352838752988220805460018082018355918452969092208851600a90970201958655955190850155905190830180546001600160a01b03199081169284169290921790559451600383018054909616911617909355519293509182919060048201906119499082613550565b5060a0820151600582019061195e9082613550565b5060c082015160068201906119739082613550565b5060e082015160078201906119889082613550565b5061010082015160088201805460ff1916911515919091179055610120909101516009909101556002840154602084015160408086015160a087015191516001600160a01b0394851694909316927fdb512b8780437591f9dd72ca8ab2dfce82baaa1c45f1eb9f45e8ee890fd6077f92611a029291613661565b60405180910390a3600184015460028501546003860154604080519384526001600160a01b03928316602085015291169082015285907f6e12100d9a45da1a9e96a9fc000ff4db7bfc27cc43fdf07dab275b581483fb499060600160405180910390a25050505050565b6000818152600360208190526040909120908101546001600160a01b03163314611aeb5760405162461bcd60e51b815260206004820152602a60248201527f4f6e6c79207468652066696c65206f776e65722063616e2072656a65637420746044820152691a19481c995c5d595cdd60b21b606482015260840161067e565b6003810154600160a01b900460ff1615611b425760405162461bcd60e51b815260206004820152601860248201527714995c5d595cdd08185b1c9958591e48185c1c1c9bdd995960421b604482015260640161067e565b6000828152600360208181526040808420848155600180820195909555600280820180546001600160a01b031916905590840180546001600160a81b031916905593850154938501549285015481519485526001600160a01b039384169285019290925291169082015282907f23bc048e2726b66e4b6df842e8940378c39ead4ceeeabbbe237bd71caf10603b9060600160405180910390a25050565b60606007805480602002602001604051908101604052809291908181526020016000905b82821015611f375760008481526020908190206040805160e081019091526007850290910180546001600160a01b031682526001810180549293919291840191611c4c90613374565b80601f0160208091040260200160405190810160405280929190818152602001828054611c7890613374565b8015611cc55780601f10611c9a57610100808354040283529160200191611cc5565b820191906000526020600020905b815481529060010190602001808311611ca857829003601f168201915b50505050508152602001600282018054611cde90613374565b80601f0160208091040260200160405190810160405280929190818152602001828054611d0a90613374565b8015611d575780601f10611d2c57610100808354040283529160200191611d57565b820191906000526020600020905b815481529060010190602001808311611d3a57829003601f168201915b50505050508152602001600382018054611d7090613374565b80601f0160208091040260200160405190810160405280929190818152602001828054611d9c90613374565b8015611de95780601f10611dbe57610100808354040283529160200191611de9565b820191906000526020600020905b815481529060010190602001808311611dcc57829003601f168201915b50505050508152602001600482018054611e0290613374565b80601f0160208091040260200160405190810160405280929190818152602001828054611e2e90613374565b8015611e7b5780601f10611e5057610100808354040283529160200191611e7b565b820191906000526020600020905b815481529060010190602001808311611e5e57829003601f168201915b50505050508152602001600582018054611e9490613374565b80601f0160208091040260200160405190810160405280929190818152602001828054611ec090613374565b8015611f0d5780601f10611ee257610100808354040283529160200191611f0d565b820191906000526020600020905b815481529060010190602001808311611ef057829003601f168201915b50505091835250506006919091015460ff1615156020918201529082526001929092019101611c03565b50505050905090565b336000908152600160209081526040808320805482518185028101850190935280835260609492939192909184015b82821015611f375760008481526020908190206040805161010081018252600886029092018054835260018101546001600160a01b03169383019390935260028301805492939291840191611fc390613374565b80601f0160208091040260200160405190810160405280929190818152602001828054611fef90613374565b801561203c5780601f106120115761010080835404028352916020019161203c565b820191906000526020600020905b81548152906001019060200180831161201f57829003601f168201915b5050505050815260200160038201805461205590613374565b80601f016020809104026020016040519081016040528092919081815260200182805461208190613374565b80156120ce5780601f106120a3576101008083540402835291602001916120ce565b820191906000526020600020905b8154815290600101906020018083116120b157829003601f168201915b505050505081526020016004820180546120e790613374565b80601f016020809104026020016040519081016040528092919081815260200182805461211390613374565b80156121605780601f1061213557610100808354040283529160200191612160565b820191906000526020600020905b81548152906001019060200180831161214357829003601f168201915b5050505050815260200160058201805461217990613374565b80601f01602080910402602001604051908101604052809291908181526020018280546121a590613374565b80156121f25780601f106121c7576101008083540402835291602001916121f2565b820191906000526020600020905b8154815290600101906020018083116121d557829003601f168201915b5050509183525050600682015460ff1615156020808301919091526007909201546040909101529082526001929092019101611f6f565b336000908152600260209081526040808320805482518185028101850190935280835260609492939192909184015b82821015611f375760008481526020908190206040805161014081018252600a86029092018054835260018101549383019390935260028301546001600160a01b039081169183019190915260038301541660608201526004820180549192916080840191906122c790613374565b80601f01602080910402602001604051908101604052809291908181526020018280546122f390613374565b80156123405780601f1061231557610100808354040283529160200191612340565b820191906000526020600020905b81548152906001019060200180831161232357829003601f168201915b5050505050815260200160058201805461235990613374565b80601f016020809104026020016040519081016040528092919081815260200182805461238590613374565b80156123d25780601f106123a7576101008083540402835291602001916123d2565b820191906000526020600020905b8154815290600101906020018083116123b557829003601f168201915b505050505081526020016006820180546123eb90613374565b80601f016020809104026020016040519081016040528092919081815260200182805461241790613374565b80156124645780601f1061243957610100808354040283529160200191612464565b820191906000526020600020905b81548152906001019060200180831161244757829003601f168201915b5050505050815260200160078201805461247d90613374565b80601f01602080910402602001604051908101604052809291908181526020018280546124a990613374565b80156124f65780601f106124cb576101008083540402835291602001916124f6565b820191906000526020600020905b8154815290600101906020018083116124d957829003601f168201915b5050509183525050600882015460ff1615156020808301919091526009909201546040909101529082526001929092019101612258565b60606006805480602002602001604051908101604052809291908181526020016000905b82821015611f375760008481526020908190206040805161010081018252600886029092018054835260018101546001600160a01b031693830193909352600283018054929392918401916125a590613374565b80601f01602080910402602001604051908101604052809291908181526020018280546125d190613374565b801561261e5780601f106125f35761010080835404028352916020019161261e565b820191906000526020600020905b81548152906001019060200180831161260157829003601f168201915b5050505050815260200160038201805461263790613374565b80601f016020809104026020016040519081016040528092919081815260200182805461266390613374565b80156126b05780601f10612685576101008083540402835291602001916126b0565b820191906000526020600020905b81548152906001019060200180831161269357829003601f168201915b505050505081526020016004820180546126c990613374565b80601f01602080910402602001604051908101604052809291908181526020018280546126f590613374565b80156127425780601f1061271757610100808354040283529160200191612742565b820191906000526020600020905b81548152906001019060200180831161272557829003601f168201915b5050505050815260200160058201805461275b90613374565b80601f016020809104026020016040519081016040528092919081815260200182805461278790613374565b80156127d45780601f106127a9576101008083540402835291602001916127d4565b820191906000526020600020905b8154815290600101906020018083116127b757829003601f168201915b5050509183525050600682015460ff1615156020808301919091526007909201546040909101529082526001929092019101612551565b3360009081526004602052604090206006015460ff161561286e5760405162461bcd60e51b815260206004820152601760248201527f5573657220616c72656164792072656769737465726564000000000000000000604482015260640161067e565b6040805160e081018252338082526020808301898152838501899052606084018890526080840187905260a08401869052600160c085018190526000938452600490925293909120825181546001600160a01b0319166001600160a01b0390911617815592519192839290918201906128e79082613550565b50604082015160028201906128fc9082613550565b50606082015160038201906129119082613550565b50608082015160048201906129269082613550565b5060a0820151600582019061293b9082613550565b5060c091909101516006909101805460ff191691151591909117905560078054600181018255600082905282517fa66cc928b5edb82af9bd49922954155ab7b0942694bea4ce44661d9a8736c6889190920290810180546001600160a01b0319166001600160a01b0390931692909217825560208301518392917fa66cc928b5edb82af9bd49922954155ab7b0942694bea4ce44661d9a8736c68901906129e29082613550565b50604082015160028201906129f79082613550565b5060608201516003820190612a0c9082613550565b5060808201516004820190612a219082613550565b5060a08201516005820190612a369082613550565b5060c091909101516006909101805460ff191691151591909117905560405133907f8f4d87d07c48b68f8281fb8420a0f851ddcb1fe47564547262e3eb287587d8d790610f9890879061368f565b60008042434033604051602001612ac093929190928352602083019190915260601b6bffffffffffffffffffffffff1916604082015260540190565b60408051601f19818403018152919052805160209091012090506000612aeb6402540be400836136a2565b90505b60008181526005602052604090205460ff1615612b51578142604051602001612b21929190918252602082015260400190565b60408051601f1981840301815291905280516020909101209150612b4a6402540be400836136a2565b9050612aee565b6000818152600560205260409020805460ff1916600117905592915050565b6040518061010001604052806000815260200160006001600160a01b0316815260200160608152602001606081526020016060815260200160608152602001600015158152602001600081525090565b600060208284031215612bd257600080fd5b5035919050565b60005b83811015612bf4578181015183820152602001612bdc565b50506000910152565b60008151808452612c15816020860160208601612bd9565b601f01601f19169290920160200192915050565b6000610100825184526020830151612c4c60208601826001600160a01b03169052565b506040830151816040860152612c6482860182612bfd565b91505060608301518482036060860152612c7e8282612bfd565b91505060808301518482036080860152612c988282612bfd565b91505060a083015184820360a0860152612cb28282612bfd565b91505060c0830151612cc860c086018215159052565b5060e083015160e08501528091505092915050565b602081526000612cf06020830184612c29565b9392505050565b602080825282518282018190526000919060409081850190868401855b82811015612d68578151805185528681015187860152858101516001600160a01b03908116878701526060808301519091169086015260809081015115159085015260a09093019290850190600101612d14565b5091979650505050505050565b634e487b7160e01b600052604160045260246000fd5b600082601f830112612d9c57600080fd5b813567ffffffffffffffff80821115612db757612db7612d75565b604051601f8301601f19908116603f01168101908282118183101715612ddf57612ddf612d75565b81604052838152866020858801011115612df857600080fd5b836020870160208301376000602085830101528094505050505092915050565b600060208284031215612e2a57600080fd5b813567ffffffffffffffff811115612e4157600080fd5b612e4d84828501612d8b565b949350505050565b6001600160a01b0384168152606060208201819052600090612e7990830185612bfd565b90508215156040830152949350505050565b8881526001600160a01b038816602082015261010060408201819052600090612eb68382018a612bfd565b90508281036060840152612eca8189612bfd565b90508281036080840152612ede8188612bfd565b905082810360a0840152612ef28187612bfd565b94151560c0840152505060e001529695505050505050565b600080600080600060a08688031215612f2257600080fd5b853567ffffffffffffffff80821115612f3a57600080fd5b612f4689838a01612d8b565b96506020880135915080821115612f5c57600080fd5b612f6889838a01612d8b565b95506040880135915080821115612f7e57600080fd5b612f8a89838a01612d8b565b94506060880135915080821115612fa057600080fd5b50612fad88828901612d8b565b92505060808601358015158114612fc357600080fd5b809150509295509295909350565b600060208083016020845280855180835260408601915060408160051b87010192506020870160005b8281101561302857603f19888603018452613016858351612c29565b94509285019290850190600101612ffa565b5092979650505050505050565b6000806040838503121561304857600080fd5b8235915060208301356001600160a01b038116811461306657600080fd5b809150509250929050565b600060208083018184528085518083526040925060408601915060408160051b87010184880160005b8381101561316857888303603f19018552815180516001600160a01b031684528781015160e0898601819052906130d382870182612bfd565b91505087820151858203898701526130eb8282612bfd565b915050606080830151868303828801526131058382612bfd565b92505050608080830151868303828801526131208382612bfd565b9250505060a0808301518683038288015261313b8382612bfd565b9250505060c08083015192506131548187018415159052565b50958801959350509086019060010161309a565b509098975050505050505050565b600060208083018184528085518083526040925060408601915060408160051b87010184880160005b8381101561316857888303603f190185528151805184528781015188850152868101516001600160a01b0381168886015261014090506060828101516001600160a01b038116878301525050608080830151828288015261320283880182612bfd565b9250505060a0808301518683038288015261321d8382612bfd565b9250505060c080830151868303828801526132388382612bfd565b9250505060e080830151868303828801526132538382612bfd565b925050506101008083015161326b8288018215159052565b5050610120918201519490910193909352938601939086019060010161319f565b600080600080600060a086880312156132a457600080fd5b853567ffffffffffffffff808211156132bc57600080fd5b6132c889838a01612d8b565b965060208801359150808211156132de57600080fd5b6132ea89838a01612d8b565b9550604088013591508082111561330057600080fd5b61330c89838a01612d8b565b9450606088013591508082111561332257600080fd5b61332e89838a01612d8b565b9350608088013591508082111561334457600080fd5b5061335188828901612d8b565b9150509295509295909350565b634e487b7160e01b600052603260045260246000fd5b600181811c9082168061338857607f821691505b6020821081036133a857634e487b7160e01b600052602260045260246000fd5b50919050565b634e487b7160e01b600052601160045260246000fd5b6000600182016133d6576133d66133ae565b5060010190565b60008083546133eb81613374565b60018281168015613403576001811461341857613447565b60ff1984168752821515830287019450613447565b8760005260208060002060005b8581101561343e5781548a820152908401908201613425565b50505082870194505b50929695505050505050565b60008251613465818460208701612bd9565b9190910192915050565b600060208083526000845461348381613374565b80602087015260406001808416600081146134a557600181146134c1576134f1565b60ff19851660408a0152604084151560051b8a010195506134f1565b89600052602060002060005b858110156134e85781548b82018601529083019088016134cd565b8a016040019650505b509398975050505050505050565b601f82111561354b576000816000526020600020601f850160051c810160208610156135285750805b601f850160051c820191505b8181101561354757828155600101613534565b5050505b505050565b815167ffffffffffffffff81111561356a5761356a612d75565b61357e816135788454613374565b846134ff565b602080601f8311600181146135b3576000841561359b5750858301515b600019600386901b1c1916600185901b178555613547565b600085815260208120601f198616915b828110156135e2578886015182559484019460019091019084016135c3565b50858210156136005787850151600019600388901b60f8161c191681555b5050505050600190811b01905550565b6060815260006136236060830186612bfd565b82810360208401526136358186612bfd565b9150508215156040830152949350505050565b8181038181111561365b5761365b6133ae565b92915050565b6040815260006136746040830185612bfd565b82810360208401526136868185612bfd565b95945050505050565b602081526000612cf06020830184612bfd565b6000826136bf57634e487b7160e01b600052601260045260246000fd5b50069056fea2646970667358221220c8a7ab608c169a479d3ca0119acf4b3809fd1f5412417b75b73c6a6e7545c89264736f6c63430008180033",
  "linkReferences": {},
  "deployedLinkReferences": {}
}