{
  "_format": "hh-sol-artifact-1",
  "contractName": "LicenseMarketplace",
  "sourceName": "contracts/LicenseMarketplace.sol",
  "abi": [
    {
      "inputs": [],
      "stateMutability": "nonpayable",
      "type": "constructor"
    },
    {
      "anonymous": false,
      "inputs": [
        {
          "indexed": true,
          "internalType": "address",
          "name": "owner",
          "type": "address"
        },
        {
          "indexed": true,
          "internalType": "address",
          "name": "buyer",
          "type": "address"
        },
        {
          "indexed": false,
          "internalType": "string",
          "name": "fileName",
          "type": "string"
        }
      ],
      "name": "FileLicense",
      "type": "event"
    },
    {
      "anonymous": false,
      "inputs": [
        {
          "indexed": true,
          "internalType": "address",
          "name": "owner",
          "type": "address"
        },
        {
          "indexed": false,
          "internalType": "string",
          "name": "fileName",
          "type": "string"
        }
      ],
      "name": "FileShared",
      "type": "event"
    },
    {
      "anonymous": false,
      "inputs": [
        {
          "indexed": true,
          "internalType": "uint256",
          "name": "requestId",
          "type": "uint256"
        },
        {
          "indexed": false,
          "internalType": "uint256",
          "name": "fileId",
          "type": "uint256"
        },
        {
          "indexed": false,
          "internalType": "address",
          "name": "requester",
          "type": "address"
        },
        {
          "indexed": false,
          "internalType": "address",
          "name": "fileOwner",
          "type": "address"
        }
      ],
      "name": "LicenseRequestApproved",
      "type": "event"
    },
    {
      "anonymous": false,
      "inputs": [
        {
          "indexed": true,
          "internalType": "uint256",
          "name": "requestId",
          "type": "uint256"
        },
        {
          "indexed": false,
          "internalType": "uint256",
          "name": "fileId",
          "type": "uint256"
        },
        {
          "indexed": false,
          "internalType": "address",
          "name": "requester",
          "type": "address"
        },
        {
          "indexed": false,
          "internalType": "address",
          "name": "fileOwner",
          "type": "address"
        }
      ],
      "name": "LicenseRequestCreated",
      "type": "event"
    },
    {
      "anonymous": false,
      "inputs": [
        {
          "indexed": true,
          "internalType": "uint256",
          "name": "requestId",
          "type": "uint256"
        },
        {
          "indexed": false,
          "internalType": "uint256",
          "name": "fileId",
          "type": "uint256"
        },
        {
          "indexed": false,
          "internalType": "address",
          "name": "requester",
          "type": "address"
        },
        {
          "indexed": false,
          "internalType": "address",
          "name": "fileOwner",
          "type": "address"
        }
      ],
      "name": "LicenseRequestRejected",
      "type": "event"
    },
    {
      "inputs": [
        {
          "internalType": "uint256",
          "name": "_requestId",
          "type": "uint256"
        }
      ],
      "name": "approveLicenseRequest",
      "outputs": [],
      "stateMutability": "nonpayable",
      "type": "function"
    },
    {
      "inputs": [
        {
          "internalType": "string",
          "name": "_fileName",
          "type": "string"
        },
        {
          "internalType": "string",
          "name": "_description",
          "type": "string"
        },
        {
          "internalType": "string",
          "name": "_category",
          "type": "string"
        },
        {
          "internalType": "string",
          "name": "_fileCid",
          "type": "string"
        },
        {
          "internalType": "uint256",
          "name": "_fileSize",
          "type": "uint256"
        },
        {
          "internalType": "string",
          "name": "_imgUrl",
          "type": "string"
        }
      ],
      "name": "createFile",
      "outputs": [],
      "stateMutability": "nonpayable",
      "type": "function"
    },
    {
      "inputs": [],
      "name": "fileId",
      "outputs": [
        {
          "internalType": "uint256",
          "name": "",
          "type": "uint256"
        }
      ],
      "stateMutability": "view",
      "type": "function"
    },
    {
      "inputs": [],
      "name": "getAllPublicFiles",
      "outputs": [
        {
          "components": [
            {
              "internalType": "uint256",
              "name": "id",
              "type": "uint256"
            },
            {
              "internalType": "address",
              "name": "fileOwner",
              "type": "address"
            },
            {
              "internalType": "string",
              "name": "fileName",
              "type": "string"
            },
            {
              "internalType": "string",
              "name": "description",
              "type": "string"
            },
            {
              "internalType": "string",
              "name": "category",
              "type": "string"
            },
            {
              "internalType": "string",
              "name": "fileCid",
              "type": "string"
            },
            {
              "internalType": "string",
              "name": "imgUrl",
              "type": "string"
            },
            {
              "internalType": "uint256",
              "name": "fileSize",
              "type": "uint256"
            },
            {
              "internalType": "uint256",
              "name": "createdAt",
              "type": "uint256"
            }
          ],
          "internalType": "struct LicenseMarketplace.File[]",
          "name": "",
          "type": "tuple[]"
        }
      ],
      "stateMutability": "view",
      "type": "function"
    },
    {
      "inputs": [],
      "name": "getAllUserFiles",
      "outputs": [
        {
          "components": [
            {
              "internalType": "uint256",
              "name": "id",
              "type": "uint256"
            },
            {
              "internalType": "address",
              "name": "fileOwner",
              "type": "address"
            },
            {
              "internalType": "string",
              "name": "fileName",
              "type": "string"
            },
            {
              "internalType": "string",
              "name": "description",
              "type": "string"
            },
            {
              "internalType": "string",
              "name": "category",
              "type": "string"
            },
            {
              "internalType": "string",
              "name": "fileCid",
              "type": "string"
            },
            {
              "internalType": "string",
              "name": "imgUrl",
              "type": "string"
            },
            {
              "internalType": "uint256",
              "name": "fileSize",
              "type": "uint256"
            },
            {
              "internalType": "uint256",
              "name": "createdAt",
              "type": "uint256"
            }
          ],
          "internalType": "struct LicenseMarketplace.File[]",
          "name": "",
          "type": "tuple[]"
        }
      ],
      "stateMutability": "view",
      "type": "function"
    },
    {
      "inputs": [],
      "name": "getAllUserLicenses",
      "outputs": [
        {
          "components": [
            {
              "internalType": "uint256",
              "name": "licenseNumber",
              "type": "uint256"
            },
            {
              "internalType": "uint256",
              "name": "fileId",
              "type": "uint256"
            },
            {
              "internalType": "address",
              "name": "fileOwner",
              "type": "address"
            },
            {
              "internalType": "address",
              "name": "buyer",
              "type": "address"
            },
            {
              "internalType": "string",
              "name": "fileName",
              "type": "string"
            },
            {
              "internalType": "string",
              "name": "description",
              "type": "string"
            },
            {
              "internalType": "string",
              "name": "category",
              "type": "string"
            },
            {
              "internalType": "string",
              "name": "fileCid",
              "type": "string"
            },
            {
              "internalType": "string",
              "name": "imgUrl",
              "type": "string"
            },
            {
              "internalType": "uint256",
              "name": "fileSize",
              "type": "uint256"
            },
            {
              "internalType": "uint256",
              "name": "createdAt",
              "type": "uint256"
            }
          ],
          "internalType": "struct LicenseMarketplace.License[]",
          "name": "",
          "type": "tuple[]"
        }
      ],
      "stateMutability": "view",
      "type": "function"
    },
    {
      "inputs": [],
      "name": "getFileId",
      "outputs": [
        {
          "internalType": "uint256",
          "name": "",
          "type": "uint256"
        }
      ],
      "stateMutability": "view",
      "type": "function"
    },
    {
      "inputs": [],
      "name": "getFileOwnerLicenseRequests",
      "outputs": [
        {
          "components": [
            {
              "internalType": "uint256",
              "name": "requestId",
              "type": "uint256"
            },
            {
              "internalType": "uint256",
              "name": "fileId",
              "type": "uint256"
            },
            {
              "internalType": "address",
              "name": "requester",
              "type": "address"
            },
            {
              "internalType": "address",
              "name": "fileOwner",
              "type": "address"
            },
            {
              "internalType": "bool",
              "name": "isApproved",
              "type": "bool"
            }
          ],
          "internalType": "struct LicenseMarketplace.LicenseRequest[]",
          "name": "",
          "type": "tuple[]"
        }
      ],
      "stateMutability": "view",
      "type": "function"
    },
    {
      "inputs": [
        {
          "internalType": "uint256",
          "name": "_id",
          "type": "uint256"
        }
      ],
      "name": "getPublicFileById",
      "outputs": [
        {
          "components": [
            {
              "internalType": "uint256",
              "name": "id",
              "type": "uint256"
            },
            {
              "internalType": "address",
              "name": "fileOwner",
              "type": "address"
            },
            {
              "internalType": "string",
              "name": "fileName",
              "type": "string"
            },
            {
              "internalType": "string",
              "name": "description",
              "type": "string"
            },
            {
              "internalType": "string",
              "name": "category",
              "type": "string"
            },
            {
              "internalType": "string",
              "name": "fileCid",
              "type": "string"
            },
            {
              "internalType": "string",
              "name": "imgUrl",
              "type": "string"
            },
            {
              "internalType": "uint256",
              "name": "fileSize",
              "type": "uint256"
            },
            {
              "internalType": "uint256",
              "name": "createdAt",
              "type": "uint256"
            }
          ],
          "internalType": "struct LicenseMarketplace.File",
          "name": "",
          "type": "tuple"
        }
      ],
      "stateMutability": "view",
      "type": "function"
    },
    {
      "inputs": [],
      "name": "getPublicFiles",
      "outputs": [
        {
          "components": [
            {
              "internalType": "uint256",
              "name": "id",
              "type": "uint256"
            },
            {
              "internalType": "address",
              "name": "fileOwner",
              "type": "address"
            },
            {
              "internalType": "string",
              "name": "fileName",
              "type": "string"
            },
            {
              "internalType": "string",
              "name": "description",
              "type": "string"
            },
            {
              "internalType": "string",
              "name": "category",
              "type": "string"
            },
            {
              "internalType": "string",
              "name": "fileCid",
              "type": "string"
            },
            {
              "internalType": "string",
              "name": "imgUrl",
              "type": "string"
            },
            {
              "internalType": "uint256",
              "name": "fileSize",
              "type": "uint256"
            },
            {
              "internalType": "uint256",
              "name": "createdAt",
              "type": "uint256"
            }
          ],
          "internalType": "struct LicenseMarketplace.File[]",
          "name": "",
          "type": "tuple[]"
        }
      ],
      "stateMutability": "view",
      "type": "function"
    },
    {
      "inputs": [],
      "name": "getUserLicenseRequests",
      "outputs": [
        {
          "components": [
            {
              "internalType": "uint256",
              "name": "requestId",
              "type": "uint256"
            },
            {
              "internalType": "uint256",
              "name": "fileId",
              "type": "uint256"
            },
            {
              "internalType": "address",
              "name": "requester",
              "type": "address"
            },
            {
              "internalType": "address",
              "name": "fileOwner",
              "type": "address"
            },
            {
              "internalType": "bool",
              "name": "isApproved",
              "type": "bool"
            }
          ],
          "internalType": "struct LicenseMarketplace.LicenseRequest[]",
          "name": "",
          "type": "tuple[]"
        }
      ],
      "stateMutability": "view",
      "type": "function"
    },
    {
      "inputs": [
        {
          "internalType": "address",
          "name": "_user",
          "type": "address"
        },
        {
          "internalType": "uint256",
          "name": "_fileId",
          "type": "uint256"
        }
      ],
      "name": "isFileOwnedOrLicensed",
      "outputs": [
        {
          "internalType": "bool",
          "name": "",
          "type": "bool"
        }
      ],
      "stateMutability": "view",
      "type": "function"
    },
    {
      "inputs": [],
      "name": "owner",
      "outputs": [
        {
          "internalType": "address",
          "name": "",
          "type": "address"
        }
      ],
      "stateMutability": "view",
      "type": "function"
    },
    {
      "inputs": [
        {
          "internalType": "uint256",
          "name": "",
          "type": "uint256"
        }
      ],
      "name": "publicFiles",
      "outputs": [
        {
          "internalType": "uint256",
          "name": "id",
          "type": "uint256"
        },
        {
          "internalType": "address",
          "name": "fileOwner",
          "type": "address"
        },
        {
          "internalType": "string",
          "name": "fileName",
          "type": "string"
        },
        {
          "internalType": "string",
          "name": "description",
          "type": "string"
        },
        {
          "internalType": "string",
          "name": "category",
          "type": "string"
        },
        {
          "internalType": "string",
          "name": "fileCid",
          "type": "string"
        },
        {
          "internalType": "string",
          "name": "imgUrl",
          "type": "string"
        },
        {
          "internalType": "uint256",
          "name": "fileSize",
          "type": "uint256"
        },
        {
          "internalType": "uint256",
          "name": "createdAt",
          "type": "uint256"
        }
      ],
      "stateMutability": "view",
      "type": "function"
    },
    {
      "inputs": [
        {
          "internalType": "uint256",
          "name": "_requestId",
          "type": "uint256"
        }
      ],
      "name": "rejectLicenseRequest",
      "outputs": [],
      "stateMutability": "nonpayable",
      "type": "function"
    },
    {
      "inputs": [],
      "name": "requestId",
      "outputs": [
        {
          "internalType": "uint256",
          "name": "",
          "type": "uint256"
        }
      ],
      "stateMutability": "view",
      "type": "function"
    },
    {
      "inputs": [
        {
          "internalType": "uint256",
          "name": "_fileId",
          "type": "uint256"
        },
        {
          "internalType": "address",
          "name": "_fileOwner",
          "type": "address"
        }
      ],
      "name": "requestLicense",
      "outputs": [],
      "stateMutability": "nonpayable",
      "type": "function"
    },
    {
      "inputs": [
        {
          "internalType": "uint256",
          "name": "",
          "type": "uint256"
        }
      ],
      "name": "usedLicenses",
      "outputs": [
        {
          "internalType": "bool",
          "name": "",
          "type": "bool"
        }
      ],
      "stateMutability": "view",
      "type": "function"
    },
    {
      "inputs": [
        {
          "internalType": "uint256",
          "name": "licenseNumber",
          "type": "uint256"
        }
      ],
      "name": "validateLicense",
      "outputs": [
        {
          "internalType": "bool",
          "name": "",
          "type": "bool"
        }
      ],
      "stateMutability": "view",
      "type": "function"
    }
  ],
  "bytecode": "0x608060405234801561001057600080fd5b50600080546001600160a01b03191633179055612da9806100326000396000f3fe608060405234801561001057600080fd5b50600436106101205760003560e01c80638da5cb5b116100ad578063b98e644d11610071578063b98e644d14610286578063c3ba2cd91461029b578063db58b57f146102a3578063e399e268146102b6578063e90b39ec146102cb57600080fd5b80638da5cb5b1461021a57806395d892a114610245578063a6b9bcf614610258578063a764b9cd14610260578063b448bb2d1461027357600080fd5b806340187599116100f4578063401875991461018b5780634506708e146101935780635f70a8fe146101bb578063641b66e4146101ee578063787a37b9146101f757600080fd5b80626d6cae146101255780630cc6f1a2146101415780631b4a422c1461016157806337ef944014610176575b600080fd5b61012e60075481565b6040519081526020015b60405180910390f35b61015461014f3660046125c4565b6102d3565b60405161013891906126e7565b61017461016f3660046127a4565b61070d565b005b61017e6109a0565b604051610138919061287e565b61012e610b44565b6101a66101a13660046125c4565b610b5a565b604051610138999897969594939291906128fc565b6101de6101c93660046125c4565b60009081526004602052604090205460ff1690565b6040519015158152602001610138565b61012e60065481565b6101de6102053660046125c4565b60046020526000908152604090205460ff1681565b60005461022d906001600160a01b031681565b6040516001600160a01b039091168152602001610138565b6101746102533660046129ad565b610e67565b61017e610fd1565b61017461026e3660046125c4565b61116e565b6101746102813660046125c4565b611497565b61028e61160a565b60405161013891906129d9565b61028e611978565b6101de6102b1366004612a3d565b611ce8565b6102be611de8565b6040516101389190612a67565b61028e612173565b61032b6040518061012001604052806000815260200160006001600160a01b03168152602001606081526020016060815260200160608152602001606081526020016060815260200160008152602001600081525090565b60005b6005548110156106c757826005828154811061034c5761034c612b9b565b906000526020600020906009020160000154036106bf576005818154811061037657610376612b9b565b906000526020600020906009020160405180610120016040529081600082015481526020016001820160009054906101000a90046001600160a01b03166001600160a01b03166001600160a01b031681526020016002820180546103d990612bb1565b80601f016020809104026020016040519081016040528092919081815260200182805461040590612bb1565b80156104525780601f1061042757610100808354040283529160200191610452565b820191906000526020600020905b81548152906001019060200180831161043557829003601f168201915b5050505050815260200160038201805461046b90612bb1565b80601f016020809104026020016040519081016040528092919081815260200182805461049790612bb1565b80156104e45780601f106104b9576101008083540402835291602001916104e4565b820191906000526020600020905b8154815290600101906020018083116104c757829003601f168201915b505050505081526020016004820180546104fd90612bb1565b80601f016020809104026020016040519081016040528092919081815260200182805461052990612bb1565b80156105765780601f1061054b57610100808354040283529160200191610576565b820191906000526020600020905b81548152906001019060200180831161055957829003601f168201915b5050505050815260200160058201805461058f90612bb1565b80601f01602080910402602001604051908101604052809291908181526020018280546105bb90612bb1565b80156106085780601f106105dd57610100808354040283529160200191610608565b820191906000526020600020905b8154815290600101906020018083116105eb57829003601f168201915b5050505050815260200160068201805461062190612bb1565b80601f016020809104026020016040519081016040528092919081815260200182805461064d90612bb1565b801561069a5780601f1061066f5761010080835404028352916020019161069a565b820191906000526020600020905b81548152906001019060200180831161067d57829003601f168201915b5050505050815260200160078201548152602001600882015481525050915050919050565b60010161032e565b5060405162461bcd60e51b8152602060048201526015602482015274141d589b1a58c8199a5b19481b9bdd08199bdd5b99605a1b60448201526064015b60405180910390fd5b6006805490600061071d83612c01565b9091555050604080516101208101825260065481523360208083018281528385018b8152606085018b9052608085018a905260a0850189905260c0850187905260e085018890524261010086015260009384526001808452958420805480880182559085529290932084516009909302019182555193810180546001600160a01b0319166001600160a01b0390951694909417909355519091829160028201906107c79082612c6b565b50606082015160038201906107dc9082612c6b565b50608082015160048201906107f19082612c6b565b5060a082015160058201906108069082612c6b565b5060c0820151600682019061081b9082612c6b565b5060e08201516007820155610100909101516008909101556005805460018101825560009190915281517f036b6384b5eca791c62761152d0c79bb0604c104a5fb6f4eb0703f3154bb3db0600990920291820190815560208301517f036b6384b5eca791c62761152d0c79bb0604c104a5fb6f4eb0703f3154bb3db1830180546001600160a01b0319166001600160a01b03909216919091179055604083015183927f036b6384b5eca791c62761152d0c79bb0604c104a5fb6f4eb0703f3154bb3db201906108ea9082612c6b565b50606082015160038201906108ff9082612c6b565b50608082015160048201906109149082612c6b565b5060a082015160058201906109299082612c6b565b5060c0820151600682019061093e9082612c6b565b5060e0820151816007015561010082015181600801555050336001600160a01b03167f0e03c7e37ad39057585e52c6e4f117a61225036a88a2ada7f870a6b994a1bc218860405161098f9190612d2b565b60405180910390a250505050505050565b6060600060015b60075481116109f357600081815260036020526040902060020154336001600160a01b03909116036109e157816109dd81612c01565b9250505b806109eb81612c01565b9150506109a7565b5060008167ffffffffffffffff811115610a0f57610a0f612701565b604051908082528060200260200182016040528015610a6857816020015b6040805160a081018252600080825260208083018290529282018190526060820181905260808201528252600019909201910181610a2d5790505b509050600060015b6007548111610b3b57600081815260036020526040902060020154336001600160a01b0390911603610b2957600081815260036020818152604092839020835160a0810185528154815260018201549281019290925260028101546001600160a01b0390811694830194909452909101549182166060820152600160a01b90910460ff16151560808201528351849084908110610b0f57610b0f612b9b565b60200260200101819052508180610b2590612c01565b9250505b80610b3381612c01565b915050610a70565b50909392505050565b60006006546001610b559190612d3e565b905090565b60058181548110610b6a57600080fd5b60009182526020909120600990910201805460018201546002830180549294506001600160a01b039091169291610ba090612bb1565b80601f0160208091040260200160405190810160405280929190818152602001828054610bcc90612bb1565b8015610c195780601f10610bee57610100808354040283529160200191610c19565b820191906000526020600020905b815481529060010190602001808311610bfc57829003601f168201915b505050505090806003018054610c2e90612bb1565b80601f0160208091040260200160405190810160405280929190818152602001828054610c5a90612bb1565b8015610ca75780601f10610c7c57610100808354040283529160200191610ca7565b820191906000526020600020905b815481529060010190602001808311610c8a57829003601f168201915b505050505090806004018054610cbc90612bb1565b80601f0160208091040260200160405190810160405280929190818152602001828054610ce890612bb1565b8015610d355780601f10610d0a57610100808354040283529160200191610d35565b820191906000526020600020905b815481529060010190602001808311610d1857829003601f168201915b505050505090806005018054610d4a90612bb1565b80601f0160208091040260200160405190810160405280929190818152602001828054610d7690612bb1565b8015610dc35780601f10610d9857610100808354040283529160200191610dc3565b820191906000526020600020905b815481529060010190602001808311610da657829003601f168201915b505050505090806006018054610dd890612bb1565b80601f0160208091040260200160405190810160405280929190818152602001828054610e0490612bb1565b8015610e515780601f10610e2657610100808354040283529160200191610e51565b820191906000526020600020905b815481529060010190602001808311610e3457829003601f168201915b5050505050908060070154908060080154905089565b610e713383611ce8565b15610ed75760405162461bcd60e51b815260206004820152603060248201527f5573657220616c7265616479206f776e73206f72206861732061206c6963656e60448201526f736520666f7220746869732066696c6560801b6064820152608401610704565b60078054906000610ee783612c01565b90915550506040805160a081018252600780548083526020808401878152338587018181526001600160a01b038981166060808a01828152600060808c018181529981526003808a52908d90208c5181559751600189015594516002880180549186166001600160a01b03199092169190911790555195909301805497511515600160a01b026001600160a81b0319909816959092169490941795909517909455935486518981529283019490945294810194909452919290917f3563c2ab88374e4253e716e489b51ed99c61edfecc313080b65cb94efb16b3aa910160405180910390a2505050565b6060600060015b60075481116110255760008181526003602081905260409091200154336001600160a01b0390911603611013578161100f81612c01565b9250505b8061101d81612c01565b915050610fd8565b5060008167ffffffffffffffff81111561104157611041612701565b60405190808252806020026020018201604052801561109a57816020015b6040805160a08101825260008082526020808301829052928201819052606082018190526080820152825260001990920191018161105f5790505b509050600060015b6007548111610b3b5760008181526003602081905260409091200154336001600160a01b039091160361115c57600081815260036020818152604092839020835160a0810185528154815260018201549281019290925260028101546001600160a01b0390811694830194909452909101549182166060820152600160a01b90910460ff1615156080820152835184908490811061114257611142612b9b565b6020026020010181905250818061115890612c01565b9250505b8061116681612c01565b9150506110a2565b6000818152600360208190526040909120908101546001600160a01b031633146111ee5760405162461bcd60e51b815260206004820152602b60248201527f4f6e6c79207468652066696c65206f776e65722063616e20617070726f76652060448201526a1d1a19481c995c5d595cdd60aa1b6064820152608401610704565b6003810154600160a01b900460ff16156112455760405162461bcd60e51b815260206004820152601860248201527714995c5d595cdd08185b1c9958591e48185c1c1c9bdd995960421b6044820152606401610704565b60038101805460ff60a01b1916600160a01b179055600181015460009061126b906102d3565b905060006112776124d8565b604080516101608101825282815284516020808301918252808701516001600160a01b0390811684860190815260028a810154831660608088018281528c8a01516080808b01918252928e015160a0808c0191909152928e015160c0808c0191909152928e015160e0808c0191909152928e01516101008b0152918d01516101208a0152426101408a01526000928352838752988220805460018082018355918452969092208851600b90970201958655955190850155905190830180546001600160a01b03199081169284169290921790559451600383018054909616911617909355519293509182919060048201906113729082612c6b565b5060a082015160058201906113879082612c6b565b5060c0820151600682019061139c9082612c6b565b5060e082015160078201906113b19082612c6b565b5061010082015160088201906113c79082612c6b565b50610120820151600982015561014090910151600a909101556002840154602084015160408086015190516001600160a01b0393841693909216917f36b71a34b45297c2eddbb6d8a95b9703618f6300d0676fa891c58bcdaa90dbb39161142d91612d2b565b60405180910390a3600184015460028501546003860154604080519384526001600160a01b03928316602085015291169082015285907f6e12100d9a45da1a9e96a9fc000ff4db7bfc27cc43fdf07dab275b581483fb499060600160405180910390a25050505050565b6000818152600360208190526040909120908101546001600160a01b031633146115165760405162461bcd60e51b815260206004820152602a60248201527f4f6e6c79207468652066696c65206f776e65722063616e2072656a65637420746044820152691a19481c995c5d595cdd60b21b6064820152608401610704565b6003810154600160a01b900460ff161561156d5760405162461bcd60e51b815260206004820152601860248201527714995c5d595cdd08185b1c9958591e48185c1c1c9bdd995960421b6044820152606401610704565b6000828152600360208181526040808420848155600180820195909555600280820180546001600160a01b031916905590840180546001600160a81b031916905593850154938501549285015481519485526001600160a01b039384169285019290925291169082015282907f23bc048e2726b66e4b6df842e8940378c39ead4ceeeabbbe237bd71caf10603b9060600160405180910390a25050565b60606005805480602002602001604051908101604052809291908181526020016000905b8282101561196f5760008481526020908190206040805161012081018252600986029092018054835260018101546001600160a01b0316938301939093526002830180549293929184019161168290612bb1565b80601f01602080910402602001604051908101604052809291908181526020018280546116ae90612bb1565b80156116fb5780601f106116d0576101008083540402835291602001916116fb565b820191906000526020600020905b8154815290600101906020018083116116de57829003601f168201915b5050505050815260200160038201805461171490612bb1565b80601f016020809104026020016040519081016040528092919081815260200182805461174090612bb1565b801561178d5780601f106117625761010080835404028352916020019161178d565b820191906000526020600020905b81548152906001019060200180831161177057829003601f168201915b505050505081526020016004820180546117a690612bb1565b80601f01602080910402602001604051908101604052809291908181526020018280546117d290612bb1565b801561181f5780601f106117f45761010080835404028352916020019161181f565b820191906000526020600020905b81548152906001019060200180831161180257829003601f168201915b5050505050815260200160058201805461183890612bb1565b80601f016020809104026020016040519081016040528092919081815260200182805461186490612bb1565b80156118b15780601f10611886576101008083540402835291602001916118b1565b820191906000526020600020905b81548152906001019060200180831161189457829003601f168201915b505050505081526020016006820180546118ca90612bb1565b80601f01602080910402602001604051908101604052809291908181526020018280546118f690612bb1565b80156119435780601f1061191857610100808354040283529160200191611943565b820191906000526020600020905b81548152906001019060200180831161192657829003601f168201915b50505050508152602001600782015481526020016008820154815250508152602001906001019061162e565b50505050905090565b336000908152600160209081526040808320805482518185028101850190935280835260609492939192909184015b8282101561196f5760008481526020908190206040805161012081018252600986029092018054835260018101546001600160a01b031693830193909352600283018054929392918401916119fb90612bb1565b80601f0160208091040260200160405190810160405280929190818152602001828054611a2790612bb1565b8015611a745780601f10611a4957610100808354040283529160200191611a74565b820191906000526020600020905b815481529060010190602001808311611a5757829003601f168201915b50505050508152602001600382018054611a8d90612bb1565b80601f0160208091040260200160405190810160405280929190818152602001828054611ab990612bb1565b8015611b065780601f10611adb57610100808354040283529160200191611b06565b820191906000526020600020905b815481529060010190602001808311611ae957829003601f168201915b50505050508152602001600482018054611b1f90612bb1565b80601f0160208091040260200160405190810160405280929190818152602001828054611b4b90612bb1565b8015611b985780601f10611b6d57610100808354040283529160200191611b98565b820191906000526020600020905b815481529060010190602001808311611b7b57829003601f168201915b50505050508152602001600582018054611bb190612bb1565b80601f0160208091040260200160405190810160405280929190818152602001828054611bdd90612bb1565b8015611c2a5780601f10611bff57610100808354040283529160200191611c2a565b820191906000526020600020905b815481529060010190602001808311611c0d57829003601f168201915b50505050508152602001600682018054611c4390612bb1565b80601f0160208091040260200160405190810160405280929190818152602001828054611c6f90612bb1565b8015611cbc5780601f10611c9157610100808354040283529160200191611cbc565b820191906000526020600020905b815481529060010190602001808311611c9f57829003601f168201915b5050505050815260200160078201548152602001600882015481525050815260200190600101906119a7565b6000805b6001600160a01b038416600090815260016020526040902054811015611d62576001600160a01b0384166000908152600160205260409020805484919083908110611d3957611d39612b9b565b90600052602060002090600902016000015403611d5a576001915050611de2565b600101611cec565b5060005b6001600160a01b038416600090815260026020526040902054811015611ddc576001600160a01b0384166000908152600260205260409020805484919083908110611db357611db3612b9b565b90600052602060002090600b02016001015403611dd4576001915050611de2565b600101611d66565b50600090505b92915050565b336000908152600260209081526040808320805482518185028101850190935280835260609492939192909184015b8282101561196f5760008481526020908190206040805161016081018252600b86029092018054835260018101549383019390935260028301546001600160a01b03908116918301919091526003830154166060820152600482018054919291608084019190611e8690612bb1565b80601f0160208091040260200160405190810160405280929190818152602001828054611eb290612bb1565b8015611eff5780601f10611ed457610100808354040283529160200191611eff565b820191906000526020600020905b815481529060010190602001808311611ee257829003601f168201915b50505050508152602001600582018054611f1890612bb1565b80601f0160208091040260200160405190810160405280929190818152602001828054611f4490612bb1565b8015611f915780601f10611f6657610100808354040283529160200191611f91565b820191906000526020600020905b815481529060010190602001808311611f7457829003601f168201915b50505050508152602001600682018054611faa90612bb1565b80601f0160208091040260200160405190810160405280929190818152602001828054611fd690612bb1565b80156120235780601f10611ff857610100808354040283529160200191612023565b820191906000526020600020905b81548152906001019060200180831161200657829003601f168201915b5050505050815260200160078201805461203c90612bb1565b80601f016020809104026020016040519081016040528092919081815260200182805461206890612bb1565b80156120b55780601f1061208a576101008083540402835291602001916120b5565b820191906000526020600020905b81548152906001019060200180831161209857829003601f168201915b505050505081526020016008820180546120ce90612bb1565b80601f01602080910402602001604051908101604052809291908181526020018280546120fa90612bb1565b80156121475780601f1061211c57610100808354040283529160200191612147565b820191906000526020600020905b81548152906001019060200180831161212a57829003601f168201915b5050505050815260200160098201548152602001600a8201548152505081526020019060010190611e17565b60606005805480602002602001604051908101604052809291908181526020016000905b8282101561196f5760008481526020908190206040805161012081018252600986029092018054835260018101546001600160a01b031693830193909352600283018054929392918401916121eb90612bb1565b80601f016020809104026020016040519081016040528092919081815260200182805461221790612bb1565b80156122645780601f1061223957610100808354040283529160200191612264565b820191906000526020600020905b81548152906001019060200180831161224757829003601f168201915b5050505050815260200160038201805461227d90612bb1565b80601f01602080910402602001604051908101604052809291908181526020018280546122a990612bb1565b80156122f65780601f106122cb576101008083540402835291602001916122f6565b820191906000526020600020905b8154815290600101906020018083116122d957829003601f168201915b5050505050815260200160048201805461230f90612bb1565b80601f016020809104026020016040519081016040528092919081815260200182805461233b90612bb1565b80156123885780601f1061235d57610100808354040283529160200191612388565b820191906000526020600020905b81548152906001019060200180831161236b57829003601f168201915b505050505081526020016005820180546123a190612bb1565b80601f01602080910402602001604051908101604052809291908181526020018280546123cd90612bb1565b801561241a5780601f106123ef5761010080835404028352916020019161241a565b820191906000526020600020905b8154815290600101906020018083116123fd57829003601f168201915b5050505050815260200160068201805461243390612bb1565b80601f016020809104026020016040519081016040528092919081815260200182805461245f90612bb1565b80156124ac5780601f10612481576101008083540402835291602001916124ac565b820191906000526020600020905b81548152906001019060200180831161248f57829003601f168201915b505050505081526020016007820154815260200160088201548152505081526020019060010190612197565b6000804243403360405160200161251493929190928352602083019190915260601b6bffffffffffffffffffffffff1916604082015260540190565b60408051601f1981840301815291905280516020909101209050600061253f6402540be40083612d51565b90505b60008181526004602052604090205460ff16156125a5578142604051602001612575929190918252602082015260400190565b60408051601f198184030181529190528051602090910120915061259e6402540be40083612d51565b9050612542565b6000818152600460205260409020805460ff1916600117905592915050565b6000602082840312156125d657600080fd5b5035919050565b6000815180845260005b81811015612603576020818501810151868301820152016125e7565b506000602082860101526020601f19601f83011685010191505092915050565b600061012082518452602083015161264660208601826001600160a01b03169052565b50604083015181604086015261265e828601826125dd565b9150506060830151848203606086015261267882826125dd565b9150506080830151848203608086015261269282826125dd565b91505060a083015184820360a08601526126ac82826125dd565b91505060c083015184820360c08601526126c682826125dd565b60e08581015190870152610100948501519490950193909352509192915050565b6020815260006126fa6020830184612623565b9392505050565b634e487b7160e01b600052604160045260246000fd5b600082601f83011261272857600080fd5b813567ffffffffffffffff8082111561274357612743612701565b604051601f8301601f19908116603f0116810190828211818310171561276b5761276b612701565b8160405283815286602085880101111561278457600080fd5b836020870160208301376000602085830101528094505050505092915050565b60008060008060008060c087890312156127bd57600080fd5b863567ffffffffffffffff808211156127d557600080fd5b6127e18a838b01612717565b975060208901359150808211156127f757600080fd5b6128038a838b01612717565b9650604089013591508082111561281957600080fd5b6128258a838b01612717565b9550606089013591508082111561283b57600080fd5b6128478a838b01612717565b94506080890135935060a089013591508082111561286457600080fd5b5061287189828a01612717565b9150509295509295509295565b602080825282518282018190526000919060409081850190868401855b828110156128ef578151805185528681015187860152858101516001600160a01b03908116878701526060808301519091169086015260809081015115159085015260a0909301929085019060010161289b565b5091979650505050505050565b8981526001600160a01b0389166020820152610120604082018190526000906129278382018b6125dd565b9050828103606084015261293b818a6125dd565b9050828103608084015261294f81896125dd565b905082810360a084015261296381886125dd565b905082810360c084015261297781876125dd565b60e084019590955250506101000152979650505050505050565b80356001600160a01b03811681146129a857600080fd5b919050565b600080604083850312156129c057600080fd5b823591506129d060208401612991565b90509250929050565b600060208083016020845280855180835260408601915060408160051b87010192506020870160005b82811015612a3057603f19888603018452612a1e858351612623565b94509285019290850190600101612a02565b5092979650505050505050565b60008060408385031215612a5057600080fd5b612a5983612991565b946020939093013593505050565b600060208083018184528085518083526040925060408601915060408160051b87010184880160005b83811015612b8d57888303603f190185528151805184528781015188850152868101516001600160a01b0381168886015261016090506060828101516001600160a01b0381168783015250506080808301518282880152612af3838801826125dd565b9250505060a08083015186830382880152612b0e83826125dd565b9250505060c08083015186830382880152612b2983826125dd565b9250505060e08083015186830382880152612b4483826125dd565b925050506101008083015186830382880152612b6083826125dd565b61012085810151908901526101409485015194909701939093525050509386019390860190600101612a90565b509098975050505050505050565b634e487b7160e01b600052603260045260246000fd5b600181811c90821680612bc557607f821691505b602082108103612be557634e487b7160e01b600052602260045260246000fd5b50919050565b634e487b7160e01b600052601160045260246000fd5b600060018201612c1357612c13612beb565b5060010190565b601f821115612c66576000816000526020600020601f850160051c81016020861015612c435750805b601f850160051c820191505b81811015612c6257828155600101612c4f565b5050505b505050565b815167ffffffffffffffff811115612c8557612c85612701565b612c9981612c938454612bb1565b84612c1a565b602080601f831160018114612cce5760008415612cb65750858301515b600019600386901b1c1916600185901b178555612c62565b600085815260208120601f198616915b82811015612cfd57888601518255948401946001909101908401612cde565b5085821015612d1b5787850151600019600388901b60f8161c191681555b5050505050600190811b01905550565b6020815260006126fa60208301846125dd565b80820180821115611de257611de2612beb565b600082612d6e57634e487b7160e01b600052601260045260246000fd5b50069056fea2646970667358221220f0424732f1ac221a69d86d94ef1cf5c1b92648daff6f2c2aff6d1f5309190b0764736f6c63430008180033",
  "linkReferences": {},
  "deployedLinkReferences": {}
}